:030000000212B930
:0C12B900787FE4F6D8FD75811A020D2143
:1008FB005A484F4E474A494E475955414E003230A0
:10090B0031342F30352F30310041534349493A00B0
:10091B00434F44453A000003050911FF118905C3F4
:10092B0000E000F000F8000000000000004428FF89
:10093B0011AA4400000000000000000000000000AD
:10094B00000000000000000000000000000000009C
:10095B00000000000000000000000000000000008C
:10096B00000000000000000000000000000000007C
:10097B0083013844829292740183000000000000CE
:10098B00007C44FF017D7D7D017D7D7D7D017D7D35
:10099B007D7D7D01FF0000000000000100010001D2
:1009AB000001000100010000000000000000000138
:1009BB00010000000000000000000000000000002B
:1009CB00000000000000000000000000000000001C
:1009DB00000000000000000000000000000000000C
:1009EB0000000000000000000000000000000000FC
:1009FB0001010000000000000101000000000000E8
:100A0B0000000001010101010101010101010101CE
:100A1B0001010101010000000000000000000000C6
:100A2B0000000000000000000000000000000000BB
:100A3B0000003F3F0303F31311111111111101F1C9
:100A4B00116181010101816111F10101010141413B
:100A5B00F10101010101C1211111111121C101018B
:100A6B0001014141F10101010101010101010111EB
:100A7B0011111111D33303033F3F0000000000009D
:100A8B00000000000000000000000000000000005B
:100A9B00000000000000000000000000000000004B
:100AAB00000000000000000000000000000000003B
:100ABB000000E0E000007F01010101010100007F67
:100ACB000000010618060100007F000000004040F6
:100ADB007F40400000001F2040404040201F00008E
:100AEB00000040407F40400000000060000000001C
:100AFB0040300C0300000000E0E0000000000000AC
:100B0B0000000000000000000000000000000000DA
:100B1B0000000000000000000000000000000000CA
:100B2B0000000000000000000000000000000000BA
:100B3B0000000707060606060404048444444484A4
:100B4B000404844444448404040484C4040404045A
:100B5B0084444444840404040404844444448404CA
:100B6B0004040404844444448404048444444484BA
:100B7B000404040406060606070700000000000034
:100B8B00000000000000000000000000000000005A
:100B9B00000000000000000000000000000000004A
:100BAB00000000000000000000000000000000003A
:100BBB0000000000000000000000001018141211CB
:100BCB0000000F1010100F000000101F100000008D
:100BDB00081012120D00001800000D1212120D0059
:100BEB000018000010181412110000101814121124
:100BFB0000000000000000000000000000000000EA
:100C0B0000000000000000000000000000000000D9
:100C1B0000000000000000000000000000000000C9
:100C2B0000000000000000000000000000000000B9
:100C3B0000000000000000000000000000000000A9
:100C4B000000000000000000000000000000000099
:100C5B000000808080808080808000000000000089
:100C6B000000000000000000000000000000000079
:100C7B000000000000000000000000000000000069
:100C8B000000000000000000000000000000000059
:100C9B00000000000000007F030C300C037F0000FD
:100CAB003854545800007C04047800003C40407CCD
:100CBB000000000000000000000000000000000029
:100CCB000000000000000000000000000000000019
:100CDB000000FFAAAAAA280800FF000000000000DD
:100CEB0000000000000000000000000000000000F9
:100CFB000000000000000000000000000000007F6A
:100D0B00030C300C037F0000264949493200007F59
:060D1B00020408107F0035
:100D2100750820120ECDE4FF121266E4FF1211E0E5
:100D3100750C40750DFF750E09750F217B80E4FD63
:100D4100FF1210F97FF47E0112124C121207750C7A
:100D510010E4FBFDFF121088750C107B01E4FD7F90
:100D610012121088750C107B02E4FD7F241210888A
:100D7100750C107B03E4FD7F36121088750C107B17
:100D810004E4FD7F48121088750C107B05E4FD7F9B
:100D91005A121088750C107B06E4FD7F6C121088C6
:100DA1007BFF7A0879FB750E107D027F0812115EB8
:100DB1007BFF7A097909750E107D047F1412115E8B
:100DC1007BFF7A097914750E107D06E4FF12115E1E
:100DD1007BFF7A09791B750E107D067F3F12115E2C
:100DE100751610AB087D067F30120E180508E50850
:100DF100D3947E4003750820E508FB7A00750D0346
:100E0100750E107D067F67120FFF7FF47E011212AF
:070E11004C121207020D3123
:100003000000000000000000002F000000000700B7
:10001300070000147F147F1400242A7F2A12006231
:1000230064081323003649552250000005030000DD
:1000330000001C224100000041221C000014083E65
:1000430008140008083E0808000000A0600000082B
:10005300080808080000606000000020100804027F
:10006300003E5149453E0000427F4000004261513D
:100073004946002141454B31001814127F100027D7
:1000830045454539003C4A4949300001710905039A
:1000930000364949493600064949291E00003636CB
:1000A300000000005636000000081422410000142E
:1000B300141414140000412214080002015109060B
:1000C30000324959513E007C1211127C007F49498C
:1000D3004936003E41414122007F4141221C007FBD
:1000E30049494941007F09090901003E4149497ACB
:1000F300007F0808087F0000417F41000020404145
:100103003F01007F08142241007F40404040007FB0
:10011300020C027F007F0408107F003E4141413EF4
:10012300007F09090906003E4151215E007F09193C
:1001330029460046494949310001017F0101003F39
:100143004040403F001F2040201F003F4038403FB9
:10015300006314081463000708700807006151491D
:10016300454300007F41410000552A552A550000B0
:1001730041417F000004020102040040404040402E
:10018300000001020400002054545478007F4844C6
:10019300443800384444442000384444487F0038FD
:1001A3005454541800087E0901020018A4A4A47C26
:1001B300007F080404780000447D400000408084F0
:1001C3007D00007F102844000000417F4000007C38
:1001D30004180478007C0804047800384444443844
:1001E30000FC242424180018242418FC007C080490
:1001F300040800485454542000043F444020003C69
:100203004040207C001C2040201C003C4030403CEF
:10021300004428102844001CA0A0A07C004464547F
:100223004C441414141414140000000000000000C3
:100233000000000000000000000000F800000000C3
:10024300000000333000000000100C06100C060004
:10025300000000000000000040C07840C07840006B
:10026300043F04043F040400007088FC08300000CD
:10027300001820FF211E0000F008F000E018000025
:1002830000211C031E211E0000F0088870000000DE
:100293001E2123241927211010160E000000000030
:1002A3000000000000000000000000E0180402004D
:1002B300000000071820400000020418E0000000BE
:1002C3000040201807000000404080F080404000BC
:1002D3000202010F01020200000000F00000000012
:1002E3000101011F010101000000000000000000E6
:1002F30080B070000000000000000000000000005B
:1003030000010101010101010000000000000000E3
:10031300003030000000000000000000806018047E
:10032300006018060100000000E010080810E0005B
:10033300000F102020100F00001010F80000000024
:100343000020203F2020000000700808088870006B
:1003530000302824222130000030088888483000EB
:100363000018202020110E000000C02010F800000B
:1003730000070424243F240000F8088888080800A4
:100383000019212020110E0000E0108888180000B9
:10039300000F112020110E0000380808C83808008B
:1003A3000000003F0000000000708808088870000B
:1003B300001C222121221C0000E010080810E0008C
:1003C3000000312222110F00000000C0C000000015
:1003D300000000303000000000000080000000003A
:1003E3000000806000000000000080402010080032
:1003F30000010204081020004040404040404000FB
:1004030004040404040404000008102040800000D5
:100413000020100804020100007048080808F000DA
:100423000000003036010000C030C828E810E000AA
:100433000718272423140B000000C038E000000035
:10044300203C23020227382008F88888887000009F
:10045300203F202020110E00C03008080808380073
:10046300071820202010080008F808080810E000EA
:10047300203F202020100F0008F88888E80810008B
:10048300203F20202320180008F88888E80810005F
:10049300203F200003000000C03008080838000097
:1004A30007182020221E020008F808000008F80898
:1004B300203F210101213F20000808F8080800001F
:1004C3000020203F2020000000000808F808080052
:1004D300C08080807F00000008F888C028180800CA
:1004E300203F20012638200008F808000000000003
:1004F300203F20202020300008F8F800F8F80800FA
:10050300203F003F003F200008F830C00008F808F3
:10051300203F200007183F00E01008080810E00003
:100523000F10202020100F0008F808080808F0001A
:10053300203F210101010000E01008080810E0003D
:100543000F18242438504F0008F8888888887000D2
:10055300203F2000030C3020007088080808380072
:100563000038202121221C00180808F80808180068
:100573000000203F2000000008F808000008F808E9
:10058300001F202020201F000878880000C838089A
:10059300000007380E010000F80800F80008F80012
:1005A300033C0700073C03000818688080681808AC
:1005B30020302C03032C30200838C800C83808002A
:1005C3000000203F2000000010080808C838080079
:1005D3002038262120201800000000FE020202001D
:1005E3000000007F40404000000C30C000000000CD
:1005F300000000010638C00000020202FE000000F5
:10060300004040407F00000000000402020204009A
:1006130000000000000000000000000000000000D7
:1006230080808080808080800002020400000000BF
:1006330000000000000000000000808080800000B7
:100643000019242222223F2008F8008080000000A5
:10065300003F112020110E00000000808080000068
:10066300000E112020201100000000808088F80077
:10067300000E112020103F200000808080800000A9
:10068300001F222222221300008080F0888888180D
:100693000020203F20200000000080808080800018
:1006A300006B94949493600008F8008080800000AD
:1006B300203F210000203F20008098980000000088
:1006C3000020203F202000000000008098980000B8
:1006D30000C08080807F000008F8000080808000D8
:1006E300203F24022D302000000808F800000000FD
:1006F3000020203F202000008080808080808000B8
:10070300203F20003F20003F808000808080000049
:10071300203F210000203F200000808080800000D7
:10072300001F202020201F00808000808000000008
:1007330080FFA12020110E00000000808080800037
:10074300000E112020A0FF80808080008080800028
:1007530020203F2120000100000080808080800055
:100763000033242424241900008080E080800000CA
:100773000000001F20200000808000000080800017
:10078300001F202020103F20808080000080808078
:1007930000010E3008060100808000800080808008
:1007A3000F300C030C300F0000808000808080002D
:1007B3000020312E0E312000808080000080808058
:1007C30080818E7018060100008080808080800008
:1007D3000021302C2221300000000000807C020226
:1007E30000000000003F404000000000FF00000048
:1007F30000000000FF0000000002027C80000000F7
:100803000040403F00000000000601010202040412
:1008130000000000000000000000F010101010FFA6
:1008230010101010F000000000000F04040404FF77
:10083300040404040F0000004040405F5555557503
:100843005555555F404040000040200F09498979C4
:100853000909090F2040000000FE02424ACA4A4A21
:10086300CA4A4A4202FE000000FF40504C43404047
:100873004F50505C40FF00000000F888888888FFD4
:1008830088888888F800000000001F080808087F8F
:10089300888888889F80F00080828282828282E2B8
:1008A300A2928A8682808000000000000040807F40
:1008B3000000000000000000101010FF10900888D6
:1008C3008888FF88888808000444827F01808040EC
:1008D300432C1028468180000010101010D030FFE8
:1008E30030D0121C1010000010080402010000FF99
:0808F3000000010204081000DE
:10124C00EF4E60157D087C07ED1DAA0470011C4A49
:09125C0070F6EF1F70EA1E80E736
:011265002266
:101266008F09E5097006FD7FA61211B8E509B401DC
:0912760007E4FD7FA71211B82264
:1011E0008F09E509700DFD7FC81211B8E4FD7FA1DC
:1011F0001211B8E509B4010EE4FD7FC01211B8E484
:07120000FD7FA01211B822CE
:1011A700F583E5822BF582E5833AF583E493FF7DAA
:0111B7000136
:1011B800ED6004D2938002C293C294E4FEC290EF21
:1011C80030E704D2918002C291D290EF25E0FF0E61
:0711D800BE08EAD294D29395
:0111DF0022ED
:10122E00AC07ED24B0FFE4FD1211B8EC54F0C45439
:0E123E000F4410FF1211B8EC540FFF0211B84C
:10129700E4FD7F8D1211B87F141211B87FAF0211D0
:0112A700B88E
:1012A800E4FD7F8D1211B87F101211B87FAE0211C4
:0112B800B87D
:10120700E4FCEC24B0FFE4FD1211B8E4FF1211B8BE
:101217007F101211B8E4FB7D01E4FF1211B80BBB7C
:0612270080F50CBC08DCA0
:01122D00229E
:060E18008F138D14A903E5
:100E1E00E4F517E516C313F518E4FBFAE516B40866
:100E2E0008751900751A06802CE516131313541F36
:100E3E00FF7E00E51654077C0060047D0180027D74
:100E4E0000ED2FFFEC3EFEE516C313FD7C00120FE6
:100E5E00988E198F1AE924E0F517AD14AF131212FC
:100E6E002EE4FAFBC3EB951AEA95195051E518FDDD
:100E7E007C00AF03AE02120FAAED4C700FE51664A4
:100E8E00086009AD140514AF1312122EE516B4083E
:100E9E001075F006E517A42403F582E5F034008002
:100EAE0013E516B4101875F010E517A4242BF5826F
:0E0EBE00E5F034021211A70BBB00010A80A65A
:010ECC002203
:04127F008F13A9051B
:101283007F017E00AD0119ED6009AD137C00120FE3
:031293009880F14F
:011296002235
:080FFF008F098D0A8A0B8B0C8F
:10100700E4F511F512E50EB40803751102E4F50FC6
:10101700E50FC3950D5069C3E50D950F14FD7F0AC4
:1010270012127FAC0BAD0CCFCDCFCECCCE120FAA08
:101037007C007D0A120FAA8D10E5127025E50D14AC
:10104700FFE50FC39F501BE5107014E50EC3132572
:1010570011850FF0A42509FF850E167B20801875D2
:101067001201E50EC3132511850FF0A42509FFE52D
:10107700102430FB850E16AD0A120E18050F80904E
:011087002246
:0A115E008F098D0A8B0B8A0C890D96
:10116800E4F50FAB0BAA0CA90D850F82758300124D
:101178000F6B602AAF0F050F8F82758300120F6BFC
:10118800FB850E16AD0AAF09120E18E50EB4080459
:0E11980074068004E50EC3132509F50980C511
:0111A6002226
:061088008F098D0A8B0B9D
:10108E00E50C131313541FFF7E00E50C54077C0070
:10109E0060047D0180027D00ED2FFFEC3EFEAD0C65
:1010AE007C00120F988E0D8F0EE4FBFAC3EB950E9B
:1010BE00EA950D5035E50CFD7C00AF03AE02120F24
:1010CE00AAED4C7009AD0A050AAF0912122EE50CF5
:1010DE00B41017E50BC43354E0241BF582E4340836
:0A10EE001211A70BBB00010A80C21B
:0110F80022D5
:0610F9008F098D0A8B0B2C
:1010FF00E4F510F511E50C131313541FFFE50C5411
:10110F000760047E0180027E00EF2EF50CE4F512DD
:10111F00E512C3950C5037E512250AFDAF091212DF
:10112F002EE4FCECC3950B5021AB0DAA0EA90F05B5
:10113F0011E511AE107002051014F5828E83120F97
:0E114F006BFF7D011211B80C80D9051280C211
:01115D00226F
:100ECD00C2927FC87E0012124CD292E4FD7FAE1208
:100EDD0011B8E4FF1211B87F101211B87F40121132
:100EED00B87F811211B87FCF1211B87FA11211B83E
:100EFD007FC81211B87FA61211B87FA81211B87F42
:100F0D003F1211B87FD31211B8E4FF1211B87FD57B
:100F1D001211B87F801211B87FD91211B87FF1125A
:100F2D0011B87FDA1211B87F121211B87FDB1211CE
:100F3D00B87F401211B87F201211B87F021211B87C
:100F4D007F8D1211B87F141211B87FA41211B87FC2
:0E0F5D00A61211B8121207E4FD7FAF0211B800
:100F6B00BB010CE58229F582E5833AF583E022503B
:100F7B0006E92582F8E622BBFE06E92582F8E22285
:0D0F8B00E58229F582E5833AF583E493229F
:100F9800EF8DF0A4A8F0CF8CF0A428CE8DF0A42E6D
:020FA800FE2227
:100FAA00BC000BBE0029EF8DF084FFADF022E4CC2B
:100FBA00F875F008EF2FFFEE33FEEC33FCEE9DECF4
:100FCA00984005FCEE9DFE0FD5F0E9E4CEFD22ED3A
:100FDA00F8F5F0EE8420D21CFEADF075F008EF2F84
:100FEA00FFED33FD4007985006D5F0F222C398FD75
:050FFA000FD5F0EA2212
:00000001FF
