:020000040800F2
:1000000030050020010100083F110008E90E00083A
:100010003D1100086D01000889140008000000006F
:100020000000000000000000000000004311000874
:100030006F01000800000000411100084511000890
:100040001B0100081B0100081B0100081B01000820
:100050001B0100081B0100081B0100081B01000810
:100060001B0100081B0100081B0100081B01000800
:100070001B0100081B0100081B0100081B010008F0
:100080001B0100081B0100081B0100081B010008E0
:100090001B0100081B0100081B0100081B010008D0
:1000A0001B0100081B0100081B0100081B010008C0
:1000B0001B0100081B0100081B0100081B010008B0
:1000C0001B0100081B0100081B0100081B010008A0
:1000D0001B0100081B0100081B0100081B01000890
:1000E0001B0100081B0100081B010008DFF80CD0F1
:1000F00000F02AF800480047C91400083005002025
:100100000648804706480047FEE7FEE7FEE7FEE7B1
:10011000FEE7FEE7FEE7FEE7FEE7FEE7A7110008C1
:10012000ED000008D2B201E000F8012B491EFBD21D
:1001300070470022F6E710B513460A4604461946F2
:10014000FFF7F0FF204610BD064C074D06E0E068C3
:1001500040F0010394E8070098471034AC42F6D30E
:10016000FFF7C8FF3015000850150008FEE770477C
:1001700072B6FEE770B5044600F00CF90546601C47
:1001800002D004480078044400F004F9401BA04267
:10019000FAD370BD000000202DE9F84FDFF8B891C8
:1001A0000024A9F1040B23460F2709F1040AABF13F
:1001B000040EC9E00125A5402A40AA427DD1674E20
:1001C000D1F804C0ACEB0608B44532D014DCBCF165
:1001D000030F3AD009DCBCF1000F2AD0BCF1010FAB
:1001E0001CD0BCF1020F31D11DE0BCF1110F17D0B2
:1001F000BCF1120F2AD119E0B8F5881F19D006DC1E
:10020000B8F5803F15D0B8F5801F1FD111E0B8F5C3
:10021000001F0ED0B8F5041F18D10AE0CB6815E016
:10022000CB681B1D12E0CB6808330FE0CB680C33A2
:100230000CE08B682BB1012B4FF0080303D0456114
:1002400004E0042302E0056100E00023FF2A01D856
:10025000064601E000F104064FEA840501D9A5F144
:100260002005D6F8008007FA05FC28EA0C0803FAF6
:1002700005F548EA0508C6F800804D68ED0062D52E
:10028000374DAE6946F00106AE61AD6924F0030654
:1002900005F001050095334D06EB050CDCF8085020
:1002A000A607360F07FA06F825EA0805DFF8B88032
:1002B000404503D14FF0000817E044E0DFF8AC8080
:1002C000404502D14FF001080FE0DFF8A48040451F
:1002D00002D14FF0020808E0DFF89880404502D1D3
:1002E0004FF0030801E04FF0040808FA06F848EA66
:1002F0000508CCF808804D68D9F80060ED024D463D
:1003000001D5164300E096432E604D68DAF8006090
:10031000AD02554601D5164300E096432E604D6868
:10032000DBF80060AD035D4601D5164300E096435F
:100330002E604D68DEF80060ED03754601D516436A
:1003400000E096432E60641C0D682A46E5407FF469
:1003500031AFBDE8F88F0000080401400000111023
:10036000001002400000014000080140000C014064
:100370000010014000140140C26821EA02030A4053
:1003800043EA0241016170470AB101617047090403
:10039000FBE7000001488068704700000000002073
:1003A0000248816802781144816070470000002093
:1003B000074810B5016841F010010160032000F00A
:1003C00067F80F2000F006F800F024F8002010BDB8
:1003D0000020024070B50D4D04464FF47A71287824
:1003E000B1FBF0F00A490968B1FBF0F000F0CEFA79
:1003F00048B9102C07D200222146501E00F028F8E0
:1004000000206C6070BD012070BD00000000002065
:100410000C0000200C4808B5816941F001018161A0
:10042000816901F001010091C16941F08051C16110
:10043000C06900F0805000900448416821F0E061FC
:1004400041F00071416008BD001002400000014011
:10045000F0B40E4B1B680C46C3F30223C3F107052F
:10046000042D00D90425191D072901D2002300E01D
:10047000DB1E012606FA05F1491E214099409E40E7
:10048000761E16403143F0BC00F0FFBF0CED00E0DB
:10049000064900F0070208684FF6FF03184040EADB
:1004A0000220034A10430860704700000CED00E092
:1004B0000000FA052DE9F0470F46050061D0434ED4
:1004C000306800F00700B84209D2306820F0070019
:1004D00038433060306800F00700B84251D12868D6
:1004E0003B4C810712D5400703D5606840F4E060BB
:1004F00060602878000703D5606840F46050606051
:100500006068A96820F0F000084360602878C007A0
:1005100028D06868012810D02168022810D08907E7
:1005200000292EDA616821F0030101436160FFF7C1
:1005300031FF804641F288390DE021688903EFE7F9
:100540008901EDE7FFF726FFA0EB0801494502D935
:100550000320BDE8F0876068696800F00C00B0EB2C
:10056000810FEFD1306800F00700B8420BD9306836
:1005700020F0070038433060306800F00700B842D0
:1005800001D00120E5E72878400705D56068E968D3
:1005900020F4E060084360602878000706D56068B2
:1005A000296920F4605040EAC100606000F038F82A
:1005B0006168084AC1F30311515CC84006490860EC
:1005C00006480068FFF706FF0020C2E7002002404F
:1005D00000100240161500080C0000200400002046
:1005E0000448054900684968044AC1F30221515C86
:1005F000C84070470C00002000100240261500087B
:100600000448054900684968044AC1F3C221515CA5
:10061000C84070470C00002000100240261500085A
:100620000E4A51680E4801F00C03042B11D0082B20
:100630000FD10C48C1F38343C903C05C0AD551688C
:10064000084AC1F34041921E515C054A5043B0FB39
:10065000F1F0704704494843704700000010024021
:1006600000127A000615000800093D002DE9F84F38
:10067000040070D02078C04DC00749D06868C0F32E
:100680008100012807D06868C0F38100022809D1E1
:100690006868C00306D52868800339D560680028DB
:1006A000E7D035E06068B0F5803F0BD010B1B0F511
:1006B000A02F11D0286820F480302860286820F40A
:1006C000802002E0286840F480302860606890B1A3
:1006D000FFF760FE06460AE0286840F480202860A4
:1006E000F0E700BFFFF756FE801B642873D8286828
:1006F0008003F7D50CE0FFF74DFE064605E000BF8E
:10070000FFF748FE801B6428F0D828688003F7D4E0
:1007100020789A4E80074FF001094FF0000839D534
:10072000686810F00C0F07D06868C0F381000228D9
:1007300009D16868C00306D42868800714D52069E9
:10074000012808D110E02069B0B1C6F80090FFF789
:1007500021FE074605E00AE1FFF71CFEC01B022848
:10076000C4D828688007F7D52868616920F0F800A8
:1007700040EAC10028600DE0C6F80080FFF70AFEDD
:10078000074604E0FFF706FEC01B022823D82868AE
:100790008007F7D4207800072CD57948A169D9B112
:1007A000C0F80090FFF7F6FD074604E0FFF7F2FD02
:1007B000C01B02280FD8686A8007F7D571484FF42C
:1007C000FA510068B0FBF1F0009000BF0098411EA4
:1007D0000091FAD20EE080E0C0F80080FFF7DAFD69
:1007E000074604E0FFF7D6FDC01B022875D8686AEB
:1007F0008007F7D42078400760D5E8690027C0005B
:1008000008D4E86940F08050E861E869012700F009
:10081000805000905C480168C90513D40168834684
:1008200041F480710160FFF7B5FD824606E000BF2C
:10083000FFF7B0FDA0EB0A0064284ED8DBF80000FB
:10084000C005F5D5E06801280AD008B1052813D005
:10085000286A20F001002862286A20F0040002E0E3
:10086000286A40F001002862E06841F2883B98B1B4
:10087000FFF790FD82460BE0286A40F004002862F2
:10088000EEE700BFFFF786FDA0EB0A0159455AD8F5
:10089000286A8007F6D50CE0FFF77CFD824605E06C
:1008A000FFF778FDA0EB0A0159454CD8286A80076C
:1008B000F6D41FB1E86920F08050E861E06988B3A0
:1008C0006968C1F38101022944D00228C6F860801A
:1008D00004D0FFF75FFD044638E034E0FFF75AFD2F
:1008E000074604E0FFF756FDC01B02282BD82868F6
:1008F0008001F7D4206AB0F5803F05D16868A1680F
:1009000020F4003008436860D4E9080108436968AE
:1009100021F4741108436860C6F86090FFF73AFD4F
:10092000044606E025E000BFFFF734FD001B022867
:1009300009D828688001F7D51BE000BFFFF72AFD22
:10094000001B022802D90320BDE8F88F2868800127
:10095000F4D40EE00128F7D06868226A00F48031F0
:10096000914204D1616A00F47010884201D00120E4
:10097000EAE70020E8E700000010024000004242E1
:10098000800442420C0000200070004010B5401E60
:10099000B0F1807F01D3012010BD4FF0E0246061F1
:1009A0000F21601700F071FD0020A0610720206179
:1009B000002010BD70B590F83C20012A26D00124FB
:1009C00080F83C40022280F83D2003685A689D6808
:1009D00022F070060A6832435A600D4B02689A4250
:1009E00008D0B2F1804F05D00A4B9A4202D00A4B90
:1009F0009A4204D1496825F080031943916080F838
:100A00003D40002180F83C10084670BD022070BDBA
:100A1000002C0140000400400008004010B5040014
:100A200003D094F83D0010B107E0012010BD002074
:100A300084F83C00204600F01FF8022084F83D00B6
:100A4000211D206800F0B0FB012084F8460084F8E6
:100A50003E0084F83F0084F8400084F8410084F8A8
:100A6000420084F8430084F8440084F8450084F888
:100A70003D00002010BD000008B50068064988420E
:100A800008D10648C16941F00401C161C06900F0A4
:100A90000400009008BD0000000800400010024063
:100AA00070B5044690F83C000025012817D00126B7
:100AB00084F83C60022084F83D002068826822F0BF
:100AC000770222F47F4282600868502838D00DDC1B
:100AD00020284FD005DC90B3102811D14AE0022025
:100AE00070BD302846D040280AD13BE060282FD086
:100AF00070280DD0B0F5805F03D0B0F5005F12D044
:100B0000012584F83D60002084F83C00284670BD33
:100B1000CB68D1E90121206800F082FB2068816860
:100B200041F0770109E0CB68D1E90121206800F0AC
:100B300077FB2068816841F480418160E1E719E03A
:100B4000CA684968206800F01FFC5021206806E050
:100B5000CA684968206800F028FC6021206800F01D
:100B600069FBCEE7CA684968206800F00DFC4021A7
:100B70002068F4E7226801461046F0E72DE9F041CD
:100B80000D46040003D094F83D0018B108E00120A0
:100B9000BDE8F081002084F83C00204600F040F8D9
:100BA000022084F83D002068816844F207029143E6
:100BB0008160211D206800F0F7FA22689068916931
:100BC000166A2B68AF69034340F20330814341EA60
:100BD0000721A868EF6908434FF6FC418843E9689C
:100BE00040EA0720014328692F6A000140EA0730E4
:100BF000084369686D6926F0220646EA051529430F
:100C000093602268906154F8460B0162012004F859
:100C10001F09E0752076E0762077A0750020B7E701
:100C200000B585B000210091019102910391026805
:100C300018491948B2F1804F19D0184B9A4214D173
:100C4000CA6942F00202CA61CA6902F00202049251
:100C50008A6942F004028A61896901F00401049101
:100C6000C02100916946FFF797FA05B000BDCA6937
:100C700042F00102CA61CA6902F0010204928A6963
:100C800042F004028A61896901F0040104910321A0
:100C9000E7E70000001002400008014000040040A7
:100CA00000B585B000210091019102910391006887
:100CB0000B49884211D10B48816941F008018161DB
:100CC0008069694600F008000490C020009002206E
:100CD000019003900448FFF75FFA05B000BD0000E3
:100CE0000008004000100240000C014070B50446AE
:100CF00090F83C0000260D4601280FD0012084F812
:100D00003C006AB1042A1DD0082A2FD00C2A3FD0FB
:100D10000126002084F83C00304670BD022070BDE2
:100D2000206800F08FFA2068816941F00801816134
:100D30002068816921F004018161206881692A6944
:100D4000114311E0206800F0A5FA2068816941F4A0
:100D5000006181612068816921F48061816120687E
:100D600081692A6941EA02218161D2E7206800F0A5
:100D7000BDFA2068C16941F00801C1612068C169FC
:100D800021F00401C1612068C1692A69114311E0A1
:100D9000206800F0D7FA2068C16941F40061C161A0
:100DA0002068C16921F48061C1612068C1692A6934
:100DB00041EA0221C161ACE710B5040003D094F808
:100DC0003D0010B107E0012010BD002084F83C0078
:100DD000204600F01EF8022084F83D00211D206806
:100DE00000F0E2F9012084F8460084F83E0084F81F
:100DF0003F0084F8400084F8410084F8420084F801
:100E0000430084F8440084F8450084F83D00002045
:100E100010BD704770B5040004D094F8410000255F
:100E200010B106E0012070BD84F84050204600F06B
:100E300023F8242084F841002068C16821F400517F
:100E4000C160204600F0C4FA2068016921F4904195
:100E500001612068416921F02A0141612068C1686F
:100E600041F40051C1606564202084F8410084F899
:100E700042006563002070BD30B585B00024009449
:100E800001940294039400681449884224D11448C0
:100E9000816941F480418161816901F4804104915B
:100EA000816941F00401816180690E4D00F0040008
:100EB00004904FF4007000900220019003200390F2
:100EC00069462846FFF768F92815CDE90004694608
:100ED00028460294FFF760F905B030BD00380140A4
:100EE0000010024000080140FEE70000F0B585B0A8
:100EF000002000900190029003902148816941F008
:100F000010018161816901F010010491816941F052
:100F100020018161816901F020010491816941F022
:100F200004018161816901F004010491816941F04A
:100F3000080181618069134F00F0080004900022CD
:100F400014213846FFF720FA48F2280601223146DC
:100F50003846FFF719FA1420012402258DE83100E4
:100F6000694638460395FFF717F9CDE900646946ED
:100F70003846CDE90245FFF70FF905B0F0BD000096
:100F8000001002400008014010B58CB024216846D2
:100F9000FFF7CFF80024154809944FF080410A94D8
:100FA00001600321C0E901144FF6FF72C0E9032478
:100FB000846101200091CDE90140CDE90341CDE9F3
:100FC0000540CDE9074169460848FFF7D7FD08B15C
:100FD000FFF7CEF8099409A904480A94FFF7EAFC40
:100FE000002801D0FFF7C4F80CB010BD100000209D
:100FF00010B58CB024216846FFF79BF800241648F2
:10100000099414490A9401600321C0E901144FF6C0
:10101000FF72C0E90324846101200091CDE9014001
:10102000CDE90341CDE90540CDE9074169460A48CC
:10103000FFF7A4FD08B1FFF79BF8099409A906483A
:101040000A94FFF7B7FC002801D0FFF791F80CB025
:1010500010BD0000000400405800002010B58EB004
:1010600000240794089409940A940B941C21684660
:101070000C94FFF75EF82248204901604721C0E93F
:10108000011444F61F61C0E903148461FFF7C6FC34
:1010900008B1FFF76DF84FF48050079007A9184882
:1010A000FFF7FEFC08B1FFF763F81548FFF784FE71
:1010B00008B1FFF75DF80B940BA911480C94FFF7EA
:1010C00079FC08B1FFF754F86020CDE900040294E0
:1010D000002269460A480494FFF708FE08B1FFF7AA
:1010E00047F8042269460648FFF700FE08B1FFF7FB
:1010F0003FF80348FFF7D4FD0EB010BD00080040D4
:10110000A00000200C4810B50A4901604FF4E131FD
:101110004160002181600C22C160C0E9041281613C
:10112000C161FFF777FE002803D0BDE81040FFF74C
:101130001FB810BD00380140E8000020FEE7FEE7C0
:1011400070477047FFF72CB930B58FB0282168463B
:10115000FEF7EFFF14210AA8FEF7EBFF01210804B8
:10116000CDE900100024029402250491CDE9075036
:101170004FF4E01009906846FFF778FA08B172B6AC
:10118000FEE70F20CDE90A054FF48060CDE90C4061
:1011900002210AA80E94FFF78DF9002801D072B63B
:1011A000FEE70FB030BD7047F0B50268194B1A4C1E
:1011B0001A4D4FF08047984205D0B84203D0A04264
:1011C00001D0A84203D122F070064A683243984207
:1011D00005D0B84203D0A04201D0A84203D122F4E6
:1011E0004074CA6822434C6922F0800222430260A4
:1011F0008A68C2620A688262984201D10969016301
:10120000012141610169C90703D0016921F0010190
:101210000161F0BD002C01400004004000080040C6
:1012200010B5846842EA032224F47F440A4322432F
:10123000826010BD826822F070020A4342F007010A
:101240008160704730B5036A026A22F001020262CF
:101250004268846924F073050C682C4323F002056E
:101260008B682B430A4DA8420BD123F00805CB68AD
:1012700022F440722B434D6923F0040315438A691D
:101280002A434260846149684163036230BD0000C3
:10129000002C014030B5026A036A23F01003036298
:1012A000436884690D6824F4E64444EA05248D68A3
:1012B00022F0200242EA05120B4DA8420ED1CD6861
:1012C00022F0800242EA05124D6923F4406343EAAA
:1012D00085038D6922F0400243EA850343608461FF
:1012E00049688163026230BD002C014030B5036A59
:1012F000026A22F4807202624268C46923F40073B5
:1013000024F073050C682C438D6843EA05230C4DCB
:10131000A8420ED1CD6823F4006343EA05234D694A
:1013200022F4405242EA05128D6923F4806342EAB6
:1013300005124260C4614968C163036230BD0000A8
:10134000002C014030B5046A026A22F48052026225
:101350004268C3690D6823F4E64343EA05238D68B8
:1013600024F4005444EA0534064DA84204D14D69E2
:1013700022F4804242EA85124260C36149680164F6
:10138000046230BD002C014010B5036A046A24F0E9
:1013900001040462846924F0F00444EA021423F096
:1013A0000A020A438461026210BD10B5036A046A2E
:1013B00024F010040462846923F0A00324F4704430
:1013C00044EA023243EA01118261016210BD000069
:1013D00070B5044600680169E26821F44051114388
:1013E00001612169A0680843616908432168CA68EE
:1013F00041F20C639A430243CA6020684169A269C2
:1014000021F44071114341611E492068884202D194
:10141000FFF7F6F801E0FFF7E3F800EBC00101EB9E
:101420000012606864218000B2FBF0F3B3FBF1F3BB
:101430006FF018067343B2FBF0F5B2FBF0F605EB64
:101440008305322303EB0515B5FBF1F5B6FBF1F689
:1014500005F0F00505EB0615B2FBF0F6B2FBF0F077
:10146000B0FBF1F06FF01802504306EB800003EB85
:101470000010B0FBF1F0216800F00F0028448860F4
:1014800070BD000000380140FEE70907090E002882
:1014900004DB00F1E02080F80014704700F00F003A
:1014A00000F1E02080F8141D704702E008C8121F08
:1014B00008C1002AFAD170477047002001E001C13D
:1014C000121F002AFBD17047FEF772FFFFF73CFEA8
:1014D000FFF70CFDFFF716FEFFF756FDFFF788FD3F
:1014E000FFF7BCFD064D4FF400444FF47A762146D9
:1014F0002846FEF741FF3046FEF73CFEF7E70000C6
:1015000000080140010202030405060708090A0B4E
:101510000C0D0E0F10100000000000000000010272
:10152000030406070809000000000102030400008C
:10153000501500080000002010000000AA14000848
:10154000601500081000002020050000BA140008F3
:101550000100000010000000000000000024F40062
:04000005080000ED02
:00000001FF
