:020000040800F2
:10000000481000207D020008E5420008A53C0008D9
:10001000E14200088D0F0008F549000800000000CB
:10002000000000000000000000000000ED42000899
:10003000E113000800000000E9420008F142000856
:10004000970200089702000897020008970200082C
:10005000970200089702000897020008970200081C
:10006000970200089702000897020008970200080C
:1000700097020008970200089702000897020008FC
:1000800097020008970200089702000897020008EC
:10009000910F0008970200089702000897020008D5
:1000A000CD43000897020008970200089702000855
:1000B000D943000897020008970200089702000839
:1000C00097020008970200089702000897020008AC
:1000D00097020008DD49000897020008970200080F
:1000E000E51300089702000897020008970200082D
:1000F000E5430008970200089702000897020008ED
:10010000970200089702000897020008970200086B
:10011000970200089702000897020008970200085B
:1001200097020008B1130008970200089702000820
:10013000970200089702000897020008970200083B
:10014000970200089702000897020008970200082B
:10015000BD130008C9130008D5130008E9490008B9
:10016000970200089702000897020008970200080B
:10017000970200089702000897020008000000009C
:1001800097020008970200089702000897020008EB
:1001900097020008970200089702000897020008DB
:1001A00000000000000000009702000800F002F8C4
:1001B00000F055F80AA090E8000C82448344AAF1AC
:1001C0000107DA4501D100F04AF8AFF2090EBAE8AA
:1001D0000F0013F0010F18BFFB1A43F0010318477B
:1001E0002C6800004C680000103A24BF78C878C121
:1001F000FAD8520724BF30C830C144BF04680C602D
:10020000704700000023002400250026103A28BF74
:1002100078C1FBD8520728BF30C148BF0B60704778
:10022000662906F01E83732900F060840020704761
:100230001FB506F004FB9DE8030000F001FA00F092
:10024000D9FC04000020002105F028FEE06000F049
:10025000B5F81FBD10B5002000F04CFC10BD00F03B
:10026000A4FC1146FFF7E4FF05F0E0F800F0D8FD2C
:1002700003B4FFF7EFFF03BC00F0B8F9094880476B
:1002800009480047FEE7FEE7FEE7FEE7FEE7FEE778
:10029000FEE7FEE7FEE7FEE704480549054A064B90
:1002A00070470000B9430008AD010008480A00206B
:1002B00048100020480C0020480C002053EA020C93
:1002C00000F069802DE9F04B4FF00006002B1FBFB6
:1002D000B3FA83F503FA05F424FA05F65E4012BF7B
:1002E0001643B2FA82F502FA05F4C5F120051EBFE5
:1002F00022FA05FC44EA0C04203556EA044C4FEA85
:10030000144418BF641C4FF000084FF000099042DD
:1003100071EB030C39D3002919BFB1FA81F701FA47
:1003200007F6B0FA80F700FA07F6C7F120071EBFFC
:1003300020FA07FC46EA0C062037B6FBF4FCA7EBD4
:100340000507103F07F01F0BCBF120062CFA06F62D
:100350000CFA0BFB44BFB3460026202FA4BF5E4619
:100360004FF0000B5BEA060C08BF4FF0010B19EBD6
:100370000B0948EB0608ABFB027C06FB02CC0BFB2F
:1003800003CCC01B71EB0C01C1E70B460246414692
:100390004846BDE8F08B13B5084318BF4FF0FF3057
:1003A0000146AFF30080BDE81C4070470B46014694
:1003B000184600F09FB870477047704770B5064CFC
:1003C0007C44064D7D4404E0204601680844804793
:1003D000241DAC42F8D170BD846600008466000024
:1003E00070B5064600F00CF9056806F10B0020F028
:1003F0000704B4429CBF002070BD2B466A68BAB1A6
:100400001068A04210D304F1080188423CBF506834
:10041000586007D35168101941601168091B0160C9
:1004200058601460101D70BD13465268002AE7D151
:100430002146284600F0F0F80028DED170BD70B5E6
:100440000446051F00F0DCF80068002C14BF446867
:1004500070BD002C18BFAC423CBF20466468F8D386
:1004600001680A18AA4218BF456003D12A680546E8
:100470001144016028684119A1421CBF6C6070BD25
:100480006168696021680844286070BD70B50C46D9
:100490000546012A05D02878800600D5EA690023A0
:1004A00002E0012305E05B1C934202D2E05C0028DD
:1004B000F9D1A869E618C01AA861286A1844286208
:1004C0002846AFF3008004E0D5E9012114F8010BC0
:1004D0009047B442F8D32846AFF3008070BD10B502
:1004E000002000F028FBFFF7B5FEBDE8104001201A
:1004F00000F07CB82DE9F041074615460E46102065
:10050000FFF76EFF04000AD06760C4E9026500F0DF
:100510007BF80168216004600020BDE8F0810120C3
:10052000FBE710B5431C02E010F8011B71B1810715
:10053000FAD14FF0013202C88C1A8C4314EAC2116E
:10054000F9D0C01A0A0603D0C01E10BDC01A10BDD3
:100550000A0401D0801E10BD0902FCD0401E10BD4F
:10056000032A40F2308010F0030C00F0158011F8DF
:10057000013BBCF1020F624498BF11F801CB00F8B7
:10058000013B38BF11F8013BA2F1040298BF00F80B
:1005900001CB38BF00F8013B11F0030300F0D28219
:1005A000083AC0F0088051F8043B083A51F804CBEF
:1005B000A0E80810F5E7121D5CBF51F8043B40F8B5
:1005C000043BAFF30080D20724BF11F8013B11F8C0
:1005D00001CB48BF11F8012B24BF00F8013B00F804
:1005E00001CB48BF00F8012B7047000001491820DB
:1005F000ABBEFEE72600020000487047180000204E
:10060000004870472000002000487047500000203C
:10061000704770477047704738B504460A46002057
:100620006946AFF30080002808BF38BD0246009934
:10063000204600F0E3FA012038BD012000F016BC8E
:10064000F8B5AFF30080054600200C46102000BF2F
:100650000646A819A0420DD9324669460020AFF3DC
:100660000080070008BF00F001FC0098A04218BFFE
:100670000546C419FFF7C4FF05600746F01D20F0CA
:1006800007004619284600F00AF8B44208BFF8BD32
:10069000A21B31463868BDE8F84000F0AFBA00212F
:1006A0000160C0E901107047102070472DE9FF4F2D
:1006B0000C461E464FF0FF378BB0D2E90001DDF843
:1006C00060800A908A46C1F30A5505B93D4600216B
:1006D00008464FF00000BAF1000F00F4400005DAC0
:1006E00000EB80004FF4400101EA50004FEA9059BE
:1006F000B9F1010F00DDB9460A9850EA4A000ED060
:1007000044F61050A5F2FF3545432F14B8F1000F01
:100710001ED07542291E1EDDC9F100021CE0B8F191
:10072000010F4FF0000001D0302103E0F24305E05B
:100730002154401CB042FBDB3046002200212154F2
:100740000B99C1F80880C1E900200FB0BDE8F08F17
:10075000BD1B6D1CDEE74A4600DA694206A800F0C0
:10076000EDFA06AB93E8070003AB83E807005046B9
:100770000A9904F0B2FF8DE80700A0F500501F3879
:1007800000900398002D0ADD42F21F014A460844FA
:10079000002303A90390684605F01CFA09E0A0F5C0
:1007A00000504A461F38002303A90390684605F00D
:1007B00026FA8DE807000004000C03D04FF0FF304C
:1007C000410800E01046B8F1000F03D0002200926B
:1007D00015461EE0751E05D400F02AFA3032625527
:1007E0006D1EF9D5B3460122084302D000227F1CBA
:1007F00004E02078302801D100227F1E002A0997CA
:1008000084D01DE0112D07DA00F012FA3032625563
:100810006D1C50EA0102F5D1084302D00098C8B11E
:100820000EE00021681E05E0235C625C63542254E4
:10083000401E491C8142F7DBAB46A81B401E0990B5
:10084000002004F80B000B98099AC0F80880C0E952
:10085000002B7AE711264FF0000857E72DE9F04FFB
:1008600088460446D21D22F0070191B0D1E900016B
:10087000CDE90A0105F0FAFA02460B98C00F01D043
:100880002D2007E02068810701D52B2002E02021E0
:1008900001EAC000032A099001D0072A05DB0346BC
:1008A0004146204600F00AFA0BE12078800601D587
:1008B000E06900E00620B8F1650F814606D0B8F186
:1008C000660F18D0B8F1670F70D131E00020B9F190
:1008D000110F009001DB112301E009F101030AAAC5
:1008E00001A90CA8FFF7E2FEDDE90C70002609F172
:1008F0000105834647E001204B4600904FF000473A
:100900000AAA01A90CA8FFF7D1FEDDE90DB00C99E8
:100910005D46002610B909F101000D18B9EB05007C
:1009200003D4C0F1FF3609F10105A5EB09002BE066
:10093000B9F1010F01DA4FF001090020B9F1110FEF
:100940000090484601DD112300E003460AAA01A9F0
:100950000CA8FFF7ABFEDDE90C704D460026834680
:10096000207800070AD4AB4500DA5D4601A8012DC6
:1009700004DD411911F8011C302907D04F4502DA76
:1009800017F1040F04DA012082460FE06D1EEEE736
:10099000002F02DCED1B3E4403E0781CA84200DD82
:1009A0007D1CB81B00F1010A4FF0004720780007BA
:1009B00003D4AA4501DB4FF0FF3A0021B7F1004F05
:1009C0000DF143088DF8431024D002202B23002F73
:1009D00001DA7F422D230A21021EA0F1010000DC72
:1009E0005FB197FBF1FC97FBF1F201FB1C7C174612
:1009F0000CF1300C08F801CDEEE7A8F1010003700E
:100A00002188090501D5452100E06521A0F10108F3
:100A100000F8011C09980FA9A1EB0807FF1D00B100
:100A20000120411901EBEA70A1693844081A401EFF
:100A3000A0612078C00602D42046AFF30080099858
:100A400028B1D4E901219047206A401C2062207817
:100A5000C00622D52046AFF300801EE0002E04DB46
:100A6000B34502DD01A8805D00E03020D4E901211A
:100A70009047206A401C2062761CAAF101005FEAC0
:100A8000000A0AD100F0B6F8C0680168405CD4E9F9
:100A900001219047206A401C2062281EA5F1010513
:100AA000DCDC07E0D4E9012118F8010B9047206A4B
:100AB000401C2062381EA7F10107F3DC2046AFF38B
:100AC0000080032011B041E610B5436913B1AFF3C4
:100AD000008001E0FFF7DAFC012010BD127800F180
:100AE00024010A7000224A700122EDE711684FF0DC
:100AF000FF32E9E72DE9F0410646FFF785FD804624
:100B0000454613E016B1E068B0420ED12068286077
:100B1000D4E90101D8F8007088472046FFF78FFC20
:100B2000D8F80000B842EBD100E025462C68002C34
:100B3000E8D1BDE8F08110B500F080F9BDE81040C3
:100B400000F077B910B5203AC0F00B80B1E818502A
:100B5000A0E81850B1E81850A0E81850203ABFF4A7
:100B6000F5AF5FEA027C24BFB1E81850A0E8185046
:100B700044BF18C918C0BDE810405FEA827C24BF9A
:100B800051F8043B40F8043B08BF7047D20728BF28
:100B900031F8023B48BF11F8012B28BF20F8023B77
:100BA00048BF00F8012B704770477546FFF724FDDA
:100BB000AE4605006946534620F00700854618B04A
:100BC00020B5FFF769FBBDE820404FF000064FF06D
:100BD00000074FF000084FF0000BAC46ACE8C0092E
:100BE000ACE8C009ACE8C009ACE8C00921F00701D5
:100BF0008D46704700487047380000200346406823
:100C00008C46002818BF88423CBF03464068F8D392
:100C100018681844884207D00CF1030020F0070040
:100C2000001D411A521A0146081D0A60FFF707BC51
:100C300030B5B0F10A0271F100034FEA900E4EEAAE
:100C4000817EB0EB0E0061EB91014FEA101E4EEA7F
:100C5000017E10EB0E0041EB11114FEA102E4EEA0F
:100C6000016E10EB0E0041EB11214FEA104E4EEADF
:100C7000014E10EB0E0041EB1141401841F1000113
:100C80004FEAD00040EA41704FEAD1014FEA8104B7
:100C900044EA907410EB800544EB01046D1944EBB9
:100CA0000404521BA3414FF0000348BF0A3200D591
:100CB00030BD401C41F1000130BD00002DE9F04184
:100CC0001F46044603260168072A01F4006004DB7E
:100CD00008B116A505E016A503E008B115A500E0CA
:100CE00015A521F010002060A069C01EA0610FB101
:100CF000401EA0612046AFF300804FB1D4E901212E
:100D000038469047206A401C2062C01C206206E0E2
:100D1000206AFAE7D4E9012115F8010B9047761E05
:100D2000F8D22046AFF30080BDE8F0814E414E007E
:100D30006E616E00494E4600696E66002DE9F0470F
:100D4000814616468AB0354878440DC88DE80D00B6
:100D500032487844801C03AC0DC884E80D0041F68D
:100D60009B300844372190FBF1F290FBF1F5A5F19F
:100D7000800501FB12041B3C02D56442012000E007
:100D80000020DFF898A080460027FA44AAF1BE0AA6
:100D90000EE0E0070AD03246684607EB4701012320
:100DA0000AEB810104F02BFF8DE8070064107F1C23
:100DB000002CEED1194F7F44AE3F19E0E80715D063
:100DC00007EB04100DF1180A90E80E008AE80E00F7
:100DD000C068F04201D1981908903246012306A953
:100DE00003A804F00CFF03AB83E807006D10641C3C
:100DF000002DE3D14FF0010332466946B8F1000FF0
:100E000003A802D004F0E6FE01E004F0F8FEC9E910
:100E10000001C9F808200AB0BDE8F087985B00001F
:100E200010B50446AFF300802046BDE81040FFF740
:100E30001FBA002801D0FFF7D9BB704710B50021B9
:100E400002A000F01AF8012010BD000053494741EC
:100E50004252543A2041626E6F726D616C2074652B
:100E6000726D696E6174696F6E00000010B500F0FC
:100E70001DF8BDE81040FFF7DCBF70B505460C4615
:100E80000A2000E06D1C00F079F835B128780028C0
:100E9000F8D102E0641C00F071F814B12078002849
:100EA000F8D1BDE870400A2000F068B810B50128FC
:100EB00005D0002103A0FFF7E0FF012010BD09A12C
:100EC000F8E7000053494752544D454D3A204F75BD
:100ED00074206F662068656170206D656D6F727932
:100EE000000000003A2048656170206D656D6F72EA
:100EF0007920636F72727570746564000000000081
:100F000030B44FF0013C50F8042B51F8043BCCFABC
:100F100052F4D51A20D1FCB950F8042B51F8043BF7
:100F2000CCFA52F4D51A17D1B4B950F8042B51F8B1
:100F3000043BCCFA52F4D51A0ED16CB950F8042BFC
:100F400051F8043BCCFA52F4D51A05D1002CDAD072
:100F500030BC4FF00000704729BAB1FA81F111F0AE
:100F60001801D1F120008440F2D1CA40CB4012F0E8
:100F7000FF0213F0FF0330BCD01A704708B5694672
:100F80008DF800000320ABBE08BD0000FEE70000A6
:100F900040F21860C2F2000000F0C2BB10B58AB087
:100FA00004460020CDE905000121CDE90000CDE98E
:100FB000020004900E20CDE90711099069462046F1
:100FC00000F098FA002818BF00F018FA204600F048
:100FD000B9FD002818BF00F011FA2046022100F0E8
:100FE00013FA002818BF00F009FA00200AB010BD5B
:100FF00010B588B00446082006904FF400700290A7
:101000000020CDE90400080ADDF828C08DF80000B2
:10101000100A8DF80200180A8DF804004FEA1C200F
:101020008DF801108DF803208DF805308DF806003D
:101030008DF807C0204600F05FFB0028FAD040F290
:101040004013C2F2000302A96A46204600F0F4F9F8
:10105000002818BF00F0D2F908B010BDA0F201209E
:10106000072884BF0120704740F2981200EBC000AF
:10107000C2F200020B8802EB001002461B0452F879
:1010800004CF1BBA00EE103A9FED371AB8EEC00A33
:1010900092ED0C2A20EE010A80EE020ABCF1310F1B
:1010A00082ED010A0ADC80ED060A80ED070A80ED78
:1010B000080A0CF101001060002070474A8890ED8A
:1010C000074AD2BA02EE102AB8EEC22A80ED032AED
:1010D00089889FED265AC9BA03EE101AB8EEC33AB2
:1010E00080ED043A30EE443AB4EE453AF1EE10FAAF
:1010F00080ED064A80ED070A04DD416A013941624C
:101100000CE000BF9FED1A4A024652F8241FB4EECD
:10111000443AF1EE10FABCBF0131116003EE101A2F
:10112000B8EEC33A23EE011A90ED083A90ED0C4A5E
:1011300030EE435A31EE051A81EE041A82EE042A8B
:101140004FF4B472514380ED0A1A01EE101AB8EE52
:10115000C11A30EE010A30EE430A80ED0B2A80ED11
:10116000050A0020704700BF0000B443000034436C
:10117000000034C3B0B540F298100022C2F2000063
:10118000C4F2A0224FF07E54C0E91924047840F242
:10119000000E4CF6CD4340F2000C0021C4F2401E7C
:1011A000C3F64C63C4F2A00CC4F2FA510025C0E9A6
:1011B0000EE3C0F840C0C165C566C0F888102CB108
:1011C000012C07D19FED790A02E000BF9FED760A5E
:1011D00080ED0C0A4FF08C4444634FF07E54C0E91C
:1011E0003D2490F890400025012CC0E932E3C0F87E
:1011F000D0C0C0F8EC10C0F8FC50C0F8181103D0F3
:1012000034B99FED690A01E09FED680A80ED300A6C
:101210004FF08C44C0F8C4404FF07E54C0E96124C4
:1012200090F820410025012CC0E956E3C0F860C1C8
:10123000C0F87C11C0F88C51C0F8A81104D03CB99A
:101240009FED590A02E000BF9FED580A80ED540A55
:101250004FF08C44C0F854414FF07E54C0E98524CF
:1012600090F8B0410025012CC0E97AE3C0F8F0C144
:10127000C0F80C12C0F81C52C0F8381204D03CB9A7
:101280009FED490A02E000BF9FED480A80ED780A11
:101290004FF08C44C0F8E4414FF07E54C0E9A924DB
:1012A00090F840420025012CC0E99EE3C0F880C2BE
:1012B000C0F89C12C0F8AC52C0F8C81204D03CB9B7
:1012C0009FED390A02E000BF9FED380A80ED9C0ACD
:1012D0004FF08C44C0F874424FF07E54C0E9CD24E6
:1012E00090F8D0420025012CC0E9C2E3C0F810C339
:1012F000C0F82C13C0F83C53C0F8581304D03CB9C4
:101300009FED290A02E000BF9FED280A80EDC00A88
:101310004FF08C44C0F804434FF07E54C0E9F124F0
:1013200090F860430025012CC0E9E6E3C0F8A0C3B3
:10133000C0F8BC13C0F8CC53C0F8E81304D03CB9D3
:101340009FED190A02E000BF9FED180A80EDE40A44
:10135000C0F8542490F8F0234FF08C44C0F82C349B
:101360004FF07E530025012AC0F89443C0F828E4CA
:10137000C0F830C4C0F84C14C0F85834C0F85C54FD
:10138000C0F8781404D04AB99FED070A02E000BF04
:101390009FED060A00F5846181ED000A4FF08C4153
:1013A000C0F82414B0BD00BF2CA099410000104229
:1013B00040F20070C2F2000000F05CBC40F24060FD
:1013C000C2F2000000F056BC40F26070C2F20000B1
:1013D00000F050BC40F2A060C2F2000000F04ABC35
:1013E0007047000080B54FF4805000F04BFE4FF482
:1013F0008040BDE8804000F045BE0000EFF3108063
:1014000072B600BFFEE7000090F82020013A012AE2
:1014100008D8006800F11402002013681943116015
:10142000704700BF00F1240201204FF480211368AF
:10143000194311607047000010B590F820E0D0F813
:1014400000C0AEF1010EBEF1010FDCF808E011D8CA
:101450001EF0E05F18D0CEF3016EBEF1030F1DD178
:1014600000F1240101204FF400020B681A430A60C6
:1014700010BD00BF00F1240101204FF480220B6851
:101480001A430A6010BD00BF00F1240101204FF48F
:1014900000120B681A430A6010BD00BF012000FA59
:1014A0000EF01860886818B14B6840EAC30001E08C
:1014B00008684005D1E9033403430CEB0E10C0F873
:1014C0008031C0F88441097D012905D100F5C27140
:1014D0000B6843F480730B605168C0F88C1112687C
:1014E00000F5C071C0F88821002001220B681A4362
:1014F0000A6010BDB0B590F82020013A012A2FD81B
:1015000046F20060C4F20000026842F0010202608C
:10151000026822F47C520260D1F814E0CC694A6A75
:101520000368012C43EA022202600EF01F024FF012
:10153000010303FA02F2C3696FEA020C23EA020311
:10154000C36113D02CBBC36803EA0C03C360CB6830
:101550008C8844EA034300EBCE0423640B4611E07D
:10156000416A41F4802141620120B0BDC368134348
:10157000C3600B688C8844EA034300EBCE04236409
:1015800001F10C038C681B8843EA044300EBCE0492
:10159000636443688D6943EA0204D1F810E0096A84
:1015A000002D08BF03EA0C0444604369BEF1000F3C
:1015B00043EA020408BF03EA0C040129446102D192
:1015C000C1691143C161016821F00101016000207E
:1015D000B0BD00007047000010B590F82040013CFD
:1015E000012C71D8D0F800C0002977D0DCF8104069
:1015F000A40777D00CEB011CDCF8B0410CF5D87EC9
:1016000014F004049460DCF8B04119BFE40854609D
:10161000640D1460DEF80040002904F00204D46078
:10162000DCF8B44104F00F041461DCF8B441C4F3F5
:1016300007249461DCF8B4414FEA14445461DCF8A7
:10164000B8211A70026802EB0112D2F8B8214FEAF1
:1016500012225A70026802EB0112D2F8B8214FEA46
:1016600012429A70026802EB0112D2F8B8214FEAD6
:101670001262DA70026802EB0112D2F8BC211A7110
:10168000026802EB0112D2F8BC214FEA12225A7111
:10169000026802EB0112D2F8BC214FEA12429A71A1
:1016A000026802EB0112D2F8BC214FEA1262DA7131
:1016B000006814BF00F1100100F10C01002020228D
:1016C0000B681A430A6010BD00F1240101204FF499
:1016D00080220B681A430A6010BD00BFDCF80C4082
:1016E000A40787D100F1240101204FF400120B68F8
:1016F0001A430A6010BD000090F82010013901293A
:1017000084BF002070470068816882688068C1F3E8
:101710008061C2F3C0621144C0F300700844704796
:101720002DE9F04F81B0044600684669D0F8049076
:101730008768D0F80CB0D0F810A0D0F81880F10766
:1017400004D1002530071DD424E000BFF90710D0D4
:101750000121BA07816009D4780700F1AF8038070A
:1017600000F1B680204600F01BFA02E0204600F0AF
:1017700019FA0025F80500F18780F80300F1B1801F
:10178000300707D51BF0100004D0206845F4007521
:101790001021C160700708D51BF0080005D0206833
:1017A0000821C160204600F0A1F9B00706D52068E5
:1017B000C068800702D0204600F09AF9700607D56D
:1017C0001AF0100004D0206845F4806510210161F2
:1017D000B00608D51AF0080005D02068082101617C
:1017E000204600F0A9F9F00606D5206800698007B8
:1017F00002D0204600F0A2F9B00308D519F010007D
:1018000005D0206810214160204600F099F9F003CE
:1018100008D519F0080005D020680821416020464D
:1018200000F0CAF9300440F19B805FEA497040F152
:10183000948006F4807008EA102028435FEA8871DB
:10184000014648BF41F00201B20558BF01465FEAB8
:1018500048700D4648BF45F00405700558BF0D4659
:10186000300540F17A8018F0700000F07680103872
:10187000000905286CD8DFE800F003595D6165694F
:1018800045F0080564E000BF20684FF48071BA0598
:1018900081600BD4780515D438051DD4204600F09E
:1018A00083F9F8037FF56CAF1BE000BF204600F022
:1018B0007DF9F8037FF564AF13E000BF4FF40065D6
:1018C00058E700BF05F50055F8037FF559AF08E06C
:1018D0004FF480554EE700BF05F58045F8037FF5CE
:1018E0004FAF20684FF48031BA0381600AD4780387
:1018F00010D4380314D4204600F05AF930073FF5CD
:1019000041AF47E7204600F055F930073FF53AAFC1
:1019100040E700BF05F5004530073FF533AF39E735
:1019200005F5803530073FF52DAF33E745F010055D
:101930000EE000BF45F020050AE000BF45F040057D
:1019400006E000BF45F0800502E000BF45F4807569
:101950002068816921F07001816120680421416063
:1019600055B1606A40EA05012046616201B0BDE8F8
:10197000F04FFFF72FBE00BF01B0BDE8F08F0000B1
:10198000B0B5C8B1044690F8200010B9204600F068
:1019900071F82068016841F00101016000F068FC05
:1019A000054600BF20684168C90707D100F060FC08
:1019B000401B0B28F6D312E00120B0BD016821F0D6
:1019C0000201016000F054FC054600BF2068416838
:1019D00089070DD500F04CFC401B0B28F6D3606A3C
:1019E000052140F400306062012084F82010B0BD71
:1019F000217E0268012922F0800208BF8032026045
:101A0000617E0268012922F0400208BF4032026074
:101A1000A17E0268012922F0200208BF2032026064
:101A2000E17E0268012922F0100218BF1032026024
:101A3000217F0268012922F0080208BF08320260F3
:101A4000617F0268012922F0040208BF04320260AB
:101A5000D4E901C2D4E9033561691A432A43114329
:101A6000ACF101021143C16100200121606284F8E0
:101A70002010B0BD80B586B0016846F20040C4F2C7
:101A80000000814202D006B080BD00BF002143F6B5
:101A900030020191C4F20202136900F5D43043F020
:101AA00000731361136903F000730193019B0191AB
:101AB000136843F0080313601268022302F008025F
:101AC0000192019ACDE9023109210322059101A970
:101AD0000192049200F0E2FA14200021002200F0AA
:101AE00047FC142000F034FC06B080BD70470000B5
:101AF00080B588B040F21862C2F200020168126834
:101B0000914201D008B080BD40F23613C2F200030A
:101B100001AA0021FFF760FD002818BFFFF76EFC47
:101B200003980028EED1019840F23611C2F200016C
:101B3000FFF794FA08B080BD7047000070470000BE
:101B400070470000B0B5044690F8200001281DD170
:101B5000022084F820002068016821F00101016062
:101B600000F086FB054600BF20684068C00713D020
:101B700000F07EFB401B0B28F6D3606A40F4003077
:101B80006062052084F820000120B0BD606A40F446
:101B9000002060620120B0BD00206062B0BD000086
:101BA0007047000070470000704700007047000059
:101BB00070470000704700007047000070B5866DE8
:101BC000044600F055FB94F8351002292ED1054645
:101BD0002068216C026822F016020260426922F03D
:101BE0008002426109B9A16C19B1016821F00801B4
:101BF0000160016821F0010101600068C00708D0A0
:101C000000F036FB401B052818D820680068C00784
:101C1000F6D1E06D3F2101FA00F0B060012084F8B8
:101C200035000020002184F8341070BD80206065EC
:101C30000120002184F8341070BD00BF20206065B1
:101C4000032084F83500002184F8341070BD0000B2
:101C500090F83510022909D1052180F83510006867
:101C6000016821F001010160002070478021416579
:101C700001207047F0B581B004460020009040F28A
:101C80000800C2F200000268D4E9166048F2B513F9
:101C900037680821C1F64E3381403942A2FB032543
:101CA0000CD0226813685B0708D5136823F004037F
:101CB0001360B160616D41F00101616501218140F6
:101CC000394208D022685269120604D5B160616DAC
:101CD00041F00201616504218140394208D0226847
:101CE0001268920704D5B160616D41F0040161652D
:101CF00010218140394217D020680268120713D59D
:101D0000B16002680168520308D4C90508D40168AB
:101D100021F008010160216C21B905E008033FD4DE
:101D2000216C09B120468847E16D202000FA01F2BC
:101D30003A4241D020680368DB063DD5B26094F892
:101D400035300268052B1BD122F016020260426971
:101D500022F080024261226C0AB9A26C1AB10268B8
:101D600022F0080202603F208840B060012084F821
:101D70003500216D0020002984F8340052D157E04D
:101D80000168520310D4C90512D4016821F0100172
:101D90000160012084F83500002084F8340007E059
:101DA000A16C0029BED1BFE7080301D4616C00E03B
:101DB000E16B09B120468847606DC8B3606DC0070C
:101DC0002ED0052084F835002068A90A026822F088
:101DD00001020260009A01328A4200921AD8026817
:101DE000D20717D0009A01328A42009212D80268B4
:101DF000D2070FD0009A01328A4200920AD80268B4
:101E0000D20707D0009A01328A42009202D80268B3
:101E1000D207DFD1012084F83500002084F8340097
:101E2000E16C29B1204601B0BDE8F040084700BF91
:101E300001B0F0BD2DE9F041044600F019FA002C84
:101E40004ED00546022084F835000020216884F831
:101E50003400086820F0010008600868C00708D056
:101E600000F006FA401B05286CD821680868C007F6
:101E7000F6D1086848F23F02CFF21002D4E90135EA
:101E8000024004F10C0E9EE8C1511A432A4310434C
:101E90003043384340EA0800626A40EA0C00042AF2
:101EA00040EA0E0320D1D4E90A5E206B4EEA030219
:101EB000104308604869BEF1000F20F0030040EABB
:101EC000050040F0040C15D0B8F5005F42D0B8F121
:101ED000000F51D1022D52D0012D47D055B94EE0FF
:101EE0000120BDE8F08100BF0B60486920F00700C9
:101EF00040EA020C6FF00F004AF6AB2250FA81F074
:101F0000CAF6AA22A0FB02231A0946F60423C0F649
:101F100000039A5C40F2FF335F284FF03F00C1F8A6
:101F200014C021EA030100FA02F088BF0431C4E9B9
:101F300016128860002301220020636584F8352092
:101F4000BDE8F081032220230320636584F8352057
:101F5000BDE8F081032DCDD8012240230120DFE828
:101F600005F0030E030500BFE7E700BFAEF1C07048
:101F7000B0FA80F0400904E0032D04D3BAD1CEF3C7
:101F800000600028B6D0012240230120636584F858
:101F90003520BDE8F081000070B590F834C0BCF188
:101FA000010F46D04FF0010C80F834C0D0F858E053
:101FB00090F835C0BCF1010F38D14FF0020C80F819
:101FC00035C04FF0000CC0F854C0D0F800C0846891
:101FD000056CC06DDCF80060402C26F48026CCF83F
:101FE0000060CCF804300B4604BF13460A463F217C
:101FF00001FA00F0CCF80830CCF80C20CEF808003C
:10200000DCF8000040F01600CCF800002DB1DCF840
:10201000000040F00800CCF80000DCF8000040F0C0
:102020000100CCF80000002070BD00BF002180F846
:102030003410022070BD0000B0B5044600F018F95D
:10204000054640F20000C2F200000078611C18BF93
:10205000044400BF00F00CF9401BA042FAD3B0BD0D
:1020600010B5044640F6E000C2F20000214602F03E
:10207000D3FD40F69010C2F200002146BDE81040AA
:1020800002F0CABD43F61441C4F201010A680242DB
:1020900014BF08607047FFF7E3BF00002DE9F04F61
:1020A00082B000F13E4242F2004502F1FF77C4F2F5
:1020B00002050A224FEAB726A84208BF0922092EC4
:1020C00038BF4FEAB7224FF0010A002400274FF033
:1020D0000008009208E000BF023708F10108202F35
:1020E00004F1040400F0B4800E680AFA08F916EA54
:1020F000090FF1D0D1F804A00AF0030BABF10106EF
:10210000012E17D80322866802FA07FECA6826EA5B
:102110000E06BA40324382604268CAF3001522EAD2
:10212000090205FA08F54FEA480C6FEA0E062A4341
:1021300042600BE00322BA40D643BBF1030FBC461A
:1021400004D1BC464FF0030B22E000BFC2688D688B
:10215000324005FA0CF52A43BBF1020FC26017D1D9
:102160006FF0030202EA5802024404F01C030F2538
:10217000D2F820E005FA03FA0D692EEA0A0E05FAF4
:1021800003F343EA0E031362D1F804A00AF0030B31
:1021900002680BFA0CF332401A431AF4403F4FF036
:1021A000010A026098D0002243F644030192C4F26F
:1021B00002031A6843F6004E42F480421A601A681D
:1021C000C4F2010E02F480420192019A28F0030247
:1021D0004FF6084C7244CFF6FF7C52F80C3004F0F6
:1021E0000C060F25B540AB43009D05FA06F63343B8
:1021F00042F80C30DEF808204B6842EA090643F644
:102200000C4CDD0258BF22EA0906CEF80860C4F281
:10221000010CDCF800209D0242EA090658BF22EAC0
:102220000906CCF80060DEF804209D0342EA0906A6
:1022300058BF22EA0906CEF80460DEF80020DB036E
:1022400042EA090658BF22EA0906CEF8006043E7D1
:1022500002B0BDE8F08F00000069084018BF0120FF
:1022600070470000002A08BF090481617047000020
:1022700040F64020C2F200000068704740F20000C3
:1022800040F64021C2F20000C2F2000100780A6864
:10229000104408607047000080B543F60040C4F267
:1022A0000200016841F400710160016841F480613D
:1022B0000160016841F480710160032000F084F83E
:1022C0000F2000F005F800F027F8002080BD000086
:1022D00070B540F20006C2F2000640F20801327802
:1022E000C2F200014FF47A730968B3FBF2F20446BC
:1022F000B1FBF2F1084600F07FFB0F2C4FF0010517
:1023000008D838B94FF0FF3021460022002500F0F0
:102310002FF87460284670BD82B0002043F640015B
:102320000190C4F202014A6842F480424A604A685D
:1023300002F480420192019A0090086840F08050B7
:102340000860086800F080500090009802B0704764
:10235000002848BF704700F01F01012202FA01F176
:102360004EF200124009CEF2000242F820107047EF
:1023700010B54EF60C5CCEF2000CDCF80030C3F366
:10238000022E8EF00704042C28BF0424BEF10303A0
:102390004FF0FF3E0EFA04F438BF0023A1439940EA
:1023A0000EFA03F39A43114300F00F02043A624419
:1023B00009010C3200F16043B0F1FF3FC8BF03F5E3
:1023C0006442117010BD00004EF60C51CEF20001B7
:1023D0000A684FF6FF031A4060F30A2242F0806059
:1023E00040F0FD700860704770B582B00020019029
:1023F00043F64000C4F202000168402641F08051DB
:1024000001600068C4F20E2600F08050019001982F
:1024100047F204050120C4F200053060FFF728FFF1
:10242000044600BF2868C00306D4FFF721FF001B45
:10243000B0F57A7FF6D90EE001207060FFF718FF43
:10244000044600BF2868800308D4FFF711FF001B73
:10245000B0F57A7FF6D9032002B070BD002002B03B
:1024600070BD00002DE9F041002800F08B8043F69C
:102470000808C4F202080446D8F8F8030D4600F034
:102480000F00884207D288F8F853D8F8F80300F014
:102490000F00A84276D12068810717D5410705D5DE
:1024A000D8F8001041F4E051C8F80010010705D534
:1024B000D8F8001041F46041C8F80010D8F80010B6
:1024C000A26821F0F0011143C8F80010C0073FD105
:1024D000D8F8F80300F00F00A84207D988F8F8539D
:1024E000D8F8F80300F00F00A8424BD1206841074C
:1024F00007D5D8F80010E26821F4E0511143C8F87C
:102500000010000708D5D8F80000216920F46040C9
:1025100040EAC100C8F8000000F07CF8D8F80010CC
:1025200046F6FC02C1F30311C0F60002515C40F212
:10253000080220FA01F140F20400C2F20000006833
:10254000C2F200021160FFF7C3FE0020BDE8F08177
:102550006068811E022907D258F8081C89015CBFF7
:102560000120BDE8F08111E0012807D158F8081CCE
:1025700089035CBF0120BDE8F08107E058F8081C22
:10258000890703D40120BDE8F08100BFD8F800100E
:1025900021F003010843C8F80000FFF769FE064672
:1025A00041F28837D8F80000616800F00C00B0EB09
:1025B000810F8DD0FFF75CFE801BB842F2D903205B
:1025C000BDE8F08140F2080043F60801C2F20000C5
:1025D000C4F202010068096846F60C12C1F38221B8
:1025E000C0F60002515CC8407047000040F208008D
:1025F00043F60801C2F20000C4F202010068096853
:1026000046F60C12C1F34231C0F60002515CC840DC
:102610007047000010B543F60404C4F20204606879
:1026200000F00C0008280BD0042819BF42F200402B
:10263000C0F2F40041F60030C0F2B70010BD00BF98
:10264000206821682368490241F60031C0F2B701D1
:1026500000F03F02C3F388105CBF42F20041C0F2B9
:10266000F401A1FB00010023FDF728FE21680222EE
:10267000C1F3014102EB4101B0FBF1F010BD0000DC
:102680002DE9F04182B000286AD00446007843F674
:102690000006C007C4F202060BD0B06800F00C00C0
:1026A000042840F0A1803068800302D560680028CB
:1026B00056D0207880071AD5B06810F00C0F09D0DA
:1026C000B06800F00C00082840F0A8807068400254
:1026D00000F1A4803068800702D5E06801283FD16E
:1026E0003068216920F0F80040EAC10030602078AD
:1026F000000739D4207840074ED4A5695DB3B0688F
:1027000000F00C00082840F0BD80012D28D0706832
:10271000E16900F480028A4222D1216A00F03F027E
:102720008A421DD147F6C071626A0140B1EB821F37
:1027300016D1A26A0023CFF6FF7303EBC23200F476
:1027400040316FF30F0291420AD1E16A00F07060EC
:10275000B0EB016F04D1002002B0BDE8F08100BFF2
:10276000012002B0BDE8F0816069002840F200005D
:10277000C4F2472076D00121C0F8801EFFF778FD13
:10278000054600BF706F8007B4D4FFF771FD401B92
:102790000228F7D9DDE000BF306C10F080580AD174
:1027A00000200190306C40F080503064306C00F0BC
:1027B00080500190019847F20007C4F20007386882
:1027C000C00541D4386840F480703860FFF750FD90
:1027D000054600BF3868C00536D4FFF749FD401BE9
:1027E0000228F7D9B5E000BFB06800F00C00082857
:1027F00003D1706840023FF556AF6068B0F5803F86
:1028000007D0B0F5A02F40F08D80306840F48020D4
:102810003060306840F4803030608DE0E06800283F
:1028200052D00020C4F2472001210160FFF720FDB3
:10283000054600BF306880073FF552AFFFF718FD2F
:10284000401B0228F6D984E0A068012805D005289D
:102850004ED1306F40F004003067306F40F001001F
:1028600030674FE00021C0F8801EFFF701FD0546EC
:10287000706F80077FF53EAFFFF7FAFC401B022820
:10288000F6D966E00027C4F2472700203866FFF734
:10289000EFFC022D05460BD1306880015ED5FFF7B5
:1028A000E7FC401B02284FF00300F5D954E700BFB6
:1028B000306880017FF54FAFFFF7DAFC401B02283C
:1028C0004FF00300F4D947E70020C4F2472000216D
:1028D0000160FFF7CDFC0546306880077FF507AF44
:1028E000FFF7C6FC401B02284FF00300F4D933E782
:1028F000316F002821F001013167316F21F00401AF
:1029000031674DD0FFF7B4FC054641F2883700BF70
:10291000306F800756D4FFF7ABFC401BB842F7D9A5
:1029200017E000BF3168002821F480313160316840
:1029300021F4802131604FD0FFF79AFC054600BF9B
:10294000306880033FF5B5AEFFF792FC401B64286A
:10295000F6D9032002B0BDE8F08100BF04F11C05E8
:102960002FCD08430021CFF6FF7140EA821001EB22
:10297000C3316FF30F0140EA056008437060012026
:102980003866FFF775FC0446306880013FF5E3AE1A
:10299000FFF76EFC001B02284FF00300F4D9DBE6C2
:1029A000FFF766FC054641F2883700BF306F8007AD
:1029B00008D5FFF75DFC401BB8424FF00300F5D986
:1029C000CAE600BFB8F1000F7FF497AE306C20F07C
:1029D0008050306491E600BFFFF74AFC054600BF17
:1029E000306880037FF565AEFFF742FC401B64282A
:1029F0004FF00300F4D9AFE6411E0020B0EB116F99
:102A00001CBF012070474EF21002CEF2000251604E
:102A10004EF62351CEF20001F0230B700721906097
:102A2000116070477047000070470000B0B590F823
:102A30003C20012A04BF0220B0BD01F108053CCDB5
:102A4000D1E900CE23F47C5322F470521A432EF4C1
:102A5000F0431A432CF4E0431A4324F4C0431A43CE
:102A60002A43C96922F48042036811435964002152
:102A700080F83C100846B0BD10B590F83C20012A03
:102A80004FF0020251D080F83D200268D2F804E0F5
:102A9000D2F808C00C682EF07003234341F2FF7493
:102AA000C4F20004A24253600EDC40F2FF73C4F291
:102AB00000039A4216DCB2F1804F2BD040F2004363
:102AC000C4F2000324E000BF40F2FF33C4F201036C
:102AD0009A4213DC41F60003C4F200039A4219D073
:102AE000002313E040F60003C4F200039A4211D021
:102AF00040F60043C4F200030AE000BF44F20003C2
:102B0000C4F201039A4205D040F20043C4F201032B
:102B10009A4204D149682CF0800319439160012145
:102B2000002280F83D1080F83C20104610BD0000C7
:102B3000002804BF0120704710B5044690F83D00FE
:102B400028B9002084F83C00204600F01FF802203D
:102B500084F83D002068211D01F04AFC012084F822
:102B6000460084F83E0084F83F0084F8400084F872
:102B7000410084F8420084F8430084F8440084F85B
:102B8000450084F83D00002010BD000010B584B061
:102B9000006844F20001C4F2010188421ED040F2F4
:102BA0000041C4F2010188422AD0B0F1804F1CBF1D
:102BB00004B010BD0020039043F64400C4F20200AC
:102BC00050F8041C1C2441F0010140F8041C50F88A
:102BD000040C00F001000390039821E00020019014
:102BE00043F64400C4F202000168182441F4803125
:102BF0000160006800F480300190019810E000BF8F
:102C00000020029043F64400C4F2020001682C2424
:102C100041F002010160006800F002000290029899
:102C2000204600210022FFF7A3FB204604B0BDE8A8
:102C30001040FFF78DBB000090F83D1001291CBF2C
:102C400001207047022180F83D10006841F2FF72B8
:102C5000C168C4F20002904241F00101C1600DDC84
:102C600040F2FF71C4F20001884215DCB0F1804FE0
:102C70002AD040F20041C4F2000123E040F2FF31CB
:102C8000C4F20101884213DC41F60001C4F20001E4
:102C9000884219D0002113E040F60001C4F200017F
:102CA000884211D040F60041C4F200010AE000BFA2
:102CB00044F20001C4F20101884205D040F2004113
:102CC000C4F20101884206D1816801F0070106299A
:102CD00004BF00207047016841F00101016000203D
:102CE0007047000080B590F83C20012A4FF00202A6
:102CF00000F0C28080F83D20D0F800C04FF6777217
:102D0000DCF8083023EA0202CCF808200B684F2BCD
:102D100028DC1F2B44DD202B45D0302B43D0402B0B
:102D200040F0AC80D1F804E0C968DCF82030DCF871
:102D3000202022F00102CCF82020DCF8182022F01C
:102D4000F00242EA011123F00A0242EA0E02CCF834
:102D50001810CCF82020DCF8081041F0470121F0D1
:102D6000300180E06F2B27DDB3F5005F48D0B3F56D
:102D7000805F7AD0702B40F08180D1E901E3C9688F
:102D8000DCF8082043EA0E0322F47F4243EA0121E3
:102D90001143CCF80810DCF8081041F0770162E02C
:102DA0000BB1102B6AD1DCF8081021F07001194327
:102DB00041F0070157E000BF502B35D0602B5DD1AB
:102DC000D1F804E0C968DCF8203023F01003CCF817
:102DD0002030DCF81830DCF8202023F4704322F097
:102DE000A00243EA013142EA0E12CCF81810CCF8E6
:102DF0002020DCF8081041F0670121F0100132E0DA
:102E0000D1E901E3C968DCF8082043EA0E0322F4A3
:102E10007F4243EA01211143CCF80810DCF8081086
:102E200041F480411FE000BFD1F804E0C968DCF83C
:102E30002030DCF8202022F00102CCF82020DCF841
:102E4000182022F0F00242EA011123F00A0242EABD
:102E50000E02CCF81810CCF82020DCF8081041F055
:102E6000570121F02001CCF808100022012180F840
:102E70003D10002180F83C10104680BD0122F5E78E
:102E80007047000010B5016804460869800744BF18
:102E9000C8685FEA807039D40869400744BFC868D1
:102EA0005FEA40703ED40869000744BFC8685FEA23
:102EB000007045D40869C00644BFC8685FEAC060B6
:102EC0004AD40869C0071CBFC8685FEAC07051D106
:102ED0000869000644BFC8685FEA006052D4086908
:102EE000400644BFC8685FEA406053D40869800662
:102EF00046BFC8685FEA806010BD6FF020022046C0
:102F00000A61BDE81040FFF78FBD00BF6FF00200FF
:102F10000861012020778869800743D02046FFF7A9
:102F2000AFFF45E06FF00400086102202077886958
:102F300010F4407F40D02046FFF7A2FF42E000BFE0
:102F40006FF00800086104202077C86980073DD031
:102F50002046FFF795FF3FE06FF010000861082062
:102F60002077C86910F4407F3AD02046FFF788FFE9
:102F70003CE000BF6FF001000861204600F080F9DE
:102F80002168A5E76FF0800008612046FFF74AFD41
:102F90002168A4E76FF040000861204600F002FAC3
:102FA0002168A3E7204600F025F8204600F066F9E6
:102FB0002168002020776FE7204600F01BF82046AC
:102FC00000F05CF92168002020776CE7204600F0D3
:102FD00011F8204600F052F921680020207769E7B7
:102FE000204600F007F8204600F048F9216800204C
:102FF000207766E7704700002DE9F04190F83C30FB
:10300000012B04BF0220BDE8F0814FEAB202032A7F
:1030100000F2FC80DFE802F0023E7EBE036840F270
:1030200000471A6A43F4806522F001021A621C6AA2
:103030001A46D3F804E052F818CF8E6824F0020440
:10304000C4F20107BD4244EA060405D1CE6824F06B
:103050000C0426F0040634430E68BD4207D1D1E9C2
:1030600005572EF4407E45EA0E0545EA070E2CF082
:1030700073073743C3F804E09F614F6809695F63D2
:103080001C629F6947F008079F619F6927F004074A
:103090009F61B1E0036840F200481A6A43F480651A
:1030A00022F010021A621C6A1A46D3F804E052F8A1
:1030B00018CF8F6824F02004C4F20108454544EA83
:1030C000071407D1CF686FF0400624F0C00406EA69
:1030D000071634430F68454507D1D1E905562EF44C
:1030E000406E4EEA850545EA860E2CF4E64646EA31
:1030F0000727C3F804E09F614F6809699F631C625A
:103100009F6947F400679F619F6927F480679F610B
:1031100071E000BF036840F200481A6A43F480651A
:1031200022F480721A621C6A1A46D3F804E052F83C
:103130001CCF8F6824F40074C4F20108454544EAAA
:10314000072408D1CF6840F2FF463F0224F44064D0
:1031500027EA060634430F68454507D1D1E90556ED
:103160002EF4405E4EEA051545EA061E2CF0730665
:103170003743C3F804E0DF614F680969DF631C620D
:10318000DF6947F00807DF61DF6927F00407DF61C7
:1031900032E000BF036840F200451A6A43F48067DA
:1031A00022F480521A621A46D3F820C05C6852F8A2
:1031B0001CEFD1F800808E68C4F20105AF4204D143
:1031C0004D6924F4804444EA85142CF4005747EAFE
:1031D00006372EF4E64646EA08265C60DE614E6855
:1031E00009691E641F62DF6947F40067DF61DF69F8
:1031F00027F48067DF610902136819431160002119
:10320000002280F83C200846BDE8F0810121002220
:1032100080F83C200846BDE8F0810000002804BF8B
:103220000120704710B5044690F83D0028B90020F1
:1032300084F83C00204600F01FF8022084F83D008E
:103240002068211D01F0D4F8012084F8460084F89C
:103250003E0084F83F0084F8400084F8410084F880
:10326000420084F8430084F8440084F8450084F860
:103270003D00002010BD00007047000070470000B6
:1032800070B584B040F60801C2F20001044600683F
:10329000096888420CD140F6E000C2F2000001F05B
:1032A0001FFD40F69010C2F2000001F019FD2068E9
:1032B00040F65001C2F200010968884202D004B011
:1032C00070BD00BF40F27805C2F2000595F9130009
:1032D000B0F1FF3F04DD0120E87405F1080002E0D1
:1032E0000121A868E9603A2140F6E00440F6901612
:1032F0000180C2F20004C2F2000694ED270A96EDA6
:10330000271A05F1140070EE410A9FED240A01F01E
:10331000D7FBBDEEC00A85ED010A94ED270A96EDB4
:10332000271A95ED002A30EE410AB8EEC21A30EEA7
:10333000010ABDEEC00A01AC10EE101A204685ED60
:10334000000A01F0FCFF9DF90F00DDE901120028E1
:103350005CBF2146C2B205F10804204601F04AFED6
:103360009DF90F00B0F1FF3F02DC019802F046F832
:103370000BA1204601F031FEE87CD5E9021342B2F0
:10338000002A5CBF2146034640F698009AB2C2F27A
:10339000000000F015FC04B070BD00BF000000008C
:1033A0000A000000704700007047000070470000EE
:1033B000B0B582B0044600680168C368426901F094
:1033C0002F05202D03F0200506D12DB1204602B097
:1033D000BDE8B04001F010BA5FEA017C1EBF02F008
:1033E000010E03F4907212EB0E0255D1226B012AEA
:1033F00005D111F0100218BF13F0100236D10A06E1
:1034000022D513F080021FD094F83D10212941D11C
:10341000A168B1F5805F03D12169002900F06C82B9
:10342000216A4A1C226209784160E18C01390A0450
:10343000E1842FD1C16821F08001C160C16841F0F1
:103440004001C16002B0B0BD490623D513F0400170
:1034500020D0C16821F04001C1602021204684F8BD
:103460003D1002B0BDE8B04000F018BC0021019151
:10347000016801914168019101994169490600F192
:103480008B80A18DE28DE38D002B1CBF891A5FEA32
:1034900001420CD102B0B0BDCA0718BF13F480724C
:1034A00040F032814A0700F135813AE1206850E866
:1034B000030F226820F4907042E80303DBB1206818
:1034C00050E8030F226820F4907042E8030393B1A0
:1034D000206850E8030F226820F4907042E803034C
:1034E0004BB1206850E8030F226820F4907042E846
:1034F0000303002BDAD1206850E8050F226820F082
:10350000010042E80503DBB1206850E8050F22689E
:1035100020F0010042E8050393B1206850E8050F50
:10352000226820F0010042E805034BB1206850E812
:10353000050F226820F0010042E80503002BDAD1D4
:10354000202084F83E0000202063206850E8030F0C
:10355000226820F0100042E80303DBB1206850E845
:10356000030F226820F0100042E8030393B12068A3
:1035700050E8030F226820F0100042E803034BB12B
:10358000206850E8030F226820F0100042E803038F
:10359000002BDAD189B2B0E0A26B11684B689DB202
:1035A000002D3FF477AFA18D8D42BFF473AFE3855B
:1035B000D269B2F5807F00F09D8050E8030F21684A
:1035C00020F4807041E80302E2B1206850E8030F64
:1035D000216820F4807041E803029AB1206850E825
:1035E000030F216820F4807041E8030252B1206883
:1035F00050E8030F216820F4807041E803020AB10B
:103600002068DAE7206850E8050F216820F0010003
:1036100041E80502DAB1206850E8050F216820F082
:10362000010041E8050292B1206850E8050F2168C9
:1036300020F0010041E805024AB1206850E8050F7A
:10364000216820F0010041E80502002ADAD1206853
:1036500050E8050F216820F0400041E80502DAB18A
:10366000206850E8050F216820F0400041E805027D
:1036700092B1206850E8050F216820F0400041E831
:1036800005024AB1206850E8050F216820F040008B
:1036900041E80502002ADAD1202084F83E0000200B
:1036A0002063206850E8030F216820F0100041E8F3
:1036B0000302DAB1206850E8030F216820F01000FF
:1036C00041E8030292B1206850E8030F216820F01E
:1036D000100041E803024AB1206850E8030F216856
:1036E00020F0100041E80302002ADAD1A06BFEF7B7
:1036F00065FAA18DE08D081A81B2204602B0BDE8BE
:10370000B040FFF751BE00BF226C42F001022264BC
:103710004A0706D5BEF1000F03D0226C42F0020228
:1037200022648A0706D5BEF1000F03D0226C42F056
:1037300004022264BCF1000F06D555EA0E0203D044
:10374000226C42F008022264226C002A3FF4A2AEEE
:1037500011F0200118BF002D03D0204601F04CF8D5
:1037600020684169226C01F0400102F008028918CA
:1037700000F0A28050E8030F216820F4907041E827
:103780000302C2B3206850E8030F216820F4907050
:1037900041E803027AB3206850E8030F216820F45F
:1037A000907041E8030232B3206850E8030F2168AB
:1037B00020F4907041E80302EAB12068DAE700BF24
:1037C000206850E8050F216820F0010041E805025B
:1037D000DAB1206850E8050F216820F0010041E8C7
:1037E000050292B1206850E8050F216820F0010021
:1037F00041E805024AB1206850E8050F216820F031
:10380000010041E80502002ADAD1206B012824D109
:10381000206850E8030F216820F0100041E80302FF
:10382000DAB1206850E8030F216820F0100041E869
:10383000030292B1206850E8030F216820F01000C5
:1038400041E803024AB1206850E8030F216820F0E4
:10385000100041E80302002ADAD1202084F83E005B
:10386000002020632068416949063FD550E8050FD4
:10387000216820F0400041E805022AB3206850E8A2
:10388000050F216820F0400041E80502E2B1206800
:1038900050E8050F216820F0400041E805029AB188
:1038A000206850E8050F216820F0400041E805023B
:1038B00052B12068DAE700BF2046FFF777FD00200D
:1038C000206402B0B0BD00BFA06B78B144F2B95122
:1038D000C0F600010165FEF7BBF900283FF4DAAD40
:1038E000A06B016D02B0BDE8B0400847204602B0B1
:1038F000BDE8B040FFF75ABD216A31F8022B6FF3E3
:103900005F224260216290E5002804BF01207047D9
:1039100010B5044690F83D0028B9002084F83C001A
:10392000204600F021F8242084F83D002068C1687A
:1039300021F40051C160204600F0DEFF20680169DB
:1039400021F490410161416921F02A014161C1687E
:1039500041F40051C16000202021206484F83D1012
:1039600084F83E1010BD00002DE9F04387B00446F6
:10397000006841F20041C4F2010100268842CDE90D
:103980000566CDE9036602966CD041F20001C4F2EF
:103990000101884240F0D580002643F630000196B0
:1039A000C4F20200416946F2284841F01001416129
:1039B0004169C4F2020801F01001019101990196D8
:1039C000016841F002010160006802A900F00200F4
:1039D00001900198C02002900220CDE90306032047
:1039E00005900720069040F20040C4F20200FEF766
:1039F00055FB40F2406508F16000C2F200054FF04F
:103A000000674FF48069C5E900072846C5E90266EA
:103A1000C5E90496C5E90666C5E90866FEF70AFA2F
:103A2000002818BFFDF7EAFCA563AC6340F2A0656F
:103A300008F19000C2F200054021C5E9000705F138
:103A4000080080E842022846C5E90566C5E9076620
:103A50006E62FEF7EFF900284FF0250618BFFDF75C
:103A6000CDFC64E043F630000196C4F202004169E7
:103A700046F2284841F0200141614169C4F2020840
:103A800001F02001019101990196016841F0400186
:103A90000160006802A900F04000019001984FF415
:103AA000844002900220CDE90306032005900820FF
:103AB000069040F20040C4F2020000F5A050FEF76C
:103AC000EDFA40F20075C2F200054FF020674FF4A6
:103AD00080692846C5E90087C5E90266C5E90496FC
:103AE000C5E90666C5E90866FEF7A4F9002818BF0F
:103AF000FDF784FCA563AC6340F2607508F17800C3
:103B0000C2F200054021C5E9000705F108000022C6
:103B100080E806022846C5E90522C5E907226A624F
:103B2000FEF788F94FF0470608B1FDF767FC30460D
:103B3000002100226563AC63FEF71AFC3046FEF7F5
:103B400007FC07B0BDE8F08390F83E30202B0BD186
:103B500000294FF0010318BF002A01D11846704711
:103B600090F83C30012B01D1022070470023036301
:103B7000816222218285C285036480F83E10026939
:103B8000016880F83C301AB1C86840F48070C860A1
:103B90004869002340F001004861C86840F02000F7
:103BA000C86018467047000040F2CC01C2F2000124
:103BB00000680968884208BF00F0BABC704700007E
:103BC00070B5044690F83D0020280AD100294FF036
:103BD00001055ED01346002A5BD094F83C00012812
:103BE00002D1022070BD00BF012084F83C000025F6
:103BF00021202162A384E384256484F83D002668A3
:103C0000606B44F2C55244F2417C44F2F17EC0F64E
:103C10000002C0F6000CC0F6000EC0E91325321DEC
:103C2000C0E90FCEFEF7B8F920686FF0400140F808
:103C3000141B84F83C5050E8000F216840F08000CD
:103C400041E805022AB30025206850E8050F2168E5
:103C500040F0800041E80502F2B1206850E8050F0D
:103C6000216840F0800041E80502AAB1206850E8D0
:103C7000050F216840F0800041E8050262B120682C
:103C800050E8050F216840F0800041E80502002A55
:103C9000DAD1284670BD00BF002070BD704700001B
:103CA00070470000FEE7000080B540F2186046F261
:103CB0000041C2F20000C4F2000100234FF4003CB6
:103CC000092280E80E00C0E9033CC0E90533838384
:103CD000FDF756FE002808BF80BDBDE88040FDF717
:103CE0008DBB000080B582B00020019043F630000B
:103CF000C4F202000168002241F480010160006802
:103D0000002100F48000019001983920FEF730FB7B
:103D10003920FEF71DFB442000210022FEF728FB7E
:103D20004420FEF715FB452000210022FEF720FB72
:103D30004520FEF70DFB462000210022FEF718FB70
:103D4000462002B0BDE88040FEF702BB2DE9F04FEF
:103D500087B0002743F6300006970197C4F20200AF
:103D6000016841F2004641F0400101600168C4F27F
:103D7000020601F04001019101990197016806F5E1
:103D8000406541F0010101600168002201F001017C
:103D900001910199019701684FF4007441F002010B
:103DA0000160016801F00201019101990197016828
:103DB00041F008010160016801F0080101910199D9
:103DC0000197016841F480710160016801F480711C
:103DD000019101990197016841F0040101600168B6
:103DE00001F00401019101990197016841F08001FE
:103DF0000160016801F0800101910199019701685A
:103E000041F020010160016801F020010191019958
:103E10000197016841F01001016000684FF40071E2
:103E200000F01000019001982846FEF71BFA30467A
:103E30004FF480610022FEF715FAA6F5406A50465D
:103E400022210022FEF70EFAA6F5A0503021012211
:103E500000904FF0010BFEF705FAA6F58069484681
:103E60004FF400610122FEF7FDF930464FF4804126
:103E70000122FEF7F7F9CDE9024B02AC28462146B4
:103E8000CDE90477FEF70AF94FF48840CDE9020B3B
:103E900030462146CDE90477FEF700F94FF4204083
:103EA000A6F50065CDE902074FF002082846214635
:103EB000CDF81080FEF7F2F82220CDE9020B504633
:103EC0002146CDE90477FEF7E9F84FF4A0400290CF
:103ED0004FF44410CDE9030828462146FEF7DEF8EA
:103EE0003020CDE9020B00982146CDE90477FEF79A
:103EF000D5F84FF40060CDE9020B48462146CDE9E4
:103F00000477FEF7CBF8282000210022FEF730FAD4
:103F10002820FEF71DFA07B0BDE8F08F10B594B069
:103F200040F2C0700021C2F200004FF08042B32383
:103F300040F2E7340D91CDE90B110991CDE907115C
:103F4000CDE90511CDE90311CDE90111C0E9002347
:103F5000C0E9021401618161FEF7EAFD002818BF83
:103F6000FDF74CFA4FF480500A9040F2C070C2F254
:103F700000000AA9FEF7B6FE002818BFFDF73EFABA
:103F800040F2C070C2F20000FFF748F9002818BFE5
:103F9000FDF734FA40F2C0700024C2F2000008A914
:103FA000CDE90844FEF768FD002818BFFDF726FAA2
:103FB0006020CDE9010440F2C070C2F2000001A906
:103FC000002203940594FFF717F8002818BFFDF7A7
:103FD00015FA40F2C074C2F2000401A9204604227E
:103FE000FFF70AF8002818BFFDF708FA216840F229
:103FF0000042C4F20102002091420F9018D0B1F1AA
:10400000804F34D100200E9043F63000C4F20200FD
:10401000016841F0010101600068012100F0010028
:104020000E900E9803200F900020C4F2020015E0BD
:104030000E9043F63000C4F20200016841F4807132
:1040400001600068032100F480700E900E986020DB
:104050000F900020C4F2020000F5005002221092DE
:10406000002213910FA9CDE91122FEF717F814B021
:1040700010BD000070B59CB040F2004540F608004D
:10408000C4F201050021C2F2000040F2671242F2C0
:104090000F731591CDE913111191CDE90F11CDE9F0
:1040A0000D11CDE90B11CDE90911CDE90711CDE9CC
:1040B0000511CDE90311CDE90111C0E90052C0E9B4
:1040C0000213C0E904118161FEF732FD002818BF18
:1040D000FDF794F94FF48050129040F60800C2F2B8
:1040E000000012A9FEF7FEFD002818BFFDF786F9B3
:1040F00040F60800C2F20000FFF790F8002818BF51
:10410000FDF77CF940F608000024C2F2000010A977
:10411000CDE91044FEF7B0FC002818BFFDF76EF99A
:104120006020CDE9090440F60800C2F2000009A9A8
:104130000022CDE90B44CDE90D440F94FEF75CFF5E
:10414000002818BFFDF75AF940F60800C2F2000037
:1041500009A90422FEF750FF002818BFFDF74EF909
:1041600040F608044FF40050C2F200040026069006
:1041700001A920460596CDE90366CDE901660896BA
:10418000FEF754FC002818BFFDF738F92068179691
:10419000A84217D0B0F1804F31D10020169043F6DD
:1041A0003000C4F20200016841F0010101600068C2
:1041B000012100F00100169016980320179005F5D4
:1041C0007C4013E00020169043F63000C4F2020059
:1041D000016841F4807101600068032100F480707F
:1041E000169016986020179005F58E3002221892CE
:1041F00000221B9117A9CDE91922FDF74FFF1CB032
:1042000070BD000080B584B040F650000021C2F2BD
:10421000000044F2000242F20F7C0391CDE901114B
:10422000C4F201020823C0E9021C01618021C0E937
:1042300000238161FEF77CFC002818BFFDF7DEF843
:104240004FF48050009040F65000C2F200006946E2
:10425000FEF748FD002818BFFDF7D0F804B080BD78
:1042600080B540F2B80041F20001C2F20000C4F291
:10427000010140F8141F48F2A061C0F201010022C0
:104280000C23C0E90112C0E90322C0E90532C26172
:10429000FFF73AFB002808BF80BDBDE88040FDF76E
:1042A000ADB8000080B540F6980041F20041C2F27E
:1042B0000000C4F2010100234FF00C0C4FF4E13276
:1042C00080E80E00C0E90333C0E905C3C361FFF70E
:1042D0001BFB002808BF80BDBDE88040FDF78EB8FD
:1042E000FEE70000FEE70000704700007047000096
:1042F000FDF7C4BF80B592B0002043F64001CDE980
:104300000A00CDE908000590CDE90300CDE90100E0
:104310000090C4F202010A6842F080520A60096803
:1043200001F0805100910099009047F20000C4F222
:104330000000016841F44041016000684FF48001D1
:1043400000F4404000900098012006904FF4803027
:104350000D910621079002200E91B4210C90CDE919
:104360000F100420119006A8FEF78AF920B1EFF390
:10437000108072B6FEE700BFFEF736F820B1EFF30B
:10438000108072B6FEE700BF0F200190022002905D
:10439000002003904FF4A05004904FF480500590FB
:1043A00001A80521FEF75EF820B1EFF3108072B688
:1043B000FEE700BF12B080BD4EF68850CEF200007E
:1043C000016841F4700101607047000040F6500040
:1043D000C2F20000FEF756BD40F2C070C2F200000B
:1043E000FEF750BD40F60800C2F20000FEF74ABDDD
:1043F00010B540F6FF3E0368C4F2000E40F2004CD8
:104400007045C4F2010C27DCB0F1804F31D040F28E
:104410000042C4F2000290422BD040F60002C4F2E7
:104420000002904225D041F6FF72C4F20002904291
:1044300029DC70453CDCB0F1804F5FD040F2004297
:10444000C4F20002904259D040F60002C4F20002C9
:10445000904253D056E000BF40F60042C4F2000242
:10446000904206D0604504D00022C4F2010290427E
:10447000D9D14A6823F07003134341F6FF72C4F2A6
:1044800000029042D5DD43F6FF72C4F20102904271
:1044900022DC42F20002C4F2000290422ED000223E
:1044A000C4F20102904229D0604527D02AE000BF23
:1044B00040F60042C4F2000290421FD041F60002D2
:1044C000C4F20002904219D041F60042C4F2000248
:1044D000904213D016E000BF44F20002C4F2010281
:1044E00090420BD044F60002C4F20102904205D083
:1044F00044F20042C4F20102904203D1CA6823F49C
:104500004073134323F080024B69D1F800E08C68BC
:104510001A430260C46240F48062C0F828E0624539
:1045200004BF096901630121416110BD0000000061
:1045300010B540F21014C2F20004207D617DA27D0E
:1045400061F30A20E37D2081C80862F34A1060818C
:104550009800217E40EA921061F38A20A081607E5B
:10456000490860F3CA11E18181092174B4F924106A
:10457000C0F301106074A1F58060618201F0D8FE83
:104580009FED0B0B53EC102B01F078FD024640F22F
:104590001000C2F2000090ED000B0B4651EC100B26
:1045A00001F0F0FE41EC100B84ED000B10BD00BFDC
:1045B0000000000000A08440806B0021C185C18400
:1045C000FEF7F4BE806B01684A6990F83D30212BFC
:1045D0002ED112F080022BD00022C28451E8031F9A
:1045E000026821F0C00142E80313EBB1016851E811
:1045F000031F026821F0C00142E80313A3B1016860
:1046000051E8031F026821F0C00142E803135BB1C7
:10461000016851E8031F026821F0C00142E803135A
:1046200013B10168DAE700BF202180F83D1001686E
:104630004A6990F83E30222B7CD112F0400279D0AA
:104640000022C28551E8031F026821F4907142E8FC
:104650000313C3B3016851E8031F026821F490718A
:1046600042E803137BB3016851E8031F026821F499
:10467000907142E8031333B3016851E8031F0268E5
:1046800021F4907142E80313EBB10168DAE700BF4F
:10469000016851E8051F026821F0010142E8051395
:1046A000DBB1016851E8051F026821F0010142E811
:1046B000051393B1016851E8051F026821F001015B
:1046C00042E805134BB1016851E8051F026821F06B
:1046D000010142E80513002BDAD1016B012924D135
:1046E000016851E8031F026821F0100142E803133A
:1046F000DBB1016851E8031F026821F0100142E8B4
:10470000031393B1016851E8031F026821F01001FF
:1047100042E803134BB1016851E8031F026821F01E
:10472000100142E80313002BDAD1202180F83E105B
:1047300000210163016C41F010010164FEF736BEF7
:104740000168806B0968C90548BFFFF7A7BA002157
:10475000C18400BF016851E8051F026821F0800193
:1047600042E8051383B3016851E8051F026821F090
:10477000800142E805133BB3016851E8051F026858
:1047800021F0800142E80513F3B1016851E8051FEB
:10479000026821F0800142E80513002BDAD113E012
:1047A000016851E8031F026841F0400142E8031329
:1047B000002B08BF7047016851E8031F026841F0F1
:1047C000400142E8031393B1016851E8031F0268F6
:1047D00041F0400142E803134BB1016851E8031F67
:1047E000026841F0400142E80313002BD8D1704722
:1047F000806BFFF755BA000081B090F83E10222977
:1048000020D18368B3F5805F08D10169002965D0A4
:1048100000F128010A6803685B680AE0014651F864
:10482000282F13B90369002BF5D003685B6803F0E8
:104830007F0313700A6801320A60C18D01390A04CE
:10484000C18501D001B070470168CA6822F020021A
:10485000CA60CA6822F48072CA604A6922F0010202
:104860004A61202280F83E20026B012A40D10022BA
:10487000026300BF51E8031F026821F0100142E803
:1048800003130168DBB151E8031F026821F0100136
:1048900042E80313016893B151E8031F026821F055
:1048A000100142E8031301684BB151E8031F02688D
:1048B00021F0100142E803130168002BDAD10A68E5
:1048C000D20606D5002200920A680092496800913B
:1048D0000099818D01B0FEF767BD00BF0168826A53
:1048E00049686FF35F2122F8021B8262A5E700BFCF
:1048F00001B0FFF759B9000010B504460068D4E9CB
:1049000002C22369016921F44051114301616269C6
:1049100043EA0C01E3691143C268194349F20C638D
:104920009A431143C1604169A26921F4407141F287
:104930000043114340F48062C4F201039A42416192
:1049400002D1FDF753FE01E0FDF73CFEE16963682B
:104950001922B1F5004FA0FB02011FD15A00DB0F55
:10496000FBF7ACFC48F21F51C5F2EB11A0FB012391
:104970005A096FF0630302FB0300322303EBC0000C
:10498000A0FB01014FF4F87000EA111000EB0210D7
:10499000C1F3421108442168886010BD9A009B0F42
:1049A000FBF78CFC48F21F51C5F2EB11A0FB012371
:1049B0005A096FF0630302FB0300322303EB00107C
:1049C000A0FB0101F02000EA511000EB0210C1F33E
:1049D000431108442168886010BD000040F2CC00FB
:1049E000C2F20000FEF7E4BC40F69800C2F20000FC
:1049F000FEF7DEBCFEE7000070B588B040F600466A
:104A0000C4F202064FF4007406F5A0504FF4806122
:104A1000CDE9024640F2C0744FF0010C4FF4005251
:104A2000CDE9001040F6E000C2F2000406F5006394
:104A30004FF48055CDE9062CC2F200002146002239
:104A4000CDE90456002500F017FAA6F58063202072
:104A50004FF48041CDE9000304A84FF4004C02223A
:104A600080E8421040F69010CDE90226C2F2000024
:104A700021460422079500F0FFF940F27804C2F2C3
:104A8000000444F8085F45F2670040F20002C0F6F7
:104A90000000C0F600022146C4E90155FBF786FC80
:104AA0004FF6FE70C7F6FF702563C4E90455C4E9EC
:104AB0000655C4E90800C4E90A5508B070BD0000F5
:104AC00010B52DED028B0446007830EE601A0128F7
:104AD00084ED0A1A4ED194ED032A94ED074A94ED21
:104AE000010A94ED085A31EE427A24EE074A34EE78
:104AF000000A25EE014A94ED043A34EE000A32EE43
:104B0000024A94ED096A31EE444A34EE033A26EE45
:104B1000033A11EE100A84ED021A33EE008A84ED96
:104B2000042A84ED031A01F019FE41EC110B6069AF
:104B300040F2481100EE100AB8EEC00AB4EE408A06
:104B4000C2F20001F1EE10FA81ED0C1B0DDC4042C7
:104B500000EE100AB8EEC01AB4EE418AB0EE480A70
:104B6000F1EE10FAB8BFB0EE410A84ED010ABDECD7
:104B7000028B10BDA06994ED020A02EE100A31EE1C
:104B8000000AB8EEC22AB4EE420AF1EE10FA84ED41
:104B9000020A09DC404202EE100AB8EEC22AB4EE64
:104BA000420AF1EE10FA03DAB0EE420A84ED022A6C
:104BB00094ED032A94ED073A94ED084A94ED095ACE
:104BC00024EE000A23EE013A31EE422A606933EE08
:104BD000000A22EE052A32EE002A00EE100AB8EE94
:104BE000C00AB4EE402AF1EE10FA84ED031A0DDC8F
:104BF000404200EE100AB8EEC01AB4EE412AB0EE00
:104C0000420AF1EE10FAB8BFB0EE410ABDEC028BD9
:104C100010BD00000000000070B52DED028B0446B1
:104C2000808B88424FD1A069FDF716FB226AA18CC8
:104C300006461046FDF710FB054601F090FB41ECDF
:104C4000100B40F24810C2F2000080ED080B94F8FF
:104C50008000012E80F00100C0B213D1854213D034
:104C6000022094ED2A0A84F89800D4F89000B5EE5A
:104C7000400A0138F1EE10FAC4F8900023D09FEDFD
:104C8000168B12E08542EBD0D4F8900094ED2A0AFE
:104C90000130B5EE400AC4F890000120F1EE10FAA0
:104CA00084F898000FD09FED0A8BD4F8A00001F093
:104CB00055FD02460B4651EC180B01F037F901F097
:104CC00003F9C4F8A000BDEC028B70BD00BF00BFAB
:104CD000D8899DD8899D783FD8899DD8899D78BFEE
:104CE00010B50446D0F890004FF4FA614843C1175C
:104CF00000EBD160401101F01BFB9FED090B53EC61
:104D0000102B01F0BBF901F0DFF80021C4F89C0082
:104D10002046C4F89010BDE8104000F005B800BF70
:104D2000CDCCCCCCCCCC144070B590ED2A0A044646
:104D3000B5EE400AF1EE10FA14D0D4ED280A04F1D1
:104D40002800FFF7BDFE94ED141AB6EE002AB4EE6B
:104D5000421AF1EE10FA84ED290ABCBF0020C4F813
:104D6000A80001E094ED290AD4ED270A04F15400CB
:104D7000FFF7A6FED4F89C00BDEEC00A84ED250A1C
:104D800010EE105A01F0EAFC41EC100B40F248160C
:104D9000C2F20006284686ED0A0B01F0C9FA41EC82
:104DA000100B012D86ED020B18DBA068A1890122F2
:104DB000FDF758FA2069A18A0022FDF753FA6068CE
:104DC00008281ED0042823D021680028D4F8940095
:104DD000096814BF086448631FE000BFB5F1FF3FD6
:104DE0001EDC6A42A068A189C4F894200022FDF765
:104DF00039FA2069A18A0122FDF734FA606808288F
:104E0000E0D12168D4F894000968C86305E000BFC8
:104E10002168D4F8940009688863A928C8BF70BDC8
:104E20000022A068A18984F898200022FDF71AFAD0
:104E30002069A18A0022FDF715FA6068082809D0C8
:104E400004280DD090B92068D4F89410006841630C
:104E500070BD00BF2068D4F894100068C16370BDB5
:104E60002068D4F894100068816370BD2068D4F87D
:104E700094100068016470BD2DE9F04F81B00446C4
:104E80000020DDE910ECDDE90E98DDE90CBADDE982
:104E90000A764FF6FE75C4E90B00C4E90D00C4E9BB
:104EA0001600C4E91800E064C7F6FF75C4E91100F4
:104EB000A067C4E91C00C4E9270084F89800C4E98D
:104EC00024000868C4E90F55C4E91A55A781266172
:104ED000A4F814B0C4F818A0A4F81C90C4F820805A
:104EE000A4F824E084E80E0084F880C0C06AB421ED
:104EF000484300F1B405FDF78DFBB5FBF0F001F080
:104F00002EFA41EC100B204684ED220B01B0BDE8D7
:104F1000F08F2DE9F04F81B00E466FF01101891B23
:104F2000914258D3044690F90B00DDF82880002800
:104F30004FF6E670D4F80090C7F6FF701F4658BFD2
:104F4000A14686420DD89019B0EB460F38BF7000CD
:104F500000F1100121F00F0B0B2838BF4FF00B0BA5
:104F600001E06FF0100B584600F04CFAB8F1000F5A
:104F7000054604D0284649464246FBF7F1FADDE9EA
:104F80000BA232B10D990C9A05EB0800FBF7E8FA79
:104F90000C9A08EB0A003F1A09D005EB080009EB50
:104FA0000801104451443A46FBF7DAFA0C9A711C96
:104FB0000B2903D0484600F023FA0C9A4BF000402E
:104FC00002EB08013944A0600020C4E90051685494
:104FD00001B0BDE8F08FFBF782FAB0B50546084690
:104FE0000C46FBF79EFA024628462146BDE8B04033
:104FF000AFF30080F0B585B00446C77A1646D4E911
:10500000015278B222F000420A2300284CBF531EFE
:105010003D465A1BB2428C460DD2A819C21A002036
:10502000CDE90050204619462B460296CDF80CC01B
:10503000FFF76FFF14E09EB12768002858BF27468E
:10504000781961463246FBF78BFA94F90B00002180
:10505000B0F1FF3F05EB0600CCBFE0726060395451
:10506000204605B0F0BD10B5044690F90B00B0F134
:10507000FF3F05DCA168206821F0004100F0C0F985
:10508000204610BD2DE9F0414EF20013C0F2F55359
:1050900098420DD242F20F72904220D8632800F25B
:1050A0008380092800F2C580303008700120F6E0C6
:1050B00043F68932C5F2E652A0FB02256A0E02FBD6
:1050C000130C4CF6FF13C3F69A33984246F61410AD
:1050D000C0F600001ED830320A70012222E041F2F0
:1050E0005972CDF2B712A0FB022344F23F22C0F264
:1050F0000F0290424FEA533473D848F29F63C0F2D4
:105100000103984200F2A28004F130030B704FF0CB
:10511000010CEEE000EB420310F812205B780A70FD
:1051200002224B7041F25973CDF2B713ACFB033539
:10513000C5F3CD3441F27B4804FB08F4640C10F84D
:1051400014608B188E54642104FB01F2C2EB5532BB
:1051500092B200EB440700EB420410F812204FEA31
:10516000553E9A7042F210727F780EFB12C25F7049
:1051700097B2BF0807FB08F77F0C07FB112100EB74
:10518000470689B210F8175000EB410210F81100E1
:10519000647876785178987103F10800DC701D719D
:1051A0005E71D971BDE8F08182B2920841F27B4311
:1051B0005A43C3087C2B4FEA524257D8642302FB60
:1051C000130030320A7046F6141280B2C0F60002A4
:1051D00002EB400312F810005A7848708A700320DE
:1051E0005DE049F27F63C0F2980398425AD8A3B2B7
:1051F0004FEA930C41F27B430CFB03FE30234FEA52
:105200005E4C03EB5E4E64230CFB134346F6141C0A
:105210009BB2C0F6000C81F800E00CEB430E1CF8CA
:1052200013309EF801C04B7081F802C04FF0030CA0
:105230005FE046F61412C0F6000202EB400312F8DB
:1052400010005A7808704A70022028E046F6141CB4
:10525000C0F6000C0CEB440E1CF814309EF801C094
:105260000B7081F801C04FF0020C42E046F6141CAE
:10527000C0F6000C1CF812300CEB420E0B706423CD
:1052800002FB13009EF801E080B20CEB40021CF818
:10529000100052788870042081F801E0CA70084438
:1052A000BDE8F0814DF68363C4F21B33A0FB0332EB
:1052B00046F6141C920CC0F6000C0CEB42031CF8D2
:1052C000122093F801E00A70A2B2920841F27B43E7
:1052D0005A43520C642302FB134281F801E092B25C
:1052E0000CEB42031CF812205B784FF0040C8A7020
:1052F000CB7042F2107204FB120041F27B4384B285
:10530000A408634346F6141E5B0CC0F6000E1EF89C
:10531000135001EB0C0201F80C50642103FB110047
:105320000EEB430480B20EEB40011EF810006478CF
:1053300049789070101D5470D170BDE8F0812DE94E
:10534000F04184B00DF104080446B1F1FF3F08F1CB
:105350000B0501DD424605E008F101022D2049421E
:105360008DF80400A81A092818DC41F00103B3FAEB
:1053700083F3C3F1200340F2D1477B4346F6DC16AA
:105380001F0BC0F6000656F827604FF0FF3C8E4218
:1053900088BF0CEB13377B1C834204DC08461146A4
:1053A000FFF770FE0546A5EB080616F1100F1DD29B
:1053B0000A2E01D8E6720CE006F1100020F00F076B
:1053C000384600F01FF847F00041C4E90006A1602C
:1053D0000446A84505D001A920463246FBF7C0F88F
:1053E00034440020207004B0BDE8F081FBF777F86A
:1053F00040F24410C2F2000000687047FBF71FB88B
:10540000FFF7FCBF10B50446002808BF012400BF09
:105410002046FAF7E5FF002818BF10BDFFF7E8FFA8
:1054200008B18047F4E7002010BD0000FCF734FF0E
:10543000FEF760FFFEF78AFCFEF754FCFEF734FC33
:10544000FEF70EFFFEF76AFDFEF72CFFFEF712FED9
:10545000FEF7D8FE00F09CF8FEE7000090ED0A1A77
:1054600090ED205A90ED192A90ED1A3A80ED1C1A11
:1054700030EE411A80ED1D0A31EE450A21EE033A65
:1054800022EE000A30EE030A35EE052A90ED1F3AAF
:1054900090ED1B4A31EE422A32EE032A24EE022A14
:1054A00090ED213A32EE000A90ED222A33EE000A06
:1054B00080ED1E1A80ED201AB4EE420AB0EE401ABA
:1054C00080ED210A80ED1F5AF1EE10FAC8BFB0EE50
:1054D000421AB1EE422A04DCB4EE421AF1EE10FA9E
:1054E0000ADAB4EE421AF1EE10FAB8BFB0EE421A80
:1054F000B0EE410A80ED211A90ED031A90ED155A95
:1055000090ED0E2A90ED0F3A80ED111A30EE411A0F
:1055100080ED120A31EE450A21EE033A22EE000A2E
:1055200030EE030A35EE052A90ED143A90ED104A5C
:1055300031EE422A32EE032A24EE022A90ED163A88
:1055400032EE000A90ED172A33EE000AB4EE420A5A
:1055500080ED131A80ED151AF1EE10FAB1EE421A31
:1055600080ED160A80ED145AC8BFB0EE420A05DC81
:10557000B4EE410AF1EE10FAA8BF7047B4EE410A4A
:10558000F1EE10FAB8BFB0EE410A80ED160A70478E
:1055900082B041F20044C4F20204A4F580652846BA
:1055A0004FF4006100224FF00008FCF75BFE20463C
:1055B0004FF480410022FCF755FEC820FCF73CFD6B
:1055C00020464FF4804101220126FCF74BFEC82003
:1055D000FCF732FD20464FF480410022FCF742FEEA
:1055E000C820FCF729FD20464FF480410122FCF73A
:1055F00039FE28464FF400610122FCF733FEA4F582
:10560000A054204620210122FCF72CFE2046102128
:105610000122FCF727FE40F60800C2F20000FDF769
:105620000BFB40F2C070C2F20000FDF705FB40F634
:105630005000C2F20000FDF7FFFA40F21869C2F212
:1056400000094846FBF7AAFC40F29814C2F2000495
:1056500084F8008084F8908084F82061FBF78AFD4C
:10566000C820FCF7E9FC40F2CC0A40F2241640F2D4
:105670001015C2F2000AC2F20006C2F2000504F5DB
:10568000907700BF504631461222FEF75DFA95ED45
:10569000000B51EC100B00F017FC00EE100A38461E
:1056A000FFF7DCFE94ED160A94ED3A1A94ED5E2AAB
:1056B000BDEEC00A10EE101ABDEEC10A10EE102A9F
:1056C000BDEEC20A10EE103A4846CDF80080FBF756
:1056D0008FFC0120FCF7B0FCD4E75FEA400C08BF68
:1056E00091F0000F4FEA8C234FEAC12243EA515157
:1056F0004FEA1C5018BF00F5F0404FEA300018BFC9
:1057000041F000415FEA6C5C00F02980BCF1FF3F92
:1057100008BF40F080407047130C06BF12044FF0E2
:10572000100C4FF0000C130E04BF12020CF1080C09
:10573000130F04BF12010CF1040C930F04BF92006D
:105740000CF1020CD30F04BF52000CF1010C1146F6
:105750004FF00002A0F11F00A0EB0C00704711F009
:10576000004F08BF704731F000413FF4D5AF0B0C3C
:1057700006BF09044FF0100C4FF0000C0B0E04BFD5
:1057800009020CF1080C0B0F04BF09010CF1040C09
:105790008B0F04BF89000CF1020CCB0F04BF490032
:1057A0000CF1010CCCF1200322FA03F341EA0301CE
:1057B00002FA0CF2A0EB0C0000F1010070470000AF
:1057C00023F07F4720F07F4C80EA030000F0004088
:1057D000ACEB070303F57C5303F1FF032DE980498C
:1057E00009B44FEA144324EA03484FEA154B25EA6B
:1057F0000B4E0FF2042606EB13273E7803FB0667D9
:10580000C7F5000707FB06F64FEAD64606F1020683
:105810004FEA543707FB066CCCF1005C4FEA1C479B
:105820002CEA074C0CFB06F507FB06F404EB1546C7
:105830004FEA961649085FEA320234BF00204FF063
:1058400000404FEAD13706FB07FC4FEA1C4C0CFB2B
:105850000BF7D21B03FB0CF761EB07010CFB0EF7F8
:10586000B0EB074072EB17420CFB08F734BFA2EB1A
:105870000742B2EB074261EB17414FEA0C444FEA93
:10588000910706FB07FC4FEA1C4C0CFB0BF7B0EB37
:10589000C74072EB573203FB0CF734BFA2EBC74291
:1058A000B2EBC74261EB57310CFB0EF7B0EBC70010
:1058B00072EB57720CFB08F734BFA2EBC702B2EBD6
:1058C000C70261EB57714FEA816141EA92114FEAD9
:1058D000826242EA90124FEA806004EBCC04039F9C
:1058E0004FEAD13706FB07FC4FEA1C4C0CFB0BF7C9
:1058F000D21B03FB0CF761EB07010CFB0EF7B0EBBF
:10590000074072EB17420CFB08F734BFA2EB0742CB
:10591000B2EB074261EB17414FEA8C5504EB9C2434
:105920004FEA910706FB07FC4FEA1C4C0CFB0BF7F8
:10593000B0EBC74072EB573203FB0CF734BFA2EB5E
:10594000C742B2EBC74261EB57310CFB0EF7B0EB2D
:10595000C70072EB57720CFB08F734BFA2EBC7020B
:10596000B2EBC70261EB57714FEA816141EA9211D4
:105970004FEA826242EA90124FEA806015EB4C25B2
:1059800044F100044FEAD13706FB07FC4FEA1C4CF8
:105990000CFB0BF7D21B03FB0CF761EB07010CFBB5
:1059A0000EF7B0EB074072EB17420CFB08F734BF61
:1059B000A2EB0742B2EB074261EB17414FEA81319C
:1059C00041EA92414FEA823242EA90424FEA803005
:1059D0004FEA0C7615EB1C1544F1000448EA03432A
:1059E0004EEA0B484FF0000EB2EB080C71EB0307C8
:1059F00024BF624639464EEB0E0E4FF0000B0018E6
:105A0000524149414BEB0B0BB2EB080C71EB030716
:105A10007BF1000B24BF624639464EEB0E0E4FF071
:105A2000000B0018524149414BEB0B0BB2EB080C39
:105A300071EB03077BF1000B24BF624639464EEB46
:105A40000E0E51EA020718BF46F0010616EB0E765D
:105A500055F1000254F1000103D5BDE88901BDE80C
:105A60000088BDE88901BDE80048B619524141EB04
:105A70000101A3F10103704780807F7E7D7C7B7AEA
:105A80007978777676757473727171706F6E6E6DEA
:105A90006C6C6B6A6A696868676666656464636390
:105AA00062616160605F5F5E5E5D5D5C5C5B5B5A16
:105AB0005A59595858575756565555555454535383
:105AC00052525251515050504F4F4F4E4E4D4D4DDE
:105AD0004C4C4C4B4B4B4A4A4A4949494848484729
