:020000040800F2
:10000000000003203D0A000861080008630800089A
:10001000650800086708000869080008000000007B
:100020000000000000000000000000006B08000855
:100030006D080008000000006F0800087108000843
:100040008D0A00088D0A00088D0A00088D0A000834
:100050008D0A00088D0A00088D0A00088D0A000824
:100060008D0A00088D0A00088D0A00088D0A000814
:100070008D0A00088D0A00088D0A00088D0A000804
:100080008D0A00088D0A00088D0A00088D0A0008F4
:10009000790800088D0A00088D0A00088D0A0008FA
:1000A0008D0A00088D0A0008890800088D0A0008DA
:1000B0008D0A00088D0A00088D0A00088D0A0008C4
:1000C0008D0A00088D0A00088D0A00088D0A0008B4
:1000D0008D0A00088D0A00088D0A00088D0A0008A4
:1000E0008D0A00088D0A00088D0A00088D0A000894
:1000F0008D0A00088D0A00088D0A00088D0A000884
:100100008D0A00088D0A00088D0A00088D0A000873
:100110008D0A00088D0A00088D0A00088D0A000863
:100120008D0A00088D0A00088D0A00088D0A000853
:100130008D0A00088D0A00088D0A00088D0A000843
:100140008D0A00088D0A00088D0A00088D0A000833
:100150008D0A00088D0A00088D0A00088D0A000823
:100160008D0A00088D0A00088D0A00088D0A000813
:100170008D0A00088D0A00088D0A000800000000A2
:100180008D0A00088D0A00088D0A00088D0A0008F3
:100190008D0A00088D0A00088D0A00088D0A0008E3
:0C01A00000000000000000008D0A0008B4
:1001AC0010B5054C237833B9044B13B10448AFF3A5
:1001BC0000800123237010BD4C08002000000000BB
:1001CC00F029000808B5034B1BB103490348AFF3F2
:1001DC00008008BD0000000050080020F029000835
:1001EC0053B94AB9002908BF00281CBF4FF0FF3192
:1001FC004FF0FF3000F074B9ADF1080C6DE904CE8E
:10020C0000F006F8DDF804E0DDE9022304B07047E5
:10021C002DE9F047089E0D4604468846002B4DD12B
:10022C008A42944668D9B2FA82F252B101FA02F3C8
:10023C00C2F1200120FA01F10CFA02FC41EA030898
:10024C0094404FEA1C45210CB8FBF5FE1FFA8CF7C5
:10025C0005FB1E8341EA03430EFB07F199420BD9C0
:10026C001CEB03030EF1FF3080F01E81994240F22B
:10027C001B81AEF1020E63445B1AA4B2B3FBF5F022
:10028C0005FB103344EA034400FB07F7A7420AD9E5
:10029C001CEB040400F1FF3380F00881A74240F20C
:1002AC00058164440238E41B40EA0E4000211EB173
:1002BC00D4400023C6E90043BDE8F0878B4208D93F
:1002CC00002E00F0EE800021C6E900050846BDE8CE
:1002DC00F087B3FA83F100294AD1AB4202D38242B0
:1002EC0000F2F980841A65EB030301209846002E76
:1002FC00E2D0C6E90048DFE702B9FFDEB2FA82F2CB
:10030C00002A40F09180A1EB0C054FEA1C471FFA24
:10031C008CFE0121B5FBF7F307FB1350250C45EAC6
:10032C0000450EFB03F0A84208D91CEB050503F1B0
:10033C00FF3802D2A84200F2CB8043462D1AA4B259
:10034C00B5FBF7F007FB105544EA05440EFB00FE25
:10035C00A64508D91CEB040400F1FF3502D2A645D2
:10036C0000F2BB802846A4EB0E0440EA03409EE753
:10037C00C1F120078B4022FA07FC4CEA030C20FA4F
:10038C0007F405FA01F31C43FD404FEA1C4900FA3F
:10039C0001F3B5FBF9F8200C1FFA8CFE09FB18557C
:1003AC0040EA054508FB0EF0A84202FA01F20BD90F
:1003BC001CEB050508F1FF3A80F08880A84240F25A
:1003CC008580A8F1020865442D1AA4B2B5FBF9F09A
:1003DC0009FB105544EA054500FB0EFEAE4508D955
:1003EC001CEB050500F1FF346CD2AE456AD902381E
:1003FC00654440EA0840A0FB0294A5EB0E05A5421B
:10040C00C846A64656D353D05EB1B3EB080265EB93
:10041C000E0505FA07F722FA01F3CD401F43C6E992
:10042C0000750021BDE8F087C2F1200320FA03F12A
:10043C000CFA02FC25FA03F395400D434FEA1C47D6
:10044C001FFA8CFEB3FBF7F107FB11302B0C43EAC0
:10045C00004301FB0EF0984204FA02F408D91CEB9D
:10046C00030301F1FF382FD298422DD9023963448E
:10047C001B1AADB2B3FBF7F007FB103345EA03458B
:10048C0000FB0EF3AB4208D91CEB050500F1FF385D
:10049C0016D2AB4214D902386544ED1A40EA014138
:1004AC0038E73146304607E78646E5E61846FAE671
:1004BC004B45A9D2B9EB020864EB0C0E0138A3E74B
:1004CC004046EAE7204694E74146D1E7D0467BE731
:1004DC00023B654432E7084609E76444023842E7C8
:1004EC00704700BF08B50B480B4B036010234360EB
:1004FC0000238360C3600361436103764376837694
:10050C00C3760377437700F023FB00B908BD00F0F6
:10051C00B3F8FBE7680800200064004010B588B011
:10052C000023039304930593069307930268184BD7
:10053C009A4201D008B010BD0024019403F5EA33AF
:10054C001A6C42F000721A641A6C02F0007201927A
:10055C00019A02941A6B42F008021A631B6B03F0A7
:10056C0008030293029B0323039302220492069333
:10057C000923079303A9074800F02EFD22462146C4
:10058C00142000F0CFFC142000F004FDD2E700BFD3
:10059C0000640040000C0240F0B58DB000240794BC
:1005AC00089409940A940B940194304B1A6B42F002
:1005BC0002021A631A6B02F002020192019A02946F
:1005CC001A6B42F008021A631A6B02F008020292CC
:1005DC00029A03941A6B42F004021A631A6B02F02B
:1005EC0004020392039A04941A6B42F080021A6379
:1005FC001A6B02F080020492049A05941A6B42F072
:10060C0010021A631A6B02F010020592059A0694F6
:10061C001A6B42F020021A631B6B03F02003069343
:10062C00069B134F22464FF40061384600F0D2FD72
:10063C00104D22464FF48041284600F0CBFD4FF47C
:10064C00006307930126089609940A9407A9384673
:10065C0000F0C2FC4FF480430793089609940A9467
:10066C0007A9284600F0B8FC0DB0F0BD00380240D8
:10067C00001002400014024072B6FEE700B595B0BF
:10068C003022002108A801F07BFF00230393049380
:10069C000593069307930193234A116C41F0805103
:1006AC001164126C02F080520192019A02931F4B5A
:1006BC001A6842F440421A601B6803F440430293E8
:1006CC00029B012308934FF4A023099302230E935A
:1006DC004FF480020F9206221092B42211921293C0
:1006EC000423139308A800F0C3FDB0B900F082FDF9
:1006FC00A8B90F23039302230493002305934FF40B
:10070C00A05306934FF480530793052103A800F0E0
:10071C00FDFF30B915B05DF804FBFFF7ADFFFFF737
:10072C00ABFFFFF7A9FF00BF00380240007000408C
:10073C0008B500F0CDF9FFF7A1FFFFF72DFFFFF78C
:10074C00D1FE00F00FF800F021F900F0C5F84FF4DD
:10075C008041034800F044FD642000F0E5F9F6E721
:10076C000014024008B50E480E4B03604FF4827320
:10077C00436000238360C360036143614FF40072E4
:10078C0082610822C2610362436283620A23C362EC
:10079C0001F092F800B908BDFFF76EFFFBE700BF50
:1007AC00900800200030014000B589B0002303936D
:1007BC0004930593069307930268154B9A4202D053
:1007CC0009B05DF804FB0021019103F584335A6CE8
:1007DC0042F480525A645A6C02F480520192019A8B
:1007EC0002911A6B42F002021A631B6B03F00203B4
:1007FC000293029B3823039302230493032306934F
:10080C000523079303A9034800F0E6FBD8E700BFD4
:10081C0000300140000402407047000082B000210B
:10082C0000910B4B5A6C42F480425A645A6C02F49D
:10083C0080420092009A01911A6C42F080521A6424
:10084C001B6C03F080530193019B02B0704700BFF7
:10085C0000380240FEE7FEE7FEE7FEE7FEE77047E2
:10086C007047704708B500F04DF908BD08B502484F
:10087C0000F021FA08BD00BF6808002008B5024846
:10088C0001F0AAF808BD00BFEC08002010B5034623
:10089C000C4A0D490D48006840B10C4800680344EF
:1008AC00521A934206D8094A136010BD0748084CE7
:1008BC000460F2E701F07EFB0C2303604FF0FF3085
:1008CC00F3E700BF0000032000040000E80800204C
:1008DC00D00900207047000000B587B000230293B8
:1008EC00039304930593009301931648164A0260F0
:1008FC0040F60F624260836042F20F72C260036185
:10090C004361836101F08AF990B94FF480530293EB
:10091C0002A90C4801F0BAF968B9002300930193BD
:10092C006946084801F032FA40B907B05DF804FB9B
:10093C00FFF7A2FEE9E7FFF79FFEEEE7FFF79CFE4D
:10094C00F3E700BFEC0800200000014002680E4BEA
:10095C009A4200D0704700B583B00021019103F595
:10096C009C335A6C42F001025A645B6C03F0010335
:10097C000193019B0A461A2000F0D4FA1A2000F0C9
:10098C0009FB03B05DF804FB0000014008B50A4800
:10099C000A4B03604FF4E133436000238360C36070
:1009AC0003610C2242618361C36101F0BFFA00B99B
:1009BC0008BDFFF761FEFBE7340900200010014081
:1009CC0000B589B000230393049305930693079312
:1009DC00026803F1804303F588339A4202D009B0D0
:1009EC005DF804FB0021019103F594335A6C42F03D
:1009FC0010025A645A6C02F010020192019A029190
:100A0C001A6B42F002021A631B6B03F0020302938F
:100A1C00029BC0230393022304930323069307230F
:100A2C00079303A9014800F0D7FAD8E70004024065
:100A3C00DFF834D00D480E490E4A002302E0D4589A
:100A4C00C4500433C4188C42F9D30B4A0B4C00230A
:100A5C0001E013600432A242FBD3FFF73BFF01F02D
:100A6C00AFFAFFF765FE704700000320000000207E
:100A7C004C0800203C2A00084C080020CC0900201F
:100A8C00FEE7000010B504460E4B18784FF47A734D
:100A9C00B3FBF0F30C4A1068B0FBF3F000F088FAEB
:100AAC0068B90F2C01D901200AE0002221464FF031
:100ABC00FF3000F037FA054B1C60002000E00120ED
:100ACC0010BD00BF04000020000000200800002022
:100ADC0008B50B4B1A6842F400721A601A6842F49B
:100AEC0080621A601A6842F480721A60032000F067
:100AFC0007FA0F20FFF7C6FFFFF790FE002008BD96
:100B0C00003C0240034A1168034B1B780B441360F2
:100B1C00704700BF7809002004000020014B1868C2
:100B2C00704700BF7809002038B50446FFF7F6FF80
:100B3C000546B4F1FF3F02D0044B1B781C44FFF771
:100B4C00EDFF401BA042FAD338BD00BF04000020CB
:100B5C00002800F0A18038B5044690F82030D3B1BD
:100B6C002268136843F001031360FFF7D7FF0546B3
:100B7C0023685A6812F0010F10D1FFF7CFFF401B0A
:100B8C000A28F5D9636A43F400336362052384F8B9
:100B9C002030012038BDFFF7C1FCE1E71A6822F0D4
:100BAC0002021A60FFF7BAFF054623685A6812F072
:100BBC00020F0DD0FFF7B2FF401B0A28F5D9636A6C
:100BCC0043F400336362052384F820300120E1E70D
:100BDC00227E012A3DD01A6822F080021A60637EC0
:100BEC00012B3BD02268136823F040031360A37ED3
:100BFC00012B39D02268136823F020031360E37EA5
:100C0C00012B37D02268136843F010031360237F45
:100C1C00012B35D02268136823F008031360637F1F
:100C2C00012B33D02268136823F004031360A368EC
:100C3C00E268134322691343626913436268013A01
:100C4C0021681343CB6100206062012384F82030BB
:100C5C00A0E71A6842F080021A60C0E722681368A5
:100C6C0043F040031360C2E72268136843F020038B
:100C7C001360C4E72268136823F010031360C6E7FF
:100C8C002268136843F008031360C8E722681368EE
:100C9C0043F004031360CAE70120704770477047A4
:100CAC007047704770477047704770477047704780
:100CBC007047704770472DE9F84F054603685C692B
:100CCC00D3F804809F68D3F80CB0D3F810A0D3F8F5
:100CDC00189014F001063BD017F0010616D0012233
:100CEC009A6017F0020F08D117F0040F0CD117F00F
:100CFC00080606D04FF4805608E0FFF7CFFF002619
:100D0C0004E0FFF7CEFF01E04FF4006617F4807F9C
:100D1C000DD02B684FF480729A6017F4007F40F06E
:100D2C00868017F4806F00F0868046F4005617F426
:100D3C00803F0DD02B684FF480329A6017F4003F3F
:100D4C0040F0838017F4802F00F0838046F4004637
:100D5C0014F0080F07D01BF0100F04D046F40076E7
:100D6C002B681022DA6014F0040F02D01BF0080F6D
:100D7C0079D114F0020F04D02B68DB6813F0030F49
:100D8C0078D114F0400F07D01AF0100F04D046F4AD
:100D9C0080662B6810221A6114F0200F02D01AF012
:100DAC00080F6BD114F0100F04D02B681B6913F0D3
:100DBC00030F6AD114F4003F02D018F0100F68D161
:100DCC0014F4803F02D018F0080F69D114F4004FCE
:100DDC007AD018F0040F74D014F4807F04D019F07A
:100DEC00010F01D046F0010614F4007F04D019F075
:100DFC00020F01D046F0020614F4806F04D019F0F3
:100E0C00040F01D046F0040614F4006F59D019F009
:100E1C00700956D0B9F1400F65D058D8B9F1200FF0
:100E2C005ED0B9F1300F42D146F0200644E028469E
:100E3C00FFF735FF7BE717F4006F02D046F48046CE
:100E4C0075E72846FFF72EFF71E72846FFF728FFC6
:100E5C007EE717F4002F02D046F4803678E7284658
:100E6C00FFF721FF74E72B680822DA602846FFF7AA
:100E7C001CFF7EE72846FFF717FF82E72B68082246
:100E8C001A612846FFF713FF8CE72846FFF70EFF81
:100E9C0090E72B6810225A602846FFF709FF8FE76E
:100EAC002B6808225A602846FFF703FF8EE7B9F13A
:100EBC00100F01D146F008062A68936923F07003DD
:100ECC0093612B6804225A609EB9BDE8F88FB9F182
:100EDC00500F0BD0B9F1600FEED146F48076EBE7F2
:100EEC0046F01006E8E746F04006E5E746F08006D7
:100EFC00E2E76B6A1E436E622846FFF7DBFEE4E70F
:100F0C00074AD36823F4E0631B041B0C000200F4B3
:100F1C00E060034343F0BF6343F40033D360704796
:100F2C0000ED00E000B5194BDB68C3F30223C3F1FD
:100F3C00070CBCF1040F28BF4FF0040C03F1040E96
:100F4C00BEF1060F18D9033B4FF0FF3E0EFA0CFC16
:100F5C0021EA0C0199400EFA03F322EA0303194328
:100F6C0000280BDB0901C9B200F1604000F56140BB
:100F7C0080F800135DF804FB0023E5E700F00F0098
:100F8C000901C9B2024B1954F4E700BF00ED00E0AF
:100F9C0014ED00E0002807DB00F01F0240090123DC
:100FAC009340024A42F82030704700BF00E100E055
:100FBC000138B0F1807F0BD24FF0E0235861054A25
:100FCC00F02182F823100020986107221A617047E3
:100FDC000120704700ED00E000230F2B00F2F180A0
:100FEC0070B582B061E085685E000324B44025EAE8
:100FFC000405CC68B4402C438460456825EA02059E
:10100C004C68C4F300129A402A4342605BE0DC084F
:10101C00083450F8246003F0070295000F22AA4010
:10102C0026EA020E0A69AA4042EA0E0240F824207F
:10103C005DE0092200E0002202FA0EF22A4302349B
:10104C00604D45F82420604A94686FEA0C0224EA4B
:10105C000C054E6816F4801F01D04CEA04055A4C5E
:10106C00A560E46802EA04054E6816F4001F01D07E
:10107C004CEA0405544CE560646802EA04054E68C9
:10108C0016F4003F01D04CEA04054F4C656024680F
:10109C0022404D6815F4803F01D04CEA04024A4CC2
:1010AC00226001330F2B00F28A8001229A400C68D7
:1010BC0004EA020C32EA0404F3D14C6804F0030491
:1010CC00013C012C8FD94A6802F00302032A09D093
:1010DC00C4685D000322AA4024EA02048A68AA407C
:1010EC002243C2604A6802F00302022A8FD00468CD
:1010FC004FEA430E032202FA0EF224EA02044A6873
:10110C0002F0030202FA0EF2224302604A6812F461
:10111C00403FC6D0002201922C4A546C44F48044C7
:10112C005464526C02F480420192019A9C08A51CF2
:10113C00244A52F8255003F003024FEA820E0F2284
:10114C0002FA0EF225EA0205214A90423FF473AFEF
:10115C0002F58062904222D002F58062904220D04B
:10116C0002F5806290421ED002F5806290421CD043
:10117C0002F5806290421AD002F58062904218D03B
:10118C0002F58062904216D002F58062904214D033
:10119C0002F5806290423FF44CAF0A224CE70122E8
:1011AC004AE7022248E7032246E7042244E70522E5
:1011BC0042E7062240E707223EE708223CE702B05E
:1011CC0070BD704700380140003C014000380240BF
:1011DC00000002400AB181617047090481617047C7
:1011EC00436901EA030221EA030141EA02418161F8
:1011FC007047000010B582B000230193194B1A6C94
:10120C0042F080521A641B6C03F080530193019BD3
:10121C00154B01221A64FFF781FC0446134B5B68E3
:10122C0013F4803F08D1FFF779FC001BB0F57A7FEF
:10123C00F4D9032002B010BD0B4B01225A64FFF706
:10124C006DFC0446094B5B6813F4003F07D1FFF7B4
:10125C0065FC001BB0F57A7FF4D90320EAE7002087
:10126C00E8E700BF0038024000000E42007000406A
:10127C00002800F0E08170B582B00446036813F0DA
:10128C00010F3BD09F4B9B6803F00C03042B2CD01D
:10129C009C4B9B6803F00C03082B21D06368B3F5BF
:1012AC00803F4FD0B3F5A02F52D0964B1A6822F442
:1012BC0080321A601A6822F480221A606368002B4C
:1012CC0050D0FFF72BFC05468E4B1B6813F4003FE8
:1012DC0014D1FFF723FC401B6428F5D90320B1E19E
:1012EC00884B5B6813F4800FD8D0864B1B6813F4C3
:1012FC00003F03D06368002B00F09F81236813F03C
:10130C00020F54D07F4B9B6813F00C0F3ED07D4BDB
:10131C009B6803F00C03082B33D0E368002B68D0D8
:10132C00794B01221A60FFF7F9FB0546754B1B68D8
:10133C0013F0020F54D1FFF7F1FB401B0228F5D933
:10134C0003207FE16F4A136843F480331360B5E7E1
:10135C006C4B1A6842F480221A601A6842F480328C
:10136C001A60ABE7FFF7DAFB0546664B1B6813F414
:10137C00003FC3D0FFF7D2FB401B6428F5D90320F4
:10138C0060E1604B5B6813F4800FC6D15D4B1B684A
:10139C0013F0020F03D0E368012B40F05081594A3F
:1013AC00136823F0F803216943EAC103136023682F
:1013BC0013F0080F42D063696BB3534B0122C3F88F
:1013CC00802EFFF7ABFB05464E4B5B6F13F0020F05
:1013DC0034D1FFF7A3FB401B0228F5D9032031E1E0
:1013EC00484A136823F0F803216943EAC1031360E8
:1013FC00DDE7454B00221A60FFF790FB0546414B99
:10140C001B6813F0020FD2D0FFF788FB401B022899
:10141C00F5D9032016E13C4B0022C3F8802EFFF7D0
:10142C007DFB0546374B5B6F13F0020F06D0FFF7C1
:10143C0075FB401B0228F5D9032003E1236813F048
:10144C00040F77D02F4B1B6C13F0805F33D100232C
:10145C0001932C4B1A6C42F080521A641B6C03F0F3
:10146C0080530193019B0125284B1B6813F4807F4B
:10147C0023D0A368012B34D0052B38D0214B1A6F05
:10148C0022F001021A671A6F22F004021A67A3688D
:10149C00002B3DD0FFF742FB06461A4B1B6F13F097
:1014AC00020F46D1FFF73AFB801B41F2883398427A
:1014BC00F3D90320C6E00025D6E7144A136843F499
:1014CC0080731360FFF72AFB0646104B1B6813F45E
:1014DC00807FCED1FFF722FB801B0228F5D9032099
:1014EC00B0E0084A136F43F001031367CFE7054BD5
:1014FC001A6F42F004021A671A6F42F001021A675F
:10150C00C5E700BF003802400000474200700040B1
:10151C00FFF704FB0646524B1B6F13F0020F08D06B
:10152C00FFF7FCFA801B41F288339842F3D9032071
:10153C0088E0EDB9A369002B00F08380484A9268DB
:10154C0002F00C02082A51D0022B17D0454B002276
:10155C001A66FFF7E3FA0446414B1B6813F0007F51
:10156C0042D0FFF7DBFA001B0228F5D9032069E013
:10157C003B4A136C23F080531364DBE7394B002296
:10158C001A66FFF7CBFA0546354B1B6813F0007F44
:10159C0006D0FFF7C3FA401B0228F5D9032051E00F
:1015AC00E369226A1343626A43EA8213A26A52080D
:1015BC00013A43EA0243E26A43EA0263284A53606F
:1015CC00284B01221A66FFF7A9FA0446244B1B6824
:1015DC0013F0007F06D1FFF7A1FA001B0228F5D902
:1015EC0003202FE000202DE000202BE0012B2BD03E
:1015FC001B4B5B6803F48001E269914226D103F036
:10160C003F02216A8A4223D1616A47F6C0721A40AE
:10161C00B2EB811F1ED103F44031A26A5208013A89
:10162C00B1EB024F18D103F07063E26AB3EB026FB7
:10163C0014D1002006E001207047012002E00120B7
:10164C0000E0002002B070BD0120FBE70120F9E7AB
:10165C000120F7E70120F5E70120F3E70120F1E78E
:10166C00003802400000474208B5254B9B6803F048
:10167C000C03042B3FD0082B3FD1214B5A6802F0AE
:10168C003F025B6813F4800F12D01D4B5968C1F3F5
:10169C0088111C480023A1FB0001FEF7A1FD184B8B
:1016AC005B68C3F3014301335B00B0FBF3F025E04F
:1016BC00134B5968C1F3881C4FEA4C11B1EB0C0069
:1016CC006EEB0E0E4FEA8E1343EA90638101091AFA
:1016DC0063EB0E03DB0043EA5173C90011EB0C0CF6
:1016EC0043F10003990200234FEA8C2041EA9C51FC
:1016FC00FEF776FDD3E7034800E0034808BD00BFC2
:10170C0000380240001BB7000024F400002800F051
:10171C009B8070B50D4604464F4B1B6803F00F03BE
:10172C008B4208D2CBB24C4A1370136803F00F03F0
:10173C008B4240F08B80236813F0020F17D013F00C
:10174C00040F04D0454A936843F4E0539360236834
:10175C0013F0080F04D0414A936843F4604393603C
:10176C003E4A936823F0F003A1680B43936023680F
:10177C0013F0010F32D06368012B21D09A1E012A7D
:10178C0025D9364A126812F0020F61D033498A68A3
:10179C0022F0030213438B60FFF7C0F906462F4B70
:1017AC009B6803F00C036268B3EB820F16D0FFF753
:1017BC00B5F9801B41F288339842F0D9032042E0FE
:1017CC00264A126812F4003FE0D101203BE0234A84
:1017DC00126812F0007FD9D1012034E01E4B1B6837
:1017EC0003F00F03AB4207D9EAB21B4B1A701B680C
:1017FC0003F00F03AB422DD1236813F0040F06D076
:10180C00164A936823F4E053E1680B439360236812
:10181C0013F0080F07D0114A936823F46043216931
:10182C0043EAC1039360FFF71FFF0C4B9B68C3F3A4
:10183C0003130B4AD35CD8400A4B18600A4B186848
:10184C00FFF720F9002070BD012070470120FAE756
:10185C000120F8E70120F6E7003C02400038024086
:10186C00082A00080000002008000020014B18681E
:10187C00704700BF0000002008B5FFF7F7FF044BCE
:10188C009B68C3F38223034AD35CD84008BD00BFD6
:10189C0000380240182A000808B5FFF7E7FF044B90
:1018AC009B68C3F34233034AD35CD84008BD00BFE6
:1018BC0000380240182A000800285AD010B50446F7
:1018CC00436A33B94368B3F5827F05D00023C36103
:1018DC0002E00023036143610023A36294F85130BA
:1018EC00002B40D0022384F851302268136823F077
:1018FC0040031360636803F48273A26802F4044229
:10190C001343E26802F400621343226902F00202FC
:10191C001343626902F001021343A26902F40072DC
:10192C001343E26902F038021343226A02F0800288
:10193C001343A26A02F40052216813430B60638BB9
:10194C0003F00403626A02F01002216813434B6037
:10195C002268D36923F40063D361002060650123FE
:10196C0084F8513010BD84F850302046FEF71CFF2F
:10197C00B8E70120704710B4036A046A24F001042C
:10198C000462846924F0F00C4CEA021223F00A037E
:10199C000B438261036210BC704710B4046A24F0DC
:1019AC00100404628469036A24F4704C4CEA023219
:1019BC0023F0A00343EA01138261036210BC704759
:1019CC00836823F070030B4343F007038360704775
:1019DC00704770477047704710B5044603681A6922
:1019EC0012F0020F11D0DA6812F0020F0DD06FF066
:1019FC0002021A610123037703689B6913F0030F3A
:101A0C0070D0FFF7E6FF0023237723681A6912F0E2
:101A1C00040F12D0DA6812F0040F0ED06FF004022B
:101A2C001A610223237723689B6913F4407F5FD0EC
:101A3C002046FFF7CEFF0023237723681A6912F0A4
:101A4C00080F12D0DA6812F0080F0ED06FF00802EF
:101A5C001A61042323772368DB6913F0030F4ED03C
:101A6C002046FFF7B6FF0023237723681A6912F08C
:101A7C00100F12D0DA6812F0100F0ED06FF01002A7
:101A8C001A61082323772368DB6913F4407F3DD068
:101A9C002046FFF79EFF0023237723681A6912F074
:101AAC00010F03D0DA6812F0010F36D123681A69DE
:101ABC0012F0800F03D0DA6812F0800F34D1236853
:101ACC001A6912F0400F03D0DA6812F0400F32D1CD
:101ADC0023681A6912F0200F03D0DA6812F0200F75
:101AEC0030D110BDFFF774FF2046FFF773FF8AE774
:101AFC002046FFF76DFF2046FFF76CFF9BE7204663
:101B0C00FFF766FF2046FFF765FFACE72046FFF7BF
:101B1C005FFF2046FFF75EFFBDE76FF001021A6121
:101B2C002046FEF779FEC1E76FF080021A6120466D
:101B3C0000F073F9C3E76FF040021A612046FFF71B
:101B4C004AFFC5E76FF020021A61204600F064F9E5
:101B5C00C7E700000368304A904212D0B0F1804FC2
:101B6C000FD0A2F57C4290420BD002F580629042DD
:101B7C0007D002F58062904203D002F57842904281
:101B8C0003D123F070034A681343234A90422AD0AE
:101B9C00B0F1804F27D0A2F57C42904223D002F5C1
:101BAC00806290421FD002F5806290421BD002F5F9
:101BBC007842904217D002F57052904213D002F541
:101BCC00806290420FD002F5806290420BD0A2F559
:101BDC009832904207D002F58062904203D002F511
:101BEC008062904203D123F44073CA68134323F0FC
:101BFC0080034A69134303608B68C3620B6883627A
:101C0C00054B984203D003F58063984201D10B69D0
:101C1C0003630123436170470000014040B310B5DA
:101C2C00044690F83D30F3B1022384F83D30214650
:101C3C0051F8040BFFF78EFF012384F8463084F82B
:101C4C003E3084F83F3084F8403084F8413084F8DA
:101C5C00423084F8433084F8443084F8453084F8BA
:101C6C003D30002010BD80F83C30FEF76FFEDBE706
:101C7C000120704710B4846824F47F4C42EA03229C
:101C8C000A4342EA0C02826010BC704790F83C3068
:101C9C00012B78D010B50446012380F83C30022388
:101CAC0080F83D300268936823F47F4323F0770378
:101CBC0093600B68602B4CD029D8402B54D00CD996
:101CCC00502B22D1CA6849680068FFF754FE502196
:101CDC002068FFF775FE002005E0202B0DD009D9F8
:101CEC00302B0AD00120012384F83D30002384F8E6
:101CFC003C3010BD0BB1102B05D119462068FFF7F5
:101D0C005FFE0020EFE70120EDE70120EBE7B3F5E4
:101D1C00805F34D0B3F5005F0CD1CB684A6889681A
:101D2C000068FFF7A7FF2268936843F48043936031
:101D3C000020D8E7702B24D1CB684A6889680068EA
:101D4C00FFF798FF2268936843F0770393600020B5
:101D5C00C9E7CA6849680068FFF71FFE6021206860
:101D6C00FFF72EFE0020BEE7CA6849680068FFF73F
:101D7C0002FE40212068FFF723FE0020B3E700207D
:101D8C00B1E70120AFE702207047000090F83C302B
:101D9C00012B3CD010B4012380F83C30022380F896
:101DAC003D3003685A689C6822F0700C0A6842EA5D
:101DBC000C025A600368174A93421AD0B3F1804F51
:101DCC0017D0A2F57C42934213D002F58062934265
:101DDC000FD002F5806293420BD002F57842934209
:101DEC0007D002F57052934203D0A2F5943293427D
:101DFC0004D124F080044A6814439C60012380F8C9
:101E0C003D30002380F83C30184610BC704702204F
:101E1C00704700BF000001407047704738B504465A
:101E2C000268136923F44053C1680B431361836840
:101E3C000269134342691343C2691A430168CB68B0
:101E4C0023F4164323F00C031343CB60026853694D
:101E5C0023F4407381690B4353610368314A934205
:101E6C0006D002F58062934202D0FFF705FD01E037
:101E7C00FFF712FDE369B3F5004F29D000210318D9
:101E8C0049411B1841F10001C90041EA5371DB00C3
:101E9C00181863684FEA83024FEA937341F100010B
:101EAC00FEF79EF9204DA5FB00325109642303FB7C
:101EBC0011031B013233A5FB03235B0903F0F00272
:101ECC0002EB011203F00F03216813448B6038BD41
:101EDC000023021843EB0301121841F10001C90061
:101EEC0041EA5271D200101841F100016268921857
:101EFC005B41FEF775F90C4DA5FB003251096423CB
:101F0C0003FB1103DB003233A5FB03235B095A00EF
:101F1C0002F4F87202EB011203F007032168134478
:101F2C008B60D4E7001001401F85EB5158B310B5FE
:101F3C00044690F83D300BB3242384F83D302268DE
:101F4C00D36823F40053D3602046FFF767FF226861
:101F5C00136923F4904313612268536923F02A0315
:101F6C0053612268D36843F40053D360002020648B
:101F7C00202384F83D3084F83E3010BD80F83C308E
:101F8C00FEF71EFDD8E701207047000038B5084C5D
:101F9C004FF41E652846E56000F03AF8A06020B1C9
:101FAC000023C0E90053606038BDE060606038BD5C
:101FBC007C090020014B1868704700BF0C00002002
:101FCC0070B50D4E0D4D761BB61006D0002455F88D
:101FDC00043B01349847A642F9D1094E094D761BB2
:101FEC0000F000FDB61006D0002455F8043B013477
:101FFC009847A642F9D170BD2C2A00082C2A00085B
:10200C00382A00082C2A0008704700BF704700BF10
:10201C00024B0146186800F003B800BF0C0000200A
:10202C002DE9F04F01F10B06162E83B0044624D88F
:10203C00102900F2BA8000F0F5FA102618220220BE
:10204C00B54F3A44A2F1080153688B4200F0BA80B4
:10205C005A68D96822F003021A449D68E9608D60C1
:10206C00516841F001012046516003F1080500F070
:10207C00DFFA284603B0BDE8F08F36F0070600F112
:10208C009480B14200F2918000F0CCFAB6F5FC7F5E
:10209C00C0F09A81730A00F08F80042B00F26F81DC
:1020AC00B30903F1390003F1380CC3009A4F3B44D8
:1020BC00A3F108055B689D4206D10CE0002980F273
:1020CC002781DB689D4206D05A6822F00302911BDF
:1020DC000F29F3DD60463D69DFF840C265457CD0D1
:1020EC006A6822F00302931B0F2B00F37B81002BF9
:1020FC00C7E904CC80F26C81B2F5007F80F01A81C4
:10210C00D308796801334FEA521E012202FA0EF20B
:10211C000A4357F833E0C5F808E007EBC301083968
:10212C00E9607A6047F83350CEF80C5083100121E7
:10213C009940914257D8114206D120F00300490032
:10214C00114200F10400FAD007EBC0094D46864657
:10215C00D5F80C80454508D11DE1002B80F2248177
:10216C00D8F80C80454500F01681D8F8042022F0F0
:10217C000302931B0F2BF0DD2046D8E9025408EB29
:10218C00060146F00106C8F80460EC60A56043F057
:10219C000104C7E90411C1E902CC4C6048F80230D3
:1021AC0000F046FA08F1080502E00C232360002534
:1021BC00284603B0BDE8F08F4FF4007340204FF079
:1021CC003F0C73E7D3689A4208BF02307FF440AFEC
:1021DC003D69DFF848C1654582D17A6883100121D9
:1021EC0099409142A7D9BD686B6823F003094E450D
:1021FC0003D8A9EB06030F2B7ADCDFF824B1494B8B
:10220C00DBF800201B680132334405EB090A00F0AF
:10221C00338103F580530F3323F47F6828F00F08C4
:10222C004146204600F00AFA411C024600F0F380B9
:10223C00824500F2EE803C4B196841441960084617
:10224C0000F04E81DBF80010019301311BBFA2EBB3
:10225C000A0A5044CBF80020186012F0070B00F06B
:10226C001781CBF108010A44CBF580519044083119
:10227C00A1EB0801C1F30B0A51462046009200F075
:10228C00DDF9421CDDE9002300F04F81801A00EBE0
:10229C000A081968BA6048F001005144BD42506008
:1022AC00196000F02981B9F10F0F40F2278168689D
:1022BC00A9F10C0C2CF0070C00F0010040EA0C000A
:1022CC0068604FF0050E05EB0C00BCF10F0FC0E978
:1022DC0001EE00F2328150681546144B1A688A429E
:1022EC0038BF1960124B1A688A4238BF196094E0E3
:1022FC00AA1943F0010346F001066E602046BA604D
:10230C00536000F095F90835284603B0BDE8F08F0E
:10231C00D9681A44A1E600BF38040020400400200C
:10232C0040080020C409002094090020BC090020AA
:10233C00C0090020B2F5206F4FEA522363D3142B4F
:10234C0000F2B78003F15C01C9005B3307EB010EAF
:10235C007958AEF1080E8E4500F091804B6823F051
:10236C000303934202D989688E45F7D1D1F80CE06A
:10237C007A68C5E9021ECEF80850CD60D6E6142B5B
:10238C0059D9542B00F29D80330B03F16F0003F1EC
:10239C006E0CC3008AE60EF1010E1EF0030F05F160
:1023AC0008057FF4D5AE51E0424445465368D8F851
:1023BC000C1043F00103536055F8083F2046D960D8
:1023CC008B6000F035F9F3E6F00806F1080237E609
:1023DC002A442046536843F001035360083500F04B
:1023EC0027F9E5E6A919204646F0010643F0010459
:1023FC006E60C7E90411C1E902CC4C60AB5000F02F
:10240C0017F90835D4E6930903F13901C9003833BB
:10241C009CE7BD425FD0BD68686820F00308464564
:10242C00A8EB060302D80F2B3FF762AF204600F053
:10243C00FFF80025BCE603F15C0003F15B0CC30064
:10244C0034E659F808394B4540F0968010F0030FEC
:10245C0000F1FF30F5D17B6823EA01037B60490072
:10246C0099423FF6C0AE19B9BDE649000EF1040E13
:10247C001942FAD0704667E603F11008D0E69A10BC
:10248C004FF001087B6808FA02F21A437A6070E791
:10249C0002EB08014942C1F30B0A51462046009257
:1024AC0000F0CCF8431CDDE900237FF4EFAEDA46F4
:1024BC00EFE6542B25D8130B03F16F01C9006E33D3
:1024CC0044E7B3F5AA7F25D8F30B03F1780003F1A9
:1024DC00770CC300EAE5294B186840441860B1E654
:1024EC00CAF30B0CBCF1000F7FF4ACAEBD68C84452
:1024FC0048F001006860F0E61546EEE601235360F3
:10250C0094E7B3F5AA7F23D8D30B03F17801C90064
:10251C0077331BE740F25452934223D8B30C03F1A8
:10252C007D0003F17C0CC300C0E5ABF1080BD84473
:10253C00A8EB02084FF0000AABE605F108012046B3
:10254C00009300F003F9BD68009B68681968C4E645
:10255C0040F254518B420BD8930C03F17D01C9000E
:10256C007C33F3E64FF47E737F204FF07E0C9DE5B9
:10257C004FF47E717E23E9E67B6870E794090020B6
:10258C00830730B548D0541E002A3FD0CAB2034648
:10259C0001E0013C3AD303F8012B9D07F9D1032C40
:1025AC002DD9CDB245EA05250F2C45EA054536D97E
:1025BC00A4F1100222F00F0C03F1200EE6444FEAB6
:1025CC00121C03F1100242E9045542E90255103283
:1025DC007245F8D10CF1010214F00C0F03EB02124E
:1025EC0004F00F0C13D0ACF1040323F003030433F9
:1025FC00134442F8045B9342FBD10CF003042CB15E
:10260C00CAB21C4403F8012B9C42FBD130BD64467A
:10261C001346002CF4D1F9E703461446BFE71A46DB
:10262C00A446E0E70148FFF7EFBC00BF900900208B
:10263C000148FFF7EBBC00BF9009002038B5074DEF
:10264C000022044608462A60FEF720F9431C00D0FD
:10265C0038BD2B68002BFBD0236038BDC809002087
:10266C00024B13B1024800F005B87047000000009F
:10267C008D260008002301461A46184600F06CB956
:10268C0038B5084B084D5B1B9C1007D0043B1D4410
:10269C00013C55F804399847002CF9D1BDE8384075
:1026AC0000F0A6B93C2A0008382A0008F8B5244FD7
:1026BC000C460646FFF7B6FFBA685568C4F57E634C
:1026CC000F3325F003052B4423F47F6323F00F0312
:1026DC00A3F58054B4F5805F07DB00213046FFF78B
:1026EC00ADFFBB682B44984204D03046FFF7A0FFE7
:1026FC000020F8BD61423046FFF7A0FF01300DD03D
:10270C00104ABB682D1B45F001055D60136830460F
:10271C001B1B1360FFF78CFF0120F8BD0021304616
:10272C00FFF78CFFBA68831A0F2BDEDD43F0010331
:10273C005360054B03491B68C01A0860D5E700BFFE
:10274C00380400209409002040080020002961D0A2
:10275C00F8B50C460646FFF765FF54F8042C7B4F82
:10276C00A4F1080522F0010105EB010CB868DCF8B6
:10277C000430604523F0030300F08B80D207CCF8C3
:10278C00043032D454F8082CAD1A1144AA6807F15D
:10279C00080082426AD00CEB0304D4F804E0EC6825
:1027AC00D4601EF0010FA26000F0978041F001038D
:1027BC006B60CCF80010B1F5007F35D27A68CB088D
:1027CC0048090121013381401143796007EBC302B1
:1027DC0057F83310083AC5E9021247F83350CD6068
:1027EC003046BDE8F840FFF723BF0CEB03025268FC
:1027FC00D00710D4194407F10800DCF808308342E4
:10280C0073D0DCF80C20DA60936041F001036B604C
:10281C006950D0E7704741F00103B1F5007F44F8EF
:10282C00043CCCF80010C9D3B1F5206F4FEA51230A
:10283C0048D28B0903F1390003F13802C300F818B0
:10284C00FB580838984259D05A6822F003028A4241
:10285C0002D99B689842F7D1D868C5E902308560E7
:10286C00DD603046BDE8F840FFF7E2BE0CEB03023A
:10287C005268D20763D40B44DCE90212CA6091603F
:10288C0043F001026A603046EB50BDE8F840FFF7B8
:10289C00CFBE0B44D10707D454F8082CAD1A1344FF
:1028AC00D5E90212CA60916043F001026A60284ABD
:1028BC00BD6012689A4293D8264B30461968FFF7D0
:1028CC00F5FE8DE7142B0AD9542B1FD80B0B03F1F3
:1028DC006F0003F16E02C300B1E719448DE703F1F9
:1028EC005C0003F15B02C300A9E741F00103C7E9F7
:1028FC000455C5E902006B60695071E77968921064
:10290C00012404FA02F20A437A60A6E7B3F5AA7F1F
:10291C0006D8CB0B03F1780003F17702C3008EE7E6
:10292C0040F25452934206D88B0C03F17D0003F114
:10293C007C02C30083E74FF47E737E227FE741F075
:10294C0001036B60CCF800104AE700BF380400208C
:10295C0044080020C40900202DE9F047DFF87CA0D2
:10296C000646DAF8000098460F469146FFF74CFBF6
:10297C001B4B1B68D3F8484124B365681F2D26DC1C
:10298C005EB96B1C0235DAF80000636044F8257000
:10299C00FFF73CFB0020BDE8F08704EB8501012329
:1029AC00C1F88890D4F88821AB401A43022EC4F8A1
:1029BC008821C1F80881E4D1D4F88C211343C4F8E0
:1029CC008C31DEE703F5A674C3F84841D5E7DAF895
:1029DC000000FFF71BFB4FF0FF30DCE7480800203E
:1029EC00202A0008F8B500BFF8BC08BC9E4670470A
:0C29FC00F8B500BFF8BC08BC9E46704750
:102A08000000000000000000010203040607080996
:0C2A180000000000010203041000002078
:082A2400F8D7FF7F010000005C
:0C2A2C006D260008D1010008991F000869
:042A3800AD010008E4
:102A3C000024F40001000000100000001000002031
:102A4C0000000000FC02002064030020CC030020E6
:102A5C00000000000000000000000000000000006A
:102A6C00000000000000000000000000000000005A
:102A7C00000000000000000000000000000000004A
:102A8C00000000000000000000000000000000003A
:102A9C00000000000000000000000000000000002A
:102AAC00000000000000000000000000000000001A
:102ABC00000000000000000000000000000000000A
:102ACC0000000000000000000000000000000000FA
:102ADC0000000000000000000000000000000000EA
:102AEC0000000000000000000100000000000000D9
:102AFC000E33CDAB34126DE6ECDE05000B0000009E
:102B0C0000000000000000000000000000000000B9
:102B1C0000000000000000000000000000000000A9
:102B2C000000000000000000000000000000000099
:102B3C000000000000000000000000000000000089
:102E7C0038040020380400204004002040040020C6
:102E8C004804002048040020500400205004002076
:102E9C005804002058040020600400206004002026
:102EAC0068040020680400207004002070040020D6
:102EBC007804002078040020800400208004002086
:102ECC008804002088040020900400209004002036
:102EDC009804002098040020A0040020A0040020E6
:102EEC00A8040020A8040020B0040020B004002096
:102EFC00B8040020B8040020C0040020C004002046
:102F0C00C8040020C8040020D0040020D0040020F5
:102F1C00D8040020D8040020E0040020E0040020A5
:102F2C00E8040020E8040020F0040020F004002055
:102F3C00F8040020F8040020000500200005002003
:102F4C0008050020080500201005002010050020B1
:102F5C001805002018050020200500202005002061
:102F6C002805002028050020300500203005002011
:102F7C0038050020380500204005002040050020C1
:102F8C004805002048050020500500205005002071
:102F9C005805002058050020600500206005002021
:102FAC0068050020680500207005002070050020D1
:102FBC007805002078050020800500208005002081
:102FCC008805002088050020900500209005002031
:102FDC009805002098050020A0050020A0050020E1
:102FEC00A8050020A8050020B0050020B005002091
:102FFC00B8050020B8050020C0050020C005002041
:10300C00C8050020C8050020D0050020D0050020F0
:10301C00D8050020D8050020E0050020E0050020A0
:10302C00E8050020E8050020F0050020F005002050
:10303C00F8050020F80500200006002000060020FE
:10304C0008060020080600201006002010060020AC
:10305C00180600201806002020060020200600205C
:10306C00280600202806002030060020300600200C
:10307C0038060020380600204006002040060020BC
:10308C00480600204806002050060020500600206C
:10309C00580600205806002060060020600600201C
:1030AC0068060020680600207006002070060020CC
:1030BC00780600207806002080060020800600207C
:1030CC00880600208806002090060020900600202C
:1030DC009806002098060020A0060020A0060020DC
:1030EC00A8060020A8060020B0060020B00600208C
:1030FC00B8060020B8060020C0060020C00600203C
:10310C00C8060020C8060020D0060020D0060020EB
:10311C00D8060020D8060020E0060020E00600209B
:10312C00E8060020E8060020F0060020F00600204B
:10313C00F8060020F80600200007002000070020F9
:10314C0008070020080700201007002010070020A7
:10315C001807002018070020200700202007002057
:10316C002807002028070020300700203007002007
:10317C0038070020380700204007002040070020B7
:10318C004807002048070020500700205007002067
:10319C005807002058070020600700206007002017
:1031AC0068070020680700207007002070070020C7
:1031BC007807002078070020800700208007002077
:1031CC008807002088070020900700209007002027
:1031DC009807002098070020A0070020A0070020D7
:1031EC00A8070020A8070020B0070020B007002087
:1031FC00B8070020B8070020C0070020C007002037
:10320C00C8070020C8070020D0070020D0070020E6
:10321C00D8070020D8070020E0070020E007002096
:10322C00E8070020E8070020F0070020F007002046
:10323C00F8070020F80700200008002000080020F4
:10324C0008080020080800201008002010080020A2
:10325C001808002018080020200800202008002052
:10326C002808002028080020300800203008002002
:0C327C00FFFFFFFF000002008C09002093
:0400000508000A3DA8
:00000001FF
