:020000040800F2
:10000000380C00246D030008F3340008AB330008FB
:10001000F1340008E3060008BD39000800000000C4
:10002000000000000000000000000000633800082D
:100030001509000800000000F534000865380008C4
:100040008703000887030008870300088703000868
:100050008703000887030008870300088703000858
:10006000870300088703000887030008E5060008E7
:10007000F1060008870300088703000887030008CB
:100080008703000887030008870300088703000828
:100090008703000887030008870300088703000818
:1000A0008703000887030008870300088703000808
:1000B00087030008870300088703000887030008F8
:1000C00087030008870300088703000887030008E8
:1000D00039370008870300088703000887030008F2
:1000E000870300088703000800000000870300085A
:1000F00087030008870300088703000887030008B8
:1001000087030008870300088703000887030008A7
:100110008703000887030008870300088703000897
:100120008703000887030008870300088703000887
:100130008703000887030008870300088703000877
:1001400000000000000000000000000000000000AF
:100150008703000887030008870300088703000857
:100160008703000887030008870300088703000847
:1001700087030008870300088703000800000000C9
:100180008703000887030008870300088703000827
:100190008703000887030008870300088703000817
:1001A0008703000887030008870300080000000099
:1001B00087030008870300088703000887030008F7
:1001C000870300088703000800000000000000000B
:1001D000000000000000000087030008000000008D
:1001E000000000000000000000000000000000000F
:1001F00000000000000000008703000887030008DB
:100200008703000887030008000000008703000838
:100210008703000887030008870300088703000896
:1002200087030008000000008703000800000000AA
:100230008703000887030008000000008703000808
:100240008703000887030008870300088703000866
:100250008703000887030008870300088703000856
:100260008703000887030008870300088703000846
:1002700087030008870300088703000800000000C8
:100280008703000887030008870300088703000826
:10029000000000008703000887030008000000003A
:1002A0000000000087030008870300088703000898
:1002B00087030008870300088703000887030008F6
:1002C00087030008870300088703000800F002F88E
:1002D00000F03CF80AA090E8000C82448344AAF1A4
:1002E0000107DA4501D100F031F8AFF2090EBAE8A2
:1002F0000F0013F0010F18BFFB1A43F0010318475A
:100300002C3900004C390000103A24BF78C878C15D
:10031000FAD8520724BF30C830C144BF04680C600B
:10032000704700000023002400250026103A28BF53
:1003300078C1FBD8520728BF30C148BF0B60704757
:100340001FB503F061FC1FBD10B510BD00F058F8DB
:100350001146FFF7F5FF03F03BFC00F076F803B41D
:10036000FFF7F2FF03BC00F07DF80000094880476A
:1003700009480047FEE7FEE7FEE7FEE7FEE7FEE787
:10038000FEE7FEE7FEE7FEE704480549054A064B9F
:1003900070470000FD380008CD0200083802002434
:1003A000380C002438040024380400244FF00002E4
:1003B00000B5134694469646203922BFA0E80C505B
:1003C000A0E80C50B1F12001BFF4F7AF090728BF36
:1003D000A0E80C5048BF0CC05DF804EB890028BFB2
:1003E00040F8042B08BF704748BF20F8022B11F0DB
:1003F000804F18BF00F8012B704770477047704757
:10040000754600F02BF8AE4605006946534620F0CD
:100410000700854618B020B5FFF7B6FFBDE82040BD
:100420004FF000064FF000074FF000084FF0000BB0
:1004300021F00701AC46ACE8C009ACE8C009ACE863
:10044000C009ACE8C0098D46704710B50446AFF34B
:1004500000802046BDE81040FFF781BF004870478C
:10046000D401002401491820ABBEFEE7260002009B
:100470007047000001220248114601F003BA000053
:100480000008025800220248012101F0FBB90000D7
:10049000000802587047000001220248082101F0BC
:1004A000F1B900000008025800220248082101F0BA
:1004B000E9B9000000080258704730B54FF47A756A
:1004C000044602E0284600F004F8601E84B2F9D227
:1004D00030BD4FF0E02370B55D69C0EB0010996945
:1004E0004401002298698842FCD002D2A1EB0001AD
:1004F00002E0A5EB000631440A440146A242F1D3D2
:1005000070BD10B5FFF7C6FFFFF7D6FF03F068FA1E
:10051000044603F0EDFA204310BD00002DE9FC4134
:100520000746164600200D4600900190FFF7AAFFEF
:10053000922000F0BDF806226946122000F09AF8D9
:10054000FFF798FF9DF801009DF80010484C00024D
:1005500000B2084300EE100AD4ED000AB8EEC00A5B
:1005600020EE200A85ED000A9DF803009DF8021098
:10057000D4ED000A000200B2084300EE100AB8EE03
:10058000C00A20EE200A85ED010A9DF805009DF8BD
:100590000410000200B2084300EE100AB8EEC00AD0
:1005A00020EE200A85ED020AFFF77EFF0822694649
:1005B000002000F05FF8FFF76FFF9DF800000F28A4
:1005C00030D19DF803009DF80210D4ED010A00021D
:1005D00000B2084300EE100AB8EEC00A20EE200A6E
:1005E00087ED000A9DF805009DF80410D4ED010A7E
:1005F000000200B2084300EE100AB8EEC00A20EE76
:10060000200A87ED010A9DF807009DF806100002F8
:1006100000B2084300EE100AB8EEC00A20EE200A2D
:1006200087ED020AFFF72EFFA22000F041F8022218
:100630006946222000F01EF8FFF71CFF9DF800100D
:100640009DF80100C90041EA5010B0F5806F01DB50
:10065000A0F5006000EE100AB4EE001AF3EE070AEF
:10066000B8EEC00A40EE010AC6ED000ABDE8FC8102
:100670001800002470B540F0800014460D4600F0CC
:1006800017F806E0552000F013F8641E05F8010B7A
:10069000E4B2002CF6D170BD10B540F080000C46DD
:1006A00000F006F8552000F003F8207010BD00009F
:1006B00001B582B04FF47A700123009001AA03487B
:1006C00002A902F01FFD9DF804000EBD5C0000248D
:1006D00010B50C46FFF7ECFF2046BDE81040FFF7D1
:1006E000E7BFFEE7014800F05BBA0000E400002429
:1006F000014800F055BA00005C010024294A016855
:1007000091423AD0274A1832914236D0254A3032A7
:10071000914232D0234A483291422ED0214A60324F
:1007200091422AD01F4A7832914226D01D4A9032F7
:10073000914222D01B4AA83291421ED01A4A9142BD
:100740001BD0194A1832914217D0174A30329142C1
:1007500013D0154A483291420FD0134A6032914269
:100760000BD0114A7832914207D00F4A9032914211
:1007700003D00D4AA832914211D1CAB21823103ABF
:10078000B2FBF3F26FF30901032A02F00703074AF1
:10079000D25CC26500D9091D81650846704721F009
:1007A000FF01F9E71000024010040240123C00086B
:1007B00030B5224A012301689142CAB21BD01F4CB6
:1007C0001434A14217D01D4C2834A14213D01B4C25
:1007D0003C34A1420FD0194C5034A1420BD0174CDD
:1007E0006434A14207D0154C7834A14203D0134C95
:1007F0008C34A1420CD11421114C083AB2FBF1F116
:100800000F4A803201F01F0504EB8101AB4010E07C
:100810000C4D1824103A0D44B2FBF4F1A82D00D869
:100820000831094A01F01F0402EB8101064AA34086
:100830008032603080E80E0030BD0000085402585D
:1008400000580258F0FBFDBF0008024010B50279C5
:10085000531E072B2DD8174C0168A1421BD0154CF5
:100860001434A14217D0134C2834A14213D0114C98
:100870003C34A1420FD00F4C5034A1420BD00D4C50
:100880006434A14207D00B4C7834A14203D0094C08
:100890008C34A14203D10849074C443102E0074996
:1008A000064C443104EB8202C0E91B21012199402E
:1008B000416710BD08540258FC580258FC08024019
:1008C00010B583694FF0C074826A0146002053B1AD
:1008D000B3F5005F15D072B1012A0CD0022A0AD0FC
:1008E000032A09D104E01AB1012A06D0022A03D151
:1008F000C96AC90100D5012010BDC96AA142FAD058
:1009000010BD002AF7D0012AF2D0022AF3D0032A20
:10091000F3D010BD704772B6FEE700002DE9F05F1E
:1009200028B190F83510022904D0802141650120BA
:10093000BDE8F09F904C904B0168183C18338E4AEC
:10094000DFF83C92A1428D4CDFF838E28E4FDFF8A1
:100950003CB2DFF83CA28F4D8F4E31D091422FD068
:1009600099422DD0A1422BD0494529D0714527D09D
:10097000B94225D0DFF810C20CF1180C61451FD028
:10098000DFF808C2ACF1600C614519D0DFF8FCC19A
:10099000ACF1480C614513D0DFF8F0C1ACF1300C7C
:1009A00061450DD0DFF8E4C1ACF1180C614507D00A
:1009B000594505D0514503D0A94201D0B1422CD1AF
:1009C000DFF8B4C14FF0040880F83580ACF1180CA2
:1009D00061451DD091421BD0994219D0A14217D038
:1009E000494515D0714513D0B94211D06648183029
:1009F00081420DD065486038814209D0634848384B
:100A0000814205D061483038814201D05F481838B2
:100A1000086820F001000860ABE0D1F800C02CF0BD
:100A20000E08DFF854C1C1F80080ACF1180C016861
:100A3000614527D0914225D0994223D0A14221D0AF
:100A400049451FD071451DD0B9421BD0DFF838C1D0
:100A50000CF1180C614515D0DFF830C1ACF1600C19
:100A600061450FD0DFF824C1ACF1480C614509D0D5
:100A7000DFF818C1ACF1300C614503D0DFF80CC1D0
:100A8000ACF1180CD1F800C02CF0010CC1F800C07A
:100A9000DFF8E4804FF0010C0168A8F11808414527
:100AA00046D0914244D0994242D0A14240D04945DB
:100AB0003ED071453CD0B9423AD0334A18329142C7
:100AC00036D0324A603A914232D0304A483A914266
:100AD0002ED02E4A303A91422AD02C4A183A9142CE
:100AE00026D0594524D0514522D0A94220D0B14228
:100AF0001ED02A4A91421BD0284A1432914217D064
:100B0000264A2832914213D0244A3C3291420FD0D7
:100B1000224A503291420BD0204A6432914207D08F
:100B20001E4A7832914203D01C4A8C32914218D12D
:100B3000016E0A6822F480720A6090F85C20816D70
:100B400002F01F020CFA02F24A60D0E919124A6060
:100B5000C16E31B10A6822F480720A60D0E91C12B9
:100B60004A600022016D80F835C080F8342001B160
:100B700088470020DCE600002800024058000240C0
:100B80007000024088000240A00002407004024051
:100B900088040240A0040240B804024008540258ED
:100BA0002DE9FC5F0446F74E0020DFF8D883009063
:100BB0004FF41652F44808F11808A56DDFF8C493F5
:100BC000DFF8C0A3016809F1300920680AF1480A7A
:100BD000B1FBF2F1B04201912F68D5F800C0DFF807
:100BE000ACB335D04146884232D0484530D050452C
:100BF0002ED058452CD0E5491831884228D0E349F9
:100C00003031884224D0E1494831884220D0E0493F
:100C100088421DD0DE491831884219D0DC49303174
:100C2000884215D0DA494831884211D0DFF860E3B4
:100C30000EF1600E70450BD0D54A7832904207D045
:100C4000D34B9033984203D0D149A83188427DD10B
:100C500094F85C20082102F01F0201FA02F23A42E5
:100C60004AD0B04232D0404530D048452ED05045D1
:100C70002CD058452AD0C54A1832904226D0C34AB3
:100C80003032904222D0C14A483290421ED0C04AEF
:100C900090421BD0BE4A1832904217D0BC4A303224
:100CA000904213D0BA4A483290420FD0B84A6032CC
:100CB00090420BD0B64A7832904207D0B44A903274
:100CC000904203D0B24AA832904203D1026802F0A7
:100CD000040202E0026802F008026AB1026822F02F
:100CE0000402026094F85C0000F01F008140A960DB
:100CF000606D40F00100606594F85C00012100F037
:100D00001F008140394240D02068B04234D0404575
:100D100032D0484530D050452ED058452CD09B4A33
:100D20001832904228D0994A3032904224D0974AC3
:100D30004832904220D0964A90421DD0944A1832B0
:100D4000904219D0924A3032904200E0AFE113D085
:100D50008F4A483290420FD08D4A603290420BD079
:100D60008B4A7832904207D0894A9032904203D021
:100D7000874AA83290427DD1406910F0800F04D09C
:100D8000A960606D40F00200606594F85C00042189
:100D900000F01F00814039423ED02068B04232D07E
:100DA000404530D048452ED050452CD058452AD00B
:100DB000764A1832904226D0744A3032904222D07D
:100DC000724A483290421ED0714A90421BD0704AFB
:100DD0001832904217D06E4A3032904213D06C4A8B
:100DE000483290420FD06A4A603290420BD0684A33
:100DF0007832904207D0664A9032904203D0644ADB
:100E0000A83290424ED1006810F0020F04D0A960C1
:100E1000606D40F00400606594F85C00102100F003
:100E20001F008140394258D02068B04234D040453C
:100E300032D0484530D050452ED058452CD0534A5A
:100E40001832904228D0514A3032904224D04F4A32
:100E50004832904220D04E4A90421DD04C4A18321F
:100E6000904219D04A4A3032904215D0484A48320E
:100E7000904200E014E00FD0454A603290420BD01F
:100E8000434A7832904207D0414A9032904203D090
:100E90003F4AA832904207D1006800F0080006E0FF
:100EA000006872E70068B7E7006800F00400A0B1CE
:100EB000A96020680168490304D50068000308D5CB
:100EC000A16C07E00168C90503D4016821F008019D
:100ED0000160216C09B12046884794F85C0020210C
:100EE00000F01F008140394279D02068B04232D0F2
:100EF000404530D048452ED050452CD058452AD0BA
:100F0000224A1832904226D0204A3032904222D0D3
:100F10001E4A483290421ED01D4A90421BD01C4AA5
:100F20001832904217D01A4A3032904213D0184AE1
:100F3000483290420FD0164A603290420BD0144A89
:100F40007832904207D0124A9032904203D0104A31
:100F5000A832904203D1006800F0100002E000685F
:100F600000F00200B0B3A96094F8350004282068AE
:100F700001680FD049037ED5006800032BD4616C53
:100F80002AE000001000024010000024700002401F
:100F90001004024021F0160101602068416921F02F
:100FA00080014161206C08B9A06C20B12068016803
:100FB00021F00801016094F85C303F21012003F02A
:100FC0001F0300229940A96084F8350084F834207A
:100FD000216D65E003E0E16B09B120468847606D53
:100FE00000287DD0606DC00759D02068042184F8A6
:100FF0003510B0422BD0404529D0484527D0504528
:1010000025D0584523D09D49884220D09B4918318E
:1010100088421CD099493031884218D0984988427A
:1010200015D097491831884211D0954930318842FE
:101030000DD093494831884209D0914960318842A6
:1010400005D08F497831884201D08D4990310168AF
:1010500021F00101016020680099019A491C00916A
:10106000914202D80168C907F6D10068C00710D0C4
:1010700003200FE0FFE70168C905ACD40368012134
:10108000002223F01003036084F8351084F8342024
:10109000A1E7012084F83500002084F83400E16CD9
:1010A00000291DD002B02046BDE8F05F0847754911
:1010B00088421DD073491431884219D071492831B2
:1010C000884215D06F493C31884211D06D4950316A
:1010D00088420DD06B496431884209D0694900E0EB
:1010E00084E07831884203D066498C3188427DD1D2
:1010F00094F85C800427016808F01F0807FA08F7D5
:1011000017EA0C0F009746D04F0744D500980F04FC
:10111000686003D5C8033CD4A16CC1E7880638D405
:101120002068B0422DD055496039884229D04845C1
:1011300027D0504525D0584523D05049884220D04B
:101140004E49183188421CD04C493031884218D061
:101150004B49884215D04A491831884211D0484934
:10116000303188420DD046494831884209D0704517
:1011700007D0904205D0984203D04149A831884217
:1011800003D1016821F0080102E0016821F00401A7
:101190000160216C84E7022707FA08F717EA0C0FB1
:1011A00000974ED08F074CD500980F04686003D588
:1011B000C80344D4616C73E7880640D42068B04209
:1011C0002FD02E49603988422BD0484529D0504530
:1011D00027D0584525D02949884222D0274918319F
:1011E00088421ED025493031884200E044E018D0C2
:1011F0002349884215D022491831884211D020490C
:10120000303188420DD01E494831884209D070459E
:1012100007D0904205D0984203D01949A83188429E
:1012200003D1016821F0140102E0016821F00A01F4
:101230000160012184F83510002084F83400E16B4E
:101240002EE7082202FA08F212EA0C0F14D009075E
:1012500012D5016821F00E01016094F85C100120A4
:10126000002201F01F0100FA01F16960606584F855
:10127000350084F8342012E7BDE8FC9F8800024066
:1012800010040240085402582DE9F05F044600F0B3
:10129000FFFA002C07467DD0E24E022120684FF075
:1012A0000308DFF884934FF00005DFF880A3B04215
:1012B000DFF87CB334D0DB4A1832904230D0484556
:1012C0002ED050452CD058452AD0D94A18329042B9
:1012D00026D0D74A3032904222D0D54A4832904266
:1012E0001ED0D44A90421BD0D24A1832904217D016
:1012F000D04A3032904213D0CE4A483290420FD07A
:10130000CC4A603290420BD0CA4A7832904207D021
:10131000C84A9032904203D0C64AA83290427DD14A
:1013200084F83510B04284F834502ED0BD491831BD
:1013300088422AD0484528D0504526D0584524D048
:10134000BB491831884220D0B949303188421CD07D
:10135000B7494831884218D0B649884215D0B549B6
:101360001831884211D0B349303188420DD0B1498B
:101370004831884209D0AF496031884205D0AD4933
:101380007831884201D0AB499031016821F00101E8
:10139000016008E025E100BF00F07AFAC01B0528D3
:1013A00001D920211AE120680068C007F4D1D4E9EE
:1013B00002032168103418438E4694E88410D4E95F
:1013C000033809683A4310439B4A40EA0C006769B6
:1013D00018431140103C40EA0800042F40EA010085
:1013E00003D1D4E90B12114308436168A1F129022A
:1013F000052A0BD9163A032A08D9083A012A05D931
:10140000083A032A02D97439032901D840F480101C
:10141000CEF800002068676A406900E020E0042FF1
:1014200020F0070047EA00070DD1D4E90A0107437D
:1014300049B12046FFF744FA28B1402060650121F8
:1014400084F83510CDE0206847612046FFF756F953
:1014500094F85C203F2102F01F029140816055E02A
:10146000764A90421BD0754B1433984217D0734B79
:101470002833984213D0714B3C3398420FD06F4BB6
:10148000503398420BD06D4B6433984207D06B4B6E
:101490007833984203D0694B8C3398427ED184F8DC
:1014A000351084F83450664B0168A26801EA030ED7
:1014B000402A74D0802A73D05FF00002D4E9037808
:1014C000D4E9053142EAD70242EAD8085B4AD4E9B6
:1014D000077C48EAD30848EAD10141EAD7015242E1
:1014E00041EA1C11142341EA0E01016020681044F6
:1014F000B0FBF3F08000E0652046FFF7FFF894F8BA
:101500005C20012102F01F02914041602068B0423E
:1015100057D044491831884253D0484551D050459E
:101520004FD058454DD042491831884249D04049A2
:101530003031884245D03E494831884241D03D490A
:1015400088423ED03B49183188423AD0394930313F
:10155000884236D037494831884232D035496031E7
:1015600088422ED03349783188422AD0314990318F
:10157000884226D02F49A831884222D02F4988425C
:101580001FD02E49143188421BD02C492831884263
:1015900017D02A493C31884213D002E01DE017E001
:1015A00018E02649503188420BD0244964318842E2
:1015B00007D022497831884203D020498C318842B3
:1015C00029D12046FFF7F4F8A06880280CD00CE061
:1015D000102273E74FF4804270E74021616584F880
:1015E00035800120BDE8F09F6560216E207908609C
:1015F000D4E9190141606068401E072808D82046D8
:10160000FFF724F9E06E0560D4E91C01416002E0B7
:10161000E566256765670120656584F8350000206B
:10162000E0E7000010000240400002405800024085
:1016300070000240100402403F8010FE085402581F
:101640000F00FEFF70B5044600F022F90546601C4D
:1016500002D004480078044400F01AF9401BA0426C
:10166000FAD370BD040000242DE9F84F03247A4D0D
:1016700000234FF001094FF0B04B4FF00F0AE4E0A8
:1016800009FA03F6324078D00F7907F00307012FEB
:1016900001D0022F1AD187684FEA430ED1F80CC04F
:1016A00004FA0EF827EA08070CFA0EFC4CEA070CBD
:1016B000C0F808C0476891F804C0B743CCF3001CD9
:1016C0000CFA03FC4CEA070CC0F804C00E79F64390
:1016D000B6070BD0C6684FEA43088F6804FA08FCC7
:1016E00026EA0C0607FA08F73743C7600E7906F0BA
:1016F0000306022E12D1DE080F694FEA437C00EB8D
:101700008606B646366A4FEADC6C0AFA0CF807FA27
:101710000CF726EA08063743CEF820700F790668E2
:101720004FEA430807F0030704FA08FC07FA08F732
:1017300026EA0C06374307604E6816F4403F1CD07B
:10174000464E376847F00207376036689F0706F055
:101750000206009623F0030606F1B046B6463F0F98
:10176000D6F80864DFF8F8800AFA07FC404526EA54
:101770000C0603D14FF0000C3AE065E0DFF8E4C05E
:10178000604502D14FF0010C32E0DFF8DCC060456B
:1017900002D14FF0020C2BE0DFF8D0C0604502D13F
:1017A0004FF0030C24E0DFF8C8C0604502D14FF0D1
:1017B000040C1DE0DFF8BCC0604502D14FF0050C01
:1017C00016E0DFF8B4C0604502D14FF0060C0FE020
:1017D000DFF8A8C0604502D14FF0070C08E0DFF841
:1017E000A0C0604502D14FF0090C01E04FF00A0C97
:1017F0000CFA07FC4CEA060CCEF808C44F68DBF87C
:101800000060FF0226EA020600D516435F46CBF8C9
:101810000060D1F804C0DBF804605FEA8C2C26EA93
:10182000020600D516437E606E684F6826EA0206FF
:10183000BF0300D516436E602E684F6826EA020685
:10184000FF0300D516432E605B1C0A6832FA03F6CC
:101850007FF416AFBDE8F88F80000058F4440258BA
:10186000000002580004025800080258000C0258F8
:10187000001002580014025800180258001C0258A8
:10188000002402580AB1816170470904FBE7000097
:101890000148806870470000040000240248816805
:1018A000027811448160704704000024032010B5C1
:1018B00000F086F800F08CFE0F4A10491468136897
:1018C000C4F3032203F00F038A5CC95C02F01F0219
:1018D00001F01F01D0400A4A20FA01F111600949C4
:1018E00008600F2000F010F808B1012010BD00F0D2
:1018F0002BF8002010BD0000184402581A3C0008C4
:10190000140000241000002470B50D4D0446287802
:10191000A0B14FF47A71B1FBF0F00A490968B1FB4C
:10192000F0F001F02FFD48B9102C07D2002221461B
:10193000501E00F025F800206C6070BD012070BDC5
:101940000400002410000024054808B5016841F097
:1019500002010160006800F00200009008BD000074
:10196000F4440258002809DB410900F01F028900F5
:10197000012001F1E0219040C1F800017047000012
:101980000E4BF0B41B680D46C3F30223C3F10706E8
:10199000042E00D90426191D072901D2002300E0D6
:1019A000DB1E012404FA06F19C40491E2940641EF6
:1019B000994014402143F0BC02F001B80CED00E066
:1019C000064900F0070210B54FF6FF040868044B03
:1019D000204040EA02201843086010BD0CED00E0F2
:1019E0000000FA05134970B50A68D243520705D5BD
:1019F000096801F00701814213D118E00A6822F05A
:101A0000070202430A60FFF743FF0A4D4FF47A765C
:101A10000446083D07E000BFFFF73AFF001BB04255
:101A200001D9012070BD2868C0438004F4D400208F
:101A300070BD00000C4802582DE9FE4F0546DFF846
:101A400000A450F8081B0024FD4FC943019005F184
:101A5000280026460AF1240A009008011DD4686E69
:101A600050B1B0F5801F0CD0B0F5001F0ED0B0F50E
:101A7000401F1ED001240FE0386840F40030386069
:101A800017E00198022101F037FD03E000980221E0
:101A900001F0C2FD04000CD026462888C043C005D2
:101AA00023D4A86D05281ED2DFE800F00C11161B08
:101AB0001B006A6EDAF8001021F440111143CAF8D5
:101AC0000010EAE7386840F40030386009E0019817
:101AD000002101F011FD03E00098002101F09CFDC0
:101AE0000446C4B100E0012426462888DFF850836C
:101AF000C04308F12C0840052FD4D5F8A400B0F558
:101B0000C00F28D010DCB8B1B0F5001F19D0B0F567
:101B1000800F0FD11AE0AA6DDAF8001021F007014A
:101B20001143CAF80010E0E7B0F5000F13D0B0F58C
:101B3000200F10D001240FE0386840F400303860E6
:101B400009E00198002101F0D7FC03E00098002192
:101B500001F062FD044694B126462888C043000582
:101B600030D4D5F8A800B0F1407F29D011DCC0B145
:101B7000B0F1807F1AD0B0F1007F10D11BE0D5F812
:101B8000A420D8F8001021F460011143C8F8001017
:101B9000E3E7B0F1806F13D0B0F1A06F10D0012453
:101BA0000FE0386840F40030386009E00198002107
:101BB00001F0A2FC03E00098002101F02DFD044695
:101BC00094B126462868DFF878B2C0430BF1200BA9
:101BD00080011FD4E86CD8B110280FD0202812D073
:101BE000302815D0012414E0D5F8A820D8F800102A
:101BF00021F0E0611143C8F80010E3E7386840F4D1
:101C00000030386004E00198022101F075FC0446C0
:101C100074B126462888C043C0042BD4E86DB0F5C3
:101C2000005F20D00DDCA0B1B0F5805F0FD115E0D2
:101C3000EA6CDBF8001021F030011143CBF8001002
:101C4000E8E7B0F5405F13D0B0F5804F10D0012425
:101C50000FE0386840F40030386009E00198002156
:101C600001F04AFC03E00098002101F0D5FC044695
:101C70008CB126462888C043800429D4286EB0F54C
:101C8000403F23D010DC08B3B0F5803F14D0B0F54E
:101C9000003F0FD115E0EA6DDAF8001021F4E041C1
:101CA0001143CAF80010E5E7B0F5802F0ED0B0F56B
:101CB000A02F0BD001240AE00198012101F01CFCA7
:101CC00003E00098012101F0A7FC044694B12646E8
:101CD0002888C04340042AD4D5F8AC00B0F1405F56
:101CE00023D010DC08B3B0F1805F14D0B0F1005FF6
:101CF0000FD115E02A6EDAF8001021F4E02111432B
:101D0000CAF80010E4E7B0F1804F0ED0B0F1A04F58
:101D10000BD001240AE00198012101F0EDFB03E062
:101D20000098012101F078FC044674B12646288809
:101D3000C04300041FD4E86ED8B1B0F1805F0ED06C
:101D4000B0F1005F10D0012414E0D5F8AC20D8F831
:101D5000001021F0E0411143C8F80010E7E73868AF
:101D600040F40030386004E00198012101F0C4FB28
:101D7000044674B126462868C043C0011ED4A86C2E
:101D8000D0B101280ED0022811D0032814D001248C
:101D900013E0EA6EDAF8001021F040511143CAF85E
:101DA0000010E8E7386840F40030386004E001983B
:101DB000022101F0A1FB04466CB126462868C0430D
:101DC000400255D41F48016841F480710160FFF75B
:101DD0005FFD81460EE0AA6CDBF8001021F00301E4
:101DE0001143CBF80010E9E7FFF752FDA0EB090023
:101DF00064283BD813480068C005F5D5BCBBDFF8A4
:101E00004090B5F8B01009F14409D9F8000001F488
:101E1000407100F44070884211D0D9F80010D9F810
:101E2000002021F4407142F48032C9F80020D9F832
:101E3000002022F48032C9F80020C9F8001003E025
:101E40002C44025800480258D5F8B000B0F5807F05
:101E500019D1FFF71DFD029011E000BFFFF718FD3B
:101E60000299411A41F28830814208D9032426465A
:101E70002878DFF81494C043C00721D03CE0D9F89B
:101E800000008007EAD5D5F8B010C1F3012003287F
:101E9000FE480DD0016821F47C510160B5F8B020F6
:101EA000D9F80010C2F30B021143C9F80010DFE7A4
:101EB000F74A036802EA111223F47C511143ECE75C
:101EC000A86F182816D005DCA0B1082808D0102863
:101ED00004D10AE020280DD028280BD001240AE0E4
:101EE0000198012101F008FB03E00098012101F0B5
:101EF00093FB044664B126462878C04380071ED46D
:101F0000686F062819D2DFE800F0160C11161616B5
:101F1000AA6FD9F8001021F038011143C9F8001058
:101F2000EAE70198012101F0E7FA03E000980121B6
:101F300001F072FB04467CB100E0012426462878BB
:101F4000C04340071FD4D5F89000062819D2DFE817
:101F500000F0160C111616166A6FD9F8001021F051
:101F600007011143C9F80010E9E70198012101F0C8
:101F7000C3FA03E00098012101F04EFB0446A4B12E
:101F800000E0012426462878C04380062BD4D5F8EB
:101F90008C00B0F1405F24D011DC10B3B0F1805F51
:101FA00015D0B0F1005F10D116E0D5F89020D8F828
:101FB000001021F007011143C8F80010E3E7B0F169
:101FC000804F0ED0B0F1A04F0BD001240AE0019851
:101FD000002101F091FA03E00098022101F01CFBBE
:101FE000044694B126462878C04340062BD4D5F841
:101FF0009800B0F5406F24D011DC10B3B0F5806FBD
:1020000015D0B0F5006F10D116E0D5F88C20D9F8B6
:10201000001021F0E0411143C9F80010E3E7B0F5EA
:10202000805F0ED0B0F5A05F0BD001240AE00198CC
:10203000002101F061FA03E00098022101F0ECFABE
:10204000044694B126462878C04300062BD4D5F820
:102050009C00B0F5C04F24D011DC10B3B0F5005F88
:1020600015D0B0F5804F10D116E0D5F89820D8F8EB
:10207000001021F4E0511143C8F80010E3E7B0F577
:10208000004F0ED0B0F5204F0BD001240AE001988C
:10209000002101F031FA03E00098022101F0BCFABE
:1020A000044654B126462878C04300071ED4D5F80C
:1020B0008000B0F5805F0AD00FE0D5F89C20D8F8FA
:1020C000001021F460411143C8F80010EBE70098BC
:1020D000022101F0A1FA00B10126D5F88020D9F83B
:1020E000001021F440511143C9F800102878C04372
:1020F000C00613D4D5F89400B0F5807F05D10098C0
:10210000022101F089FA00B10126D5F89420D8F80F
:10211000001021F440711143C8F800102868C04332
:10212000000316D4D5F8A00038B1B0F5803F09D02F
:10213000B0F5003F0BD001240AE00198002101F026
:10214000DBF903E00098022101F066FA04468CB145
:1021500026462868C043400322D4D5F88400B0F551
:10216000801F11D0B0F5001F13D0B0F5401F15D05F
:10217000012414E0D5F8A020D8F8001021F4403153
:102180001143C8F80010E4E7386840F400303860C4
:1021900004E00098012101F03FFA04465CB12646B4
:1021A0002868C043C0031CD4286D70B1B0F5803FCF
:1021B00010D0012414E0D5F88420D9F8001021F4BF
:1021C00040111143C9F80010EAE7386840F40030C4
:1021D000386004E00198022101F08EF90446DCB178
:1021E00026462868C043800005D40098022101F0EB
:1021F00013FA00B101262868C04380031BD4E86F9E
:10220000B8B1B0F5807F10D0B0F5007F11D0B0F537
:10221000407F0ED001240DE02A6DDBF8001021F480
:1022200080311143CBF80010DBE7386840F4003010
:1022300038607CB326462868C043C00207D42A6FA2
:10224000DAF8001021F000411143CAF800102868A4
:10225000C043800207D4AA6EDAF8001021F0807122
:102260001143CAF800102868C043400009D4074849
:10227000016821F4004101600168D5F8B4201143E0
:1022800001602868C04306E05444025810440258D4
:10229000CFFFFF001DE007D46A6DDBF8001021F0CE
:1022A00040511143CBF800102868C043000208D405
:1022B000D5F88820D9F8001021F440011143C9F85D
:1022C000001028790024C04300F00100204309D009
:1022D0000EE0EA6FD9F8001021F440711143C9F8FB
:1022E0000010A8E70198002101F006F900B10646A8
:1022F0002879C04300F00200204305D10198012154
:1023000001F0FAF800B106462879C04300F0040055
:10231000204305D10198022101F0EEF800B10646F4
:102320002879C04300F00800204305D1009800211F
:1023300001F072F900B106462879C04300F01000A0
:10234000204305D10098012101F066F900B106464D
:102350002879C04300F02000044304D100980221F2
:1023600001F05AF900B916B10120BDE8FE8F002036
:10237000FBE700002DE9F05F04000F467ED0DFF898
:102380003882D8F8000000F00F00B8420CD2D8F81C
:10239000001021F00F013943C8F80010D8F80000F0
:1023A00000F00F00B84269D12078844D40070AD56B
:1023B0002069296801F07001884204D9296821F058
:1023C00070010143296020787C4E361D00070AD534
:1023D0006069316801F07001884204D9316821F0E8
:1023E0007001014331602078C0060AD5A0693168C8
:1023F00001F4E061884204D9316821F4E0610143CD
:1024000031602078DFF8B4B180060BF1080B0CD5F1
:10241000E1695846DBF8002002F07002914204D9CD
:10242000026822F070020A430260207880070AD511
:10243000E068296801F00F01884204D9296821F079
:102440000F01014329602078C0073ED05B49A26894
:102450002868183920F470601043286060680228EA
:1024600018D0032819D00968012819D04907002974
:102470004ADADFF848A1AAF1080A00E044E0DAF8F5
:10248000002022F007020243CAF80020FFF700FAFA
:10249000814612E009688903E9E709688901E6E7EE
:1024A000C905E4E7FFF7F4F9A0EB090141F2883030
:1024B000814202D90320BDE8F09F6168DAF800008C
:1024C00000F03800B0EBC10FECD1207880070AD5BE
:1024D000E068296801F00F01884204D2296821F0E0
:1024E0000F0101432960D8F80010404601F00F01A8
:1024F000B9420BD9016821F00F013943016000682E
:1025000000F00F00B84201D00120D4E72078400746
:102510000AD52069296801F07001884204D229682F
:1025200021F0700101432960207800070AD5606915
:10253000316801F07001884204D2316821F07001E5
:10254000014331602078C0060AD5A069316801F4E2
:10255000E061884204D2316821F4E06101433160D6
:10256000207880060CD5E1695846DBF8002002F09F
:102570007002914204D2026822F070020A430260A3
:1025800000F026F80E492A682B68C2F3032203F0F4
:102590000F038A5CC95C02F01F0201F01F01D040EA
:1025A000084A20FA01F111600749086007480068ED
:1025B000BDE8F05FFFF7A8B90020005218440258A8
:1025C0001A3C000814000024100000240800002415
:1025D000454970B545480968434B103B11F0380236
:1025E00008D00111082A03D0102A0BD0182A0BD0CA
:1025F000084670BD19688906FBD51968C1F3C10189
:10260000C84070BD3A4870BD3749374D18310C1D70
:1026100024350A68096826682D6802F0030406F06C
:102620000102C1F30511C5F3CC0515FB02F200EE62
:10263000102AB8EE400AE9B32F4ADFED2E0AB7EEB2
:10264000001A6CB1DFED2D1A012C01D0022C43D001
:1026500002EE101A1068F8EE422A81EEA22A1EE05D
:102660001C68A40611D51B6801EE901A1168C3F30B
:10267000C103F8EE612AD84001EE900AC1F30800C8
:10268000F8EE611A81EEA22A0BE001EE901ADFED5E
:102690001C2A00BFF8EE611A106882EEA12AC0F36E
:1026A000080001EE900AF8EE611A40EE201A31EEB1
:1026B000810A00E015E022EE000A1068C0F346200F
:1026C000401C00EE900AF8EE600A80EE201ABCEE84
:1026D000C10A10EE100A70BD01EE901ADFED092A52
:1026E000D8E7002070BD0000104402580090D003CD
:1026F00000366E0100000039304402580024744A4C
:102700000024744C001BB74B2DE9F05F04007DD012
:10271000FF4F2078FE4D1837DFF8F483103DC007D7
:1027200048D0D8F80000396800F03800102815D0DB
:10273000182803D101F0030002280FD06068B0F51B
:10274000803F12D010B1B0F5A02F18D0286820F427
:1027500080302860286820F4802009E02868800301
:1027600028D560680028D2D024E0286840F4803062
:102770002860606888B1FFF78BF8064609E0286892
:1027800040F480202860F0E7FFF782F8801B64287F
:102790007ED828688003F7D50CE0FFF779F8064665
:1027A00005E000BFFFF774F8801B6428F0D82868A4
:1027B0008003F7D42078800756D5D8F80000DFF8DA
:1027C0005093396810F03800A9F10C090ED0182880
:1027D00001D188070AD0E068A8B3296821F019015F
:1027E00001432960FFF754F8064628E028684007AF
:1027F00002D5E06800288AD0E168286820F0190036
:1028000008432860FFF744F8064606E0D2E000BF20
:10281000FFF73EF8801B0228BAD828684007F7D592
:10282000217CD9F8002022F0FE4242EA0161C9F879
:10283000001019E0FFF72CF8801B0228A8D82868A0
:102840004007F7D5ECE7FFE7286820F00100286093
:10285000FFF71EF8064604E0FFF71AF8801B02286F
:1028600096D828684007F7D42078C00646D5D8F80F
:102870000000DFF89C92396800F03800A9F10409E3
:10288000082812D0182805D101F00300012800E023
:10289000CEE00AD0E0690028286820D040F080000F
:1028A0002860FEF7F5FF064615E02868C00502D54A
:1028B000E06980287ED194F82010D9F8002022F019
:1028C0007C5242EA0161C9F8001017E0FEF7E0FF10
:1028D000801B0228A0D82868C005F7D5EBE720F0B8
:1028E00080002860FEF7D4FF064604E0FEF7D0FF24
:1028F000801B022890D82868C005F7D420780007EC
:1029000029D583486169643000298146016811D066
:1029100041F001010160FEF7BBFF064605E000BF84
:10292000FEF7B6FF801B022888D8D9F80000800780
:10293000F6D510E021F001010160FEF7A9FF06467F
:1029400005E000BFFEF7A4FF801B022870D8D9F86D
:1029500000008007F6D42078800623D5A0690028DF
:10296000286810D040F480502860FEF791FF06469A
:1029700005E000BFFEF78CFF801B022858D82868AE
:102980008004F7D50EE020F480502860FEF780FF29
:10299000064604E0FEF77CFF801B022848D8286822
:1029A0008004F7D42078400751D5DFF86891D9F832
:1029B000001000E015E141F48071C9F80010FEF745
:1029C00067FF064605E000BFFEF762FF801B642834
:1029D0002ED8D9F80000C005F6D54D4EA068603657
:1029E00001280AD008B1052813D0306820F0010072
:1029F0003060306820F0040002E0306840F00100F0
:102A00003060A06841F2883A98B1FEF741FF8146F4
:102A10000AE0306840F004003060EEE7FEF738FF6F
:102A2000A0EB0901514503D830688007F6D50EE0C8
:102A300072E0FEF72DFF814606E000BFFEF728FF9B
:102A4000A0EB0901514567D830688007F6D4606A69
:102A500000287CD0DFF8B8A0D8F800100AF1200ACE
:102A60004FF6F87B0AF10408C1F3C2010329AAF169
:102A700004096DD00228286820F08070286003D0F7
:102A8000FEF706FF044681E0FEF702FF064604E07B
:102A9000FEF7FEFE801B022875D828688001F7D457
:102AA000E26A40F2F331386854F8283F884340EA3C
:102AB000021018433860217B4FF4FE0C22894FF03E
:102AC000FE47208A4902267D521E401EA1F5007154
:102AD00089B2C2F308021143761E0CEA004001439A
:102AE000484607EA06621143CAF80010D9F80010F8
:102AF00021F00101C9F80010D8F80030266A23EA55
:102B00000B0343EAC601C8F80010D9F8001004E02E
:102B1000104402580048025835E0A26921F00C0127
:102B20001143C9F800100168E26921F00201114364
:102B30000160016841F480310160016841F40031B5
:102B40000160016841F480210160016801E06CE0EE
:102B500020E041F001010160286840F080702860A9
:102B6000FEF796FE044604E0FEF792FE001B0228E4
:102B700009D828688001F7D557E000BFFEF788FE26
:102B8000001B022802D90320BDE8F09F28688001BD
:102B9000F4D44AE039680128DAF8000021D0A26AAA
:102BA00001F0030393421CD1E26AC1F305118A428A
:102BB00017D1216BC0F30802491E8A4211D1616B03
:102BC000C0F34622491E91420BD1A16BC0F30642CD
:102BD000491E914205D1E16BC0F30660491E814256
:102BE00001D00120D0E7A16C4646D8F80000C0F320
:102BF000CC00814219D0D9F800004D4620F00100E8
:102C0000C9F80000FEF744FE4FEA0007FEF740FE59
:102C1000B842FBD0A26C306820EA0B0040EAC20048
:102C20003060286840F0010028600020ACE7704761
:102C30002DE9F0470446006800210369426987686E
:102C400094F8816000F130095FEA025C03EA020552
:102C50000AD51A0708D5816941F4006181612046CF
:102C600000F04FFABDE8F08715F0600F08D1680753
:102C700006D5616F20468847216F2046884701218D
:102C800005F04100012805D1680703D4216F2046D3
:102C90008847012105F02200022806D1680704D4E4
:102CA000616F2046BDE8F04708470029DAD12807C0
:102CB0004FF001085BD52068816941F0080181610E
:102CC0002068816941F0100181612068816941F4C7
:102CD000006181612068016921F0080101612068BB
:102CE000806810F4404F20D023E0E0680F2806D918
:102CF0002068616E006B0860606E001D0FE00728A1
:102D000006D9B9F80000616E0880606E801C06E08C
:102D10002068616E90F830000870606E401C60663C
:102D2000B4F86A00401EA4F86A00B4F86A000028EB
:102D3000DBD1204600F006FD84F88180D4F88400C1
:102D400018B12046FFF773FF8CE7052E07D0042E3D
:102D500009D0032E86D1204600F012FB82E72046E0
:102D600000F00FFB7EE7204600F0CAF97AE715F481
:102D7000587FE9D068060AD5D4F8840040F00400F2
:102D8000C4F884002068816941F040018161A80590
:102D90000AD5D4F8840040F00100C4F8840020680B
:102DA000816941F400718161E8050AD5D4F8840095
:102DB00040F00800C4F884002068816941F4807103
:102DC0008161A8060AD5D4F8840040F08000C4F8D8
:102DD00084002068816941F020018161D4F8840079
:102DE0000028B1D0206840F26B32C7F3813103680C
:102DF000032923F0010101602068016921EA020131
:102E0000016102D084F881809BE72068104D8168C1
:102E100021F440418160E06F50B10565E06FFDF73E
:102E20007DFD28B1D4F8840040F04000C4F884004F
:102E3000A06F002888D00565A06FFDF76FFD002802
:102E40008CD0D4F8840040F04000C4F8840009E736
:102E5000013800082DE9F047040029D0594A4FF005
:102E600000092068584B594D9042C4F8289006D06C
:102E7000984204D0A84202D0E1680F2918D8E1682E
:102E80004FF0010AE76B0831C9080AEB5716714386
:102E9000904205D0984203D0A84201D0082907D813
:102EA000904203D0984201D0A84204D1102902D9FF
:102EB0000120BDE8F08794F8810020B9204684F80D
:102EC000809000F085F8022084F881002068016875
:102ED00021F0010101602068A1698268B1F1806F71
:102EE00002F4F81110D16268B2F5800F01D01AB166
:102EF0000AE0A26B22B107E0A26BB2F1805F03D1BE
:102F0000026842F4805202606068400209D5E068BD
:102F1000072806D32068236D026822F480721A43C2
:102F200003E02068026822F480720260A66AE06909
:102F3000E26B25683043E3680A4310431843A860F6
:102F4000D4E90D02D4E90581636A25691843D4F8F0
:102F500020C00A43266810432843A56DD4E90172B6
:102F6000D4E9123140EA080040EA0C003843084333
:102F7000104318432843F060606868B9206881688E
:102F800021F4C05141F4006181602068816821F41E
:102F9000C06141F4806181602068016D21F0010110
:102FA00001656068400206D52068626DC16821F045
:102FB00000411143C160C4F8849084F881A00020CE
:102FC00077E700000030014000380040003C00403E
:102FD0002DE9F041B4B0074614212EA8FDF7E6F91B
:102FE000B8216846FDF7E2F93F493868884277D151
:102FF0008114002017900446CDE900106846FEF7C2
:103000001BFD08B1FDF787FC3848016841F4804199
:103010000160006800F4804033903448083801684B
:1030200041F004010160016801F00401339101687D
:1030300041F0020101600068022503264FF00508F7
:1030400000F002000621CDE92E15CDE93280284896
:103050002EA9CDE93046FEF707FB2903254830AA03
:10306000CDE92E152EA982E85001FEF7FDFA224E79
:103070004FF4806821492722304631604FF44031B7
:10308000C6E90124C6E903487461B461C6E9074191
:103090007462FEF7F9F808B1FDF73DFC164D4023C8
:1030A000164928227835FE671831B76302C5D90260
:1030B000281F85E81C012C616C61C5E906412C6262
:1030C0002D1FFEF7E1F808B1FDF725FCBD670022D2
:1030D0000521AF632420FEF753FC2420FEF742FCB9
:1030E00034B0BDE8F081000000380040E8440258E8
:1030F0000008025800040258E400002410000240B6
:10310000704770472DE9FF4F83B090F88010044658
:10311000006801294FF00001109F1D46019100F148
:10312000200100F130009346029100900ED04FF044
:10313000010A84F880A0FEF7ABFB94F8811080466A
:1031400000202E46012905D0022133E0022007B0DD
:10315000BDE8F08F049961B3BBF1000F29D045B3EE
:103160000521814684F88110C4F88400C4F864B055
:10317000A4F86A50A4F868500499E165A4F8625074
:10318000A4F86050206760672068C16821F4C021FE
:10319000C160206841686FF30F01294341602068D6
:1031A000016841F0010101606068B0F5800F05D051
:1031B00009E0012184F880000846C8E7206801681A
:1031C00041F400710160E0680F2830D841E02068C8
:1031D000416989070DD565B1E16D09680162E06D4E
:1031E000001DE065B4F86200401EA4F86200B4F867
:1031F000625048F208022068416911420DD066B160
:10320000006B616E0860606E001D6066B4F86A0055
:10321000401EA4F86A00B4F86A60FEF739FBA0EB20
:103220000800B84202D3781C01D004E01FB155EA6F
:103230000600CCD187E0204600F084FAD4F8842040
:1032400084F8809042F48071C4F8841084F881A0DE
:1032500043E0072830D873E02068406980070ED526
:103260006DB1E06D018802980180E06D801CE06521
:10327000B4F86200401EA4F86200B4F862502068FE
:103280004069C0070ED06EB100980188606E018061
:10329000606E801C6066B4F86A00401EA4F86A0084
:1032A000B4F86A60FEF7F4FAA0EB0800B84202D363
:1032B000781C01D004E01FB155EA0600CCD142E0F1
:1032C000204600F03FFAD4F8842084F8809042F43D
:1032D0008070C4F8840084F881A0032037E7206858
:1032E000416989070ED56DB1E16D097880F820102C
:1032F000E06D401CE065B4F86200401EA4F8620076
:10330000B4F8625020684169C9070ED06EB190F8D8
:103310003000616E0870606E401C6066B4F86A0030
:10332000401EA4F86A00B4F86A60FEF7B1FAA0EB98
:103330000800B84202D3781C02D07CE7002FFCD0F2
:1033400055EA0600CBD100223B4608212046CDF8A5
:10335000008000F063FA28B1D4F8840040F0200027
:10336000C4F88400204600F0EDF984F881A0D4F878
:10337000841084F8809009B10120E8E60198E6E61F
:1033800070477047401EB0F1807F10B501D3012017
:1033900010BD4FF0E02460610F21601700F00FFBBB
:1033A0000020A0610721216110BDFEE70D4808B58E
:1033B000016841F00101016000680022012100F074
:1033C000010000900B20FEF7DBFA0B20FEF7CAFA93
:1033D000002202210C20FEF7D3FABDE808400C20A1
:1033E000FEF7C0BAD844025830B587B014216846F9
:1033F000FCF7DCFF2248016841F0800101600168B0
:1034000001F080010591016841F00401016001684B
:1034100001F004010591016841F0100101600168AB
:1034200001F010010591016841F00201016001689D
:1034300001F002010591016841F00101016000689D
:103440000122104D092100F0010005902846FEF7E9
:1034500019FA002409200121032203928DE81300A8
:1034600069462846FEF700F94FF4A0504FF4881142
:103470008DE8130004486946FEF7F6F807B030BD42
:10348000E044025800080258001002582DE9F041AB
:10349000164807264FF08042DFF84CC00021551136
:1034A00005611311C0E90216C0E907214162171234
:1034B00081629411C162C0E90D21C163016441645C
:1034C0008164C164016541658165C0E90543C0E966
:1034D00000C7FFF7BFFC002803D0BDE8F041FDF7AF
:1034E0001ABABDE8F0810000003800405C000024FA
:1034F000FEE7FEE7704700002DE9F047454D044622
:1035000089464FF0000A2868C04380070AD0414E20
:10351000283E306820F080603060FEF7B9F9074639
:10352000B04608E00120BDE8F08700BFFEF7B0F923
:10353000C01B022867D8D8F800000001F6D4206824
:1035400029684FF4FE0721F47C313E0241EA003045
:103550002860207AA389B4F804C040022D4D2D497B
:103560005B1E227CACF1010C1035091DA0F500702A
:1035700080B2521ECCF3080C07EA034340EA0C0069
:10358000184306EA0262104328600868626920F066
:10359000C000104308600A68A06922F020020243BC
:1035A0000A60281D0A6822F010020A6002684FF6BD
:1035B000F873E4699A4342EAC40202600868B9F108
:1035C000000F40F010020A6011D00868B9F1010F35
:1035D00011D040F400100860D8F80000444640F0D4
:1035E0008060C8F80000FEF753F905460DE0086852
:1035F00040F40020EFE740F48010ECE7FEF748F9D4
:10360000401B022801D903208DE720680001F5D571
:10361000504688E7284402582DE9F047454D0446B6
:1036200089464FF0000A2868C04380070AD0414EFF
:10363000283E306820F080503060FEF729F90746B8
:10364000B04608E00120BDE8F08700BFFEF720F992
:10365000C01B022867D8D8F800008000F6D4208864
:1036600029684FF4FE0721F07C713E0241EA0050C8
:103670002860207AA389B4F804C040022D4D2D495A
:103680005B1E227CACF1010C1835091DA0F5007001
:1036900080B2521ECCF3080C07EA034340EA0C0048
:1036A000184306EA0262104328600868626920F441
:1036B0004060104308600A68A06922F40072024367
:1036C0000A60281D0A6822F480720A6002684FF6B8
:1036D000F873E4699A4342EAC40202600868B9F1E7
:1036E000000F40F480720A6011D00868B9F1010F30
:1036F00011D040F080700860D8F80000444640F0D7
:103700008050C8F80000FEF7C3F805460DE00868D1
:1037100040F48000EFE740F40000ECE7FEF7B8F873
:10372000401B022801D903208DE720688000F5D5D1
:10373000504688E7284402580148FFF779BA00004C
:103740005C00002410B5026840F26F33516994693F
:1037500044F0080494610268946944F01004946190
:103760000268146824F001041460026814699C4320
:1037700014610268936823F44043936090F88120B9
:10378000042A0CD08A060AD5D0F8842042F08002A0
:10379000C0F884200268936943F02003936190F895
:1037A0008120032A0CD04A060AD5D0F8842042F0A2
:1037B0000402C0F884200268936943F040039361D7
:1037C0008A050AD5D0F8842042F00102C0F884208E
:1037D0000268936943F400739361C9050AD5D0F870
:1037E000841041F00801C0F8841001688A6942F42D
:1037F00080728A610021A0F86210A0F86A1010BDE2
:1038000010B5806B00210122A0F86A10A0F86210A8
:1038100080F88120FFF70BFA10BD00002DE9F04180
:103820001C4616460D460746DDF818800AE000BF24
:10383000FEF72EF8A0EB0800A04202D3601C01D0D6
:103840000BE054B13868406935EA000007D0002029
:10385000B042EDD00020BDE8F0810320FBE701205D
:10386000F6E77047FEF71AB830B59DB04C216846B0
:10387000FCF79CFD202113A8FCF798FD0220FEF721
:10388000B1F81D48016821F440410160016800243D
:1038900001F440411B9101688904FCD502200A9083
:1038A00028230990C20301210C25CDE90012CDE99E
:1038B0000B03CDE90D10CDE910540F90684612941A
:1038C000FEF722FF08B172B6FEE740201A900823E7
:1038D0000501CDE9163013ABCDE918053F210322D0
:1038E00083E8160013A81146FEF744FD002801D016
:1038F00072B6FEE71DB030BD184802582748F0B533
:10390000274A016841F470010160106800F00F005F
:10391000072804D2106820F00F00C01D1060214954
:103920000020204C10340B681F4D43F001030B6046
:1039300020600B682B400B60136803F00F03072B0C
:1039400004D9136823F00F03DB1D1360154C174ACD
:103950001834174B261D371D2060124C154D283486
:103960003060261D3860371D23603B1D35601C1DEF
:103970003A60251D2E1D1860331D226028603260BC
:1039800018600A6843F2D204064B0B4D22F48022E1
:1039900060330A6018602C60F0BD000088ED00E024
:1039A00000200052004402587FEDF6EA8002010137
:1039B000000202020000FF0100400052FEE709077A
:1039C00000284FEA116104DB00F1E02080F80014C8
:1039D000704700F00F0000F1E02080F8141D7047E0
:1039E0002DE9F0410024FCF74DFD8020FCF760FE3E
:1039F0005520FCF75DFE5520FCF75AFEFCF73AFD1A
:103A00009620FCF766FDFCF73DFD8020FCF750FE9C
:103A10005520FCF74DFE5520FCF74AFEFCF72AFD29
:103A20009620FCF756FDFCF72DFDB6217E20FCF715
:103A30004FFEFCF71FFD5020FCF73FFDFCF722FD79
:103A40008020FCF735FE5520FCF732FE5520FCF7B0
:103A50002FFEFCF70FFD9620FCF73BFDFCF712FD57
:103A60008020FCF725FE5520FCF722FE5520FCF7B0
:103A70001FFE0546FCF7FEFC9620FCF72AFD1E2DD6
:103A800002D0FF20BDE8F081184D00BFFCF7FAFC22
:103A900004EB44067719A85D7978FCF719FEFCF76A
:103AA000E9FC9620FCF715FDFCF7ECFCA85D40F066
:103AB0008000FCF7FDFD5520FCF7FAFD5520FCF7D2
:103AC000F7FD0646FCF7D6FC9620FCF702FD787859
:103AD000B04204D004EB440028448078D2E7641C50
:103AE000E4B2062CD2D30020CCE700002000002452
:103AF000F8B5002004468DF80000FCF7D5FC002046
:103B00006946FCF7C9FDFCF7C7FC9620FCF7E1FC11
:103B1000FCF7CAFC00206946FCF7BEFDFCF7BCFCC4
:103B20009620FCF7D6FCFCF7BFFCB6211420FCF76E
:103B3000CFFDFCF7B1FC5020FCF7BFFCFCF7B4FC58
:103B400000206946FCF7A8FDFCF7A6FC9620FCF7D0
:103B5000C0FCFCF7A9FC00206946FCF79DFDFCF7C2
:103B60009BFC9620FCF7B5FC9DF800000F2801D0C7
:103B7000FF20F8BD154D00BFFCF796FC04EB440692
:103B80007719A85D7978FCF7A3FDFCF785FC9620F2
:103B9000FCF79FFCFCF788FCA85D6946FCF77CFD00
:103BA000FCF77AFC9620FCF794FC78789DF80010DE
:103BB000884204D004EB440028448078F8BD641C9B
:103BC000E4B2062CD8D30020F8BD00003200002457
:103BD000FDF76CFEFFF748FEFFF706FCFFF7E6FB7C
:103BE000FFF754FCFCF78DFC0028FBD10549044A83
:103BF000A1F10C00FCF792FC0A20FDF723FDF5E78C
:103C000000000024500000244FF04070E1EE100A44
:103C10007047000610160006101600000000010292
:103C20000304010203040607080900004C3C0008D5
:103C3000000000244400000008030008903C000835
:103C400044000024F40B00002403000800000000DE
:103C50000100000010000000000000000090D003F0
:103C60000090D003E7416B3A58A08B3A7D04017C69
:103C7000000240AB034100055308065804070F003B
:103C80000810820911000A15800B16000C18010D8E
:04000005080002CD20
:00000001FF
