:020000040800F2
:1000000000000220112E0008C92C0008CB2C00088B
:10001000CD2C0008CF2C0008D12C000800000000D7
:10002000000000000000000000000000D32C0008C9
:10003000D52C000800000000D72C0008D92C00089F
:10004000612E0008612E0008612E0008612E000854
:10005000612E0008612E0008612E0008612E000844
:10006000612E0008612E0008612E0008612E000834
:10007000612E0008612E0008612E0008612E000824
:10008000612E0008612E0008612E000800000000AB
:10009000000000000000000000000000612E0008C9
:1000A000612E0008612E0008612E0008612E0008F4
:1000B000612E0008612E0008612E0008612E0008E4
:1000C000612E0008E12C0008F12C0008612E0008C8
:1000D000612E0008612E0008612E0008000000005B
:1000E000612E0008612E0008612E0008000000004B
:1000F000000000000000000000000000612E000869
:1001000000000000612E0008612E0008612E00082A
:1001100000000000000000000000000000000000DF
:10012000612E0008612E0008612E0008612E000873
:10013000612E000800000000000000000000000028
:10014000000000000000000000000000612E000818
:10015000612E0008612E0008612E0008612E000843
:10016000612E0008612E0008000000000000000061
:10017000000000000000000000000000000000007F
:1001800000000000612E00080000000000000000D8
:08019000612E0008612E000839
:1001C0000348044B834202D0034B03B118477047E6
:1001D0005C0800205C08002000000000054806497B
:1001E0000B1AD90F01EBA301491002D0034B03B145
:1001F000184770475C0800205C08002000000000E1
:1002000010B5064C237843B9FFF7DAFF044B13B15E
:100210000448AFF300800123237010BD5C08002068
:10022000000000009468000808B5044B1BB10449A5
:100230000448AFF30080BDE80840CFE700000000AD
:10024000600800209468000853B94AB9002908BF23
:1002500000281CBF4FF0FF314FF0FF3001F0DEB837
:10026000ADF1080C6DE904CE00F006F8DDF804E00D
:10027000DDE9022304B070472DE9F047089E0D46E2
:1002800004468846002B4DD18A42944668D9B2FA7A
:1002900082F252B101FA02F3C2F1200120FA01F117
:1002A0000CFA02FC41EA030894404FEA1C45210C79
:1002B000B8FBF5FE1FFA8CF705FB1E8341EA0343EA
:1002C0000EFB07F199420BD91CEB03030EF1FF3033
:1002D00080F01E81994240F21B81AEF1020E634410
:1002E0005B1AA4B2B3FBF5F005FB103344EA0344F8
:1002F00000FB07F7A7420AD91CEB040400F1FF3307
:1003000080F00881A74240F2058164440238E41B72
:1003100040EA0E4000211EB1D4400023C6E900434C
:10032000BDE8F0878B4208D9002E00F0EE80002156
:10033000C6E900050846BDE8F087B3FA83F1002955
:100340004AD1AB4202D3824200F2F980841A65EBB3
:10035000030301209846002EE2D0C6E90048DFE7FB
:1003600002B9FFDEB2FA82F2002A40F09180A1EBDE
:100370000C054FEA1C471FFA8CFE0121B5FBF7F371
:1003800007FB1350250C45EA00450EFB03F0A8427D
:1003900008D91CEB050503F1FF3802D2A84200F290
:1003A000CB8043462D1AA4B2B5FBF7F007FB1055DE
:1003B00044EA05440EFB00FEA64508D91CEB0404E4
:1003C00000F1FF3502D2A64500F2BB802846A4EB1F
:1003D0000E0440EA03409EE7C1F120078B4022FA59
:1003E00007FC4CEA030C20FA07F405FA01F31C435E
:1003F000FD404FEA1C4900FA01F3B5FBF9F8200C67
:100400001FFA8CFE09FB185540EA054508FB0EF063
:10041000A84202FA01F20BD91CEB050508F1FF3ADC
:1004200080F08880A84240F28580A8F102086544E7
:100430002D1AA4B2B5FBF9F009FB105544EA0545A5
:1004400000FB0EFEAE4508D91CEB050500F1FF349C
:100450006CD2AE456AD90238654440EA0840A0FB38
:100460000294A5EB0E05A542C846A64656D353D026
:100470005EB1B3EB080265EB0E0505FA07F722FA49
:1004800001F3CD401F43C6E900750021BDE8F087A8
:10049000C2F1200320FA03F10CFA02FC25FA03F35F
:1004A00095400D434FEA1C471FFA8CFEB3FBF7F152
:1004B00007FB11302B0C43EA004301FB0EF098427E
:1004C00004FA02F408D91CEB030301F1FF382FD220
:1004D00098422DD9023963441B1AADB2B3FBF7F031
:1004E00007FB103345EA034500FB0EF3AB4208D986
:1004F0001CEB050500F1FF3816D2AB4214D90238C7
:100500006544ED1A40EA014138E73146304607E7D5
:100510008646E5E61846FAE64B45A9D2B9EB02084D
:1005200064EB0C0E0138A3E74046EAE7204694E767
:100530004146D1E7D0467BE7023B654432E70846B7
:1005400009E76444023842E703685A004CBF43F0AD
:10055000004323F000431844704700BF2DE9F843DF
:1005600029B34F1E044615463E464FF0000808EBDF
:10057000060101EBD171491004EBC1094846FFF7B0
:10058000E3FF0346C80008308F42204409D0AB4245
:1005900009D8FFF7D9FF0138A8420AD201F10108B2
:1005A000E5E7AB4205D9884501D04E1EDFE74FF0A5
:1005B00000094846BDE8F883012807D0022807D083
:1005C000044B00280CBF18460020704702487047B3
:1005D00002487047910C0008950C0008990C00081F
:1005E00030B5234B83B004468D1E3BB301A928468A
:1005F000AFF30080E8B101992A46FFF7AFFF01464B
:10060000B8B1FFF7A1FF4B68A064012B2CD0002BE1
:1006100001F1040024DBFFF797FF0023C4E9130373
:100620000368002B11DBFFF78FFF2061002003B070
:1006300030BD00230920236103B030BD0D4B0E49AE
:10064000C91AC91018460191D6E7C3F30360FFF732
:10065000B3FF0028206114BF0020092003B030BD83
:100660000123C4E91303DBE7002323610520DEE750
:1006700000000000786D0008706F00080368DA075A
:1006800010B5044606D49B0700F1480009D500F0D8
:100690005BFC2368590709D51A070ED5DB0613D56D
:1006A00010BD00F049FC23685907F5D404F1D000CF
:1006B00000F052FC23681A07F0D404F5A87000F08B
:1006C00053FC2368DB06EBD404F5E870BDE810406A
:1006D00000F08EBC092070470346006800B1184442
:1006E000704700BF704700BF70B504460E46316CBE
:1006F0002046FFF775FF054688B9326C62612369B1
:1007000032462146012098470828F0D0072806D114
:100710002846316CFFF7E6FF301D00F001FC00F0C9
:100720007FFE00BF2DE9F0470D1DD0F80C80D0F8FA
:100730001890074614460FCDADF5727D0DF10C0CE7
:10074000ACE80F000FCDACE80F000FCDACE80F0008
:1007500095E80F0002AE4FF0000E8CE80F00C6F8CF
:1007600000E020E0336C7B614FF4F07231467AA8F0
:1007700001F064F93B697AAA394650469847889B4C
:1007800073642146CDE9006905463B463A4601209F
:10079000C0470446E0B94FF4F0727AA9304601F040
:1007A0004DF9082D1AD1316C3846FFF719FF09347D
:1007B0005FFA84FA05460028D4D0B36B73643A46D6
:1007C000CDE900693B464AF010010120C04700B165
:1007D000092528460DF5727DBDE8F087072DF7D174
:1007E0002046316CFFF77EFF03A800F099FB00BFA5
:1007F000406C7047F0B5CB6B0B6401F1040C0E46F6
:100800000546BCE80F00F9B001AC0FC4BCE80F000E
:100810000FC4BCE80F000FC49CE80F004FF0FF3777
:1008200084E80F00009706E02B696A46294698473E
:100830000828044608D110992846FFF7D1FE002861
:10084000F2D0092079B0F0BD6846FFF717FF062CFB
:10085000F7D131462846FFF747FF00BFC160D96B8B
:1008600082611964002219465CE700BF70B5C66852
:1008700043690B64AEB903690A4604460D46014656
:1008800002209847072805D008280FD1294620467E
:10089000FFF72AFF3046296CFFF724FF281D00F0E0
:1008A0003FFB0122FFF73EFF00F0BAFD00F0B8FD6C
:1008B000C2681AB1CA6B0A64002233E79AE700BF24
:1008C000704700BF836801460BB10120184770478D
:1008D000012912D009D873B90F2A0CD800EB820273
:1008E00018465368009A136070470339012994BF72
:1008F000012002207047022070470846704700BF61
:1009000000B585B00A46002303A900911946FFF7F8
:10091000DFFF039805B05DF804FB00BF012912D08A
:1009200009D873B90F2A0CD800EB8200009A12681C
:100930004260184670470339012994BF0120022004
:100940007047022070470846704700BF10B584B05A
:10095000002303AC039200940A461946FFF7DEFF1A
:1009600004B010BD70B5D36B136402F1040C0546DE
:100970000C46BCE80F00ADF50E7D0DF15C0EAEE847
:100980000F00BCE80F00AEE80F00BCE80F00AEE8B7
:100990000F009CE80F004FF0FF368EE80F00169610
:1009A00010E0FFF7D3FF214616A8A847034616AA72
:1009B0006946082083B9049B9847052806460CD051
:1009C000092809D026996846FFF70AFE03466A46B9
:1009D0000C2116A8002BE4D0092616A8FFF74EFE1E
:1009E00030460DF50E7D70BD2DE9F04FCC6C89B011
:1009F0001E4654F8043B06940D46174600F00308C3
:100A0000002E79D01A0C1B0405938DF81D200223AB
:100A1000D2B204EB82048DF81C302B6DB8F1020FBA
:100A200008BFAC6B13F001030CD005A9384600F0E9
:100A300079FB18B9082009B0BDE8F08F092009B08A
:100A4000BDE8F08FD4F800A0BAF1000FEDD001930B
:100A500000F008030293022E4AD0B4F800A0B4F8C4
:100A600002900434AB6C29F0010B0F2138469B44F3
:100A7000FFF746FF834539D82AF001039B4483459D
:100A800094BF002001204FEA490303F002030AF05B
:100A9000010A43EA0A03012B49D0022B32D0002B72
:100AA000CCD1B8F1000F02D0002840F0CD80043442
:100AB000D4F800A0BAF1000FCDD105A9384600F056
:100AC00031FB0028BAD1019B002BB3D00F2138464F
:100AD000FFF716FF0E2102463846FFF737FF38466C
:100AE0006A4A0F21FFF732FF0720A8E70020CAE774
:100AF000D4F804900834B5E71B0205930323ADF83E
:100B00001C308AE7236823F0004BB8F1000F45D171
:100B100028B1029A002A5CD0BBF1000F74D0002BE0
:100B200000DA04340BF1010B04EB8B04C0E7B8F1DD
:100B3000000F19D1B0B163682268991C4FEAD272D4
:100B40003FF47CAF05F158010133049100F090802F
:100B5000201DFFF7C1FD04AB0146284604F07CFBD5
:100B600000285BD10834A3E70D213846D5F8209042
:100B7000FFF7C6FE8145F5D1AB6A9C42F2D1204613
:100B8000FFF7E2FC0F2102463846FFF7DFFE38464A
:100B90002A460021FFF7DAFE072050E70D213846EC
:100BA000D5F82090FFF7ACFE814501D02368B6E769
:100BB000AB6A9C42FAD104230022C5E90B23E31857
:100BC000C5F828B06B632368002B59DB0123019320
:100BD000A8E705F15803CDF80C8004F1040AB046EB
:100BE00091461E460EE050460496FFF775FD002222
:100BF000014604AB284609F101090AF1040A04F090
:100C00002BFBE0B9D945EED10D213846FFF778FE30
:100C1000049BAC62C5E90803062010E781460D215C
:100C20003846FFF76DFEB9F1020F286225D12B4639
:100C3000049A43F82C2F6B62AC620620FFE646460E
:100C40002368DDF80C806AE72046FFF77DFC04345A
:100C50000246AC632846144604F058FB00283FF4D3
:100C6000EDAE384622460F21FFF770FE0720E6E67C
:100C70000D213846FFF744FE2862049B6B62DBE7D8
:100C80000BF1010004EB80007AE700BFC5600008AB
:100C90000023A9E60123A7E60223A5E62DE9F043F8
:100CA0000646C3B015461C46042900F2BF80DFE8A3
:100CB00001F09E57BD2D0300002C40F0B780102A94
:100CC00000F2B4800368D80600F1F98020AF3846FE
:100CD00000F098F9B46B394600234FF0010C0CFA80
:100CE00003F22A42204603F1010303D050F8042BFB
:100CF0000A600446042B01F10401F0D13846B463C4
:100D000000F076F9002043B0BDE8F083032C40F0FA
:100D10008D8094B204EB1243102B4FEA124500F27F
:100D2000858003681F0700F1D28020AF384600F0AD
:100D30003DF9B26B07EBC50154B10B46D01A01EB7C
:100D4000C401E4001D5843F8045B8B42FAD12244ED
:100D50003846B26300F008F9002043B0BDE8F083E4
:100D6000012C4FEA124895B25CD0052C5ED108EBFD
:100D70000509B9F1200F59D8B8F10F0F79D9A94653
:100D8000002D40F08A80B36B6DB320AF4FF00009A7
:100D900007EBC807043F03EBC50553F8041B47F8EE
:100DA000041FAB42F9D1B9F1000F0FD06F46414695
:100DB000102938BF102107EBC101843903EBC905A5
:100DC00053F8040B41F8040FAB42F9D1012C00F0A9
:100DD0008680B8F10F0FB56347D9B9F1000F02D083
:100DE000684600F0B9F8002043B0BDE8F083ECB9E4
:100DF000806B23461FFA82FC0124371D04FA03F29C
:100E000012EA0C0F014604D051F8042B47F82320B6
:100E100008460133102BF1D115F40055E3D1B0632E
:100E2000284604E008EB0503102B03D9022043B049
:100E3000BDE8F083B8F10F0FF8D83368DA0706D5AC
:100E4000304623F0030340F8483B00F079F820AF28
:100E5000384600F075F8B36B002D97D11D46043568
:100E6000B563384600F068F8BDE720A800F06CF8DC
:100E7000B3E7B9F1100F40D9A9F110093368D907C8
:100E800008D523F00103304643F0020340F8483B05
:100E900000F05EF8B9F1000F32D033685A0720D461
:100EA000B8F10F0F25D96F463846C8F1100500F08C
:100EB00057F8002DB36B7FF77AAF20AF68E723F0C8
:100EC0001003336006F5E87000F09CF8FEE623F0AE
:100ED0000803036000F5A87000F068F825E720AF6C
:100EE000BDE7304623F0040340F8D03B00F038F86B
:100EF000D6E720A800F02CF8D5E74FF00009BDE7B1
:100F0000B8F10F0F3FF63FAF20AF384600F020F8A2
:100F1000B36B002D7FF43AAF384600F015F862E766
:100F200000F1340191E838009C46A6464CF8045D77
:100F300090E8FF0FE54600BD90EC210B704700BF25
:100F400080EC210B704700BF90EC200B704700BF76
:100F500080EC200B704700BFD0EC200B704700BF27
:100F6000C0EC200B704700BFF0EC0201F0EC021166
:100F7000F0EC0221F0EC0231F0EC0241F0EC025115
:100F8000F0EC0261F0EC0271F0EC0281F0EC029105
:100F9000F0EC02A1F0EC02B1F0EC02C1F0EC02D1F5
:100FA000F0EC02E1F0EC02F1704700BFE0EC02016E
:100FB000E0EC0211E0EC0221E0EC0231E0EC024155
:100FC000E0EC0251E0EC0261E0EC0271E0EC028145
:100FD000E0EC0291E0EC02A1E0EC02B1E0EC02C135
:100FE000E0EC02D1E0EC02E1E0EC02F1704700BF7E
:100FF000B0FC0181B0FC0191B0FC01A1B0FC01B1D9
:10100000704700BFA0FC0181A0FC0191A0FC01A1E0
:10101000A0FC01B1704700BFEC4600B52DE90050BF
:101020002DE9FF1F4FF000032DE90C0001A9FFF788
:10103000E1FBDDF840E012B0704700BFEC4600B5C0
:101040002DE900502DE9FF1F4FF000032DE90C00A2
:1010500001A9FFF70BFCDDF840E012B0704700BFBC
:10106000EC4600B52DE900502DE9FF1F4FF00003BD
:101070002DE90C0001A9FFF71BFCDDF840E012B0E0
:10108000704700BFEC4600B52DE900502DE9FF1F69
:101090004FF000032DE90C0001ABFFF7DFFBDDF89B
:1010A00040E012B0704700BFEC4600B52DE900509B
:1010B0002DE9FF1F4FF000032DE90C0001AAFFF7F7
:1010C00051FCDDF840E012B0704700BF027A0346E1
:1010D0007AB9427AA2B14168013A10B44272086802
:1010E00003220C1D1A7202025C60000E10BC1A6012
:1010F00070470068013A1A7202021A60000E7047C7
:10110000B020704700B585B0002303AA00921946AD
:101110000C22FFF7DDFB039805B05DF804FB00BF70
:10112000F0E700BF2DE9F043054685B00E464FF0CD
:1011300000083046FFF7CAFFB028044600F0BA8026
:10114000070620D500F0F003802B4DD0902B36D031
:10115000A02B60D0B02B74D0C02B00F08B8000F09F
:10116000F803D02B0BD100F007020132052342F423
:10117000002201212846FFF791FD0028D9D009203F
:1011800005B0BDE8F0838300DBB21F1D0DF10C0933
:1011900000231946CDF800900D222846FFF798FB52
:1011A000039BCDF8009060064CBFDF1BFF180023A7
:1011B0000D22194628460397FFF7B0FBB9E700F068
:1011C0000D030D2BDBD003AF002300F00F021946F7
:1011D00000972846FFF77CFB002300970D22194655
:1011E0002846FFF79BFBA4E73046FFF76FFF24027A
:1011F0002043B0F5004FC2D004010023A2B219462B
:101200002846FFF74BFD0028B9D114F4004F18BF52
:101210004FF001088DE7C24302F007034FF47F62ED
:101220001A41010702F47F624FF0000348BF42F405
:10123000804219462846FFF731FD00283FF479AF78
:101240009DE7B1283BD0B22800F09380B32841D06D
:1012500000F0FC03B42B92D000F00702013201230E
:1012600042F4002219462846FFF718FD00283FF4F3
:1012700060AF84E7C6284AD0C72854D000F0F803EE
:10128000C02B63D0C82868D0C9287FF478AF304617
:10129000FFF71CFF020300F00F0002F47022013080
:1012A0000243012105232846FFF7F8FC00283FF4FC
:1012B00040AF64E7B8F1000F18D0002060E7304677
:1012C000FFF704FF024600283FF459AF10F0F00387
:1012D000C8D054E73046FFF7F9FE020300F00F03D1
:1012E000013302F470221A430123BBE703AC4346E7
:1012F0000E22414600942846FFF7EAFA009443463E
:101300000F2241462846FFF709FB404638E73046A2
:10131000FFF7DCFE020300F00F03013302F470223A
:101320001A4303239EE73046FFF7D0FE024600280B
:101330003FF425AF10F0F0037FF421AF04212846DD
:10134000FFF7ACFC00283FF4F4AE18E700F00F0202
:101350000132032342F4202284E73046FFF7B6FE31
:1013600000F0F00200F00F031032013343EA0232C2
:1013700097E700230DF10C090D221946CDF80090D6
:101380002846FFF7A5FA3046FFF7A0FE02064FF009
:1013900002040CD5039B00F07F00A040184403908A
:1013A0003046FFF793FE030604F10704F2D4039BD3
:1013B000CDF8009000F07F02A24003F501731A44BB
:1013C0000023039219460D222846FFF7A7FAB0E63C
:1013D00010B5C26C536884B04FF0030C08321C0285
:1013E00008461B0E01A9019402928DF80CC08DF8DD
:1013F0000D30FFF797FE04B010BD00BF08B5FFF732
:101400008FFE806C08BD00BF08B5FFF789FEC06C79
:10141000C379023300EB830008BD00BF704700BFF3
:1014200008B5062000F024FD012001F073FC00BF88
:10143000002301461A46184600F0D0BF13460A465C
:101440000146022000F0CABF014B1868704700BF78
:101450000800002038B5084B084D5B1B9C1007D0D6
:10146000043B1D44013C55F804399847002CF9D140
:10147000BDE8384005F014BA846F0008806F00089A
:1014800070B50D4E0D4D761BB61006D0002455F8E4
:10149000043B01349847A642F9D1094E094D761B09
:1014A00005F0F8F9B61006D0002455F8043B0134D5
:1014B0009847A642F9D170BD706F0008706F0008A0
:1014C000806F0008706F0008024B0146186800F03A
:1014D0000BB800BF08000020024B0146186801F05D
:1014E00001B800BF080000202DE9F04F01F10B0604
:1014F000162E83B0044624D8102900F2BA8000F0DA
:1015000005FC102618220220B74F3A44A2F1080128
:1015100053688B4200F0BA805A68D96822F00302FF
:101520001A449D68E9608D60516841F001012046D0
:10153000516003F1080500F0EBFB284603B0BDE85D
:10154000F08F36F0070600F19480B14200F29180EE
:1015500000F0DCFBB6F5FC7FC0F09681730A00F06A
:101560008F80042B00F26B81B30903F1390003F182
:10157000380CC3009C4F3B44A3F108055B689D42B7
:1015800006D10CE0002980F22B81DB689D4206D059
:101590005A6822F00302911B0F29F3DD60463D6972
:1015A000DFF848C265457CD06A6822F00302931BCD
:1015B0000F2B00F37781002BC7E904CC80F2688100
:1015C000B2F5007F80F01681D308796801334FEAC5
:1015D000521E012202FA0EF20A4357F833E0C5F810
:1015E00008E007EBC3010839E9607A6047F8335037
:1015F000CEF80C50831001219940914257D81142E6
:1016000006D120F003004900114200F10400FAD095
:1016100007EBC0094D468646D5F80C80454508D1F4
:1016200019E1002B80F22081D8F80C80454500F0AC
:101630001281D8F8042022F00302931B0F2BF0DD57
:101640002046D8E9025408EB060146F00106C8F826
:101650000460EC60A56043F00104C7E90411C1E92E
:1016600002CC4C6048F8023000F052FB08F108054B
:1016700002E00C2323600025284603B0BDE8F08F6C
:101680004FF4007340204FF03F0C73E7D3689A4249
:1016900008BF02307FF440AF3D69DFF850C16545B7
:1016A00082D17A688310012199409142A7D9BD68FF
:1016B0006B6823F00308464503D8A8EB06030F2BFD
:1016C0007EDCDFF82C91D7F80824D9F800300132FD
:1016D000334405EB080A00F02F8103F580530F33E4
:1016E00023F47F6B2BF00F0B5946204600F012FBC2
:1016F000411C024600F0EF80824500F2EA80D9F8F2
:1017000004105944C9F804100B4600F04B81D7F877
:10171000081401311BBFA2EB0A0A5344C7F808247E
:10172000C9F8043012F0070300F01281C3F1080178
:101730000A44C3F5805193440831A1EB0B01C1F376
:101740000B0A514620460192009300F0E3FA421C36
:10175000DDE9003200F04B81831A03EB0A0BD9F864
:101760000400BA604BF001030AEB0001BD42536074
:10177000C9F8041000F02281B8F10F0F40F2208167
:101780006B68A8F10C0020F0070003F0010303438D
:101790006B604FF0050C2B180F28C3E901CC00F249
:1017A0002D8153681546D9F82C208A42D9F830206B
:1017B00038BFC9F82C108A4238BFC9F830108CE005
:1017C000AA1943F0010346F001066E602046BA6094
:1017D000536000F09DFA0835284603B0BDE8F08F4D
:1017E000D9681A449DE600BF380400204004002058
:1017F00078080020B2F5206F4FEA522363D3142BF0
:1018000000F2B88003F15C01C9005B3307EB010E05
:101810007958AEF1080E8E4500F091804B6823F0A8
:101820000303934202D989688E45F7D1D1F80CE0C1
:101830007A68C5E9021ECEF80850CD60DAE6142BAE
:1018400059D9542B00F29E80330B03F16F0003F142
:101850006E0CC3008EE60EF1010E1EF0030F05F1B3
:1018600008057FF4D9AE51E0424445465368D8F8A4
:101870000C1043F00103536055F8083F2046D9602F
:101880008B6000F045FAF7E6F00806F108023BE647
:101890002A442046536843F001035360083500F0A2
:1018A00037FAE9E6A919204646F0010643F001049B
:1018B0006E60C7E90411C1E902CC4C60AB5000F086
:1018C00027FA0835D8E6930903F13901C9003833FE
:1018D0009CE7BD4260D0BD686B6823F0030B5E459A
:1018E000ABEB060302D80F2B3FF76AAF204600F0A0
:1018F0000FFA0025C0E603F15C0003F15B0CC300A6
:1019000038E659F808394B4540F0968010F0030F3F
:1019100000F1FF30F5D17B6823EA01037B604900C9
:1019200099423FF6C4AE19B9C1E649000EF1040E62
:101930001942FAD070466BE603F1100BD4E69A1008
:101940004FF001087B6808FA02F21A437A6070E7E8
:1019500002EB0B014942C1F30B0A514620460193A9
:10196000009200F0D7F9431CDDE900237FF4F4AEC8
:101970009A46F4E6542B26D8130B03F16F01C900E5
:101980006E3343E7B3F5AA7F26D8F30B03F1780053
:1019900003F1770CC300EDE5D9F804305B44C9F8D6
:1019A0000430B4E6CAF30B0000287FF4B0AEBD6883
:1019B00008EB0B0343F001036B60F4E61546F2E617
:1019C0000123536092E7B3F5AA7F21D8D30B03F12B
:1019D0007801C900773319E740F25452934221D875
:1019E000B30C03F17D0003F17C0CC300C2E5083B9E
:1019F0009B44ABEB020B4FF0000AB0E605F1080187
:101A0000204600F06FFDBD68D9F804106B68CAE687
:101A100040F254518B420BD8930C03F17D01C90065
:101A20007C33F3E64FF47E737F204FF07E0CA1E50C
:101A30004FF47E717E23E9E67B6870E7844641EAD5
:101A4000000313F003036DD1403A41D351F8043B36
:101A500040F8043B51F8043B40F8043B51F8043B88
:101A600040F8043B51F8043B40F8043B51F8043B78
:101A700040F8043B51F8043B40F8043B51F8043B68
:101A800040F8043B51F8043B40F8043B51F8043B58
:101A900040F8043B51F8043B40F8043B51F8043B48
:101AA00040F8043B51F8043B40F8043B51F8043B38
:101AB00040F8043B51F8043B40F8043B51F8043B28
:101AC00040F8043B51F8043B40F8043B403ABDD297
:101AD000303211D351F8043B40F8043B51F8043B39
:101AE00040F8043B51F8043B40F8043B51F8043BF8
:101AF00040F8043B103AEDD20C3205D351F8043BC8
:101B000040F8043B043AF9D2043208D0D2071CBF93
:101B100011F8013B00F8013B01D30B8803806046BC
:101B2000704700BF082A13D38B078DD010F0030332
:101B30008AD0C3F10403D21ADB071CBF11F8013BA2
:101B400000F8013B80D331F8023B20F8023B7BE7F1
:101B5000043AD9D3013A11F8013B00F8013BF9D21C
:101B60000B7803704B7843708B78837060467047B6
:101B700088420DD98B1883420AD900EB020CBAB106
:101B8000624613F801CD02F801CD9942F9D17047B0
:101B90000F2A0ED8034602F1FF3C4AB10CF1010CAA
:101BA000013B8C4411F8012B03F8012F6145F9D159
:101BB000704740EA01039B0750D1A2F1100370B5B2
:101BC00001F1200C23F00F0501F1100E00F11004BB
:101BD000AC441B095EF8105C44F8105C5EF80C5CC9
:101BE00044F80C5C5EF8085C44F8085C5EF8045C41
:101BF00044F8045C0EF1100EE64504F11004E9D13E
:101C0000013312F00C0F01EB031102F00F0400EB93
:101C1000031327D0043C24F003064FEA940C1E441F
:101C20001C1F8E465EF8045B44F8045FB442F9D191
:101C30000CF1010402F0030203EB840301EB8401C5
:101C400002F1FF3C4AB10CF1010C013B8C4411F84C
:101C5000012B03F8012F6145F9D170BD02F1FF3C62
:101C600003469BE72246EBE7830730B548D0541E76
:101C7000002A3FD0CAB2034601E0013C3AD303F840
:101C8000012B9D07F9D1032C2DD9CDB245EA0525AD
:101C90000F2C45EA054536D9A4F1100222F00F0CAD
:101CA00003F1200EE6444FEA121C03F1100242E950
:101CB000045542E9025510327245F8D10CF1010287
:101CC00014F00C0F03EB021204F00F0C13D0ACF164
:101CD000040323F003030433134442F8045B9342E8
:101CE000FBD10CF003042CB1CAB21C4403F8012B45
:101CF0009C42FBD130BD64461346002CF4D1F9E779
:101D000003461446BFE71A46A446E0E7704700BF03
:101D1000704700BF38B5074D0022044608462A60C8
:101D200000F0FEFF431C00D038BD2B68002BFBD019
:101D3000236038BDAC08002038B5D0F8DC420CB1C7
:101D4000002038BD80210546FFF7CEFB0246C5F8CE
:101D5000DC0230B1031F7C3243F8044F9342FBD1C5
:101D6000EEE74FF0FF3038BD1F29F8B5054609D81A
:101D7000D0F8DC620C4617464EB156F8240046F8FF
:101D80002470F8BD162303604FF0FF30F8BD8021AA
:101D9000FFF7AAFB0646C5F8DC0240B1031F00F1BD
:101DA0007C05002143F8041F9D42FBD1E5E74FF07D
:101DB000FF30F8BD1F2938B5054621D8D0F8DC2200
:101DC0000C466AB152F8213053B1012B16D0591C80
:101DD00010D00025204642F824509847284638BDA8
:101DE000284600F003F9224601462846BDE838405F
:101DF00000F0E6B816230360012038BD002038BD8E
:101E0000162303604FF0FF3038BD00BF1F292CD8C8
:101E1000D0F8DC2238B50C46054682B152F82430A1
:101E200002EB84024BB1591C1AD0012B16D00025AD
:101E3000204615609847284638BD012038BD8021CE
:101E4000FFF752FB0246C5F8DC0258B1031F002120
:101E50007C3043F8041F9842FBD1DFE7032038BDF4
:101E6000022038BD4FF0FF3038BD4FF0FF307047D3
:101E700038B5154B1F281D6820D8D5F8DC2204463C
:101E800062B152F820304BB1012B15D0591C0FD044
:101E9000002542F820509847284638BD284600F0D3
:101EA000A5F8224601462846BDE8384000F088B82B
:101EB00016232B60012038BD002038BD16232B606F
:101EC0004FF0FF3038BD00BF08000020134B1F2823
:101ED00070B51E6809D80D46D6F8DC12044649B123
:101EE00051F8240041F8245070BD162333604FF0A0
:101EF000FF3070BD80213046FFF7F6FA0146C6F884
:101F0000DC0240B1031F00F17C0C002243F8042FD7
:101F10006345FBD1E4E74FF0FF3070BD08000020BF
:101F200038B50C4B1D68D5F8DC420CB1002038BD2B
:101F300080212846FFF7D8FAC5F8DC0238B1031F24
:101F400000F17C0243F8044F9342FBD1EEE74FF0DF
:101F5000FF3038BD0800002038B5184B1F281D6819
:101F600028D8D5F8DC22044682B152F8243002EB9E
:101F700084024BB1591C1BD0012B17D000252046E1
:101F800015609847284638BD012038BD8021284675
:101F9000FFF7AAFA0246C5F8DC0258B1031F002178
:101FA0007C3043F8041F8342FBD1DEE7032038BDB9
:101FB000022038BD4FF0FF3038BD00BF08000020C0
:101FC00070B50C46084D03460026204611461C46B7
:101FD0002E6000F097FE431C00D070BD2B68002BD4
:101FE000FBD0236070BD00BFAC08002000F088BEAD
:101FF00000000000000000000000000000000000E1
:10200000A2EB0300704700BF02780B78012A28BFBB
:102010009A42F5D16DE9044540EA0104CDE9026731
:102020006FF0000C4FEA447212B380EA010414F01E
:10203000070F6AD100F0070420F0070004F0030541
:1020400021F007014FEAC505F0E8042314F0040F5E
:10205000F1E804670CFA05F462EA040266EA040691
:102060000AD063EA0403624667EA0407664603E0AF
:10207000F0E80423F1E8046782FA4CF582EA0604EA
:10208000A4FA8CF46CBB83FA4CF583EA0705A5FA35
:102090008CF595B950E9022351E9026782FA4CF5B3
:1020A00082EA0604A4FA8CF483FA4CF583EA070565
:1020B000A5FA8CF52543DBD09CB92DBAB5FA85F489
:1020C00024F0070427FA04F1DDE9026723FA04F398
:1020D00003F0FF0001F0FF01FDE80445A0EB010063
:1020E000704724BAB4FA84F424F0070426FA04F101
:1020F000DDE9026722FA04F202F0FF0001F0FF01BD
:10210000FDE80445A0EB0100704714F0030F3CD13B
:1021100010F0030428D150F8082B51F8083B82FA3C
:102120004CF582EA0305A5FA8CF55DB950F8042C4C
:1021300051F8043C82FA4CF582EA0305A5FA8CF5C5
:10214000002DE8D02DBAB5FA85F424F0070423FA5F
:1021500004F122FA04F202F0FF0001F0FF01FDE8B1
:102160000445A0EB010070474FEAC40420F00300CF
:1021700050F8082B21F0030151F8083B0CFA04F445
:1021800062EA040263EA0403C9E710F003041AD008
:10219000A1EB040120F00300E40750F8042B06D063
:1021A0000FD28B785FFAA2F4E41A06D12BB1CB7868
:1021B0005FFAB2F4E41A00D11BB920465DF8104B67
:1021C000704701F1040150F8042BCC0721F0030102
:1021D00051F8043B48D824D222F07F4482FA4CF5CF
:1021E00094EA1325A5FA8CF50AD165B951F8043B98
:1021F00084EA0204B4EB036F0ED150F8042BEBE732
:102200004FEA132355E035F07F454DD10878FDE8BE
:102210000445C0F1000070474FEA126203F0FF036B
:1022200047E002EA1C4482FA4CF594EA1345A5FA09
:102230008CF50AD165B951F8043B84EA0204B4EB89
:10224000034F0CD150F8042BEBE74FEA134330E077
:1022500015EA1C4528D10B884FEA124229E04FEAC3
:10226000124203EA1C4324E002F0FF0482FA4CF518
:1022700094EA1365A5FA8CF50AD165B951F8043BC7
:1022800084EA0204B4EB032F09D150F8042BEBE7E6
:102290004FEA13630DE015F0FF0F05D10B684FEA0D
:1022A000122223F07F4304E04FF00000FDE80445D4
:1022B000704712BA1BBA82FA4CF482EA0304A4FAF9
:1022C0008CF5B5FA85F402FA04F203FA04F34FEA46
:1022D0001260FDE80445A0EB1360704700000000A9
:1022E00000000000000000000000000000000000EE
:1022F00000000000000000000000000000000000DE
:1023000090F800F06DE9024520F007016FF0000C35
:1023100010F0070491F820F040F049804FF00004DD
:102320006FF00700D1E9002391F840F000F10800B8
:1023300082FA4CF2A4FA8CF283FA4CF3A2FA8CF3F0
:102340004BBBD1E9022382FA4CF200F10800A4FA57
:102350008CF283FA4CF3A2FA8CF3E3B9D1E90423AB
:1023600082FA4CF200F10800A4FA8CF283FA4CF3E2
:10237000A2FA8CF37BB9D1E9062301F1200182FA9C
:102380004CF200F10800A4FA8CF283FA4CF3A2FAA2
:102390008CF3002BC6D0002A04BF04301A4612BAB0
:1023A000B2FA82F2FDE8024500EBD2007047D1E9B3
:1023B000002304F00305C4F100004FEAC50514F042
:1023C000040F91F840F00CFA05F562EA05021CBF13
:1023D00063EA050362464FF00004A9E770B4184CA5
:1023E0002568D5F848411CB365681F2D25DC38B930
:1023F000AB1C0135656044F82310002070BC7047A9
:1024000004EB850C0228CCF88820D4F888614FF0C2
:10241000010202FA05F246EA0206C4F88861CCF825
:102420000831E5D1D4F88C311343C4F88C31DFE79F
:1024300005F5A674C5F84841D6E74FF0FF30DDE753
:10244000AC680008F8B5244F0C460646FFF75EFC62
:10245000BA685568C4F57E630F3325F003052B4435
:1024600023F47F6323F00F03A3F58054B4F5805F5A
:1024700007DB00213046FFF74DFCBB682B44984238
:1024800004D03046FFF744FC0020F8BD61423046DE
:10249000FFF740FC01300DD0104ABB682D1B45F002
:1024A00001055D60136830461B1B1360FFF730FCAD
:1024B0000120F8BD00213046FFF72CFCBA68831AD2
:1024C0000F2BDEDD43F001035360054B03491B680E
:1024D000C01A0860D5E700BF380400207C0800203F
:1024E00040080020002961D0F8B50C460646FFF7E9
:1024F0000DFC54F8042C7B4FA4F1080522F00101D7
:1025000005EB010CB868DCF80430604523F00303E8
:1025100000F08B80D207CCF8043032D454F8082C69
:10252000AD1A1144AA6807F1080082426AD00CEB88
:102530000304D4F804E0EC68D4601EF0010FA2603C
:1025400000F0978041F001036B60CCF80010B1F50A
:10255000007F35D27A68CB084809012101338140D8
:102560001143796007EBC30257F83310083AC5E905
:10257000021247F83350CD603046BDE8F840FFF70F
:10258000C7BB0CEB03025268D00710D4194407F103
:102590000800DCF80830834273D0DCF80C20DA60E5
:1025A000936041F001036B606950D0E7704741F0E0
:1025B0000103B1F5007F44F8043CCCF80010C9D306
:1025C000B1F5206F4FEA512348D28B0903F139004E
:1025D00003F13802C300F818FB580838984259D064
:1025E0005A6822F003028A4202D99B689842F7D1C6
:1025F000D868C5E902308560DD603046BDE8F84046
:10260000FFF786BB0CEB03025268D20763D40B447E
:10261000DCE90212CA60916043F001026A60304650
:10262000EB50BDE8F840FFF773BB0B44D10707D46C
:1026300054F8082CAD1A1344D5E90212CA6091600F
:1026400043F001026A60284ABD6012689A4293D83A
:10265000264B30461968FFF7F5FE8DE7142B0AD993
:10266000542B1FD80B0B03F16F0003F16E02C30054
:10267000B1E719448DE703F15C0003F15B02C3008D
:10268000A9E741F00103C7E90455C5E902006B6001
:10269000695071E779689210012404FA02F20A4342
:1026A0007A60A6E7B3F5AA7F06D8CB0B03F17800D2
:1026B00003F17702C3008EE740F25452934206D8EA
:1026C0008B0C03F17D0003F17C02C30083E74FF420
:1026D0007E737E227FE741F001036B60CCF800102F
:1026E0004AE700BF38040020440800207808002092
:1026F00030B58BB00024059406940794089409948F
:102700000194224B1A6B42F004021A631A6B02F016
:1027100004020192019A02941A6B42F080021A6339
:102720001A6B02F080020292029A03941A6B42F032
:1027300001021A631A6B02F001020392039A0494D5
:102740001A6B42F002021A631B6B03F0020304933C
:10275000049B0F4D22462021284600F04BFD4FF4EC
:10276000005305934FF404130693079405A90948F1
:1027700000F060FC2023059301230693079408943E
:1027800005A9284600F056FC0BB030BD00380240C9
:10279000000002400008024008B50B480B4B0360E4
:1027A0000B4B436000238360C3604FF4804202619F
:1027B00043618361C361036201F044F800B908BD5D
:1027C00000F0B0F8FBE700BFB00800200054004064
:1027D000A086010008B50B480B4B03600B4B436010
:1027E000002383602222C2604FF480420261436171
:1027F0008361C361036201F025F800B908BD00F0F0
:1028000091F8FBE70409002000580040A086010071
:102810002DE9F0438BB000230593069307930893AB
:10282000099303683B4A934205D03B4A934227D021
:102830000BB0BDE8F08300250195384C236B43F0C5
:1028400002032363236B03F002030193019BC02364
:10285000059312230693012307930323089304236C
:10286000099305A92E4800F0E5FB0295236C43F47B
:1028700000132364236C03F400130293029BD7E735
:1028800000240394254D2B6B43F002032B632B6B29
:1028900003F002030393039B4FF4806305934FF00F
:1028A0001209CDF818904FF00108CDF81C800327CD
:1028B0000897042309931A4E05A9304600F0BAFB85
:1028C0004FF400730593CDF81890CDF81C8008974D
:1028D0000923099305A9304600F0ACFB04942B6C46
:1028E00043F480032B642B6C03F480030493049B58
:1028F00022462146212000F02DFB212000F062FB22
:1029000022462146222000F025FB222000F05AFB1F
:102910008EE700BF005400400058004000380240DD
:102920000004024072B6FEE700B595B030220021E7
:1029300008A8FFF799F900230393049305930693DE
:10294000079301931E4A116C41F080511164126C7F
:1029500002F080520192019A02931A4A116841F4DE
:1029600040411160126802F440420292029A02222F
:10297000089201210B9110210C910E920F930823C4
:1029800010936423119312920423139308A801F067
:1029900051FF88B90F230393022304930023059367
:1029A0004FF4805206920793032103A802F0A8F97E
:1029B00020B915B05DF804FBFFF7B4FFFFF7B2FFD5
:1029C000003802400070004008B500F071FAFFF7CF
:1029D000ABFFFFF78DFEFFF7DFFE00F007F800F01A
:1029E000C5F9FFF7F7FE00F08BF8FEE708B50D48D4
:1029F0000D4B03604FF48273436000238360C36018
:102A0000036143614FF400728261C36103624362F8
:102A100083620A23C36202F049FA00B908BDFFF7D6
:102A200081FFFBE75809002000380040F0B589B06D
:102A300000230393049305930693079302681F4BA7
:102A40009A4201D009B0F0BD0024009403F5003390
:102A50001A6C42F480421A641A6C02F480420092AA
:102A6000009A01941A6B42F004021A631A6B02F086
:102A700004020192019A02941A6B42F002021A6354
:102A80001B6B03F002030293029B0C2303930227A8
:102A9000049703260696052507950DEB03010848C4
:102AA00000F0C8FA4FF40053039304970594069678
:102AB000079503A9034800F0BDFAC3E700380040BA
:102AC0000008024000040240012800D0704708B509
:102AD0004FF6FF73994200D008BD064800F1080385
:102AE0000360002343600372034A044902F0A6FB1B
:102AF000F2E700BFB009002000000020715D00086F
:102B000000B583B001220849084801F035F8642374
:102B100000930523064A1121064800F071FF4FF487
:102B2000FA7000F0F1F9F2E7CC0900200409002066
:102B3000B0680008B008002010B5013919E0154B45
:102B4000A3FB023C4FEA5C13642404FB13234FEA0B
:102B5000430E4FEA5C120EF1010C0F4C14F80CC03E
:102B600000F801C001F1FF3C14F8133000F80C30FC
:102B70000239632AE3D8092A08D9530001330649E8
:102B8000CB5C437011F81230037010BD303202700C
:102B9000FBE700BF1F85EB51C468000870B588B023
:102BA00020212D4800F02CFB2C4C2368013323609E
:102BB0002B48082300932B4B4268002103F0E4F8D4
:102BC0002568EE0F002D12DB2B460124092B11D9AD
:102BD000632B0ED9B3F57A7F1FD342F20F718B426C
:102BE0001DD92149A1FB03235B0B0434EEE76D42A1
:102BF000EAE7013404AB02932D22311902A803F055
:102C000039F82A46214602983044FFF795FF039A87
:102C10000299134803F07EF903E00234EAE7033433
:102C2000E8E7029804AB984203D00499013102F01E
:102C30000BFB0B4964238A8809680C4802F091FA5F
:102C400001220B490B4800F097FF08B070BD02A8A5
:102C500003F008F802F0FAFA00000240C809002068
:102C6000B0090020B86800085917B7D1DC09002066
:102C7000CC0900200409002008B54FF6FF7101209F
:102C8000FFF722FF08BD000000B583B000210091CE
:102C90000C4B5A6C42F480425A645A6C02F48042E3
:102CA0000092009A01911A6C42F080521A641B6CD7
:102CB00003F080530193019B072000F039F903B022
:102CC0005DF804FB00380240FEE7FEE7FEE7FEE7A2
:102CD000FEE770477047704708B500F003F908BD7C
:102CE00008B5024801F074FC08BD00BF04090020CB
:102CF00008B5024801F03CFD08BD00BF04090020F2
:102D00000120704708B5FEF79FFB162303604FF0C4
:102D1000FF3008BD08B54FF0FF31FFF7F3FFFEE7C6
:102D200010B503460C4A0D490D48006840B10C48E7
:102D300000680344521A934206D8094A136010BD32
:102D40000748084C0460F2E7FEF77EFB0C230360A3
:102D50004FF0FF30F3E700BF000002200004000046
:102D6000D8090020580A00207047000008B50A481A
:102D70000A4B03604FF4E133436000238360C36078
:102D800003610C2242618361C36102F0BBF900B9A7
:102D900008BDFFF7C7FDFBE7DC0900200044004049
:102DA00000B589B00023039304930593069307931A
:102DB0000268154B9A4202D009B05DF804FB00216D
:102DC000019103F5FA331A6C42F400321A641A6C5A
:102DD00002F400320192019A02911A6B42F0010250
:102DE0001A631B6B03F001030293029B0C230393F2
:102DF00002230493032306930723079303A903489D
:102E000000F018F9D8E700BF00440040000002407D
:102E1000DFF834D00D480E490E4A002302E0D458A2
:102E2000C4500433C4188C42F9D30B4A0B4C002312
:102E300001E013600432A242FBD3FFF795FFFEF7D7
:102E40001FFBFFF7C1FD70470000022000000020BB
:102E50005C080020846F00085C080020540A0020F1
:102E6000FEE7000010B504460E4B18784FF47A7355
:102E7000B3FBF0F30C4A1068B0FBF3F000F0B0F8CD
:102E800068B90F2C01D901200AE0002221464FF039
:102E9000FF3000F05FF8054B1C60002000E00120CF
:102EA00010BD00BF4C08002048080020500800203A
:102EB00008B50B4B1A6842F400721A601A6842F4A3
:102EC00080621A601A6842F480721A60032000F06F
:102ED0002FF80020FFF7C6FFFFF7D6FE002008BD41
:102EE000003C0240034A1168034B1B780B441360FB
:102EF000704700BF200A00204C080020014B1868D2
:102F0000704700BF200A002038B50446FFF7F6FFDF
:102F10000546B4F1FF3F02D0044B1B781C44FFF779
:102F2000EDFF401BA042FAD338BD00BF4C08002083
:102F3000074AD36823F4E0631B041B0C000200F46F
:102F4000E060034343F0BF6343F40033D360704752
:102F500000ED00E000B5194BDB68C3F30223C3F1B9
:102F6000070CBCF1040F28BF4FF0040C03F1040E52
:102F7000BEF1060F18D9033B4FF0FF3E0EFA0CFCD2
:102F800021EA0C0199400EFA03F322EA03031943E4
:102F900000280BDB0901C9B200F1604000F5614077
:102FA00080F800135DF804FB0023E5E700F00F0054
:102FB0000901C9B2024B1954F4E700BF00ED00E06B
:102FC00014ED00E0002807DB00F01F024009012398
:102FD0009340024A42F82030704700BF00E100E011
:102FE0000138B0F1807F0BD24FF0E0235861054AE1
:102FF000F02182F823100020986107221A6170479F
:103000000120704700ED00E090F83530DBB2022B74
:1030100003D08023436501207047052380F83530B5
:103020000268136823F0010313600020704790F8D2
:103030003500704700230F2B00F2D28070B582B0AC
:1030400060E085685E000324B44025EA0405CC688E
:10305000B4402C438460456825EA02054C68C4F3FB
:1030600000129A402A4342605AE0DC08083450F8C3
:10307000246003F0070295000F22AA4026EA020E00
:103080000A69AA4042EA0E0240F824205CE00422C9
:1030900000E0002202FA0EF22A430234514D45F8B4
:1030A0002420514A94686FEA0C0224EA0C054E6809
:1030B00016F4801F01D04CEA04054B4CA560E4686F
:1030C00002EA04054E6816F4001F01D04CEA04051C
:1030D000454CE560646802EA04054E6816F4003F5A
:1030E00001D04CEA0405404C6560246822404D68DC
:1030F00015F4803F01D04CEA04023B4C22600133BE
:103100000F2B6BD801229A400C6804EA020C32EAB9
:103110000404F4D14C6804F00304013C012C90D960
:103120004A6802F00302032A09D0C4685D00032242
:10313000AA4024EA02048A68AA402243C2604A687C
:1031400002F00302022A90D004684FEA430E0322E1
:1031500002FA0EF224EA02044A6802F0030202FABA
:103160000EF2224302604A6812F4403FC7D00022A8
:1031700001921E4A546C44F480445464526C02F42C
:1031800080420192019A9C08A51C164A52F82550CB
:1031900003F003024FEA820E0F2202FA0EF225EA32
:1031A0000205134A90423FF474AF02F580629042E8
:1031B0000ED002F5806290420CD002F580629042FF
:1031C0000AD002F5806290423FF461AF072261E7C6
:1031D00001225FE702225DE703225BE702B070BDD8
:1031E000704700BF00380140003C014000380240F9
:1031F000000002400AB18161704709048161704793
:10320000436901EA030221EA030141EA02418161C3
:10321000704790F83E30DBB2402B10D00369B3F515
:10322000804F1BD0036D002B39D1436CC3F3C813FF
:10323000026803F0060343F0F00313617047036D67
:103240002BB9436C026803F0FE0313617047436CB3
:10325000026843F00103DBB21361704790F83D3020
:10326000DBB2212B0FD0436C026843F00103DBB2C9
:103270001361436B6BB1DB6B5BB10268536843F462
:10328000006353607047436C026803F0FE031361F0
:10329000EFE7836B33B1DB6B002BEED102E0036D04
:1032A000012B00D07047436CC3F3C813026803F0CE
:1032B000060343F0F1031361F4E7436C0268DBB2E9
:1032C0001361436B3BB1DB6B2BB10268536843F472
:1032D000006353607047836B002BFBD0DB6B002BCC
:1032E000F3D1F7E710B48BB090F83E30DAB2C16A90
:1032F000046B90F83D30DBB2222B0AD000230993F7
:1033000003685A6909929B690993099B0BB010BC29
:103310007047036D0BB9402A17D0036D1BB90369C1
:10332000B3F5404F19D0438D9BB2002B25D10293AA
:1033300003685A6902929A690292029A1A6842F4E0
:1033400000721A6000230365E0E7009303685A697E
:1033500000929B690093009BD8E7002301930368C8
:103360005A6901929A690192019A1A6842F480722C
:103370001A60036D01330365C8E7438D9BB2012BCF
:1033800025D0438D9BB2022B7BD00268136843F497
:103390008063136003685A6812F4006F0ED011F551
:1033A000803F07D0012905D0082903D0102901D07A
:1033B000202903D15A6842F480525A6000230893AE
:1033C00003685A6908929B690893089BBAE711F54C
:1033D000803F11D0082934D0202932D0122C2ED091
:1033E000042940D002293ED010293CD0026813683D
:1033F00023F4806313603BE00268136823F4806366
:10340000136003685A6812F4006F0CD01A6822F433
:1034100080621A600023039303685A6903929B69D0
:103420000393039B8EE7002204925A6904929A69DF
:103430000492049A1A6842F400721A6082E7012921
:10344000CED00268136823F48063136000230693D0
:1034500003685A6906929A690692069A1A6842F4B3
:1034600000721A606EE70268136843F480631360A9
:103470000023059303685A6905929B690593059B90
:1034800060E704290ED002290CD010290AD0026866
:10349000136823F4806313600268136843F40063C5
:1034A000136004E00268136843F4806313600368E8
:1034B0005A6812F4006F0ED011F5803F07D0012931
:1034C00005D0082903D0102901D0202903D15A683A
:1034D00042F480525A600023079303685A690792A6
:1034E0009B690793079B2DE7438D9BB25BB1426AB3
:1034F000036812781A61436A01334362438D9BB2B9
:10350000013B9BB243857047438D9BB25BB103681F
:103510001A69436A1A70436A01334362438D9BB24E
:10352000013B9BB24385704782B0002301930E4B51
:103530001B68DB080D4AA2FB03231B0A03EB830372
:103540000193019B013B0193019B33B103681B680D
:1035500013F4007FF5D1002004E0036C43F0200356
:103560000364012002B070474808002089B5F814B0
:1035700003685A6912F4806F01D1002070476FF41C
:1035800080625A6100230363202280F83D2080F886
:103590003E30026C42F00402026480F83C300120AC
:1035A0007047C36AB3F52A0F04D0C36AB3F12A4F38
:1035B00003D070470123C36270470823C362F8E752
:1035C0002DE9F04107460D4690461E4624E0FFF7E0
:1035D00095FC069BC01AB04200D8EEB900233B63AD
:1035E000202287F83D2087F83E303A6C42F02002D6
:1035F0003A6487F83C3001201EE03B689C6925EA6C
:10360000040C1FFA8CFCBCFA8CFC4FEA5C1CE045F5
:1036100011D1B6F1FF3FDAD1C5F30743012BECD14D
:103620003B685B6925EA030C1FFA8CFCBCFA8CFC36
:103630004FEA5C1CEBE70020BDE8F0812DE9F0418A
:1036400005460E46174698463DE01A6842F4007259
:103650001A602B686FF480625A6100232B6320226A
:1036600085F83D2085F83E302A6C42F004022A6439
:1036700085F83C30012034E0FFF740FCA0EB080067
:10368000B84200D8FFB900232B63202285F83D20E3
:1036900085F83E302A6C42F020022A6485F83C30DE
:1036A00001201EE02B689C6926EA0404A4B2003CB9
:1036B00018BF0124A4B12B685A6912F4806FC4D1D9
:1036C000B7F1FF3FD8D1C6F30743012BEAD12B68EE
:1036D0005C6926EA0404A4B2003C18BF0124E9E7AF
:1036E0000020BDE8F0810000F0B583B004460D462F
:1036F00016461F46C36A082B0DD0012B0BD013F5BD
:10370000803F08D0036B122B0AD10268136843F480
:103710008073136004E02268136843F480731360BD
:103720000097334600224FF001112046FFF748FF73
:1037300080B92369B3F5804F16D1236805F0FE05E3
:103740001D613B46324613492046FFF777FFF8B923
:1037500003B0F0BD23681B6813F4807F02D04FF4E0
:10376000007323640320F3E7EB11226803F00603E0
:1037700043F0F00313613B46324607492046FFF70A
:103780005DFF18B92368EDB21D61DAE70120DFE7BC
:103790000120DDE7020001000800010070B50446C9
:1037A0000D46164623685B6913F0800F1CD1204636
:1037B000FFF7DEFED0B9B5F1FF3FF3D0FFF79EFB78
:1037C000801BA84201D8002DECD1002323632022C6
:1037D00084F83D2084F83E30226C42F020022264BE
:1037E00084F83C30012000E0002070BD0120FCE79F
:1037F00070B504460D46164623685B6913F0040F46
:103800001CD12046FFF7B4FED0B9B5F1FF3FF3D08D
:10381000FFF774FB801BA84201D8002DECD10023D8
:103820002363202284F83D2084F83E30226C42F04D
:103830002002226484F83C30012000E0002070BDAA
:103840000120FCE7002800F0CC8070B5044690F819
:103850003D30002B77D0242384F83D302268136854
:1038600023F0010313602268136843F400431360DC
:103870002268136823F40043136001F0F7FA6268CA
:103880005A4B9A4264D85A4B98428CBF002301236A
:10389000002B40F0A8805749A1FB00318B0C256814
:1038A0006A6822F03F0242EA91426A6021680A6A2D
:1038B00022F03F0266684D4DAE424FD801331343AC
:1038C0000B622168CA6922F44F4222F0FF02666847
:1038D000464B9E424CD8431E7600B3FBF6F30133B1
:1038E00040F6FC70034278D0C3F30B031343CB6163
:1038F00021680B6823F0C003E269206A0243134386
:103900000B6021688B6823F4034323F0FF032269D3
:10391000E068024313438B602168CB6823F0FF0308
:103920006269A06902431343CB602268136843F0C5
:103930000103136000202064202384F83D302063BD
:1039400084F83E0070BD80F83C30FEF761FF82E7EE
:10395000294B98428CBF0023012399E74FF49675B9
:1039600005FB03F3254DA5FB03539B090133A6E794
:10397000A368BBB9451E06EB460CB5FBFCF501354B
:10398000C5F30B05B5FA85F56D0945BBC3B901381B
:1039900006EB4603B0FBF3F30133C3F30B0343F42D
:1039A0000043A3E7451E06EB860C0CEB8C0CB5FB25
:1039B000FCF50135C5F30B05B5FA85F56D09E4E7AE
:1039C000013806EB860303EB8303B0FBF3F301330B
:1039D000C3F30B0343F4404388E7042386E7012342
:1039E00084E7012070470120ACE700BFA0860100FA
:1039F0007F841E0083DE1B43FF083D00D34D621011
:103A00002DE9F04385B004460F46914698460C9E3A
:103A1000FFF774FA054694F83D00C0B2202804D0A0
:103A20000227384605B0BDE8F0830095192301222E
:103A30004F492046FFF7C4FD002840F0928094F8DB
:103A40003C30012B00F08F80012384F83C30236848
:103A50001A6812F0010F03D11A6842F001021A60CD
:103A60002268136823F400631360212384F83D3037
:103A7000102384F83E3000232364C4F82490A4F873
:103A80002A80638D23853B4BE3622B4632463946C1
:103A90002046FFF729FE0746002866D1002303933E
:103AA00023685A6903929B690393039B11E0236C7B
:103AB000042B01D00127B4E72268136843F4007394
:103AC0001360F7E72A4631462046FFF791FE0028AB
:103AD0002ED1238D002B36D02A4631462046FFF7C3
:103AE0005DFE0028E3D1626A236812781A61606A79
:103AF000431C6362618D89B2013989B26185238D6E
:103B0000013B9BB223852268516911F0040FD9D083
:103B1000002BD7D043781361636A01336362638DEE
:103B20009BB2013B9BB26385238D013B2385C9E793
:103B3000236C042B01D0012773E72268136843F438
:103B400000731360F7E72268136843F4007313608F
:103B5000202384F83D30002384F83E3084F83C3044
:103B60005FE702275DE702275BE7012759E700BF10
:103B7000020010000000FFFF90F83D30DBB2202B68
:103B800036D1002936D0002A36D090F83C30012BAF
:103B900034D010B4012380F83C3003681C6814F062
:103BA000010F03D11C6844F001041C600468236801
:103BB00023F400632360222380F83D30202380F823
:103BC0003E300023036441624285428D02850C4AE7
:103BD000C26201680A6842F480620A6080F83C3080
:103BE00001684A6842F4E0624A60184610BC7047B7
:103BF0000220704701207047012070470220704763
:103C00000000FFFF70477047704708B590F83D30DF
:103C1000DAB2438D9BB283B1416A036809781961B6
:103C2000436A01334362438D9BB2013B9BB24385A0
:103C3000438D9BB20BB9292A00D008BD0268536896
:103C400023F48063536021230363282380F83D30ED
:103C5000FFF7DAFFF1E708B590F83D30DAB2438DAF
:103C60009BB283B103681969436A1970436A0133CF
:103C70004362438D9BB2013B9BB24385438D9BB214
:103C80000BB92A2A00D008BD0268536823F4806368
:103C9000536022230363282380F83D30FEF77EFF24
:103CA000F1E7704700B583B090F83D3003F028038A
:103CB000282B0CD00023019302685169019192696D
:103CC0000192019A80F83C3003B05DF804FB026871
:103CD000536823F48063536011F0040F0BD000236A
:103CE00011F0800F09D18289002180F83C1019461B
:103CF000FFF7D7FFE8E70123F2E7028BF4E770470D
:103D000008B590F83D30DBB2C26A082A01D0202AFB
:103D100001D1282B06D0212B1ED003686FF48062BE
:103D20005A6108BD1A4BC3620268536823F4E0630A
:103D3000536003686FF480625A610268136823F469
:103D40008063136000230363202280F83D2080F805
:103D50003E30FFF7D4FFE4E70D4BC362212303633A
:103D6000202380F83D30002380F83E3002685368FD
:103D700023F4E063536003686FF480625A61026861
:103D8000136823F480631360FFF73EFFC9E700BFA9
:103D90000000FFFF704708B5C26A90F83D30DBB203
:103DA000212B00D008BD438D9BB263B1426A0368EA
:103DB00012781A61436A01334362438D9BB2013B1F
:103DC0009BB24385EEE7082A04D0202A02D012F5E0
:103DD000803F19D10268536823F4E063536002689E
:103DE000136843F40073136000230363202380F8F7
:103DF0003D3090F83E30DBB2402B15D0002380F8E8
:103E00003E30FFF7FFFECDE70268536823F4E0631E
:103E1000536011230363002380F83E30202380F891
:103E20003D30FFF7EFFEBDE7002380F83E30FFF79F
:103E3000B1FFB7E708B590F83D30026D9AB9C36C91
:103E4000012B08D0836CC3F3072302681361036D51
:103E50000133036508BD836C0268DBB21361036D37
:103E600002330365F6E7DBB2026D012A23D0026D4F
:103E7000022AEFD1222B26D0428D92B20AB1212BF9
:103E80002AD0428D92B2002AE4D1212BE2D10268DD
:103E9000536823F4E06353600268136843F40073CB
:103EA000136000230363202280F83D2080F83E3019
:103EB000FFF770FFCEE7836C0268DBB21361036D1E
:103EC00001330365C6E70268136843F48073136027
:103ED000036D01330365BDE7426A036812781A6116
:103EE000436A01334362438D9BB2013B9BB24385DE
:103EF000B0E710B590F83D30DBB290F83E20D2B27A
:103F0000C46A018D09B9212B04D0212B3BD0402A52
:103F100037D010BD082C04D0202C02D014F5803FDF
:103F200019D10268536823F4E06353600268136890
:103F300043F40073136000230363202380F83D30B3
:103F400090F83E30DBB2402B15D0002380F83E3095
:103F5000FFF758FEDDE70268536823F4E06353601F
:103F600011230363002380F83E30202380F83D3086
:103F7000FFF748FECDE7002380F83E30FFF70AFF49
:103F8000C7E7222BC5D1438D9BB22BB9026853687A
:103F900023F480635360BCE790F83E30DBB2402BE3
:103FA0000CD0426A036812781A61436A0133436293
:103FB000438D9BB2013B9BB24385AAE7FFF73AFFD3
:103FC000A7E7704708B5C26A438D9BB2042B14D093
:103FD000438D9BB2032B22D0438D9BB2022B39D051
:103FE00003681A69436A1A70436A01334362438D56
:103FF0009BB2013B9BB2438510E00268536823F4F7
:104000008063536003681A69436A1A70436A013314
:104010004362438D9BB2013B9BB2438508BD01685F
:104020004B6823F480634B60042A06D0022A04D034
:104030000268136823F48063136003681A69436A93
:104040001A70436A01334362438D9BB2013B9BB2BA
:104050004385E3E7012A0BD0102A09D0042A38D07F
:10406000022A36D00268136843F40073136004E038
:104070000268136823F48063136003681A69436A53
:104080001A70426A531C4362438D9BB2013B9BB240
:10409000438503681B695370436A01334362438D50
:1040A0009BB2013B9BB243850268536823F4407383
:1040B0005360202380F83D3090F83E30DBB2402B37
:1040C0000DD0002380F83E3012230363FFF79BFDE1
:1040D000A4E70268136843F480631360CDE700230C
:1040E00080F83E300363FFF76CFF97E7704790F866
:1040F0003D30DBB2222B00D0704710B50446438D13
:104100009BB2032B15D903681A69436A1A70436A74
:1041100001334362438D9BB2013B9BB24385438D88
:104120009BB2032B0FD10268536823F48063536062
:1041300009E0C26A022A01D0012B05D9226853681E
:1041400023F48063536010BDFFF7EEF900282ED1F1
:104150002268136823F4806313602268536823F491
:10416000E063536023681A69636A1A70636A0133F3
:104170006362638D9BB2013B9BB26385202384F80D
:104180003D3094F83E30DBB2402B08D0002384F859
:104190003E30122323632046FFF735FDD3E700238B
:1041A00084F83E3023632046FFF70BFFCBE72268FD
:1041B000536823F4E063536023681A69636A1A70D2
:1041C000636A01336362638D9BB2013B9BB263857B
:1041D000202384F83D30002384F83E302046FFF74A
:1041E00085FFB0E77047000000B583B0002301935E
:1041F000806B90F83D20D2B2324B1B68DB0832490D
:10420000A1FB03131B0A03EB8303C3EBC30301935B
:10421000019B43B1019B013B019303681B6813F4AD
:10422000007FF5D103E0036C43F020030364436B8C
:104230000BB10021D963836B0BB10021D9630168F5
:104240000B6823F480630B6000234385436B0BB141
:1042500000211965836B0BB10021196501680B689A
:1042600023F001030B6090F83D30DBB2602B0ED0E1
:1042700002F02802282A14D0202380F83D300023A1
:1042800080F83E30FFF732FF03B05DF804FB2023D7
:1042900080F83D30002380F83E300364FFF7A2FF32
:1042A000F2E70268136843F00103136002681368C1
:1042B00043F48063136000230363282380F83D30B8
:1042C000E0E700BF4808002089B5F81410B504469F
:1042D00090F83D30DBB290F83E20D2B2102A36D0B2
:1042E000402A34D003F02802282A38D022685268A5
:1042F00012F4006F07D1602B05D0202384F83D30E5
:10430000002384F83E300023236323685A6812F4A4
:10431000006F48D05A6822F400625A60626B92F8CB
:104320003530DBB2012B20D0444B1365606BFEF7B8
:104330006BFE002849D02268136823F00103136044
:10434000202384F83D30606B036D98473DE0222BBD
:10435000C8D121680A6822F400620A60C2E700231B
:104360002363282384F83D30CFE7A36B334A1A65D3
:10437000A06BFEF749FE40B323685A6912F0400F64
:1043800005D01A69636A1A70636A0133636222682E
:10439000136823F001031360202384F83D30A06BE1
:1043A000036D984711E094F83D20D2B2602A1FD0E7
:1043B0005A6912F0400F05D01A69636A1A70636A6D
:1043C000013363622046FFF791FE236C13F00F0F59
:1043D00004D02268536823F4E063536094F83D30BE
:1043E000DBB2226C12F0040F01D0282B18D010BDC4
:1043F000202284F83D20002222645A6912F0400FE6
:1044000005D01A69636A1A70636A013363622268AD
:10441000136823F0010313602046FFF7E3FED4E79F
:10442000074BE36200232363202284F83D2084F8B5
:104430003E302046FFF763FCD9E700BFE9410008A2
:104440000000FFFF30B583B0044690F83D50EDB258
:104450000268536823F4E063536000230193036808
:104460005A6901921A6842F001021A60019B0268BF
:10447000136823F48063136003685A6812F4006FB2
:1044800038D0222D21D02A2D1FD0426B12685268BD
:1044900092B24285428D92B21AB1026C42F004028D
:1044A00002645A6822F400625A60606BFEF7BFFD36
:1044B00001281FD0636B444A1A65606BFEF7A4FDA8
:1044C000C0B1606B036D984714E0A26B126852682C
:1044D00092B26285628D92B21AB1226C42F00402ED
:1044E00022645A6822F400625A60A06BFEF79FFDB6
:1044F000012842D1638D9BB233B323685A6912F00D
:10450000040F0AD01A69636A1A70636A013363621E
:10451000638D9BB2013B9BB2638523685A6912F09D
:10452000400F0AD01A69636A1A70636A01336362C2
:10453000638D9BB2013B9BB26385638D9BB21BB1C4
:10454000236C43F004032364236C13BB2A2D25D072
:1045500094F83D30DBB2282B29D0236B222B01D0DD
:10456000222D19D100232363202284F83D2084F8D2
:104570003E302046FEF712FB0EE0A36B124A1A658E
:10458000A06BFEF741FD0028B4D0A06B036D9847E7
:10459000B0E72046FFF79AFE03B030BD0023236347
:1045A000282384F83D302046FEF7F8FAD0E7074B81
:1045B000E36200232363202284F83D2084F83E3008
:1045C0002046FFF79CFBE7E7E94100080000FFFFFA
:1045D000F8B5044602685568C66A90F83E30DBB20A
:1045E00090F83D10C8B2102B13D0402B11D0236C83
:1045F000002B7AD05369002113F0020F78D015F404
:10460000007F75D0236C03B191692046FFF74AFB08
:10461000F8BDD2F818C0516911F0010705D1B6F5FF
:104620002A0FF5D0B6F12A4FF2D017B115F4007F5A
:1046300029D111F0080F02D015F4007F2AD111F012
:10464000020F02D015F4007F28D11CF0040F31D0E6
:10465000526812F4006FDBD111F0800F05D015F411
:10466000806F02D011F0040F1CD011F0040FCFD0D6
:1046700015F4007FCCD0212818D0402BC8D120467B
:10468000FFF7D8FBC4E72046FEF78BFF2046FEF776
:10469000C0FDBDE72046FEF710FEB9E72046FEF755
:1046A00021FEB5E72046FFF724FCB1E72046FFF7DF
:1046B00072FBADE7536813F4006FA9D111F0400FFE
:1046C00005D015F4806F02D011F0040F09D011F05D
:1046D000040F9DD015F4007F9AD02046FFF772FC9E
:1046E00096E72046FFF703FD92E79169536983E758
:1046F00013F0100F02D015F4007F18D121281AD022
:10470000292818D013F0400F05D015F4806F02D07F
:1047100013F0040F28D013F0040F3FF479AF15F411
:10472000007F3FF475AF2046FEF7EEFE70E72046AF
:10473000FFF788FE6CE713F0800F05D015F4806F4B
:1047400002D013F0040F0BD013F0040F3FF460AF4E
:1047500015F4007F3FF45CAF2046FEF7C5FE57E737
:104760002046FFF752FA53E72046FFF774FA4FE767
:10477000F8B5044603685D695F6890F83E20D2B2E0
:1047800015F4807F07D017F4807F3CD06FF48071E0
:104790005961012600E0002615F4007F08D017F4C7
:1047A000807F05D046F0020623686FF400715961DE
:1047B00015F4806F19D017F4807F16D0638D99B2ED
:1047C00094F83D30DBB2206B202A1ED023686FF4B2
:1047D0008061596146F00406102A01D0402A04D1B4
:1047E0002268136843F40073136015F4006F08D057
:1047F00017F4807F05D046F0080623686FF4006246
:104800005A6186B9F8BD0026C6E70029DED1212B02
:1048100005D0292B03D0282BD8D12128D6D120464A
:10482000FFF76EFAE1E7236C1E4326642046FFF78C
:104830004DFDE7E7002800F0E08170B582B0044646
:10484000036813F0010F3BD09F4B9B6803F00C03F0
:10485000042B2CD09C4B9B6803F00C03082B21D01D
:104860006368B3F5803F4FD0B3F5A02F52D0964B7D
:104870001A6822F480321A601A6822F480221A60C0
:104880006368002B50D0FEF739FB05468E4B1B6842
:1048900013F4003F14D1FEF731FB401B6428F5D917
:1048A0000320B1E1884B5B6813F4800FD8D0864BAE
:1048B0001B6813F4003F03D06368002B00F09F8156
:1048C000236813F0020F54D07F4B9B6813F00C0F3A
:1048D0003ED07D4B9B6803F00C03082B33D0E3687C
:1048E000002B68D0794B01221A60FEF707FB0546C2
:1048F000754B1B6813F0020F54D1FEF7FFFA401BF3
:104900000228F5D903207FE16F4A136843F480330E
:104910001360B5E76C4B1A6842F480221A601A687B
:1049200042F480321A60ABE7FEF7E8FA0546664BC0
:104930001B6813F4003FC3D0FEF7E0FA401B642865
:10494000F5D9032060E1604B5B6813F4800FC6D19A
:104950005D4B1B6813F0020F03D0E368012B40F09E
:104960005081594A136823F0F803216943EAC103CF
:104970001360236813F0080F42D063696BB3534B85
:104980000122C3F8802EFEF7B9FA05464E4B5B6F45
:1049900013F0020F34D1FEF7B1FA401B0228F5D90B
:1049A000032031E1484A136823F0F803216943EA00
:1049B000C1031360DDE7454B00221A60FEF79EFA43
:1049C0000546414B1B6813F0020FD2D0FEF796FA52
:1049D000401B0228F5D9032016E13C4B0022C3F806
:1049E000802EFEF78BFA0546374B5B6F13F0020FF4
:1049F00006D0FEF783FA401B0228F5D9032003E115
:104A0000236813F0040F77D02F4B1B6C13F0805FDB
:104A100033D1002301932C4B1A6C42F080521A645C
:104A20001B6C03F080530193019B0125284B1B68ED
:104A300013F4807F23D0A368012B34D0052B38D00A
:104A4000214B1A6F22F001021A671A6F22F004023A
:104A50001A67A368002B3DD0FEF750FA06461A4BA2
:104A60001B6F13F0020F46D1FEF748FA801B41F28C
:104A700088339842F3D90320C6E00025D6E7144ACC
:104A8000136843F480731360FEF738FA0646104B40
:104A90001B6813F4807FCED1FEF730FA801B02280A
:104AA000F5D90320B0E0084A136F43F00103136700
:104AB000CFE7054B1A6F42F004021A671A6F42F0F3
:104AC00001021A67C5E700BF0038024000004742F4
:104AD00000700040FEF712FA0646524B1B6F13F0AF
:104AE000020F08D0FEF70AFA801B41F28833984281
:104AF000F3D9032088E0EDB9A369002B00F083808F
:104B0000484A926802F00C02082A51D0022B17D0B2
:104B1000454B00221A66FEF7F1F90446414B1B682B
:104B200013F0007F42D0FEF7E9F9001B0228F5D907
:104B3000032069E03B4A136C23F080531364DBE7E6
:104B4000394B00221A66FEF7D9F90546354B1B682A
:104B500013F0007F06D0FEF7D1F9401B0228F5D9EB
:104B6000032051E0E369226A1343626A43EA821335
:104B7000A26A5208013A43EA0243E26A43EA026344
:104B8000284A5360284B01221A66FEF7B7F90446FB
:104B9000244B1B6813F0007F06D1FEF7AFF9001B12
:104BA0000228F5D903202FE000202DE000202BE083
:104BB000012B2BD01B4B5B6803F48001E26991420F
:104BC00026D103F03F02216A8A4223D1616A47F667
:104BD000C0721A40B2EB811F1ED103F44031A26AA9
:104BE0005208013AB1EB024F18D103F07063E26A48
:104BF000B3EB026F14D1002006E0012070470120C2
:104C000002E0012000E0002002B070BD0120FBE7BF
:104C10000120F9E70120F7E70120F5E70120F3E79C
:104C20000120F1E7003802400000474208B5314B4F
:104C30009B6803F00C03042B57D0082B57D12D4B46
:104C40005A6802F03F025B6813F4800F2AD0294BA8
:104C50005968C1F3881C4FEA4C11B1EB0C006EEBA4
:104C60000E0E4FEA8E1343EA90638101091A63EB3B
:104C70000E03DB0043EA5173C90011EB0C0C43F146
:104C80000003590200234FEA4C2041EADC51FBF7B4
:104C9000DBFA184B5B68C3F3014301335B00B0FBE5
:104CA000F3F025E0134B5968C1F3881C4FEA4C110F
:104CB000B1EB0C006EEB0E0E4FEA8E1343EA9063DD
:104CC0008101091A63EB0E03DB0043EA5173C9004B
:104CD00011EB0C0C43F10003990200234FEA8C20E6
:104CE00041EA9C51FBF7B0FAD3E7034800E00348E0
:104CF00008BD00BF0038024000127A000024F40012
:104D0000002800F09B8070B50D4604464F4B1B6891
:104D100003F007038B4208D2CBB24C4A13701368DE
:104D200003F007038B4240F08B80236813F0020FDF
:104D300017D013F0040F04D0454A936843F4E053AE
:104D40009360236813F0080F04D0414A936843F43A
:104D5000604393603E4A936823F0F003A1680B43DD
:104D60009360236813F0010F32D06368012B21D0C8
:104D70009A1E012A25D9364A126812F0020F61D014
:104D800033498A6822F0030213438B60FEF7B6F8BA
:104D900006462F4B9B6803F00C036268B3EB820F4F
:104DA00016D0FEF7ABF8801B41F288339842F0D959
:104DB000032042E0264A126812F4003FE0D10120AD
:104DC0003BE0234A126812F0007FD9D1012034E081
:104DD0001E4B1B6803F00703AB4207D9EAB21B4B1B
:104DE0001A701B6803F00703AB422DD1236813F040
:104DF000040F06D0164A936823F4E053E1680B438E
:104E00009360236813F0080F07D0114A936823F4C6
:104E10006043216943EAC1039360FFF707FF0C4B2E
:104E20009B68C3F303130B4AD35CD8400A4B18604A
:104E30000A4B1868FEF716F8002070BD0120704775
:104E40000120FAE70120F8E70120F6E7003C0240E4
:104E500000380240906900084808002050080020EF
:104E6000014B1868704700BF4808002008B5FFF7DD
:104E7000F7FF044B9B68C3F38223034AD35CD840FB
:104E800008BD00BF00380240A069000808B5FFF760
:104E9000E7FF044B9B68C3F34233034AD35CD8401B
:104EA00008BD00BF00380240A069000800285AD0A1
:104EB00010B50446436A33B94368B3F5827F05D021
:104EC0000023C36102E00023036143610023A36266
:104ED00094F85130002B40D0022384F851302268DE
:104EE000136823F040031360636803F48273A268BD
:104EF00002F404421343E26802F40062134322699D
:104F000002F002021343626902F001021343A26934
:104F100002F400721343E26902F038021343226A7A
:104F200002F080021343A26A02F400522168134384
:104F30000B60638B03F00403626A02F010022168C5
:104F400013434B602268D36923F40063D3610020CC
:104F50006065012384F8513010BD84F8503020463C
:104F6000FDF764FDB8E701207047000038B504463E
:104F70000268136923F44053C1680B4313618368CB
:104F80000269134342691343C2691A430168CB683B
:104F900023F4164323F00C031343CB6002685369D8
:104FA00023F4407381690B4353610368314A934290
:104FB00006D002F58062934202D0FFF757FF01E06E
:104FC000FFF764FFE369B3F5004F29D00021031810
:104FD00049411B1841F10001C90041EA5371DB004E
:104FE000181863684FEA83024FEA937341F1000196
:104FF000FBF72AF9204DA5FB00325109642303FB7E
:1050000011031B013233A5FB03235B0903F0F002FC
:1050100002EB011203F00F03216813448B6038BDCB
:105020000023021843EB0301121841F10001C900EB
:1050300041EA5271D200101841F1000162689218E1
:105040005B41FBF701F90C4DA5FB003251096423CC
:1050500003FB1103DB003233A5FB03235B095A007A
:1050600002F4F87202EB011203F007032168134403
:105070008B60D4E7001001401F85EB512DE9F84308
:1050800005460F4616469946DDF820802C682468B0
:1050900037EA04030CBF4FF0010C4FF0000CB4458D
:1050A0002DD1B8F1FF3FF1D0B8F1000F05D0FDF7D9
:1050B00025FFA0EB09004045E8D92A6802F10C035E
:1050C00053E8003F23F4D0730C3242E8003100294A
:1050D000F3D12A6802F1140353E8003F23F00103DF
:1050E000143242E800310029F3D1202385F83D3005
:1050F00085F83E30002385F83C30032000E0002096
:10510000BDE8F88358B310B5044690F83D300BB3B2
:10511000242384F83D302268D36823F40053D360FD
:105120002046FFF723FF2268136923F4904313619D
:105130002268536923F02A0353612268D36843F439
:105140000053D36000202064202384F83D3084F88D
:105150003E3010BD80F83C30FDF722FED8E701203C
:1051600070472DE9F04182B01E4690F83D30DBB229
:10517000202B54D104460D469046002953D0002AD6
:1051800053D090F83C30012B51D0012380F83C30B3
:1051900000230364212380F83D30FDF7AFFE07466E
:1051A000A4F82480A4F82680A368B3F5805F05D016
:1051B0004FF00008002384F83C3012E0236913B15B
:1051C0004FF00008F6E7A8460025F3E738F8023B61
:1051D0002268C3F308035360E28C92B2013A92B2A0
:1051E000E284E38C9BB273B100963B46002280219F
:1051F0002046FFF743FFE0B9002DE7D015F8012B5B
:1052000023685A60E8E700963B460022402120468A
:10521000FFF734FF78B9202384F83D3000E0022006
:1052200002B0BDE8F0810120FAE70120F8E7022092
:10523000F6E70320F4E70320F2E700000346084600
:105240001946FCF7FBB800BF00F00CBF1EB400F01D
:105250008FF81EBCFBF7F2FEF0B50278472A83B048
:105260000C461D4619D00023264E01933368304664
:105270009B68984778B1019B1B68019302272368BC
:10528000314620461E6901AA0123B04718BB0746D4
:10529000384603B0F0BD0127F1E743784E2BE2D149
:1052A0008378552BDFD1C378432BDCD10379462B90
:1052B0001BD00379432BD6D143792B2BD3D18379C0
:1052C0002B2BD0D1C379012BCDD809D050F8206C2D
:1052D00058300190CAE7019B2B60384603B0F0BDFF
:1052E00050F8200C50F8786CF3E743794F2BE0D15D
:1052F0008379522BDDD1C379002BDAD1024E019391
:10530000B4E700BFC4690008BC69000810B50446D2
:1053100000F07AF8224612F82039472B04D083682F
:1053200023BB8260012010BD63784E2BF7D1A37898
:10533000552BF4D1E378432BF1D12379432BEED1D4
:1053400063792B2BEBD1A3792B2BE8D1E379012BBC
:10535000E5D854F8043C0133012B44F8043CE1D176
:10536000836844F8083C8260012010BD00F086FB91
:1053700008B500F049F8836883B393F82020472AE2
:1053800004D00022826003F1200008BD93F82120A0
:105390004E2AF6D193F82220552AF2D193F82320F1
:1053A000432AEED193F82420432AEAD193F825200A
:1053B0002B2AE6D193F826202B2AE2D193F8272036
:1053C000012ADED8DA69013ADA61002ADBD199696B
:1053D000816000229A6103F1200008BD00F04EFBBD
:1053E000704700BF704700BF00487047A8690008B9
:1053F00010B504210446FFF727FF204610BD00BF6B
:1054000000487047240A002000487047240A002002
:10541000502870B51DD0844600F00F000C2855D8D8
:10542000DFE800F0074426071E545454542A22078C
:105430001E00104650F8046B4EB10CF07004102C96
:1054400008BF11460E441CF0800F18BF36681E605E
:1054500070BD033222F0030050F8046B1E6070BD73
:10546000104650F8086BE7E7104630F9026BE3E7A7
:10547000104630F8026BDFE700261046344610F87D
:10548000015B05F07F0E0EFA04FE15F0800F46EA70
:105490000E0604F10704F2D11F2CCDD86D06CBD532
:1054A0004FF0FF3505FA04F42643C6E70026104600
:1054B000344610F8015B05F07F0E0EFA04FE2D064F
:1054C00046EA0E0604F10704F3D4B5E7FBF7A8FF9C
:1054D000FF2808B5034619D003F07002302A0846A9
:1054E00016D005D8202A09D1BDE8084001F0C5B979
:1054F000402A09D1BDE80840FBF780BF02D813F06D
:10550000600F03D0FBF78CFF502AFBD1002008BDB1
:10551000BDE8084001F0AEB9F8B50C4615460646A0
:1055200008B1FBF76BFF286014F8017BFF2F29D12E
:105530006860204610F8013B2B75FF2B33D01023F9
:1055400000242B75224610F8011B01F07F039340C5
:10555000090644EA030402F10702F4D40444EC60AF
:1055600010F8013B6B750024224610F8011B01F076
:105570007F0393401C430B0602F10702F5D4044459
:105580002C61F8BD31463846FFF7A2FF224601469E
:105590002B1D3846FFF73CFF0446204610F8013B20
:1055A0002B75FF2BCBD10023EB60D9E72DE9F04F12
:1055B00000F0030493B00023012C0893884617469B
:1055C00013D0022C08D139464046FBF701FF40B901
:1055D000082013B0BDE8F08F002C00F09480FBF79A
:1055E0001FFF092013B0BDE8F08F0DF1300A10F055
:1055F0000804CDF800A000F09D8044F00202029261
:105600000C910C2219463846FBF788F93846FBF70F
:10561000FBFE83460028D6D0524601463846FFF7A7
:105620007BFF394605469DF84400FFF751FF0DF119
:105630002C0900230E901946CDF800900F22384611
:10564000FBF746F90B9B23F001035E1E109B9D4266
:1056500037D29DF8454000212046FFF739FF2A4602
:10566000014609AB2046FFF7D3FE9DF8455004469E
:1056700000212846FFF72CFF224601460AAB2846A8
:10568000FFF7C6FE9DF84550044600212846FFF767
:105690001FFF224601464B462846FFF7B9FE00246D
:1056A0000546224615F8011B01F07F0393401C4379
:1056B0000B0602F10702F5D40C9B099A1344B3427E
:1056C00019D9029BD80730D500240394002319462A
:1056D000CDF8009038460D22089DFBF7F9F8039BA2
:1056E000C8F830300B9BC8F82CB0C8E90954062024
:1056F000C8F820306DE70A9A1344B3426ED8109B65
:10570000AB42A6D8DDE702073FF55DAF0123029368
:105710000DF1300A0023CDF800A00C2219463846BE
:10572000CDF83080FBF7FAF870E7029B1A0752D5E4
:1057300000F0A4F90D6A23460D2221463846FBF7F6
:10574000C7F80C9B9D4202D002230293E2E7234656
:10575000CDF800A021460C223846CDF83080FBF76A
:10576000DDF8D8F830300393ABB3D8E90A4B0DF12C
:105770002C09002C4EDB032500231A461946CDF8D0
:1057800000903846CDF82C80FBF7C8F80023194666
:105790000122CDF8009038460B94FBF7BFF80023A8
:1057A00019460F22CDF800903846FBF791F80B9A76
:1057B0000399CDF8009002F001020A4300230B92F6
:1057C00038460F221946FBF7A9F8022D1DD00720F5
:1057D00013B0BDE8F08F404600F064FC0B9B002B3B
:1057E0003FF4F1AE0D9A13440393002C38D1002BF3
:1057F0003FF4E9AE029BDD073FF5E5AE029B1B07D8
:1058000040F1238100240225B6E74046FFF77EFDE4
:105810000720DEE66FF040431B1B1E4652465946EA
:105820003846FFF779FE9DF844003946FFF750FEF1
:105830000E9005460F9850F8263000EB860033B1E5
:105840000246002352F8041F01330029FAD1C8E9A7
:105850000A350423C8F83400C8F8303003258BE734
:10586000109E039B013C2644002B3FF4ACAE029BF0
:10587000002E00F0E28013F00803049300F0C980CA
:10588000472388F800304E2388F80130552388F8E4
:105890000230432388F80330462388F804304F232E
:1058A00088F80530522388F80630002388F807303E
:1058B0000023CDF818B005979B46CDF81CA0002416
:1058C000224616F8011B01F07F039340080644EAC4
:1058D000030402F10702F4D41F2A05D84B0603D5AE
:1058E000012393405B421C43002530462A4610F8B2
:1058F000011B01F07F0393400F0645EA030502F107
:105900000702F4D41F2A05D8490603D50123934082
:105910005B421D43002C37D039DCB8F1000F02D0B8
:10592000049B002B50D06FF0404A0F9BAAEB040A57
:1059300053F82A30BBB1002D75D02E44BFE7A30029
:105940005B420F9A0E991A444B46FFF761FD0B9983
:1059500049B1B8F1000FEED008AB00224046FFF786
:105960007BFC0028E7D0029BDDF81CA0D907DDE90D
:10597000057B3FF5ABAE049B002B3FF4FAAE002C49
:10598000BFF6F9AE00F088F84FF0010BD3E79DF8B1
:105990004400FF2831D000F00703042B3FF61FAE70
:1059A00001A252F823F000BF3F590008DF5500085C
:1059B000C35900083F590008BD590008E3005B4285
:1059C000BFE763005B42BCE76FF0404A0F9F089B54
:1059D0000B93AAEB040A57F82A1007EB8A0719B9A8
:1059E0000DE057F8041F51B139444B4600224046A0
:1059F000FFF732FC0028F4D09DE70023A1E7029BCB
:105A0000DA075646DDE9057BDDF81CA03FF55EAE02
:105A100004E798F80730012B0CBF58F8203C08F138
:105A20005803089344E75B46059F002B3FF4CBAD3A
:105A3000029BDB073FF5C7ADE4E6DE073FF5C3ADEC
:105A4000029B13F008047FF4DDAE022594E600F01B
:105A5000ABFB6DE608B58047FBF7E2FC00F0A4FB6A
:105A6000FBF7DEFC0C46054600F0DCFB013402D1FE
:105A7000284600F027FBFFF7E9FB00BF08B5034B02
:105A80001868BFF35B8FFFF7E5FF00BF58080020E1
:105A900008B58047FFF7F2FF08B5034B1868BFF35E
:105AA0005B8FFFF7F5FF00BF54080020024B18681A
:105AB000BFF35B8F704700BF58080020024B186887
:105AC000BFF35B8F704700BF5408002010B5034B35
:105AD0000360044600F068FA204610BD986A00088A
:105AE00010B5054B0360044600F05EFA20460C2119
:105AF000FFF7AAFB204610BD986A000870B582B077
