:020000040800F2
:10000000000002206D370008193400081B34000876
:100010001D3400081F3400082134000800000000CF
:100020000000000000000000000000002334000871
:100030002534000800000000273400082934000897
:10004000BD370008BD370008BD370008BD370008C0
:10005000BD370008BD370008BD370008BD370008B0
:10006000BD370008BD370008BD370008BD370008A0
:10007000BD370008BD370008BD370008BD37000890
:100080003134000841340008BD370008000000008A
:10009000000000000000000000000000BD37000864
:1000A000BD37000851340008BD370008BD370008CF
:1000B000BD370008BD370008BD370008BD37000850
:1000C000BD370008BD370008BD370008BD37000840
:1000D000BD370008BD370008BD370008000000002C
:1000E000BD370008BD370008BD370008000000001C
:1000F000000000000000000000000000BD37000804
:1001000000000000BD370008BD370008BD370008FB
:1001100000000000000000000000000000000000DF
:10012000BD370008BD370008BD370008BD370008DF
:10013000BD370008000000000000000000000000C3
:10014000000000000000000000000000BD370008B3
:10015000BD370008BD370008BD370008BD370008AF
:10016000BD370008BD370008000000000000000097
:10017000000000000000000000000000000000007F
:1001800000000000BD370008000000000000000073
:08019000BD370008BD3700086F
:1001C0000348044B834202D0034B03B118477047E6
:1001D0007C0800207C08002000000000054806493B
:1001E0000B1AD90F01EBA301491002D0034B03B145
:1001F000184770477C0800207C08002000000000A1
:1002000010B5064C237843B9FFF7DAFF044B13B15E
:100210000448AFF300800123237010BD7C08002048
:1002200000000000746B000808B5044B1BB10449C2
:100230000448AFF30080BDE80840CFE700000000AD
:1002400080080020746B00084FF0FF0C1CEAD052AD
:100250001EBF1CEAD15392EA0C0F93EA0C0F6FD029
:100260001A4480EA010C400218BF5FEA41211ED007
:100270004FF0006343EA501043EA5111A0FB0131F3
:100280000CF00040B1F5000F3EBF490041EAD371C8
:100290005B0040EA010062F17F02FD2A1DD8B3F144
:1002A000004F40EBC25008BF20F00100704790F0B3
:1002B000000F0CF0004C08BF49024CEA502040EA05
:1002C00051207F3AC2BFD2F1FF0340EAC2507047CB
:1002D00040F400004FF00003013A5DDC12F1190F09
:1002E000DCBF00F000407047C2F10002410021FA7B
:1002F00002F1C2F1200200FA02FC5FEA310040F193
:10030000000053EA4C0308BF20EADC70704792F00B
:10031000000F00F0004C02BF400010F4000F013A43
:10032000F9D040EA0C0093F0000F01F0004C02BF3E
:10033000490011F4000F013BF9D041EA0C018FE7AD
:100340000CEAD15392EA0C0F18BF93EA0C0F0AD0B3
:1003500030F0004C18BF31F0004CD8D180EA0100D9
:1003600000F00040704790F0000F17BF90F0004F72
:10037000084691F0000F91F0004F14D092EA0C0F54
:1003800001D142020FD193EA0C0F03D14B0218BFE7
:10039000084608D180EA010000F0004040F0FE402D
:1003A00040F40000704740F0FE4040F440007047C9
:1003B00080F0004002E000BF81F0004142001FBF1A
:1003C0005FEA410392EA030F7FEA226C7FEA236C23
:1003D0006AD04FEA1262D2EB1363C1BFD218414018
:1003E00048404140B8BF5B42192B88BF704710F0AE
:1003F000004F40F4000020F07F4018BF404211F051
:10040000004F41F4000121F07F4118BF494292EAB8
:10041000030F3FD0A2F1010241FA03FC10EB0C00E4
:10042000C3F1200301FA03F100F0004302D5494271
:1004300060EB4000B0F5000F13D3B0F1807F06D31E
:1004400040084FEA310102F10102FE2A51D2B1F116
:10045000004F40EBC25008BF20F0010040EA03000B
:100460007047490040EB0000013A28BFB0F5000F8B
:10047000EDD2B0FA80FCACF1080CB2EB0C0200FA41
:100480000CF0AABF00EBC25052421843BCBFD04090
:100490001843704792F0000F81F4000106BF80F40A
:1004A00000000132013BB5E74FEA41037FEA226CCD
:1004B00018BF7FEA236C21D092EA030F04D092F098
:1004C000000F08BF0846704790EA010F1CBF0020CC
:1004D000704712F07F4F04D1400028BF40F0004029
:1004E000704712F100723CBF00F50000704700F049
:1004F000004343F0FE4040F4000070477FEA226270
:1005000016BF08467FEA23630146420206BF5FEA40
:10051000412390EA010F40F4800070474FF0000340
:1005200004E000BF10F0004348BF40425FEA000C07
:1005300008BF704743F0964301464FF000001CE0AF
:1005400050EA010208BF70474FF000030AE000BF05
:1005500050EA010208BF704711F0004302D5404243
:1005600061EB41015FEA010C02BF844601460020B5
:1005700043F0B64308BFA3F18053A3F50003BCFAD0
:100580008CF2083AA3EBC25310DB01FA02FC63447D
:1005900000FA02FCC2F12002BCF1004F20FA02F284
:1005A00043EB020008BF20F00100704702F1200277
:1005B00001FA02FCC2F1200250EA4C0021FA02F2D8
:1005C00043EB020008BF20EADC7070474FEA4002AC
:1005D000B2F1FE4F0FD34FF09E03B3EB12620DD971
:1005E0004FEA002343F0004310F0004F23FA02F0DB
:1005F00018BF404270474FF00000704712F1610F82
:1006000001D1420205D110F0004008BF6FF0004058
:1006100070474FF00000704753B94AB9002908BF2E
:1006200000281CBF4FF0FF314FF0FF3001F0DEB863
:10063000ADF1080C6DE904CE00F006F8DDF804E039
:10064000DDE9022304B070472DE9F047089E0D460E
:1006500004468846002B4DD18A42944668D9B2FAA6
:1006600082F252B101FA02F3C2F1200120FA01F143
:100670000CFA02FC41EA030894404FEA1C45210CA5
:10068000B8FBF5FE1FFA8CF705FB1E8341EA034316
:100690000EFB07F199420BD91CEB03030EF1FF305F
:1006A00080F01E81994240F21B81AEF1020E63443C
:1006B0005B1AA4B2B3FBF5F005FB103344EA034424
:1006C00000FB07F7A7420AD91CEB040400F1FF3333
:1006D00080F00881A74240F2058164440238E41B9F
:1006E00040EA0E4000211EB1D4400023C6E9004379
:1006F000BDE8F0878B4208D9002E00F0EE80002183
:10070000C6E900050846BDE8F087B3FA83F1002981
:100710004AD1AB4202D3824200F2F980841A65EBDF
:10072000030301209846002EE2D0C6E90048DFE727
:1007300002B9FFDEB2FA82F2002A40F09180A1EB0A
:100740000C054FEA1C471FFA8CFE0121B5FBF7F39D
:1007500007FB1350250C45EA00450EFB03F0A842A9
:1007600008D91CEB050503F1FF3802D2A84200F2BC
:10077000CB8043462D1AA4B2B5FBF7F007FB10550A
:1007800044EA05440EFB00FEA64508D91CEB040410
:1007900000F1FF3502D2A64500F2BB802846A4EB4B
:1007A0000E0440EA03409EE7C1F120078B4022FA85
:1007B00007FC4CEA030C20FA07F405FA01F31C438A
:1007C000FD404FEA1C4900FA01F3B5FBF9F8200C93
:1007D0001FFA8CFE09FB185540EA054508FB0EF090
:1007E000A84202FA01F20BD91CEB050508F1FF3A09
:1007F00080F08880A84240F28580A8F10208654414
:100800002D1AA4B2B5FBF9F009FB105544EA0545D1
:1008100000FB0EFEAE4508D91CEB050500F1FF34C8
:100820006CD2AE456AD90238654440EA0840A0FB64
:100830000294A5EB0E05A542C846A64656D353D052
:100840005EB1B3EB080265EB0E0505FA07F722FA75
:1008500001F3CD401F43C6E900750021BDE8F087D4
:10086000C2F1200320FA03F10CFA02FC25FA03F38B
:1008700095400D434FEA1C471FFA8CFEB3FBF7F17E
:1008800007FB11302B0C43EA004301FB0EF09842AA
:1008900004FA02F408D91CEB030301F1FF382FD24C
:1008A00098422DD9023963441B1AADB2B3FBF7F05D
:1008B00007FB103345EA034500FB0EF3AB4208D9B2
:1008C0001CEB050500F1FF3816D2AB4214D90238F3
:1008D0006544ED1A40EA014138E73146304607E702
:1008E0008646E5E61846FAE64B45A9D2B9EB02087A
:1008F00064EB0C0E0138A3E74046EAE7204694E794
:100900004146D1E7D0467BE7023B654432E70846E3
:1009100009E76444023842E703685A004CBF43F0D9
:10092000004323F000431844704700BF2DE9F8430B
:1009300029B34F1E044615463E464FF0000808EB0B
:10094000060101EBD171491004EBC1094846FFF7DC
:10095000E3FF0346C80008308F42204409D0AB4271
:1009600009D8FFF7D9FF0138A8420AD201F10108DE
:10097000E5E7AB4205D9884501D04E1EDFE74FF0D1
:1009800000094846BDE8F883012807D0022807D0AF
:10099000044B00280CBF18460020704702487047DF
:1009A00002487047611000086510000869100008CF
:1009B00030B5234B83B004468D1E3BB301A92846B6
:1009C000AFF30080E8B101992A46FFF7AFFF014677
:1009D000B8B1FFF7A1FF4B68A064012B2CD0002B0E
:1009E00001F1040024DBFFF797FF0023C4E91303A0
:1009F0000368002B11DBFFF78FFF2061002003B09D
:100A000030BD00230920236103B030BD0D4B0E49DA
:100A1000C91AC91018460191D6E7C3F30360FFF75E
:100A2000B3FF0028206114BF0020092003B030BDAF
:100A30000123C4E91303DBE7002323610520DEE77C
:100A4000000000000C710008247300080368DA0736
:100A500010B5044606D49B0700F1480009D500F004
:100A60005BFC2368590709D51A070ED5DB0613D599
:100A700010BD00F049FC23685907F5D404F1D000FB
:100A800000F052FC23681A07F0D404F5A87000F0B7
:100A900053FC2368DB06EBD404F5E870BDE8104096
:100AA00000F08EBC092070470346006800B118446E
:100AB000704700BF704700BF70B504460E46316CEA
:100AC0002046FFF775FF054688B9326C62612369DD
:100AD00032462146012098470828F0D0072806D141
:100AE0002846316CFFF7E6FF301D00F001FC00F0F6
:100AF0007FFE00BF2DE9F0470D1DD0F80C80D0F827
:100B00001890074614460FCDADF5727D0DF10C0C13
:100B1000ACE80F000FCDACE80F000FCDACE80F0034
:100B200095E80F0002AE4FF0000E8CE80F00C6F8FB
:100B300000E020E0336C7B614FF4F07231467AA81C
:100B400001F064F93B697AAA394650469847889B78
:100B500073642146CDE9006905463B463A460120CB
:100B6000C0470446E0B94FF4F0727AA9304601F06C
:100B70004DF9082D1AD1316C3846FFF719FF0934A9
:100B80005FFA84FA05460028D4D0B36B73643A4602
:100B9000CDE900693B464AF010010120C04700B191
:100BA000092528460DF5727DBDE8F087072DF7D1A0
:100BB0002046316CFFF77EFF03A800F099FB00BFD1
:100BC000406C7047F0B5CB6B0B6401F1040C0E4622
:100BD0000546BCE80F00F9B001AC0FC4BCE80F003B
:100BE0000FC4BCE80F000FC49CE80F004FF0FF37A4
:100BF00084E80F00009706E02B696A46294698476B
:100C00000828044608D110992846FFF7D1FE00288D
:100C1000F2D0092079B0F0BD6846FFF717FF062C27
:100C2000F7D131462846FFF747FF00BFC160D96BB7
:100C300082611964002219465CE700BF70B5C6687E
:100C400043690B64AEB903690A4604460D46014682
:100C500002209847072805D008280FD129462046AA
:100C6000FFF72AFF3046296CFFF724FF281D00F00C
:100C70003FFB0122FFF73EFF00F0BAFD00F0B8FD98
:100C8000C2681AB1CA6B0A64002233E79AE700BF50
:100C9000704700BF836801460BB1012018477047B9
:100CA000012912D009D873B90F2A0CD800EB82029F
:100CB00018465368009A136070470339012994BF9E
:100CC000012002207047022070470846704700BF8D
:100CD00000B585B00A46002303A900911946FFF725
:100CE000DFFF039805B05DF804FB00BF012912D0B7
:100CF00009D873B90F2A0CD800EB8200009A126849
:100D00004260184670470339012994BF0120022030
:100D10007047022070470846704700BF10B584B086
:100D2000002303AC039200940A461946FFF7DEFF46
:100D300004B010BD70B5D36B136402F1040C05460A
:100D40000C46BCE80F00ADF50E7D0DF15C0EAEE873
:100D50000F00BCE80F00AEE80F00BCE80F00AEE8E3
:100D60000F009CE80F004FF0FF368EE80F0016963C
:100D700010E0FFF7D3FF214616A8A847034616AA9E
:100D80006946082083B9049B9847052806460CD07D
:100D9000092809D026996846FFF70AFE03466A46E5
:100DA0000C2116A8002BE4D0092616A8FFF74EFE4A
:100DB00030460DF50E7D70BD2DE9F04FCC6C89B03D
:100DC0001E4654F8043B06940D46174600F00308EF
:100DD000002E79D01A0C1B0405938DF81D200223D8
:100DE000D2B204EB82048DF81C302B6DB8F1020FE7
:100DF00008BFAC6B13F001030CD005A9384600F016
:100E000079FB18B9082009B0BDE8F08F092009B0B6
:100E1000BDE8F08FD4F800A0BAF1000FEDD0019337
:100E200000F008030293022E4AD0B4F800A0B4F8F0
:100E300002900434AB6C29F0010B0F2138469B441F
:100E4000FFF746FF834539D82AF001039B448345C9
:100E500094BF002001204FEA490303F002030AF087
:100E6000010A43EA0A03012B49D0022B32D0002B9E
:100E7000CCD1B8F1000F02D0002840F0CD8004346E
:100E8000D4F800A0BAF1000FCDD105A9384600F082
:100E900031FB0028BAD1019B002BB3D00F2138467B
:100EA000FFF716FF0E2102463846FFF737FF384698
:100EB0006A4A0F21FFF732FF0720A8E70020CAE7A0
:100EC000D4F804900834B5E71B0205930323ADF86A
:100ED0001C308AE7236823F0004BB8F1000F45D19E
:100EE00028B1029A002A5CD0BBF1000F74D0002B0D
:100EF00000DA04340BF1010B04EB8B04C0E7B8F10A
:100F0000000F19D1B0B163682268991C4FEAD27200
:100F10003FF47CAF05F158010133049100F090805B
:100F2000201DFFF7C1FD04AB0146284604F004FB79
:100F300000285BD10834A3E70D213846D5F820906E
:100F4000FFF7C6FE8145F5D1AB6A9C42F2D120463F
:100F5000FFF7E2FC0F2102463846FFF7DFFE384676
:100F60002A460021FFF7DAFE072050E70D21384618
:100F7000D5F82090FFF7ACFE814501D02368B6E795
:100F8000AB6A9C42FAD104230022C5E90B23E31883
:100F9000C5F828B06B632368002B59DB012301934C
:100FA000A8E705F15803CDF80C8004F1040AB04617
:100FB00091461E460EE050460496FFF775FD00224E
:100FC000014604AB284609F101090AF1040A04F0BC
:100FD000B3FAE0B9D945EED10D213846FFF778FED6
:100FE000049BAC62C5E90803062010E781460D2189
:100FF0003846FFF76DFEB9F1020F286225D12B4666
:10100000049A43F82C2F6B62AC620620FFE646463A
:101010002368DDF80C806AE72046FFF77DFC043486
:101020000246AC632846144604F0E0FA00283FF478
:10103000EDAE384622460F21FFF770FE0720E6E6A8
:101040000D213846FFF744FE2862049B6B62DBE704
:101050000BF1010004EB80007AE700BFB9650008DE
:101060000023A9E60123A7E60223A5E62DE9F04324
:101070000646C3B015461C46042900F2BF80DFE8CF
:1010800001F09E57BD2D0300002C40F0B780102AC0
:1010900000F2B4800368D80600F1F98020AF38462A
:1010A00000F098F9B46B394600234FF0010C0CFAAC
:1010B00003F22A42204603F1010303D050F8042B27
:1010C0000A600446042B01F10401F0D13846B463F0
:1010D00000F076F9002043B0BDE8F083032C40F027
:1010E0008D8094B204EB1243102B4FEA124500F2AC
:1010F000858003681F0700F1D28020AF384600F0DA
:101100003DF9B26B07EBC50154B10B46D01A01EBA8
:10111000C401E4001D5843F8045B8B42FAD1224419
:101120003846B26300F008F9002043B0BDE8F08310
:10113000012C4FEA124895B25CD0052C5ED108EB29
:101140000509B9F1200F59D8B8F10F0F79D9A9467F
:10115000002D40F08A80B36B6DB320AF4FF00009D3
:1011600007EBC807043F03EBC50553F8041B47F81A
:10117000041FAB42F9D1B9F1000F0FD06F464146C1
:10118000102938BF102107EBC101843903EBC905D1
:1011900053F8040B41F8040FAB42F9D1012C00F0D5
:1011A0008680B8F10F0FB56347D9B9F1000F02D0AF
:1011B000684600F0B9F8002043B0BDE8F083ECB910
:1011C000806B23461FFA82FC0124371D04FA03F2C8
:1011D00012EA0C0F014604D051F8042B47F82320E3
:1011E00008460133102BF1D115F40055E3D1B0635B
:1011F000284604E008EB0503102B03D9022043B076
:10120000BDE8F083B8F10F0FF8D83368DA0706D5D8
:10121000304623F0030340F8483B00F079F820AF54
:10122000384600F075F8B36B002D97D11D46043594
:10123000B563384600F068F8BDE720A800F06CF808
:10124000B3E7B9F1100F40D9A9F110093368D907F4
:1012500008D523F00103304643F0020340F8483B31
:1012600000F05EF8B9F1000F32D033685A0720D48D
:10127000B8F10F0F25D96F463846C8F1100500F0B8
:1012800057F8002DB36B7FF77AAF20AF68E723F0F4
:101290001003336006F5E87000F09CF8FEE623F0DA
:1012A0000803036000F5A87000F068F825E720AF98
:1012B000BDE7304623F0040340F8D03B00F038F897
:1012C000D6E720A800F02CF8D5E74FF00009BDE7DD
:1012D000B8F10F0F3FF63FAF20AF384600F020F8CF
:1012E000B36B002D7FF43AAF384600F015F862E793
:1012F00000F1340191E838009C46A6464CF8045DA4
:1013000090E8FF0FE54600BD90EC210B704700BF51
:1013100080EC210B704700BF90EC200B704700BFA2
:1013200080EC200B704700BFD0EC200B704700BF53
:10133000C0EC200B704700BFF0EC0201F0EC021192
:10134000F0EC0221F0EC0231F0EC0241F0EC025141
:10135000F0EC0261F0EC0271F0EC0281F0EC029131
:10136000F0EC02A1F0EC02B1F0EC02C1F0EC02D121
:10137000F0EC02E1F0EC02F1704700BFE0EC02019A
:10138000E0EC0211E0EC0221E0EC0231E0EC024181
:10139000E0EC0251E0EC0261E0EC0271E0EC028171
:1013A000E0EC0291E0EC02A1E0EC02B1E0EC02C161
:1013B000E0EC02D1E0EC02E1E0EC02F1704700BFAA
:1013C000B0FC0181B0FC0191B0FC01A1B0FC01B105
:1013D000704700BFA0FC0181A0FC0191A0FC01A10D
:1013E000A0FC01B1704700BFEC4600B52DE90050EC
:1013F0002DE9FF1F4FF000032DE90C0001A9FFF7B5
:10140000E1FBDDF840E012B0704700BFEC4600B5EC
:101410002DE900502DE9FF1F4FF000032DE90C00CE
:1014200001A9FFF70BFCDDF840E012B0704700BFE8
:10143000EC4600B52DE900502DE9FF1F4FF00003E9
:101440002DE90C0001A9FFF71BFCDDF840E012B00C
:10145000704700BFEC4600B52DE900502DE9FF1F95
:101460004FF000032DE90C0001ABFFF7DFFBDDF8C7
:1014700040E012B0704700BFEC4600B52DE90050C7
:101480002DE9FF1F4FF000032DE90C0001AAFFF723
:1014900051FCDDF840E012B0704700BF027A03460D
:1014A0007AB9427AA2B14168013A10B4427208682E
:1014B00003220C1D1A7202025C60000E10BC1A603E
:1014C00070470068013A1A7202021A60000E7047F3
:1014D000B020704700B585B0002303AA00921946DA
:1014E0000C22FFF7DDFB039805B05DF804FB00BF9D
:1014F000F0E700BF2DE9F043054685B00E464FF0FA
:1015000000083046FFF7CAFFB028044600F0BA8052
:10151000070620D500F0F003802B4DD0902B36D05D
:10152000A02B60D0B02B74D0C02B00F08B8000F0CB
:10153000F803D02B0BD100F007020132052342F44F
:10154000002201212846FFF791FD0028D9D009206B
:1015500005B0BDE8F0838300DBB21F1D0DF10C095F
:1015600000231946CDF800900D222846FFF798FB7E
:10157000039BCDF8009060064CBFDF1BFF180023D3
:101580000D22194628460397FFF7B0FBB9E700F094
:101590000D030D2BDBD003AF002300F00F02194623
:1015A00000972846FFF77CFB002300970D22194681
:1015B0002846FFF79BFBA4E73046FFF76FFF2402A6
:1015C0002043B0F5004FC2D004010023A2B2194657
:1015D0002846FFF74BFD0028B9D114F4004F18BF7F
:1015E0004FF001088DE7C24302F007034FF47F621A
:1015F0001A41010702F47F624FF0000348BF42F432
:10160000804219462846FFF731FD00283FF479AFA4
:101610009DE7B1283BD0B22800F09380B32841D099
:1016200000F0FC03B42B92D000F00702013201233A
:1016300042F4002219462846FFF718FD00283FF41F
:1016400060AF84E7C6284AD0C72854D000F0F8031A
:10165000C02B63D0C82868D0C9287FF478AF304643
:10166000FFF71CFF020300F00F0002F470220130AC
:101670000243012105232846FFF7F8FC00283FF428
:1016800040AF64E7B8F1000F18D0002060E73046A3
:10169000FFF704FF024600283FF459AF10F0F003B3
:1016A000C8D054E73046FFF7F9FE020300F00F03FD
:1016B000013302F470221A430123BBE703AC434613
:1016C0000E22414600942846FFF7EAFA009443466A
:1016D0000F2241462846FFF709FB404638E73046CF
:1016E000FFF7DCFE020300F00F03013302F4702267
:1016F0001A4303239EE73046FFF7D0FE0246002838
:101700003FF425AF10F0F0037FF421AF0421284609
:10171000FFF7ACFC00283FF4F4AE18E700F00F022E
:101720000132032342F4202284E73046FFF7B6FE5D
:1017300000F0F00200F00F031032013343EA0232EE
:1017400097E700230DF10C090D221946CDF8009002
:101750002846FFF7A5FA3046FFF7A0FE02064FF035
:1017600002040CD5039B00F07F00A04018440390B6
:101770003046FFF793FE030604F10704F2D4039BFF
:10178000CDF8009000F07F02A24003F501731A44E7
:101790000023039219460D222846FFF7A7FAB0E668
:1017A00010B5C26C536884B04FF0030C08321C02B1
:1017B00008461B0E01A9019402928DF80CC08DF809
:1017C0000D30FFF797FE04B010BD00BF08B5FFF75E
:1017D0008FFE806C08BD00BF08B5FFF789FEC06CA6
:1017E000C379023300EB830008BD00BF704700BF20
:1017F00008B5062000F024FD012001F03BFE00BFEB
:10180000002301461A46184600F0C8BF13460A4690
:101810000146022000F0C2BF014B1868704700BFAC
:101820000800002038B5084B084D5B1B9C1007D002
:10183000043B1D44013C55F804399847002CF9D16C
:10184000BDE8384005F09CB93873000834730008CF
:1018500070B50D4E0D4D761BB61006D0002455F810
:10186000043B01349847A642F9D1094E094D761B35
:1018700005F080F9B61006D0002455F8043B013479
:101880009847A642F9D170BD24730008247300085C
:101890003473000824730008024B0146186800F0F6
:1018A0000BB800BF08000020024B0146186800F08A
:1018B000F9BF00BF080000202DE9F04F01F10B0631
:1018C000162E83B0044624D8102900F2BA8000F006
:1018D00005FC102618220220B74F3A44A2F1080155
:1018E00053688B4200F0BA805A68D96822F003022C
:1018F0001A449D68E9608D60516841F001012046FD
:10190000516003F1080500F0EBFB284603B0BDE889
:10191000F08F36F0070600F19480B14200F291801A
:1019200000F0DCFBB6F5FC7FC0F09681730A00F096
:101930008F80042B00F26B81B30903F1390003F1AE
:10194000380CC3009C4F3B44A3F108055B689D42E3
:1019500006D10CE0002980F22B81DB689D4206D085
:101960005A6822F00302911B0F29F3DD60463D699E
:10197000DFF848C265457CD06A6822F00302931BF9
:101980000F2B00F37781002BC7E904CC80F268812C
:10199000B2F5007F80F01681D308796801334FEAF1
:1019A000521E012202FA0EF20A4357F833E0C5F83C
:1019B00008E007EBC3010839E9607A6047F8335063
:1019C000CEF80C50831001219940914257D8114212
:1019D00006D120F003004900114200F10400FAD0C2
:1019E00007EBC0094D468646D5F80C80454508D121
:1019F00019E1002B80F22081D8F80C80454500F0D9
:101A00001281D8F8042022F00302931B0F2BF0DD83
:101A10002046D8E9025408EB060146F00106C8F852
:101A20000460EC60A56043F00104C7E90411C1E95A
:101A300002CC4C6048F8023000F052FB08F1080577
:101A400002E00C2323600025284603B0BDE8F08F98
:101A50004FF4007340204FF03F0C73E7D3689A4275
:101A600008BF02307FF440AF3D69DFF850C16545E3
:101A700082D17A688310012199409142A7D9BD682B
:101A80006B6823F00308464503D8A8EB06030F2B29
:101A90007EDCDFF82C91D7F80824D9F80030013229
:101AA000334405EB080A00F02F8103F580530F3310
:101AB00023F47F6B2BF00F0B5946204600F012FBEE
:101AC000411C024600F0EF80824500F2EA80D9F81E
:101AD00004105944C9F804100B4600F04B81D7F8A4
:101AE000081401311BBFA2EB0A0A5344C7F80824AB
:101AF000C9F8043012F0070300F01281C3F10801A5
:101B00000A44C3F5805193440831A1EB0B01C1F3A2
:101B10000B0A514620460192009300F0E3FA421C62
:101B2000DDE9003200F04B81831A03EB0A0BD9F890
:101B30000400BA604BF001030AEB0001BD425360A0
:101B4000C9F8041000F02281B8F10F0F40F2208193
:101B50006B68A8F10C0020F0070003F001030343B9
:101B60006B604FF0050C2B180F28C3E901CC00F275
:101B70002D8153681546D9F82C208A42D9F8302097
:101B800038BFC9F82C108A4238BFC9F830108CE031
:101B9000AA1943F0010346F001066E602046BA60C0
:101BA000536000F09DFA0835284603B0BDE8F08F79
:101BB000D9681A449DE600BF380400204004002084
:101BC00098080020B2F5206F4FEA522363D3142BFC
:101BD00000F2B88003F15C01C9005B3307EB010E32
:101BE0007958AEF1080E8E4500F091804B6823F0D5
:101BF0000303934202D989688E45F7D1D1F80CE0EE
:101C00007A68C5E9021ECEF80850CD60DAE6142BDA
:101C100059D9542B00F29E80330B03F16F0003F16E
:101C20006E0CC3008EE60EF1010E1EF0030F05F1DF
:101C300008057FF4D9AE51E0424445465368D8F8D0
:101C40000C1043F00103536055F8083F2046D9605B
:101C50008B6000F045FAF7E6F00806F108023BE673
:101C60002A442046536843F001035360083500F0CE
:101C700037FAE9E6A919204646F0010643F00104C7
:101C80006E60C7E90411C1E902CC4C60AB5000F0B2
:101C900027FA0835D8E6930903F13901C90038332A
:101CA0009CE7BD4260D0BD686B6823F0030B5E45C6
:101CB000ABEB060302D80F2B3FF76AAF204600F0CC
:101CC0000FFA0025C0E603F15C0003F15B0CC300D2
:101CD00038E659F808394B4540F0968010F0030F6C
:101CE00000F1FF30F5D17B6823EA01037B604900F6
:101CF00099423FF6C4AE19B9C1E649000EF1040E8F
:101D00001942FAD070466BE603F1100BD4E69A1034
:101D10004FF001087B6808FA02F21A437A6070E714
:101D200002EB0B014942C1F30B0A514620460193D5
:101D3000009200F0D7F9431CDDE900237FF4F4AEF4
:101D40009A46F4E6542B26D8130B03F16F01C90011
:101D50006E3343E7B3F5AA7F26D8F30B03F178007F
:101D600003F1770CC300EDE5D9F804305B44C9F802
:101D70000430B4E6CAF30B0000287FF4B0AEBD68AF
:101D800008EB0B0343F001036B60F4E61546F2E643
:101D90000123536092E7B3F5AA7F21D8D30B03F157
:101DA0007801C900773319E740F25452934221D8A1
:101DB000B30C03F17D0003F17C0CC300C2E5083BCA
:101DC0009B44ABEB020B4FF0000AB0E605F10801B3
:101DD000204600F067FDBD68D9F804106B68CAE6BC
:101DE00040F254518B420BD8930C03F17D01C90092
:101DF0007C33F3E64FF47E737F204FF07E0CA1E539
:101E00004FF47E717E23E9E67B6870E7844641EA01
:101E1000000313F003036DD1403A41D351F8043B62
:101E200040F8043B51F8043B40F8043B51F8043BB4
:101E300040F8043B51F8043B40F8043B51F8043BA4
:101E400040F8043B51F8043B40F8043B51F8043B94
:101E500040F8043B51F8043B40F8043B51F8043B84
:101E600040F8043B51F8043B40F8043B51F8043B74
:101E700040F8043B51F8043B40F8043B51F8043B64
:101E800040F8043B51F8043B40F8043B51F8043B54
:101E900040F8043B51F8043B40F8043B403ABDD2C3
:101EA000303211D351F8043B40F8043B51F8043B65
:101EB00040F8043B51F8043B40F8043B51F8043B24
:101EC00040F8043B103AEDD20C3205D351F8043BF4
:101ED00040F8043B043AF9D2043208D0D2071CBFC0
:101EE00011F8013B00F8013B01D30B8803806046E9
:101EF000704700BF082A13D38B078DD010F003035F
:101F00008AD0C3F10403D21ADB071CBF11F8013BCE
:101F100000F8013B80D331F8023B20F8023B7BE71D
:101F2000043AD9D3013A11F8013B00F8013BF9D248
:101F30000B7803704B7843708B78837060467047E2
:101F400088420DD98B1883420AD900EB020CBAB132
:101F5000624613F801CD02F801CD9942F9D17047DC
:101F60000F2A0ED8034602F1FF3C4AB10CF1010CD6
:101F7000013B8C4411F8012B03F8012F6145F9D185
:101F8000704740EA01039B0750D1A2F1100370B5DE
:101F900001F1200C23F00F0501F1100E00F11004E7
:101FA000AC441B095EF8105C44F8105C5EF80C5CF5
:101FB00044F80C5C5EF8085C44F8085C5EF8045C6D
:101FC00044F8045C0EF1100EE64504F11004E9D16A
:101FD000013312F00C0F01EB031102F00F0400EBC0
:101FE000031327D0043C24F003064FEA940C1E444C
:101FF0001C1F8E465EF8045B44F8045FB442F9D1BE
:102000000CF1010402F0030203EB840301EB8401F1
:1020100002F1FF3C4AB10CF1010C013B8C4411F878
:10202000012B03F8012F6145F9D170BD02F1FF3C8E
:1020300003469BE72246EBE7830730B548D0541EA2
:10204000002A3FD0CAB2034601E0013C3AD303F86C
:10205000012B9D07F9D1032C2DD9CDB245EA0525D9
:102060000F2C45EA054536D9A4F1100222F00F0CD9
:1020700003F1200EE6444FEA121C03F1100242E97C
:10208000045542E9025510327245F8D10CF10102B3
:1020900014F00C0F03EB021204F00F0C13D0ACF190
:1020A000040323F003030433134442F8045B934214
:1020B000FBD10CF003042CB1CAB21C4403F8012B71
:1020C0009C42FBD130BD64461346002CF4D1F9E7A5
:1020D00003461446BFE71A46A446E0E7704700BF30
:1020E000704700BF38B5074D0022044608462A60F5
:1020F00001F0C6F9431C00D038BD2B68002BFBD083
:10210000236038BDCC08002038B5D0F8DC420CB1D3
:10211000002038BD80210546FFF7CEFB0246C5F8FA
:10212000DC0230B1031F7C3243F8044F9342FBD1F1
:10213000EEE74FF0FF3038BD1F29F8B5054609D846
:10214000D0F8DC620C4617464EB156F8240046F82B
:102150002470F8BD162303604FF0FF30F8BD8021D6
:10216000FFF7AAFB0646C5F8DC0240B1031F00F1E9
:102170007C05002143F8041F9D42FBD1E5E74FF0A9
:10218000FF30F8BD1F2938B5054621D8D0F8DC222C
:102190000C466AB152F8213053B1012B16D0591CAC
:1021A00010D00025204642F824509847284638BDD4
:1021B000284600F003F9224601462846BDE838408B
:1021C00000F0E6B816230360012038BD002038BDBA
:1021D000162303604FF0FF3038BD00BF1F292CD8F5
:1021E000D0F8DC2238B50C46054682B152F82430CE
:1021F00002EB84024BB1591C1AD0012B16D00025DA
:10220000204615609847284638BD012038BD8021FA
:10221000FFF752FB0246C5F8DC0258B1031F00214C
:102220007C3043F8041F9842FBD1DFE7032038BD20
:10223000022038BD4FF0FF3038BD4FF0FF307047FF
:1022400038B5154B1F281D6820D8D5F8DC22044668
:1022500062B152F820304BB1012B15D0591C0FD070
:10226000002542F820509847284638BD284600F0FF
:10227000A5F8224601462846BDE8384000F088B857
:1022800016232B60012038BD002038BD16232B609B
:102290004FF0FF3038BD00BF08000020134B1F284F
:1022A00070B51E6809D80D46D6F8DC12044649B14F
:1022B00051F8240041F8245070BD162333604FF0CC
:1022C000FF3070BD80213046FFF7F6FA0146C6F8B0
:1022D000DC0240B1031F00F17C0C002243F8042F04
:1022E0006345FBD1E4E74FF0FF3070BD08000020EC
:1022F00038B50C4B1D68D5F8DC420CB1002038BD58
:1023000080212846FFF7D8FAC5F8DC0238B1031F50
:1023100000F17C0243F8044F9342FBD1EEE74FF00B
:10232000FF3038BD0800002038B5184B1F281D6845
:1023300028D8D5F8DC22044682B152F8243002EBCA
:1023400084024BB1591C1BD0012B17D0002520460D
:1023500015609847284638BD012038BD80212846A1
:10236000FFF7AAFA0246C5F8DC0258B1031F0021A4
:102370007C3043F8041F8342FBD1DEE7032038BDE5
:10238000022038BD4FF0FF3038BD00BF08000020EC
:1023900070B50C46084D03460026204611461C46E3
:1023A0002E6001F05FF8431C00D070BD2B68002B3D
:1023B000FBD0236070BD00BFCC08002001F050B8F6
:1023C000A2EB0300704700BF02780B78012A28BFF8
:1023D0009A42F5D16DE9044540EA0104CDE902676E
:1023E0006FF0000C4FEA447212B380EA010414F05B
:1023F000070F6AD100F0070420F0070004F003057E
:1024000021F007014FEAC505F0E8042314F0040F9A
:10241000F1E804670CFA05F462EA040266EA0406CD
:102420000AD063EA0403624667EA0407664603E0EB
:10243000F0E80423F1E8046782FA4CF582EA060426
:10244000A4FA8CF46CBB83FA4CF583EA0705A5FA71
:102450008CF595B950E9022351E9026782FA4CF5EF
:1024600082EA0604A4FA8CF483FA4CF583EA0705A1
:10247000A5FA8CF52543DBD09CB92DBAB5FA85F4C5
:1024800024F0070427FA04F1DDE9026723FA04F3D4
:1024900003F0FF0001F0FF01FDE80445A0EB01009F
:1024A000704724BAB4FA84F424F0070426FA04F13D
:1024B000DDE9026722FA04F202F0FF0001F0FF01F9
:1024C000FDE80445A0EB0100704714F0030F3CD178
:1024D00010F0030428D150F8082B51F8083B82FA79
:1024E0004CF582EA0305A5FA8CF55DB950F8042C89
:1024F00051F8043C82FA4CF582EA0305A5FA8CF502
:10250000002DE8D02DBAB5FA85F424F0070423FA9B
:1025100004F122FA04F202F0FF0001F0FF01FDE8ED
:102520000445A0EB010070474FEAC40420F003000B
:1025300050F8082B21F0030151F8083B0CFA04F481
:1025400062EA040263EA0403C9E710F003041AD044
:10255000A1EB040120F00300E40750F8042B06D09F
:102560000FD28B785FFAA2F4E41A06D12BB1CB78A4
:102570005FFAB2F4E41A00D11BB920465DF8104BA3
:10258000704701F1040150F8042BCC0721F003013E
:1025900051F8043B48D824D222F07F4482FA4CF50B
:1025A00094EA1325A5FA8CF50AD165B951F8043BD4
:1025B00084EA0204B4EB036F0ED150F8042BEBE76E
:1025C0004FEA132355E035F07F454DD10878FDE8FB
:1025D0000445C0F1000070474FEA126203F0FF03A8
:1025E00047E002EA1C4482FA4CF594EA1345A5FA46
:1025F0008CF50AD165B951F8043B84EA0204B4EBC6
:10260000034F0CD150F8042BEBE74FEA134330E0B3
:1026100015EA1C4528D10B884FEA124229E04FEAFF
:10262000124203EA1C4324E002F0FF0482FA4CF554
:1026300094EA1365A5FA8CF50AD165B951F8043B03
:1026400084EA0204B4EB032F09D150F8042BEBE722
:102650004FEA13630DE015F0FF0F05D10B684FEA49
:10266000122223F07F4304E04FF00000FDE8044510
:10267000704712BA1BBA82FA4CF482EA0304A4FA35
:102680008CF5B5FA85F402FA04F203FA04F34FEA82
:102690001260FDE80445A0EB1360704700000000E5
:1026A000000000000000000000000000000000002A
:1026B000000000000000000000000000000000001A
:1026C00090F800F06DE9024520F007016FF0000C72
:1026D00010F0070491F820F040F049804FF000041A
:1026E0006FF00700D1E9002391F840F000F10800F5
:1026F00082FA4CF2A4FA8CF283FA4CF3A2FA8CF32D
:102700004BBBD1E9022382FA4CF200F10800A4FA93
:102710008CF283FA4CF3A2FA8CF3E3B9D1E90423E7
:1027200082FA4CF200F10800A4FA8CF283FA4CF31E
:10273000A2FA8CF37BB9D1E9062301F1200182FAD8
:102740004CF200F10800A4FA8CF283FA4CF3A2FADE
:102750008CF3002BC6D0002A04BF04301A4612BAEC
:10276000B2FA82F2FDE8024500EBD2007047D1E9EF
:10277000002304F00305C4F100004FEAC50514F07E
:10278000040F91F840F00CFA05F562EA05021CBF4F
:1027900063EA050362464FF00004A9E770B4184CE1
:1027A0002568D5F848411CB365681F2D25DC38B96C
:1027B000AB1C0135656044F82310002070BC7047E5
:1027C00004EB850C0228CCF88820D4F888614FF0FF
:1027D000010202FA05F246EA0206C4F88861CCF862
:1027E0000831E5D1D4F88C311343C4F88C31DFE7DC
:1027F00005F5A674C5F84841D6E74FF0FF30DDE790
:102800008C6B0008F8B5244F0C460646FFF766FCB3
:10281000BA685568C4F57E630F3325F003052B4471
:1028200023F47F6323F00F03A3F58054B4F5805F96
:1028300007DB00213046FFF755FCBB682B4498426C
:1028400004D03046FFF74CFC0020F8BD6142304612
:10285000FFF748FC01300DD0104ABB682D1B45F036
:1028600001055D60136830461B1B1360FFF738FCE1
:102870000120F8BD00213046FFF734FCBA68831A06
:102880000F2BDEDD43F001035360054B03491B684A
:10289000C01A0860D5E700BF380400209C0800205B
:1028A00040080020002961D0F8B50C460646FFF725
:1028B00015FC54F8042C7B4FA4F1080522F001010B
:1028C00005EB010CB868DCF80430604523F0030325
:1028D00000F08B80D207CCF8043032D454F8082CA6
:1028E000AD1A1144AA6807F1080082426AD00CEBC5
:1028F0000304D4F804E0EC68D4601EF0010FA26079
:1029000000F0978041F001036B60CCF80010B1F546
:10291000007F35D27A68CB08480901210133814014
:102920001143796007EBC30257F83310083AC5E941
:10293000021247F83350CD603046BDE8F840FFF74B
:10294000CFBB0CEB03025268D00710D4194407F137
:102950000800DCF80830834273D0DCF80C20DA6021
:10296000936041F001036B606950D0E7704741F01C
:102970000103B1F5007F44F8043CCCF80010C9D342
:10298000B1F5206F4FEA512348D28B0903F139008A
:1029900003F13802C300F818FB580838984259D0A0
:1029A0005A6822F003028A4202D99B689842F7D102
:1029B000D868C5E902308560DD603046BDE8F84082
:1029C000FFF78EBB0CEB03025268D20763D40B44B3
:1029D000DCE90212CA60916043F001026A6030468D
:1029E000EB50BDE8F840FFF77BBB0B44D10707D4A1
:1029F00054F8082CAD1A1344D5E90212CA6091604C
:102A000043F001026A60284ABD6012689A4293D876
:102A1000264B30461968FFF7F5FE8DE7142B0AD9CF
:102A2000542B1FD80B0B03F16F0003F16E02C30090
:102A3000B1E719448DE703F15C0003F15B02C300C9
:102A4000A9E741F00103C7E90455C5E902006B603D
:102A5000695071E779689210012404FA02F20A437E
:102A60007A60A6E7B3F5AA7F06D8CB0B03F178000E
:102A700003F17702C3008EE740F25452934206D826
:102A80008B0C03F17D0003F17C02C30083E74FF45C
:102A90007E737E227FE741F001036B60CCF800106B
:102AA0004AE700BF380400204408002098080020AE
:102AB00000B585B00023009301930293039315485A
:102AC000154A02604FF480324260836003610376EE
:102AD00080F82030C362114A8262C3600122C26161
:102AE00080F83030426100F06BFF60B90023009342
:102AF0000122019202936946064801F015F828B9AF
:102B000005B05DF804FB00F0B5F8EFE700F0B2F8AF
:102B1000F6E700BFD0080020002001400100000FB0
:102B200000B589B00023039304930593069307939C
:102B3000026803F1804303F590339A4202D009B052
:102B40005DF804FB0021019103F58C335A6C42F4CB
:102B500080725A645A6C02F480720192019A029156
:102B60001A6B42F001021A631B6B03F0010302931C
:102B7000029B012303930323049303A9014801F05B
:102B8000D1FADCE70000024010B582B000240194C5
:102B90000D4B1A6B42F400121A631B6B03F4001303
:102BA0000193019B22462146102001F0A5F8102038
:102BB00001F0DAF822462146112001F09DF811209B
:102BC00001F0D2F802B010BD0038024030B58BB031
:102BD0000024059406940794089409940194224BC8
:102BE0001A6B42F004021A631A6B02F0040201929B
:102BF000019A02941A6B42F080021A631A6B02F077
:102C000080020292029A03941A6B42F001021A6344
:102C10001A6B02F001020392039A04941A6B42F0B9
:102C200002021A631B6B03F002030493049B0F4D13
:102C300022462021284601F055FB4FF4005305930E
:102C40004FF404130693079405A9094801F06AFAA2
:102C500020230593012306930794089405A9284689
:102C600001F060FA0BB030BD0038024000000240B5
:102C70000008024072B6FEE700B595B03022002190
:102C800008A8FFF7D9F9002303930493059306934B
:102C9000079301931E4A116C41F080511164126C2C
:102CA00002F080520192019A02931A4A116841F48B
:102CB00040411160126802F440420292029A0222DC
:102CC000089201210B9110210C910E920F93082371
:102CD00010936423119312920423139308A801F014
:102CE00007FB88B90F230393022304930023059362
:102CF0004FF4805206920793032103A801F05EFD72
:102D000020B915B05DF804FBFFF7B4FFFFF7B2FF81
:102D1000003802400070004008B500F077FDFFF772
:102D2000ABFFFFF753FFFFF72FFF00F091FC00F020
:102D30001BFCFFF7BDFE00F0C3FA034801F0C6FE1E
:102D400000F012FBFCE700BF34090020012800D08E
:102D5000704708B54FF6FF73994200D008BD06488A
:102D600000F108030360002343600372034A04492F
:102D700002F0D4FBF2E700BF180900200000002099
:102D8000D160000802680C4B1B689A4200D0704763
:102D900010B50A4C204600F03FFE204600F0C0FE71
:102DA000642303FB00F0002803DB0013044BD8600E
:102DB00010BD00F6FF70F8E734090020D0080020AD
:102DC0004808002010B5013919E0154BA3FB023C5F
:102DD0004FEA5C13642404FB13234FEA430E4FEACB
:102DE0005C120EF1010C0F4C14F80CC000F801C07D
:102DF00001F1FF3C14F8133000F80C300239632A5B
:102E0000E3D8092A08D9530001330649CB5C437043
:102E100011F81230037010BD30320270FBE700BFB2
:102E20001F85EB511C6C000884B02DE9F04395B070
:102E300006461DA880E80E00219D209C641B23945B
:102E4000229F274422972046FDF76CFB1D99FDF732
:102E5000FBF981463846FDF765FB1E99FDF7F4F94D
:102E600001464846FDF7AAFA07462498FDF75AFBA3
:102E70001F99FDF7E9F901463846FDF79FFAFDF77E
:102E8000A5FB054421952494EF0F002D12DB2B4662
:102E90000124092B11D9632B0ED9B3F57A7F24D3E2
:102EA00042F20F72934222D9644AA2FB03235B0BC6
:102EB0000434EEE76D42EAE7013410AB0E932D22A5
:102EC00039190EA803F086F82A4621460E98384490
:102ED000FFF778FF0F9A02B1002236230093584B78
:102EE00000210EA803F000F903E00234E5E7033403
:102EF000E3E704460AAB0893054655F8083BAB42A6
:102F000018D0089383680A936368099325600023A7
:102F100063602372099BC3F17F5303F57F1303F5AD
:102F20007F533F33012B0CD90222464908A803F0F6
:102F3000A1F911E00AAF80686968AA68EB680FC759
:102F4000E2E7414803F002F808A803F03BF80EA8B6
:102F500003F038F802F0EAFA044604AB029305469F
:102F600055F8083BAB4249D00293836804936368E9
:102F700003932560002363602372344B1868029921
:102F800004AB994241D0324B984251D0083BD3F820
:102F900008802E4B1960039A5A60049A9A600028A0
:102FA00048D00290CDF8108000230393029A13704A
:102FB000029804AB984203D00499013102F0B4FAAC
:102FC00008980AAB984203D00A99013102F0ACFA92
:102FD0000E9810AB984203D01099013102F0A4FA78
:102FE00034461DAD0FCD0FC495E80F0084E80F00E7
:102FF000304615B0BDE8F04304B0704704AF8068B8
:103000006968AA68EB680FC7B1E7039A32B9039BF6
:103010000E4A536012680021D154C5E7012A04D03A
:10302000002AF4D0FEF7F2FEF1E70B780370EEE72A
:103030000020AEE704AB0293B6E788E75917B7D193
:10304000906B0008E06B0008C86B000818090020AE
:103050002009002084B0F0B59BB020AC84E80F00BC
:103060001F46DE0F002B12DB3B460124092B11D932
:10307000632B0ED9B3F57A7F24D342F20F718B42C2
:1030800022D98749A1FB03235B0B0434EEE75F429F
:10309000EAE701340AAB08932D22311908A802F09F
:1030A00099FF3A46214608983044FFF78BFE099A6B
:1030B00002B10022112300937A4B002108A803F0EB
:1030C00013F803E00234E5E70334E3E7044604AB16
:1030D0000293064656F8083BB34248D002938368F1
:1030E00004936368039326600023636023726E4B2E
:1030F0001868029904AB994240D06C4B984250D06A
:10310000083B9D68684B1960039A5A60049A9A605C
:10311000002848D00290049500230393029A13706C
:10312000029804AB984203D00499013102F0FCF9F3
:1031300008980AAB984203D00A99013102F0F4F9D9
:10314000249DEE0F002D31DB2B460124092B30D9B5
:10315000632B2DD9B3F57A7F43D342F20F718B42A3
:1031600041D94F49A1FB03235B0B0434EEE704AFC5
:1031700080687168B268F3680FC7B2E7039A32B922
:10318000039B494A536012680021D154C4E7012AC5
:1031900004D0002AF4D0FEF739FEF1E70B78037073
:1031A000EEE70020AEE704AB0293B5E76D42CBE754
:1031B000013416AB14932D22311914A802F00AFF22
:1031C0002A46214614983044FFF7FCFD159A02B1B7
:1031D000002212230093364B002114A802F084FF32
:1031E00003E00234E5E70334E3E7044610AB0E9353
:1031F000054655F8083BAB420ED00E9383681093FA
:1032000063680F9325600023636023720F9A0E9901
:10321000254803F02FF806E010AE80686968AA68B8
:10322000EB680FC6ECE70E9810AB984203D01099EC
:10323000013102F079F9149816AB984203D016992F
:10324000013102F071F9184B5B68C3F17F5303F54C
:103250007F1303F57F533F33012B10D9124C022209
:103260001449204603F006F8FF23A288216812487B
:1032700002F0E7F81BB0BDE8F04004B070470F481B
:1032800002F064FE08A802F09DFE02F04FF90EA8BD
:1032900002F098FE14A802F095FE02F047F9F9E753
:1032A0005917B7D1E46B0008180900202009002045
:1032B000F86B0008E06B00083C0A0020C86B0008AF
:1032C00030B585B0214C0C230093214B626800215E
:1032D000204602F009FF1F4D01222021284601F05F
:1032E00001F84FF4FA7000F0BDFA002220212846C0
:1032F00000F0F8FF01222021284600F0F3FF4FF4F0
:10330000FA7000F0AFFA00222021284600F0EAFF10
:103310000021114801F0B8FE104D05F110030FCB4C
:103320008DE80F0095E80F00FFF794FE0A23A288AE
:1033300021680B4802F085F800210091094B626872
:10334000204602F0D1FE05B030BD00BF18090020B4
:103350000C6C0008000002403409002048080020DE
:103360003C0A0020186C000830B58FB0144D6C4634
:1033700005F10C0CBCE80F000FC4DCF80030236032
:1033800095E80E0006A8FFF74FFD2C460DF1180C2E
:10339000BCE80F000FC49CE80F0084E80F00642015
:1033A00000F060FA074B1B682A695A6394E80F0023
:1033B0008DE80F0095E80F00FFF74CFE0FB030BD11
:1033C000480800203409002008B54FF6FF7101209D
:1033D000FFF7BCFC08BD000000B583B000210091E0
:1033E0000C4B5A6C42F480425A645A6C02F480428C
:1033F0000092009A01911A6C42F080521A641B6C80
:1034000003F080530193019B072000F063FC03B09D
:103410005DF804FB00380240FEE7FEE7FEE7FEE74A
:10342000FEE770477047704708B500F009FA08BD1D
:1034300008B5024800F088FD08BD00BF7C090020E7
:1034400008B5024800F080FD08BD00BFDC0900207F
:1034500008B5024801F07BFB08BD00BF340900201D
:103460000120704708B5FEF7D7F9162303604FF027
:10347000FF3008BD08B54FF0FF31FFF7F3FFFEE75F
:1034800010B503460C4A0D490D48006840B10C4880
:1034900000680344521A934206D8094A136010BDCB
:1034A0000748084C0460F2E7FEF7B6F90C23036006
:1034B0004FF0FF30F3E700BF0000022000040000DF
:1034C00030090020B80A00207047000002680E4B47
:1034D0009A4200D0704700B583B00021019103F5F6
:1034E0009C335A6C42F001025A645B6C03F0010396
:1034F0000193019B0A46192000F0FEFB192000F001
:1035000033FC03B05DF804FB0000014000B587B058
:1035100000230193029303930493059302680F4BD6
:103520009A4202D007B05DF804FB002300930C4BD5
:103530001A6B42F001021A631B6B03F00103009344
:10354000009B4FF4807301930223029301230593A0
:1035500001A9044800F0E6FDE4E700BF00000140D7
:10356000003802400000024010B596B000241294CA
:103570001394149415941094119409940A940B9430
:103580000C940D940E940F942022214601A8FEF76E
:1035900053FD2D482D4B036040F2CF734360846090
:1035A00040F2E733C36004614461846101F0DAFBF7
:1035B000002837D14FF48053129312A9224801F00A
:1035C000D5FC002831D1204801F0F8FB00282FD18C
:1035D00000231093119310A91B4801F0CDFD50BB9F
:1035E0006023099300220A920B920C920D920E9284
:1035F0000F9209A9144801F03FFCF8B90023019388
:1036000002930393049305934FF400520692089398
:1036100001A90D4801F0EEFD98B90B48FFF776FFC0
:1036200016B010BDFFF726FBC4E7FFF723FBCAE780
:10363000FFF720FBCCE7FFF71DFBD1E7FFF71AFBF5
:10364000DCE7FFF717FBE8E7340900200000014042
:1036500008B50A480A4B03604FF4E1334360002386
:103660008360C36003610C2242618361C36101F026
:10367000B9FE00B908BDFFF7FDFAFBE73C0A0020E0
:103680000044004030B589B00023039304930593B0
:103690000693079302682F4B9A4201D009B030BDC0
:1036A00004460025019503F5FA331A6C42F4003202
:1036B0001A641A6C02F400320192019A02951A6B94
:1036C00042F001021A631B6B03F001030293029B99
:1036D0000C230393022304930323069307230793E6
:1036E00003A91D4800F01EFD1C481D4B03604FF050
:1036F000006343608560C5604FF48063036145618A
:103700008561C5610562456200F0B8FBD8B9134B0D
:10371000A3639C631348144B03604FF00063436042
:10372000402383600023C3604FF4806202614361E1
:103730008361C3610362436200F0A0FB30B9094BAF
:1037400063639C63AAE7FFF795FAE0E7FFF792FA55
:10375000F5E700BF00440040000002407C09002063
:1037600088600240DC090020A0600240DFF834D00D
:103770000D480E490E4A002302E0D458C4500433C9
:10378000C4188C42F9D30B4A0B4C002301E01360A0
:103790000432A242FBD3FFF797FEFEF759F8FFF77A
:1037A000BBFA704700000220000000207C080020C7
:1037B000387300087C080020B40A0020FEE70000EF
:1037C00010B504460E4B18784FF47A73B3FBF0F340
:1037D0000C4A1068B0FBF3F000F0D4FA68B90F2C73
:1037E00001D901200AE0002221464FF0FF3000F00D
:1037F00083FA054B1C60002000E0012010BD00BFD3
:103800006C080020680800207008002008B50B4BE9
:103810001A6842F400721A601A6842F480621A60F0
:103820001A6842F480721A60032000F053FA0020F4
:10383000FFF7C6FFFFF7D0FD002008BD003C0240A7
:10384000034A1168034B1B780B441360704700BF99
:10385000800A00206C080020014B1868704700BFE8
:10386000800A002038B50446FFF7F6FF0546B4F19C
:10387000FF3F02D0044B1B781C44FFF7EDFF401BB9
:10388000A042FAD338BD00BF6C0800204A4B5A68EA
:1038900022F440325A605A6841680A435A6002680A
:1038A000536823F48073536002685368016943EAE4
:1038B000012353600268536823F040735360026829
:1038C000536881680B4353600268936823F4006374
:1038D000936002689368C1680B439360826A374BB8
:1038E0009A4257D00268936823F07063936002682D
:1038F0009368816A0B4393600268936823F0405396
:10390000936002689368C16A0B439360026893688E
:1039100023F00203936002689368017E43EA410347
:10392000936090F82030002B3FD00268536843F436
:10393000006353600268536823F460435360016876
:103940004B68426A013A43EA42334B600268D36AE9
:1039500023F47003D3620168CB6AC269013A43EA77
:103960000253CB620268936823F400739360026889
:10397000936890F8301043EA41239360026893689B
:1039800023F48063936002689368416943EA81236A
:10399000936070470268936823F0706393600268D5
:1039A000936823F040539360B0E70268536823F4B0
:1039B00000635360CAE700BF002301400100000F0D
:1039C00038B310B50446036C43B1236C13F0100FE9
:1039D0000BD00120002384F83C3010BDFFF7A0F885
:1039E0000023636484F83C30EFE7236C23F48853AE
:1039F00023F0020343F0020323642046FFF746FF4F
:103A000000206064236C23F0030343F0010323646C
:103A1000E0E701207047000082B00023019390F896
:103A20003C30012B6ED0012380F83C3003689A684B
:103A300012F0010F13D19A6842F001029A60344BE0
:103A40001B68344AA2FB03239B0C03EB4303019343
:103A500002E0019B013B0193019B002BF9D102681D
:103A6000936813F0010F42D0036C23F4E06323F05A
:103A7000010343F480730364536813F4806F05D02B
:103A8000036C23F4405343F480530364036C13F436
:103A9000805F19D0436C23F006034364002380F851
:103AA0003C306FF0220313601B4B5B6813F01F0F59
:103AB0000DD103689A6812F0405F25D19A6842F0F0
:103AC00080429A6000201BE000234364E6E703681D
:103AD000124A934201D0002012E09A6812F0405F2F
:103AE00014D19A6842F080429A60002008E0036C8A
:103AF00043F010030364436C43F00103436400206C
:103B000002B070470220FBE70020F9E70020F7E74A
:103B10006808002083DE1B43002301400020014091
:103B20000368D86C7047000030B482B00023019362
:103B300090F83C30012B00F0C080012380F83C302D
:103B40000B68092B41D90468E2689BB203EB43037D
:103B50001E3B4FF0070C0CFA03F322EA0303E36069
:103B60000468E2680B8803EB43031E3B8D6805FA8B
:103B700003F31343E3604B68062B3DD80468626B84
:103B800003EB8303053B4FF01F0C0CFA03F322EA0F
:103B9000030363630468626B4B6803EB8303053BB9
:103BA000B1F800C00CFA03F3134363630268444B9B
:103BB0009A4251D00268424B9A425AD0002380F870
:103BC0003C30184602B030BC7047046822699BB292
:103BD00003EB43034FF0070C0CFA03F322EA030351
:103BE0002361046822690B8803EB43038D6805FA9F
:103BF00003F313432361BEE70C2B16D805682A6B29
:103C000003EB8303233B1F2404FA03F322EA030399
:103C10002B6305682A6B4B6803EB8303233B0C88FB
:103C200004FA03F313432B63C0E70568EA6A03EB66
:103C30008303413B1F2404FA03F322EA0303EB62EC
:103C40000568EA6A4B6803EB8303413B0C8804FA7E
:103C500003F31343EB62A9E70B68122BAAD1194BAC
:103C60005A6822F400025A605A6842F480025A608C
:103C7000A0E70B68144A934201D0112B9ED1114B3F
:103C80005A6822F480025A605A6842F400025A606C
:103C90000A680D4B9A4291D10C4B1B680C4AA2FB4F
:103CA00003239B0C03EB83035B000193019B002B1D
:103CB00084D0019B013B0193F8E7022082E700BF1B
:103CC000002001400023014012000010680800207D
:103CD00083DE1B43074AD36823F4E0631B041B0CF9
:103CE000000200F4E060034343F0BF6343F4003399
:103CF000D360704700ED00E000B5194BDB68C3F3FB
:103D00000223C3F1070CBCF1040F28BF4FF0040CD1
:103D100003F1040EBEF1060F18D9033B4FF0FF3E2E
:103D20000EFA0CFC21EA0C0199400EFA03F322EA88
:103D30000303194300280BDB0901C9B200F16040FD
:103D400000F5614080F800135DF804FB0023E5E70F
:103D500000F00F000901C9B2024B1954F4E700BF8B
:103D600000ED00E014ED00E0002807DB00F01F028A
:103D7000400901239340024A42F82030704700BFB7
:103D800000E100E00138B0F1807F0BD24FF0E0237A
:103D90005861054AF02182F823100020986107221B
:103DA0001A6170470120704700ED00E010B403680D
:103DB000D9B210390B4AA2FB014212090A4CA25C8B
:103DC000C2655F2908D923F47F7323F0030304330A
:103DD0008365806D10BC704723F47F7323F0030369
:103DE0008365F6E7ABAAAAAA006D0008836A826918
:103DF00092B9012B0AD0022B02D00BB100207047E0
:103E0000C36A13F0807F28D100207047C36AB3F1E2
:103E1000C07F24D000207047B2F5005F09D0022B8C
:103E200025D9032B25D1C36A13F0807F23D100202D
:103E30007047032B03D8DFE803F01404140A0020B2
:103E40007047C36A13F0807F0DD100207047C36AAA
:103E5000B3F1C07F09D000207047012070470120D6
:103E600070470120704701207047012070470120F2
:103E700070470020704701207047000070B504466D
:103E8000FFF7EAFC002C5BD00546022384F83530AE
:103E9000002384F834302268136823F00103136090
:103EA00023681A6812F0010F0AD0FFF7D5FC431BF4
:103EB000052BF5D920236365032084F8350070BDF8
:103EC0001A68204810406168A2680A43E1680A4302
:103ED00021690A4361690A43A1690A43E1690A4306
:103EE000216A0A430243616A04291ED01A602668C7
:103EF000756925F00705636A1D43042B07D1A36A82
:103F00001D43E36A1BB12046FFF770FF90B975614E
:103F10002046FFF74BFFE26D3F2393408360002074
:103F20006065012384F83530C9E7E16A206B0143FD
:103F30000A43DBE740236365012084F83500BEE7D0
:103F40000120BCE73F8010F0F0B583B004460023A9
:103F50000193724B1D68724BA3FB0535AD0A876D4B
:103F60003E68C26D08239340334210D003681A683C
:103F700012F0040F0BD01A6822F004021A60C26D0E
:103F800008239340BB60436D43F001034365E26D3A
:103F900001239340334209D02268526912F0800F06
:103FA00004D0BB60636D43F002036365E26D0423DC
:103FB0009340334209D02268126812F0020F04D0F5
:103FC000BB60636D43F004036365E26D10239340AF
:103FD000334224D02268126812F0080F1FD0BB6051
:103FE00023681A6812F4802F0DD01B6813F4002F79
:103FF00004D1236C9BB12046984710E0A36C73B1A9
:10400000204698470BE01A6812F4807F03D11A68A3
:1040100022F008021A60236C0BB120469847E26D2B
:1040200020239340334255D02268126812F0100FBB
:1040300050D0BB6094F83530DBB2052B0ED023682E
:104040001A6812F4802F33D01B6813F4002F2AD182
:10405000636C002B3ED0204698473BE022681368F3
:1040600023F0160313602268536923F08003536121
:10407000236CA3B12268136823F008031360E26D78
:104080003F239340BB60012384F83530002384F83C
:104090003430236D002B3FD0204698473CE0A36C82
:1040A000002BE7D1EBE7E36BA3B12046984711E083
:1040B0001A6812F4807F09D11A6822F010021A607F
:1040C000012384F83530002384F83430E36B0BB1DE
:1040D00020469847636DFBB1636D13F0010F17D055
:1040E000052384F835302268136823F00103136038
:1040F000019B01330193AB4204D823681B6813F082
:10410000010FF5D1012384F83530002384F83430D1
:10411000E36C0BB12046984703B0F0BD680800205F
:10412000B5814E1B00230F2B00F2D28070B582B0F8
:1041300060E085685E000324B44025EA0405CC688D
:10414000B4402C438460456825EA02054C68C4F3FA
:1041500000129A402A4342605AE0DC08083450F8C2
:10416000246003F0070295000F22AA4026EA020EFF
:104170000A69AA4042EA0E0240F824205CE00422C8
:1041800000E0002202FA0EF22A430234514D45F8B3
:104190002420514A94686FEA0C0224EA0C054E6808
:1041A00016F4801F01D04CEA04054B4CA560E4686E
:1041B00002EA04054E6816F4001F01D04CEA04051B
:1041C000454CE560646802EA04054E6816F4003F59
:1041D00001D04CEA0405404C6560246822404D68DB
:1041E00015F4803F01D04CEA04023B4C22600133BD
:1041F0000F2B6BD801229A400C6804EA020C32EAB9
:104200000404F4D14C6804F00304013C012C90D95F
:104210004A6802F00302032A09D0C4685D00032241
:10422000AA4024EA02048A68AA402243C2604A687B
:1042300002F00302022A90D004684FEA430E0322E0
:1042400002FA0EF224EA02044A6802F0030202FAB9
:104250000EF2224302604A6812F4403FC7D00022A7
:1042600001921E4A546C44F480445464526C02F42B
:1042700080420192019A9C08A51C164A52F82550CA
:1042800003F003024FEA820E0F2202FA0EF225EA31
:104290000205134A90423FF474AF02F580629042E7
:1042A0000ED002F5806290420CD002F580629042FE
:1042B0000AD002F5806290423FF461AF072261E7C5
:1042C00001225FE702225DE703225BE702B070BDD7
:1042D000704700BF00380140003C014000380240F8
:1042E000000002400AB18161704709048161704792
:1042F000002800F0E08170B582B00446036813F036
:10430000010F3BD09F4B9B6803F00C03042B2CD078
:104310009C4B9B6803F00C03082B21D06368B3F51A
:10432000803F4FD0B3F5A02F52D0964B1A6822F49D
:1043300080321A601A6822F480221A606368002BA7
:1043400050D0FFF789FA05468E4B1B6813F4003FE7
:1043500014D1FFF781FA401B6428F5D90320B1E19D
:10436000884B5B6813F4800FD8D0864B1B6813F41E
:10437000003F03D06368002B00F09F81236813F097
:10438000020F54D07F4B9B6813F00C0F3ED07D4B37
:104390009B6803F00C03082B33D0E368002B68D034
:1043A000794B01221A60FFF757FA0546754B1B68D7
:1043B00013F0020F54D1FFF74FFA401B0228F5D932
:1043C00003207FE16F4A136843F480331360B5E73D
:1043D0006C4B1A6842F480221A601A6842F48032E8
:1043E0001A60ABE7FFF738FA0546664B1B6813F413
:1043F000003FC3D0FFF730FA401B6428F5D90320F3
:1044000060E1604B5B6813F4800FC6D15D4B1B68A5
:1044100013F0020F03D0E368012B40F05081594A9A
:10442000136823F0F803216943EAC103136023688A
:1044300013F0080F42D063696BB3534B0122C3F8EA
:10444000802EFFF709FA05464E4B5B6F13F0020F03
:1044500034D1FFF701FA401B0228F5D9032031E1DE
:10446000484A136823F0F803216943EAC103136043
:10447000DDE7454B00221A60FFF7EEF90546414B98
:104480001B6813F0020FD2D0FFF7E6F9401B022899
:10449000F5D9032016E13C4B0022C3F8802EFFF72C
:1044A000DBF90546374B5B6F13F0020F06D0FFF7C1
:1044B000D3F9401B0228F5D9032003E1236813F048
:1044C000040F77D02F4B1B6C13F0805F33D1002388
:1044D00001932C4B1A6C42F080521A641B6C03F04F
:1044E00080530193019B0125284B1B6813F4807FA7
:1044F00023D0A368012B34D0052B38D0214B1A6F61
:1045000022F001021A671A6F22F004021A67A368E8
:10451000002B3DD0FFF7A0F906461A4B1B6F13F096
:10452000020F46D1FFF798F9801B41F28833984279
:10453000F3D90320C6E00025D6E7144A136843F4F4
:1045400080731360FFF788F90646104B1B6813F45D
:10455000807FCED1FFF780F9801B0228F5D9032098
:10456000B0E0084A136F43F001031367CFE7054B30
:104570001A6F42F004021A671A6F42F001021A67BA
:10458000C5E700BF0038024000004742007000400D
:10459000FFF762F90646524B1B6F13F0020F08D06B
:1045A000FFF75AF9801B41F288339842F3D9032070
:1045B00088E0EDB9A369002B00F08380484A926837
:1045C00002F00C02082A51D0022B17D0454B0022D2
:1045D0001A66FFF741F90446414B1B6813F0007F50
:1045E00042D0FFF739F9001B0228F5D9032069E012
:1045F0003B4A136C23F080531364DBE7394B0022F2
:104600001A66FFF729F90546354B1B6813F0007F42
:1046100006D0FFF721F9401B0228F5D9032051E00D
:10462000E369226A1343626A43EA8213A26A520868
:10463000013A43EA0243E26A43EA0263284A5360CA
:10464000284B01221A66FFF707F90446244B1B6822
:1046500013F0007F06D1FFF7FFF8001B0228F5D901
:1046600003202FE000202DE000202BE0012B2BD099
:104670001B4B5B6803F48001E269914226D103F091
:104680003F02216A8A4223D1616A47F6C0721A400A
:10469000B2EB811F1ED103F44031A26A5208013AE5
:1046A000B1EB024F18D103F07063E26AB3EB026F13
:1046B00014D1002006E001207047012002E0012013
:1046C00000E0002002B070BD0120FBE70120F9E707
:1046D0000120F7E70120F5E70120F3E70120F1E7EA
:1046E000003802400000474208B5314B9B6803F098
:1046F0000C03042B57D0082B57D12D4B5A6802F0CE
:104700003F025B6813F4800F2AD0294B5968C1F32C
:10471000881C4FEA4C11B1EB0C006EEB0E0E4FEA09
:104720008E1343EA90638101091A63EB0E03DB00E9
:1047300043EA5173C90011EB0C0C43F10003590219
:1047400000234FEA4C2041EADC51FBF765FF184B90
:104750005B68C3F3014301335B00B0FBF3F025E07A
:10476000134B5968C1F3881C4FEA4C11B1EB0C0094
:104770006EEB0E0E4FEA8E1343EA90638101091A25
:1047800063EB0E03DB0043EA5173C90011EB0C0C21
:1047900043F10003990200234FEA8C2041EA9C5127
:1047A000FBF73AFFD3E7034800E0034808BD00BF2A
:1047B0000038024000127A000024F400002800F0C3
:1047C0009B8070B50D4604464F4B1B6803F00703F2
:1047D0008B4208D2CBB24C4A1370136803F0070324
:1047E0008B4240F08B80236813F0020F17D013F038
:1047F000040F04D0454A936843F4E0539360236860
:1048000013F0080F04D0414A936843F46043936067
:104810003E4A936823F0F003A1680B43936023683A
:1048200013F0010F32D06368012B21D09A1E012AA8
:1048300025D9364A126812F0020F61D033498A68CE
:1048400022F0030213438B60FFF706F806462F4B56
:104850009B6803F00C036268B3EB820F16D0FEF77F
:10486000FBFF801B41F288339842F0D9032042E0DD
:10487000264A126812F4003FE0D101203BE0234AAF
:10488000126812F0007FD9D1012034E01E4B1B6862
:1048900003F00703AB4207D9EAB21B4B1A701B683F
:1048A00003F00703AB422DD1236813F0040F06D0A9
:1048B000164A936823F4E053E1680B43936023683E
:1048C00013F0080F07D0114A936823F4604321695D
:1048D00043EAC1039360FFF707FF0C4B9B68C3F3E8
:1048E00003130B4AD35CD8400A4B18600A4B186874
:1048F000FEF766FF002070BD012070470120FAE737
:104900000120F8E70120F6E7003C024000380240B1
:10491000E86C00086808002070080020014B186847
:10492000704700BF6808002008B5FFF7F7FF044B89
:104930009B68C3F38223034AD35CD84008BD00BF01
:1049400000380240F86C000808B5FFF7E7FF044B99
:104950009B68C3F34233034AD35CD84008BD00BF11
:1049600000380240F86C000870B4036A23F00103B9
:104970000362036A4668826922F073020C6844EAA3
:10498000020523F002028B6813430D4CA04209D0AC
:104990000B4CA0420DD0466085614A6842630362B9
:1049A00070BC704723F00803CA68134323F0040364
:1049B000EEE726F440764A6932438E691643EAE709
:1049C0000000014030B4036A23F480730362036A79
:1049D0004568C26922F073020C68224323F4007315
:1049E0008C6843EA04230F4CA04209D00D4CA0422E
:1049F0000ED04560C2614A68C263036230BC704732
:104A000023F40063CC6843EA042323F48063EDE7D6
:104A100025F440554C6945EA04158C6945EA0415AE
:104A2000E7E700BF0000014030B4036A23F480537D
:104A30000362036A4468C26922F4E6420D6842EAEE
:104A4000052223F400538D6843EA0533074DA8423D
:104A500006D04460C2614A680264036230BC704799
:104A600024F480444D6944EA8514F2E700000140D3
:104A700010B4036A046A24F001040462846924F017
:104A8000F00C4CEA021223F00A030B43826103622A
:104A900010BC704710B4046A24F0100404628469E6
:104AA000036A24F4704C4CEA023223F0A00343EA78
:104AB00001138261036210BC7047836823F07003A6
:104AC0000B4343F0070383607047000090F83D30CC
:104AD000DBB2012B2FD1022380F83D300268D3686E
:104AE00043F00103D3600368154A934218D0B3F131
:104AF000804F15D0A2F57C42934211D002F580621E
:104B000093420DD002F58062934209D002F59A32A9
:104B1000934205D01A6842F001021A6000207047E3
:104B20009A6802F00702062A07D01A6842F00102CA
:104B30001A6000207047012070470020704700BFB6
:104B4000000001407047704770477047704710B5CC
:104B5000044603681A6912F0020F11D0DA6812F0E5
:104B6000020F0DD06FF002021A6101230377036870
:104B70009B6913F0030F70D0FFF7E6FF0023237744
:104B800023681A6912F0040F12D0DA6812F0040FC9
:104B90000ED06FF004021A610223237723689B6909
:104BA00013F4407F5FD02046FFF7CEFF002323772A
:104BB00023681A6912F0080F12D0DA6812F0080F91
:104BC0000ED06FF008021A61042323772368DB6993
:104BD00013F0030F4ED02046FFF7B6FF00232377D4
:104BE00023681A6912F0100F12D0DA6812F0100F51
:104BF0000ED06FF010021A61082323772368DB6957
:104C000013F4407F3DD02046FFF79EFF002323771B
:104C100023681A6912F0010F03D0DA6812F0010F4D
:104C200036D123681A6912F0800F03D0DA6812F0C7
:104C3000800F34D123681A6912F0400F03D0DA686C
:104C400012F0400F32D123681A6912F0200F03D0FE
:104C5000DA6812F0200F30D110BDFFF774FF204644
:104C6000FFF773FF8AE72046FFF76DFF2046FFF747
:104C70006CFF9BE72046FFF766FF2046FFF765FFC6
:104C8000ACE72046FFF75FFF2046FFF75EFFBDE77A
:104C90006FF001021A612046FEF774F8C1E76FF069
:104CA00080021A61204600F0CFFAC3E76FF040029D
:104CB0001A612046FFF74AFFC5E76FF020021A612C
:104CC000204600F0C0FAC7E70368254A90420ED09C
:104CD000B0F1804F0BD0A2F57C42904207D002F594
:104CE0008062904203D002F58062904203D123F0AB
:104CF00070034A6813431A4A90421AD0B0F1804FA9
:104D000017D0A2F57C42904213D002F58062904207
:104D10000FD002F5806290420BD002F59A32904299
:104D200007D002F58062904203D002F58062904283
:104D300003D123F44073CA68134323F080034A6904
:104D4000134303608B68C3620B688362044B984211
:104D500002D00123436170470B690363F9E700BF89
:104D60000000014040B310B5044690F83D30F3B167
:104D7000022384F83D30214651F8040BFFF7A4FFCD
:104D8000012384F8463084F83E3084F83F3084F8BC
:104D9000403084F8413084F8423084F8433084F85D
:104DA000443084F8453084F83D30002010BD80F850
:104DB0003C30FEF78BFBDBE70120704740B310B5BA
:104DC000044690F83D30F3B1022384F83D3021468B
:104DD00051F8040BFFF778FF012384F8463084F87C
:104DE0003E3084F83F3084F8403084F8413084F815
:104DF000423084F8433084F8443084F8453084F8F5
:104E00003D30002010BD80F83C30FFF79BFEDBE713
:104E10000120704730B4036A23F010030362036A71
:104E20004468826922F4E6420D6842EA052223F0D2
:104E300020038D6843EA05130E4DA84209D00D4D9D
:104E4000A8420ED0446082614A688263036230BC2B
:104E5000704723F08003CD6843EA051323F0400335
:104E6000EDE724F440644D6944EA85048D6944EA21
:104E70008504E7E70000014038B590F83C30012B8D
:104E800066D004460D46012380F83C300C2A5AD8DF
:104E9000DFE802F0075959591B59595930595959E6
:104EA00044000068FFF760FD2268936943F008033F
:104EB00093612268936923F00403936122689369E4
:104EC00029690B43936100203EE00068FFF7A2FFD1
:104ED0002268936943F4006393612268936923F421
:104EE0008063936122689369296943EA012393618E
:104EF000002029E00068FFF765FD2268D36943F0D0
:104F00000803D3612268D36923F00403D3612268C4
:104F1000D36929690B43D361002015E00068FFF7CE
:104F200083FD2268D36943F40063D3612268D369A7
:104F300023F48063D3612268D369296943EA01239A
:104F4000D361002000E00120002384F83C3038BD0C
:104F50000220FCE710B4846824F47F4C42EA032268
:104F60000A4342EA0C02826010BC704790F83C3061
:104F7000012B78D010B50446012380F83C30022381
:104F800080F83D300268936823F47F4323F0770371
:104F900093600B68602B4CD029D8402B54D00CD98F
:104FA000502B22D1CA6849680068FFF761FD502183
:104FB0002068FFF782FD002005E0202B0DD009D9E5
:104FC000302B0AD00120012384F83D30002384F8DF
:104FD0003C3010BD0BB1102B05D119462068FFF7EE
:104FE0006CFD0020EFE70120EDE70120EBE7B3F5D2
:104FF000805F34D0B3F5005F0CD1CB684A68896814
:105000000068FFF7A7FF2268936843F4804393602A
:105010000020D8E7702B24D1CB684A6889680068E3
:10502000FFF798FF2268936843F0770393600020AE
:10503000C9E7CA6849680068FFF72CFD602120684D
:10504000FFF73BFD0020BEE7CA6849680068FFF72C
:105050000FFD40212068FFF730FD0020B3E700205E
:10506000B1E70120AFE70220704701F01F010123E3
:1050700003FA01FC036A23EA0C030362036A02FADF
:1050800001F10B430362704710B50446084600293E
:1050900032D194F83E30DBB2013B18BF0123002B24
:1050A00063D1002841D1022384F83E300122014619
:1050B0002068FFF7DAFF23682E4A934245D0236821
:1050C0002C4A934246D0B3F1804F43D0A2F57C42A4
:1050D00093423FD002F5806293423BD002F580625A
:1050E000934237D002F59A32934233D01A6842F095
:1050F00001021A60002037E0042908D008290DD0E9
:1051000094F84130DBB2013B18BF0123C7E794F8A4
:105110003F30DBB2013B18BF0123C0E794F84030B9
:10512000DBB2013B18BF0123B9E7042805D00828EA
:1051300007D0022384F84130B8E7022384F83F30D7
:10514000B4E7022384F84030B0E75A6C42F40042DE
:105150005A64B4E79A6802F00702062A07D01A6870
:1051600042F001021A60002010BD0120FCE700207F
:10517000FAE700BF0000014090F83C30012B34D02A
:1051800010B4012380F83C30022380F83D300368DE
:105190005A689C6822F0700C0A6842EA0C025A6055
:1051A0000368134A934212D0B3F1804F0FD0A2F597
:1051B0007C4293420BD002F58062934207D002F505
:1051C0008062934203D002F59A32934204D124F0D4
:1051D00080044A6814439C60012380F83D3000231A
:1051E00080F83C30184610BC70470220704700BF62
:1051F0000000014090F83C30012B22D0012380F8C0
:105200003C30CB6823F440738A68134323F48063F3
:105210004A68134323F400630A68134323F480535A
:105220000A69134323F400534A69134323F4804368
:10523000CA69134302685364002380F83C3018465F
:1052400070470220704770477047000038B5044629
:105250000268136923F44053C1680B4313618368E8
:105260000269134342691343C2691A430168CB6858
:1052700023F4164323F00C031343CB6002685369F5
:1052800023F4407381690B4353610368314A9342AD
:1052900006D002F58062934202D0FFF745FB01E0A1
:1052A000FFF752FBE369B3F5004F29D00021031843
:1052B00049411B1841F10001C90041EA5371DB006B
:1052C000181863684FEA83024FEA937341F10001B3
:1052D000FBF7A2F9204DA5FB00325109642303FB23
:1052E00011031B013233A5FB03235B0903F0F0021A
:1052F00002EB011203F00F03216813448B6038BDE9
:105300000023021843EB0301121841F10001C90008
:1053100041EA5271D200101841F1000162689218FE
:105320005B41FBF779F90C4DA5FB00325109642371
:1053300003FB1103DB003233A5FB03235B095A0097
:1053400002F4F87202EB011203F007032168134420
:105350008B60D4E7001001401F85EB512DE9F84325
:1053600005460F4616469946DDF820802C682468CD
:1053700037EA04030CBF4FF0010C4FF0000CB445AA
:105380002DD1B8F1FF3FF1D0B8F1000F05D0FEF7F5
:1053900063FAA0EB09004045E8D92A6802F10C0342
:1053A00053E8003F23F4D0730C3242E80031002967
:1053B000F3D12A6802F1140353E8003F23F00103FC
:1053C000143242E800310029F3D1202385F83D3022
:1053D00085F83E30002385F83C30032000E00020B3
:1053E000BDE8F88358B310B5044690F83D300BB3D0
:1053F000242384F83D302268D36823F40053D3601B
:105400002046FFF723FF2268136923F490431361BA
:105410002268536923F02A0353612268D36843F456
:105420000053D36000202064202384F83D3084F8AA
:105430003E3010BD80F83C30FEF724F9D8E701205B
:1054400070472DE9F04182B01E4690F83D30DBB246
:10545000202B54D104460D469046002953D0002AF3
:1054600053D090F83C30012B51D0012380F83C30D0
:1054700000230364212380F83D30FEF7EDF9074651
:10548000A4F82480A4F82680A368B3F5805F05D033
:105490004FF00008002384F83C3012E0236913B178
:1054A0004FF00008F6E7A8460025F3E738F8023B7E
:1054B0002268C3F308035360E28C92B2013A92B2BD
:1054C000E284E38C9BB273B100963B4600228021BC
:1054D0002046FFF743FFE0B9002DE7D015F8012B78
:1054E00023685A60E8E700963B46002240212046A8
:1054F000FFF734FF78B9202384F83D3000E0022024
:1055000002B0BDE8F0810120FAE70120F8E70220AF
:10551000F6E70320F4E70320F2E70000034608461D
:105520001946FCF773B900BF00F068BF1EB400F065
:105530008FF81EBCFBF76AFFF0B50278472A83B0EC
:105540000C461D4619D00023264E01933368304681
:105550009B68984778B1019B1B68019302272368D9
:10556000314620461E6901AA0123B04718BB0746F1
:10557000384603B0F0BD0127F1E743784E2BE2D166
:105580008378552BDFD1C378432BDCD10379462BAD
:105590001BD00379432BD6D143792B2BD3D18379DD
:1055A0002B2BD0D1C379012BCDD809D050F8206C4A
:1055B00058300190CAE7019B2B60384603B0F0BD1C
:1055C00050F8200C50F8786CF3E743794F2BE0D17A
:1055D0008379522BDDD1C379002BDAD1024E0193AE
:1055E000B4E700BF246D00081C6D000810B5044628
:1055F00000F07AF8224612F82039472B04D083684D
:1056000023BB8260012010BD63784E2BF7D1A378B5
:10561000552BF4D1E378432BF1D12379432BEED1F1
:1056200063792B2BEBD1A3792B2BE8D1E379012BD9
:10563000E5D854F8043C0133012B44F8043CE1D193
:10564000836844F8083C8260012010BD00F086FBAE
:1056500008B500F049F8836883B393F82020472AFF
:1056600004D00022826003F1200008BD93F82120BD
:105670004E2AF6D193F82220552AF2D193F823200E
:10568000432AEED193F82420432AEAD193F8252027
:105690002B2AE6D193F826202B2AE2D193F8272053
:1056A000012ADED8DA69013ADA61002ADBD1996988
:1056B000816000229A6103F1200008BD00F04EFBDA
:1056C000704700BF704700BF00487047086D000872
:1056D00010B504210446FFF727FF204610BD00BF88
:1056E00000487047840A002000487047840A002060
:1056F000502870B51DD0844600F00F000C2855D8F6
:10570000DFE800F0074426071E545454542A2207A9
:105710001E00104650F8046B4EB10CF07004102CB3
:1057200008BF11460E441CF0800F18BF36681E607B
:1057300070BD033222F0030050F8046B1E6070BD90
:10574000104650F8086BE7E7104630F9026BE3E7C4
:10575000104630F8026BDFE700261046344610F89A
:10576000015B05F07F0E0EFA04FE15F0800F46EA8D
:105770000E0604F10704F2D11F2CCDD86D06CBD54F
:105780004FF0FF3505FA04F42643C6E7002610461D
:10579000344610F8015B05F07F0E0EFA04FE2D066C
:1057A00046EA0E0604F10704F3D4B5E7FCF720F847
:1057B000FF2808B5034619D003F07002302A0846C6
:1057C00016D005D8202A09D1BDE8084001F0C5B996
:1057D000402A09D1BDE80840FBF7F8BF02D813F012
:1057E000600F03D0FCF704F8502AFBD1002008BD5D
:1057F000BDE8084001F0AEB9F8B50C4615460646BE
:1058000008B1FBF7E3FF286014F8017BFF2F29D1D3
:105810006860204610F8013B2B75FF2B33D0102316
:1058200000242B75224610F8011B01F07F039340E2
:10583000090644EA030402F10702F4D40444EC60CC
:1058400010F8013B6B750024224610F8011B01F093
:105850007F0393401C430B0602F10702F5D4044476
:105860002C61F8BD31463846FFF7A2FF22460146BB
:105870002B1D3846FFF73CFF0446204610F8013B3D
:105880002B75FF2BCBD10023EB60D9E72DE9F04F2F
:1058900000F0030493B00023012C089388461746B8
:1058A00013D0022C08D139464046FBF779FF40B9A6
:1058B000082013B0BDE8F08F002C00F09480FBF7B7
:1058C00097FF092013B0BDE8F08F0DF1300A10F0FA
:1058D0000804CDF800A000F09D8044F0020202927E
:1058E0000C910C2219463846FBF700FA3846FBF7B4
:1058F00073FF83460028D6D0524601463846FFF74C
:105900007BFF394605469DF84400FFF751FF0DF136
:105910002C0900230E901946CDF800900F2238462E
:10592000FBF7BEF90B9B23F001035E1E109B9D420B
:1059300037D29DF8454000212046FFF739FF2A461F
:10594000014609AB2046FFF7D3FE9DF845500446BB
:1059500000212846FFF72CFF224601460AAB2846C5
:10596000FFF7C6FE9DF84550044600212846FFF784
:105970001FFF224601464B462846FFF7B9FE00248A
:105980000546224615F8011B01F07F0393401C4396
:105990000B0602F10702F5D40C9B099A1344B3429B
:1059A00019D9029BD80730D5002403940023194647
:1059B000CDF8009038460D22089DFBF771F9039B46
:1059C000C8F830300B9BC8F82CB0C8E90954062041
:1059D000C8F820306DE70A9A1344B3426ED8109B82
:1059E000AB42A6D8DDE702073FF55DAF0123029386
:1059F0000DF1300A0023CDF800A00C2219463846DC
:105A0000CDF83080FBF772F970E7029B1A0752D588
:105A100000F0A4F90D6A23460D2221463846FBF713
:105A20003FF90C9B9D4202D002230293E2E72346FA
:105A3000CDF800A021460C223846CDF83080FBF787
:105A400055F9D8F830300393ABB3D8E90A4B0DF1D0
:105A50002C09002C4EDB032500231A461946CDF8ED
:105A600000903846CDF82C80FBF740F9002319460A
:105A70000122CDF8009038460B94FBF737F900234C
:105A800019460F22CDF800903846FBF709F90B9A1A
:105A90000399CDF8009002F001020A4300230B9213
:105AA00038460F221946FBF721F9022D1DD0072099
:105AB00013B0BDE8F08F404600F06EFD0B9B002B4D
:105AC0003FF4F1AE0D9A13440393002C38D1002B10
:105AD0003FF4E9AE029BDD073FF5E5AE029B1B07F5
:105AE00040F1238100240225B6E74046FFF77EFD02
:105AF0000720DEE66FF040431B1B1E465246594608
