:020000040800F2
:100000000000022015300008212E0008232E0008D1
:10001000252E0008272E0008292E000800000000C9
:10002000000000000000000000000000414C00083B
:100030002B2E000800000000E14C0008454D000890
:10004000653000086530000865300008653000083C
:10005000653000086530000865300008653000082C
:10006000653000086530000865300008653000081C
:10007000653000086530000865300008653000080C
:100080002D2E00083D2E00086530000800000000FD
:1000900000000000000000000000000065300008C3
:1000A000653000084D2E00086530000865300008F6
:1000B00065300008653000086530000865300008CC
:1000C00065300008653000086530000865300008BC
:1000D00065300008653000085D2E00080000000053
:1000E0006530000865300008653000080000000039
:1000F0000000000000000000000000006530000863
:100100000000000065300008653000086530000818
:1001100000000000000000000000000000000000DF
:10012000653000086530000865300008653000085B
:100130006530000800000000000000000000000022
:100140000000000000000000000000006530000812
:10015000653000086530000865300008653000082B
:100160006530000865300008000000000000000055
:10017000000000000000000000000000000000007F
:1001800000000000653000080000000000000000D2
:0801900065300008653000082D
:1001C0000348044B834202D0034B03B118477047E6
:1001D0006008002060080020000000000548064973
:1001E0000B1AD90F01EBA301491002D0034B03B145
:1001F00018477047600800206008002000000000D9
:1002000010B5064C237843B9FFF7DAFF044B13B15E
:100210000448AFF300800123237010BD6008002064
:1002200000000000E86E000808B5044B1BB104494B
:100230000448AFF30080BDE80840CFE700000000AD
:1002400064080020E86E000853B94AB9002908BFC5
:1002500000281CBF4FF0FF314FF0FF3001F0DEB837
:10026000ADF1080C6DE904CE00F006F8DDF804E00D
:10027000DDE9022304B070472DE9F047089D0446EC
:100280008E46002B4DD18A42944669D9B2FA82F249
:1002900052B101FA02F3C2F1200120FA01F10CFA85
:1002A00002FC41EA030E94404FEA1C48210CBEFBBD
:1002B000F8F61FFA8CF708FB16E341EA034306FB46
:1002C00007F199420AD91CEB030306F1FF3080F0D5
:1002D0001F81994240F21C81023E63445B1AA4B222
:1002E000B3FBF8F008FB103344EA034400FB07F7C4
:1002F000A7420AD91CEB040400F1FF3380F00A8105
:10030000A74240F207816444023840EA0640E41BF9
:1003100000261DB1D4400023C5E900433146BDE8A5
:10032000F0878B4209D9002D00F0EF800026C5E947
:10033000000130463146BDE8F087B3FA83F6002E5F
:100340004AD18B4202D3824200F2F980841A61EBD7
:10035000030301209E46002DE0D0C5E9004EDDE7F5
:1003600002B9FFDEB2FA82F2002A40F09280A1EBDD
:100370000C014FEA1C471FFA8CFE0126200CB1FB32
:10038000F7F307FB131140EA01410EFB03F088422B
:1003900008D91CEB010103F1FF3802D2884200F2B8
:1003A000CB804346091AA4B2B1FBF7F007FB10114A
:1003B00044EA01440EFB00FEA64508D91CEB0404E8
:1003C00000F1FF3102D2A64500F2BB800846A4EB43
:1003D0000E0440EA03409CE7C6F12007B34022FA2E
:1003E00007FC4CEA030C20FA07F401FA06F31C435D
:1003F000F9404FEA1C4900FA06F3B1FBF9F8200C6A
:100400001FFA8CFE09FB181140EA014108FB0EF0AF
:10041000884202FA06F20BD91CEB010108F1FF3AFF
:1004200080F08880884240F28580A8F1020861440B
:10043000091AA4B2B1FBF9F009FB101144EA014119
:1004400000FB0EFE8E4508D91CEB010100F1FF34C4
:100450006CD28E456AD90238614440EA0840A0FB5C
:100460000294A1EB0E01A142C846A64656D353D032
:100470005DB1B3EB080261EB0E0101FA07F722FA56
:1004800006F3F1401F43C5E9007100263146BDE87F
:10049000F087C2F12003D8400CFA02FC21FA03F3E2
:1004A000914001434FEA1C471FFA8CFEB3FBF7F063
:1004B00007FB10360B0C43EA064300FB0EF69E4288
:1004C00004FA02F408D91CEB030300F1FF382FD221
:1004D0009E422DD9023863449B1B89B2B3FBF7F6C9
:1004E00007FB163341EA034106FB0EF38B4208D9A2
:1004F0001CEB010106F1FF3816D28B4214D9023EE3
:100500006144C91A46EA004638E72E46284605E700
:100510000646E3E61846F8E64B45A9D2B9EB0208D1
:1005200064EB0C0E0138A3E74646EAE7204694E761
:100530004046D1E7D0467BE7023B614432E7304694
:1005400009E76444023842E703685A004CBF43F0AD
:10055000004323F000431844704700BF2DE9F843DF
:1005600029B34F1E044615463E464FF0000808EBDF
:10057000060101EBD171491004EBC1094846FFF7B0
:10058000E3FF0346C80008308F42204409D0AB4245
:1005900009D8FFF7D9FF0138A8420AD201F10108B2
:1005A000E5E7AB4205D9884501D04E1EDFE74FF0A5
:1005B00000094846BDE8F883012807D0022807D083
:1005C000044B00280CBF18460020704702487047B3
:1005D00002487047910C0008950C0008990C00081F
:1005E00030B5234B83B004468D1E3BB301A928468A
:1005F000AFF30080E8B101992A46FFF7AFFF01464B
:10060000B8B1FFF7A1FF4B68A064012B2CD0002BE1
:1006100001F1040024DBFFF797FF0023C4E9130373
:100620000368002B11DBFFF78FFF2061002003B070
:1006300030BD00230920236103B030BD0D4B0E49AE
:10064000C91AC91018460191D6E7C3F30360FFF732
:10065000B3FF0028206114BF0020092003B030BD83
:100660000123C4E91303DBE7002323610520DEE750
:10067000000000004C740008547600080368DA0794
:1006800010B5044606D49B0700F1480009D500F0D8
:100690005BFC2368590709D51A070ED5DB0613D56D
:1006A00010BD00F049FC23685907F5D404F1D000CF
:1006B00000F052FC23681A07F0D404F5A87000F08B
:1006C00053FC2368DB06EBD404F5E870BDE810406A
:1006D00000F08EBC092070470346006800B1184442
:1006E000704700BF704700BF70B504460E46316CBE
:1006F0002046FFF775FF054688B9326C62612369B1
:1007000032462146012098470828F0D0072806D114
:100710002846316CFFF7E6FF301D00F001FC00F0C9
:100720007FFE00BF2DE9F0470D1DD0F80C80D0F8FA
:100730001890074614460FCDADF5727D0DF10C0CE7
:10074000ACE80F000FCDACE80F000FCDACE80F0008
:1007500095E80F0002AE4FF0000E8CE80F00C6F8CF
:1007600000E020E0336C7B614FF4F07231467AA8F0
:1007700001F064F93B697AAA394650469847889B4C
:1007800073642146CDE9006905463B463A4601209F
:10079000C0470446E0B94FF4F0727AA9304601F040
:1007A0004DF9082D1AD1316C3846FFF719FF09347D
:1007B0005FFA84FA05460028D4D0B36B73643A46D6
:1007C000CDE900693B464AF010010120C04700B165
:1007D000092528460DF5727DBDE8F087072DF7D174
:1007E0002046316CFFF77EFF03A800F099FB00BFA5
:1007F000406C7047F0B5CB6B0B6401F1040C0E46F6
:100800000546BCE80F00F9B001AC0FC4BCE80F000E
:100810000FC4BCE80F000FC49CE80F004FF0FF3777
:1008200084E80F00009706E02B696A46294698473E
:100830000828044608D110992846FFF7D1FE002861
:10084000F2D0092079B0F0BD6846FFF717FF062CFB
:10085000F7D131462846FFF747FF00BFC160D96B8B
:1008600082611964002219465CE700BF70B5C66852
:1008700043690B64AEB903690A4604460D46014656
:1008800002209847072805D008280FD1294620467E
:10089000FFF72AFF3046296CFFF724FF281D00F0E0
:1008A0003FFB0122FFF73EFF00F0BAFD00F0B8FD6C
:1008B000C2681AB1CA6B0A64002233E79AE700BF24
:1008C000704700BF836801460BB10120184770478D
:1008D000012912D009D873B90F2A0CD800EB820273
:1008E00018465368009A136070470339012994BF72
:1008F000012002207047022070470846704700BF61
:1009000000B585B00A46002303A900911946FFF7F8
:10091000DFFF039805B05DF804FB00BF012912D08A
:1009200009D873B90F2A0CD800EB8200009A12681C
:100930004260184670470339012994BF0120022004
:100940007047022070470846704700BF10B584B05A
:10095000002303AC039200940A461946FFF7DEFF1A
:1009600004B010BD70B5D36B136402F1040C0546DE
:100970000C46BCE80F00ADF50E7D0DF15C0EAEE847
:100980000F00BCE80F00AEE80F00BCE80F00AEE8B7
:100990000F009CE80F004FF0FF368EE80F00169610
:1009A00010E0FFF7D3FF214616A8A847034616AA72
:1009B0006946082083B9049B9847052806460CD051
:1009C000092809D026996846FFF70AFE03466A46B9
:1009D0000C2116A8002BE4D0092616A8FFF74EFE1E
:1009E00030460DF50E7D70BD2DE9F04FCC6C89B011
:1009F0001E4654F8043B06940D46174600F00308C3
:100A0000002E79D01A0C1B0405938DF81D200223AB
:100A1000D2B204EB82048DF81C302B6DB8F1020FBA
:100A200008BFAC6B13F001030CD005A9384600F0E9
:100A300079FB18B9082009B0BDE8F08F092009B08A
:100A4000BDE8F08FD4F800A0BAF1000FEDD001930B
:100A500000F008030293022E4AD0B4F800A0B4F8C4
:100A600002900434AB6C29F0010B0F2138469B44F3
:100A7000FFF746FF834539D82AF001039B4483459D
:100A800094BF002001204FEA490303F002030AF05B
:100A9000010A43EA0A03012B49D0022B32D0002B72
:100AA000CCD1B8F1000F02D0002840F0CD80043442
:100AB000D4F800A0BAF1000FCDD105A9384600F056
:100AC00031FB0028BAD1019B002BB3D00F2138464F
:100AD000FFF716FF0E2102463846FFF737FF38466C
:100AE0006A4A0F21FFF732FF0720A8E70020CAE774
:100AF000D4F804900834B5E71B0205930323ADF83E
:100B00001C308AE7236823F0004BB8F1000F45D171
:100B100028B1029A002A5CD0BBF1000F74D0002BE0
:100B200000DA04340BF1010B04EB8B04C0E7B8F1DD
:100B3000000F19D1B0B163682268991C4FEAD272D4
:100B40003FF47CAF05F158010133049100F090802F
:100B5000201DFFF7C1FD04AB0146284604F09AFEB4
:100B600000285BD10834A3E70D213846D5F8209042
:100B7000FFF7C6FE8145F5D1AB6A9C42F2D1204613
:100B8000FFF7E2FC0F2102463846FFF7DFFE38464A
:100B90002A460021FFF7DAFE072050E70D213846EC
:100BA000D5F82090FFF7ACFE814501D02368B6E769
:100BB000AB6A9C42FAD104230022C5E90B23E31857
:100BC000C5F828B06B632368002B59DB0123019320
:100BD000A8E705F15803CDF80C8004F1040AB046EB
:100BE00091461E460EE050460496FFF775FD002222
:100BF000014604AB284609F101090AF1040A04F090
:100C000049FEE0B9D945EED10D213846FFF778FE0F
:100C1000049BAC62C5E90803062010E781460D215C
:100C20003846FFF76DFEB9F1020F286225D12B4639
:100C3000049A43F82C2F6B62AC620620FFE646460E
:100C40002368DDF80C806AE72046FFF77DFC04345A
:100C50000246AC632846144604F076FE00283FF4B2
:100C6000EDAE384622460F21FFF770FE0720E6E67C
:100C70000D213846FFF744FE2862049B6B62DBE7D8
:100C80000BF1010004EB80007AE700BF2169000846
:100C90000023A9E60123A7E60223A5E62DE9F043F8
:100CA0000646C3B015461C46042900F2BF80DFE8A3
:100CB00001F09E57BD2D0300002C40F0B780102A94
:100CC00000F2B4800368D80600F1F98020AF3846FE
:100CD00000F098F9B46B394600234FF0010C0CFA80
:100CE00003F22A42204603F1010303D050F8042BFB
:100CF0000A600446042B01F10401F0D13846B463C4
:100D000000F076F9002043B0BDE8F083032C40F0FA
:100D10008D8094B204EB1243102B4FEA124500F27F
:100D2000858003681F0700F1D28020AF384600F0AD
:100D30003DF9B26B07EBC50154B10B46D01A01EB7C
:100D4000C401E4001D5843F8045B8B42FAD12244ED
:100D50003846B26300F008F9002043B0BDE8F083E4
:100D6000012C4FEA124895B25CD0052C5ED108EBFD
:100D70000509B9F1200F59D8B8F10F0F79D9A94653
:100D8000002D40F08A80B36B6DB320AF4FF00009A7
:100D900007EBC807043F03EBC50553F8041B47F8EE
:100DA000041FAB42F9D1B9F1000F0FD06F46414695
:100DB000102938BF102107EBC101843903EBC905A5
:100DC00053F8040B41F8040FAB42F9D1012C00F0A9
:100DD0008680B8F10F0FB56347D9B9F1000F02D083
:100DE000684600F0B9F8002043B0BDE8F083ECB9E4
:100DF000806B23461FFA82FC0124371D04FA03F29C
:100E000012EA0C0F014604D051F8042B47F82320B6
:100E100008460133102BF1D115F40055E3D1B0632E
:100E2000284604E008EB0503102B03D9022043B049
:100E3000BDE8F083B8F10F0FF8D83368DA0706D5AC
:100E4000304623F0030340F8483B00F079F820AF28
:100E5000384600F075F8B36B002D97D11D46043568
:100E6000B563384600F068F8BDE720A800F06CF8DC
:100E7000B3E7B9F1100F40D9A9F110093368D907C8
:100E800008D523F00103304643F0020340F8483B05
:100E900000F05EF8B9F1000F32D033685A0720D461
:100EA000B8F10F0F25D96F463846C8F1100500F08C
:100EB00057F8002DB36B7FF77AAF20AF68E723F0C8
:100EC0001003336006F5E87000F09CF8FEE623F0AE
:100ED0000803036000F5A87000F068F825E720AF6C
:100EE000BDE7304623F0040340F8D03B00F038F86B
:100EF000D6E720A800F02CF8D5E74FF00009BDE7B1
:100F0000B8F10F0F3FF63FAF20AF384600F020F8A2
:100F1000B36B002D7FF43AAF384600F015F862E766
:100F200000F1340191E838009C46A6464CF8045D77
:100F300090E8FF0FE54600BD90EC210B704700BF25
:100F400080EC210B704700BF90EC200B704700BF76
:100F500080EC200B704700BFD0EC200B704700BF27
:100F6000C0EC200B704700BFF0EC0201F0EC021166
:100F7000F0EC0221F0EC0231F0EC0241F0EC025115
:100F8000F0EC0261F0EC0271F0EC0281F0EC029105
:100F9000F0EC02A1F0EC02B1F0EC02C1F0EC02D1F5
:100FA000F0EC02E1F0EC02F1704700BFE0EC02016E
:100FB000E0EC0211E0EC0221E0EC0231E0EC024155
:100FC000E0EC0251E0EC0261E0EC0271E0EC028145
:100FD000E0EC0291E0EC02A1E0EC02B1E0EC02C135
:100FE000E0EC02D1E0EC02E1E0EC02F1704700BF7E
:100FF000B0FC0181B0FC0191B0FC01A1B0FC01B1D9
:10100000704700BFA0FC0181A0FC0191A0FC01A1E0
:10101000A0FC01B1704700BFEC4600B52DE90050BF
:101020002DE9FF1F4FF000032DE90C0001A9FFF788
:10103000E1FBDDF840E012B0704700BFEC4600B5C0
:101040002DE900502DE9FF1F4FF000032DE90C00A2
:1010500001A9FFF70BFCDDF840E012B0704700BFBC
:10106000EC4600B52DE900502DE9FF1F4FF00003BD
:101070002DE90C0001A9FFF71BFCDDF840E012B0E0
:10108000704700BFEC4600B52DE900502DE9FF1F69
:101090004FF000032DE90C0001ABFFF7DFFBDDF89B
:1010A00040E012B0704700BFEC4600B52DE900509B
:1010B0002DE9FF1F4FF000032DE90C0001AAFFF7F7
:1010C00051FCDDF840E012B0704700BF027A0346E1
:1010D0007AB9427AA2B14168013A10B44272086802
:1010E00003220C1D1A7202025C60000E10BC1A6012
:1010F00070470068013A1A7202021A60000E7047C7
:10110000B020704700B585B0002303AA00921946AD
:101110000C22FFF7DDFB039805B05DF804FB00BF70
:10112000F0E700BF2DE9F043054685B00E464FF0CD
:1011300000083046FFF7CAFFB028044600F0BA8026
:10114000070620D500F0F003802B4DD0902B36D031
:10115000A02B60D0B02B74D0C02B00F08B8000F09F
:10116000F803D02B0BD100F007020132052342F423
:10117000002201212846FFF791FD0028D9D009203F
:1011800005B0BDE8F0838300DBB21F1D0DF10C0933
:1011900000231946CDF800900D222846FFF798FB52
:1011A000039BCDF8009060064CBFDF1BFF180023A7
:1011B0000D22194628460397FFF7B0FBB9E700F068
:1011C0000D030D2BDBD003AF002300F00F021946F7
:1011D00000972846FFF77CFB002300970D22194655
:1011E0002846FFF79BFBA4E73046FFF76FFF24027A
:1011F0002043B0F5004FC2D004010023A2B219462B
:101200002846FFF74BFD0028B9D114F4004F18BF52
:101210004FF001088DE7C24302F007034FF47F62ED
:101220001A41010702F47F624FF0000348BF42F405
:10123000804219462846FFF731FD00283FF479AF78
:101240009DE7B1283BD0B22800F09380B32841D06D
:1012500000F0FC03B42B92D000F00702013201230E
:1012600042F4002219462846FFF718FD00283FF4F3
:1012700060AF84E7C6284AD0C72854D000F0F803EE
:10128000C02B63D0C82868D0C9287FF478AF304617
:10129000FFF71CFF020300F00F0002F47022013080
:1012A0000243012105232846FFF7F8FC00283FF4FC
:1012B00040AF64E7B8F1000F18D0002060E7304677
:1012C000FFF704FF024600283FF459AF10F0F00387
:1012D000C8D054E73046FFF7F9FE020300F00F03D1
:1012E000013302F470221A430123BBE703AC4346E7
:1012F0000E22414600942846FFF7EAFA009443463E
:101300000F2241462846FFF709FB404638E73046A2
:10131000FFF7DCFE020300F00F03013302F470223A
:101320001A4303239EE73046FFF7D0FE024600280B
:101330003FF425AF10F0F0037FF421AF04212846DD
:10134000FFF7ACFC00283FF4F4AE18E700F00F0202
:101350000132032342F4202284E73046FFF7B6FE31
:1013600000F0F00200F00F031032013343EA0232C2
:1013700097E700230DF10C090D221946CDF80090D6
:101380002846FFF7A5FA3046FFF7A0FE02064FF009
:1013900002040CD5039B00F07F00A040184403908A
:1013A0003046FFF793FE030604F10704F2D4039BD3
:1013B000CDF8009000F07F02A24003F501731A44BB
:1013C0000023039219460D222846FFF7A7FAB0E63C
:1013D00010B5C26C536884B04FF0030C08321C0285
:1013E00008461B0E01A9019402928DF80CC08DF8DD
:1013F0000D30FFF797FE04B010BD00BF08B5FFF732
:101400008FFE806C08BD00BF08B5FFF789FEC06C79
:10141000C379023300EB830008BD00BF704700BFF3
:1014200008B5062000F024FD012001F029FD00BFD1
:10143000002301461A46184600F0D0BF13460A465C
:101440000146022000F0CABF014B1868704700BF78
:101450000800002038B5084B084D5B1B9C1007D0D6
:10146000043B1D44013C55F804399847002CF9D140
:10147000BDE8384005F03EBD687600086476000897
:1014800070B50D4E0D4D761BB61006D0002455F8E4
:10149000043B01349847A642F9D1094E094D761B09
:1014A00005F022FDB61006D0002455F8043B0134A7
:1014B0009847A642F9D170BD5476000854760008CA
:1014C0006476000854760008024B0146186800F064
:1014D0000BB800BF08000020024B0146186801F05D
:1014E00001B800BF080000202DE9F04F01F10B0604
:1014F000162E83B0044624D8102900F2BA8000F0DA
:1015000005FC102618220220B74F3A44A2F1080128
:1015100053688B4200F0BA805A68D96822F00302FF
:101520001A449D68E9608D60516841F001012046D0
:10153000516003F1080500F0EBFB284603B0BDE85D
:10154000F08F36F0070600F19480B14200F29180EE
:1015500000F0DCFBB6F5FC7FC0F09681730A00F06A
:101560008F80042B00F26B81B30903F1390003F182
:10157000380CC3009C4F3B44A3F108055B689D42B7
:1015800006D10CE0002980F22B81DB689D4206D059
:101590005A6822F00302911B0F29F3DD60463D6972
:1015A000DFF848C265457CD06A6822F00302931BCD
:1015B0000F2B00F37781002BC7E904CC80F2688100
:1015C000B2F5007F80F01681D308796801334FEAC5
:1015D000521E012202FA0EF20A4357F833E0C5F810
:1015E00008E007EBC3010839E9607A6047F8335037
:1015F000CEF80C50831001219940914257D81142E6
:1016000006D120F003004900114200F10400FAD095
:1016100007EBC0094D468646D5F80C80454508D1F4
:1016200019E1002B80F22081D8F80C80454500F0AC
:101630001281D8F8042022F00302931B0F2BF0DD57
:101640002046D8E9025408EB060146F00106C8F826
:101650000460EC60A56043F00104C7E90411C1E92E
:1016600002CC4C6048F8023000F052FB08F108054B
:1016700002E00C2323600025284603B0BDE8F08F6C
:101680004FF4007340204FF03F0C73E7D3689A4249
:1016900008BF02307FF440AF3D69DFF850C16545B7
:1016A00082D17A688310012199409142A7D9BD68FF
:1016B0006B6823F00308464503D8A8EB06030F2BFD
:1016C0007EDCDFF82C91D7F80824D9F800300132FD
:1016D000334405EB080A00F02F8103F580530F33E4
:1016E00023F47F6B2BF00F0B5946204600F012FBC2
:1016F000411C024600F0EF80824500F2EA80D9F8F2
:1017000004105944C9F804100B4600F04B81D7F877
:10171000081401311BBFA2EB0A0A5344C7F808247E
:10172000C9F8043012F0070300F01281C3F1080178
:101730000A44C3F5805193440831A1EB0B01C1F376
:101740000B0A514620460192009300F0E3FA421C36
:10175000DDE9003200F04B81831A03EB0A0BD9F864
:101760000400BA604BF001030AEB0001BD42536074
:10177000C9F8041000F02281B8F10F0F40F2208167
:101780006B68A8F10C0020F0070003F0010303438D
:101790006B604FF0050C2B180F28C3E901CC00F249
:1017A0002D8153681546D9F82C208A42D9F830206B
:1017B00038BFC9F82C108A4238BFC9F830108CE005
:1017C000AA1943F0010346F001066E602046BA6094
:1017D000536000F09DFA0835284603B0BDE8F08F4D
:1017E000D9681A449DE600BF380400204004002058
:1017F0007C080020B2F5206F4FEA522363D3142BEC
:1018000000F2B88003F15C01C9005B3307EB010E05
:101810007958AEF1080E8E4500F091804B6823F0A8
:101820000303934202D989688E45F7D1D1F80CE0C1
:101830007A68C5E9021ECEF80850CD60DAE6142BAE
:1018400059D9542B00F29E80330B03F16F0003F142
:101850006E0CC3008EE60EF1010E1EF0030F05F1B3
:1018600008057FF4D9AE51E0424445465368D8F8A4
:101870000C1043F00103536055F8083F2046D9602F
:101880008B6000F045FAF7E6F00806F108023BE647
:101890002A442046536843F001035360083500F0A2
:1018A00037FAE9E6A919204646F0010643F001049B
:1018B0006E60C7E90411C1E902CC4C60AB5000F086
:1018C00027FA0835D8E6930903F13901C9003833FE
:1018D0009CE7BD4260D0BD686B6823F0030B5E459A
:1018E000ABEB060302D80F2B3FF76AAF204600F0A0
:1018F0000FFA0025C0E603F15C0003F15B0CC300A6
:1019000038E659F808394B4540F0968010F0030F3F
:1019100000F1FF30F5D17B6823EA01037B604900C9
:1019200099423FF6C4AE19B9C1E649000EF1040E62
:101930001942FAD070466BE603F1100BD4E69A1008
:101940004FF001087B6808FA02F21A437A6070E7E8
:1019500002EB0B014942C1F30B0A514620460193A9
:10196000009200F0D7F9431CDDE900237FF4F4AEC8
:101970009A46F4E6542B26D8130B03F16F01C900E5
:101980006E3343E7B3F5AA7F26D8F30B03F1780053
:1019900003F1770CC300EDE5D9F804305B44C9F8D6
:1019A0000430B4E6CAF30B0000287FF4B0AEBD6883
:1019B00008EB0B0343F001036B60F4E61546F2E617
:1019C0000123536092E7B3F5AA7F21D8D30B03F12B
:1019D0007801C900773319E740F25452934221D875
:1019E000B30C03F17D0003F17C0CC300C2E5083B9E
:1019F0009B44ABEB020B4FF0000AB0E605F1080187
:101A0000204600F06FFDBD68D9F804106B68CAE687
:101A100040F254518B420BD8930C03F17D01C90065
:101A20007C33F3E64FF47E737F204FF07E0CA1E50C
:101A30004FF47E717E23E9E67B6870E7844641EAD5
:101A4000000313F003036DD1403A41D351F8043B36
:101A500040F8043B51F8043B40F8043B51F8043B88
:101A600040F8043B51F8043B40F8043B51F8043B78
:101A700040F8043B51F8043B40F8043B51F8043B68
:101A800040F8043B51F8043B40F8043B51F8043B58
:101A900040F8043B51F8043B40F8043B51F8043B48
:101AA00040F8043B51F8043B40F8043B51F8043B38
:101AB00040F8043B51F8043B40F8043B51F8043B28
:101AC00040F8043B51F8043B40F8043B403ABDD297
:101AD000303211D351F8043B40F8043B51F8043B39
:101AE00040F8043B51F8043B40F8043B51F8043BF8
:101AF00040F8043B103AEDD20C3205D351F8043BC8
:101B000040F8043B043AF9D2043208D0D2071CBF93
:101B100011F8013B00F8013B01D30B8803806046BC
:101B2000704700BF082A13D38B078DD010F0030332
:101B30008AD0C3F10403D21ADB071CBF11F8013BA2
:101B400000F8013B80D331F8023B20F8023B7BE7F1
:101B5000043AD9D3013A11F8013B00F8013BF9D21C
:101B60000B7803704B7843708B78837060467047B6
:101B700088420DD98B1883420AD900EB020CBAB106
:101B8000624613F801CD02F801CD9942F9D17047B0
:101B90000F2A0ED8034602F1FF3C4AB10CF1010CAA
:101BA000013B8C4411F8012B03F8012F6145F9D159
:101BB000704740EA01039B0750D1A2F1100370B5B2
:101BC00001F1200C23F00F0501F1100E00F11004BB
:101BD000AC441B095EF8105C44F8105C5EF80C5CC9
:101BE00044F80C5C5EF8085C44F8085C5EF8045C41
:101BF00044F8045C0EF1100EE64504F11004E9D13E
:101C0000013312F00C0F01EB031102F00F0400EB93
:101C1000031327D0043C24F003064FEA940C1E441F
:101C20001C1F8E465EF8045B44F8045FB442F9D191
:101C30000CF1010402F0030203EB840301EB8401C5
:101C400002F1FF3C4AB10CF1010C013B8C4411F84C
:101C5000012B03F8012F6145F9D170BD02F1FF3C62
:101C600003469BE72246EBE7830730B548D0541E76
:101C7000002A3FD0CAB2034601E0013C3AD303F840
:101C8000012B9D07F9D1032C2DD9CDB245EA0525AD
:101C90000F2C45EA054536D9A4F1100222F00F0CAD
:101CA00003F1200EE6444FEA121C03F1100242E950
:101CB000045542E9025510327245F8D10CF1010287
:101CC00014F00C0F03EB021204F00F0C13D0ACF164
:101CD000040323F003030433134442F8045B9342E8
:101CE000FBD10CF003042CB1CAB21C4403F8012B45
:101CF0009C42FBD130BD64461346002CF4D1F9E779
:101D000003461446BFE71A46A446E0E7704700BF03
:101D1000704700BF38B5074D0022044608462A60C8
:101D200001F0B4F8431C00D038BD2B68002BFBD069
:101D3000236038BDB008002038B5D0F8DC420CB1C3
:101D4000002038BD80210546FFF7CEFB0246C5F8CE
:101D5000DC0230B1031F7C3243F8044F9342FBD1C5
:101D6000EEE74FF0FF3038BD1F29F8B5054609D81A
:101D7000D0F8DC620C4617464EB156F8240046F8FF
:101D80002470F8BD162303604FF0FF30F8BD8021AA
:101D9000FFF7AAFB0646C5F8DC0240B1031F00F1BD
:101DA0007C05002143F8041F9D42FBD1E5E74FF07D
:101DB000FF30F8BD1F2938B5054621D8D0F8DC2200
:101DC0000C466AB152F8213053B1012B16D0591C80
:101DD00010D00025204642F824509847284638BDA8
:101DE000284600F003F9224601462846BDE838405F
:101DF00000F0E6B816230360012038BD002038BD8E
:101E0000162303604FF0FF3038BD00BF1F292CD8C8
:101E1000D0F8DC2238B50C46054682B152F82430A1
:101E200002EB84024BB1591C1AD0012B16D00025AD
:101E3000204615609847284638BD012038BD8021CE
:101E4000FFF752FB0246C5F8DC0258B1031F002120
:101E50007C3043F8041F9842FBD1DFE7032038BDF4
:101E6000022038BD4FF0FF3038BD4FF0FF307047D3
:101E700038B5154B1F281D6820D8D5F8DC2204463C
:101E800062B152F820304BB1012B15D0591C0FD044
:101E9000002542F820509847284638BD284600F0D3
:101EA000A5F8224601462846BDE8384000F088B82B
:101EB00016232B60012038BD002038BD16232B606F
:101EC0004FF0FF3038BD00BF08000020134B1F2823
:101ED00070B51E6809D80D46D6F8DC12044649B123
:101EE00051F8240041F8245070BD162333604FF0A0
:101EF000FF3070BD80213046FFF7F6FA0146C6F884
:101F0000DC0240B1031F00F17C0C002243F8042FD7
:101F10006345FBD1E4E74FF0FF3070BD08000020BF
:101F200038B50C4B1D68D5F8DC420CB1002038BD2B
:101F300080212846FFF7D8FAC5F8DC0238B1031F24
:101F400000F17C0243F8044F9342FBD1EEE74FF0DF
:101F5000FF3038BD0800002038B5184B1F281D6819
:101F600028D8D5F8DC22044682B152F8243002EB9E
:101F700084024BB1591C1BD0012B17D000252046E1
:101F800015609847284638BD012038BD8021284675
:101F9000FFF7AAFA0246C5F8DC0258B1031F002178
:101FA0007C3043F8041F8342FBD1DEE7032038BDB9
:101FB000022038BD4FF0FF3038BD00BF08000020C0
:101FC00070B50C46084D03460026204611461C46B7
:101FD0002E6000F04DFF431C00D070BD2B68002B1D
:101FE000FBD0236070BD00BFB008002000F03EBFF2
:101FF00000000000000000000000000000000000E1
:10200000A2EB0300704700BF02780B78012A28BFBB
:102010009A42F5D16DE9044540EA0104CDE9026731
:102020006FF0000C4FEA447212B380EA010414F01E
:10203000070F6AD100F0070420F0070004F0030541
:1020400021F007014FEAC505F0E8042314F0040F5E
:10205000F1E804670CFA05F462EA040266EA040691
:102060000AD063EA0403624667EA0407664603E0AF
:10207000F0E80423F1E8046782FA4CF582EA0604EA
:10208000A4FA8CF46CBB83FA4CF583EA0705A5FA35
:102090008CF595B950E9022351E9026782FA4CF5B3
:1020A00082EA0604A4FA8CF483FA4CF583EA070565
:1020B000A5FA8CF52543DBD09CB92DBAB5FA85F489
:1020C00024F0070427FA04F1DDE9026723FA04F398
:1020D00003F0FF0001F0FF01FDE80445A0EB010063
:1020E000704724BAB4FA84F424F0070426FA04F101
:1020F000DDE9026722FA04F202F0FF0001F0FF01BD
:10210000FDE80445A0EB0100704714F0030F3CD13B
:1021100010F0030428D150F8082B51F8083B82FA3C
:102120004CF582EA0305A5FA8CF55DB950F8042C4C
:1021300051F8043C82FA4CF582EA0305A5FA8CF5C5
:10214000002DE8D02DBAB5FA85F424F0070423FA5F
:1021500004F122FA04F202F0FF0001F0FF01FDE8B1
:102160000445A0EB010070474FEAC40420F00300CF
:1021700050F8082B21F0030151F8083B0CFA04F445
:1021800062EA040263EA0403C9E710F003041AD008
:10219000A1EB040120F00300E40750F8042B06D063
:1021A0000FD28B785FFAA2F4E41A06D12BB1CB7868
:1021B0005FFAB2F4E41A00D11BB920465DF8104B67
:1021C000704701F1040150F8042BCC0721F0030102
:1021D00051F8043B48D824D222F07F4482FA4CF5CF
:1021E00094EA1325A5FA8CF50AD165B951F8043B98
:1021F00084EA0204B4EB036F0ED150F8042BEBE732
:102200004FEA132355E035F07F454DD10878FDE8BE
:102210000445C0F1000070474FEA126203F0FF036B
:1022200047E002EA1C4482FA4CF594EA1345A5FA09
:102230008CF50AD165B951F8043B84EA0204B4EB89
:10224000034F0CD150F8042BEBE74FEA134330E077
:1022500015EA1C4528D10B884FEA124229E04FEAC3
:10226000124203EA1C4324E002F0FF0482FA4CF518
:1022700094EA1365A5FA8CF50AD165B951F8043BC7
:1022800084EA0204B4EB032F09D150F8042BEBE7E6
:102290004FEA13630DE015F0FF0F05D10B684FEA0D
:1022A000122223F07F4304E04FF00000FDE80445D4
:1022B000704712BA1BBA82FA4CF482EA0304A4FAF9
:1022C0008CF5B5FA85F402FA04F203FA04F34FEA46
:1022D0001260FDE80445A0EB1360704700000000A9
:1022E00000000000000000000000000000000000EE
:1022F00000000000000000000000000000000000DE
:1023000090F800F06DE9024520F007016FF0000C35
:1023100010F0070491F820F040F049804FF00004DD
:102320006FF00700D1E9002391F840F000F10800B8
:1023300082FA4CF2A4FA8CF283FA4CF3A2FA8CF3F0
:102340004BBBD1E9022382FA4CF200F10800A4FA57
:102350008CF283FA4CF3A2FA8CF3E3B9D1E90423AB
:1023600082FA4CF200F10800A4FA8CF283FA4CF3E2
:10237000A2FA8CF37BB9D1E9062301F1200182FA9C
:102380004CF200F10800A4FA8CF283FA4CF3A2FAA2
:102390008CF3002BC6D0002A04BF04301A4612BAB0
:1023A000B2FA82F2FDE8024500EBD2007047D1E9B3
:1023B000002304F00305C4F100004FEAC50514F042
:1023C000040F91F840F00CFA05F562EA05021CBF13
:1023D00063EA050362464FF00004A9E770B4184CA5
:1023E0002568D5F848411CB365681F2D25DC38B930
:1023F000AB1C0135656044F82310002070BC7047A9
:1024000004EB850C0228CCF88820D4F888614FF0C2
:10241000010202FA05F246EA0206C4F88861CCF825
:102420000831E5D1D4F88C311343C4F88C31DFE79F
:1024300005F5A674C5F84841D6E74FF0FF30DDE753
:10244000386F0008F8B5244F0C460646FFF75EFCCF
:10245000BA685568C4F57E630F3325F003052B4435
:1024600023F47F6323F00F03A3F58054B4F5805F5A
:1024700007DB00213046FFF74DFCBB682B44984238
:1024800004D03046FFF744FC0020F8BD61423046DE
:10249000FFF740FC01300DD0104ABB682D1B45F002
:1024A00001055D60136830461B1B1360FFF730FCAD
:1024B0000120F8BD00213046FFF72CFCBA68831AD2
:1024C0000F2BDEDD43F001035360054B03491B680E
:1024D000C01A0860D5E700BF38040020800800203B
:1024E00040080020002961D0F8B50C460646FFF7E9
:1024F0000DFC54F8042C7B4FA4F1080522F00101D7
:1025000005EB010CB868DCF80430604523F00303E8
:1025100000F08B80D207CCF8043032D454F8082C69
:10252000AD1A1144AA6807F1080082426AD00CEB88
:102530000304D4F804E0EC68D4601EF0010FA2603C
:1025400000F0978041F001036B60CCF80010B1F50A
:10255000007F35D27A68CB084809012101338140D8
:102560001143796007EBC30257F83310083AC5E905
:10257000021247F83350CD603046BDE8F840FFF70F
:10258000C7BB0CEB03025268D00710D4194407F103
:102590000800DCF80830834273D0DCF80C20DA60E5
:1025A000936041F001036B606950D0E7704741F0E0
:1025B0000103B1F5007F44F8043CCCF80010C9D306
:1025C000B1F5206F4FEA512348D28B0903F139004E
:1025D00003F13802C300F818FB580838984259D064
:1025E0005A6822F003028A4202D99B689842F7D1C6
:1025F000D868C5E902308560DD603046BDE8F84046
:10260000FFF786BB0CEB03025268D20763D40B447E
:10261000DCE90212CA60916043F001026A60304650
:10262000EB50BDE8F840FFF773BB0B44D10707D46C
:1026300054F8082CAD1A1344D5E90212CA6091600F
:1026400043F001026A60284ABD6012689A4293D83A
:10265000264B30461968FFF7F5FE8DE7142B0AD993
:10266000542B1FD80B0B03F16F0003F16E02C30054
:10267000B1E719448DE703F15C0003F15B02C3008D
:10268000A9E741F00103C7E90455C5E902006B6001
:10269000695071E779689210012404FA02F20A4342
:1026A0007A60A6E7B3F5AA7F06D8CB0B03F17800D2
:1026B00003F17702C3008EE740F25452934206D8EA
:1026C0008B0C03F17D0003F17C02C30083E74FF420
:1026D0007E737E227FE741F001036B60CCF800102F
:1026E0004AE700BF38040020440800207C0800208E
:1026F00010B582B0002401940D4B1A6B42F4001205
:102700001A631B6B03F400130193019B22460521FE
:10271000102000F0FBFC102000F030FD22460521C7
:10272000112000F0F3FC112000F028FD02B010BDD4
:102730000038024008B500F091F908BD08B500F076
:102740004FF908BD034B0360034B0B6080231360FC
:10275000704700BFBC0A0020BC08002010B58EB036
:10276000124C0DF11C0CA646BEE80F00ACE80F00A1
:102770009EE807008CE80700002107A802F089F90D
:102780000B4B1860EE4604F11C0CBCE80F00AEE8E1
:102790000F009CE807008EE807000021684602F061
:1027A00078F9044B18600EB010BD00BF006F000830
:1027B000B4080020B808002030B58BB00024059480
:1027C00006940794089409940194224B1A6B42F0E2
:1027D00004021A631A6B02F004020192019A029435
:1027E0001A6B42F080021A631A6B02F080020292A6
:1027F000029A03941A6B42F001021A631A6B02F0F8
:1028000001020392039A04941A6B42F002021A63C3
:102810001B6B03F002030493049B0F4D22462021FF
:10282000284600F0FFFF4FF4005305934FF40413C4
:102830000693079405A9094800F014FF2023059387
:10284000012306930794089405A9284600F00AFF7F
:102850000BB030BD003802400000024000080240CA
:1028600008B50268034B9A4200D008BD00F016FC80
:10287000FBE700BF0000014072B6FEE700B595B06F
:102880003022002108A8FFF7EFF9002303930493F7
:1028900005930693079301931E4A116C41F08051F2
:1028A0001164126C02F080520192019A02931A4A4A
:1028B000116841F440411160126802F440420292F2
:1028C000029A0222089201210B9110210C910E9282
:1028D0000F930823109364231193129204231393EC
:1028E00008A800F0AFFF88B90F23039302230493D5
:1028F000002305934FF4805206920793032103A807
:1029000001F006FA20B915B05DF804FBFFF7B4FF3B
:10291000FFF7B2FF003802400070004008B500F039
:10292000A3FBFFF7ABFFFFF747FFFFF7E1FE00F068
:10293000DBFA00F021F8FFF711FF02F0A5F8FEE73F
:10294000012800D0704708B54FF6FF73994200D0B8
:1029500008BD064800F108030360002343600372CA
:10296000034A044902F088FFF2E700BF100B002081
:10297000000000203164000810B582B0154C01221F
:102980002021204600F04EFF4FF4C87000F098FB65
:1029900000222021204600F045FF4FF4C87000F0CF
:1029A0008FFB01222021204600F03CFF4FF4C8702D
:1029B00000F086FB00222021204600F033FF06486D
:1029C0000C230093054B4268002103F03DFD02B04B
:1029D00010BD00BF00000240100B0020546F000823
:1029E00008B52021034800F023FF4FF47A7002F06D
:1029F00085F8F6E70000024010B5013919E0154BE3
:102A0000A3FB023C4FEA5C13642404FB13234FEA4C
:102A1000430E4FEA5C120EF1010C0F4C14F80CC07F
:102A200000F801C001F1FF3C14F8133000F80C303D
:102A30000239632AE3D8092A08D953000133064929
:102A4000CB5C437011F81230037010BD303202704D
:102A5000FBE700BF1F85EB51806F00082DE9F047B1
:102A600094B02FE1454238E1013404AF02972D22A2
:102A7000311902A803F05EFC2A4621460298304430
:102A8000FFF7BAFFA44B18680299B94233D0A34BA1
:102A9000984243D0083BD3F808909F4B1960039AA3
:102AA0005A60049A9A6000283AD00290CDF81090AB
:102AB00000230393029A1370029804AB984203D048
:102AC0000499013102F0DEFE934B5A686FF04043E7
:102AD0009A4228D0904C01229149204603F080FD73
:102AE000A28821688F4801F059FD00255AE0023480
:102AF000BBE70334B9E7039A32B9039B864A5360B4
:102B000012680021D154D3E7012A04D0002AF4D05E
:102B1000FEF794FFF1E70B780370EEE70020BCE7C7
:102B200004AB0293C4E7804803F0C0FB6F423FE070
:102B300001340DF1280ACDF820A02D22311908A862
:102B400003F0F8FB3A46214608983044FFF754FF5B
:102B5000714B18680899514541D0704B984251D03B
:102B6000083BD3F808806C4B1960099A5A600A9A9E
:102B70009A60002848D00890CDF828800023099357
:102B8000089A137008980AAB984203D00A99013149
:102B900002F078FE60490A238A880968614801F0DA
:102BA00090FC0135092D32DCEE0F002DBEDB2F46E7
:102BB0003B460124092BBCD9632BB9D9B3F57A7FE5
:102BC00009D342F20F72934207D9584AA2FB03235A
:102BD0005B0B0434EEE70234ABE70334A9E7099A50
:102BE00032B9099B4C4A536012680021D154C5E7A1
:102BF000012A04D0002AF4D0FEF720FFF1E70B7879
:102C00000370EEE70020AEE70AAB0893B6E70A20B0
:102C100001F074FF02F0B0FC05463F480123009329
:102C20003F4B4268002103F00FFCEE0F002D12DB3A
:102C30002B460124092B11D9632B0ED9B3F57A7FCA
:102C40001FD342F20F7293421DD9384AA2FB0323CD
:102C50005B0B0434EEE76D42EAE7013410AB0E93F0
:102C60002D2231190EA803F065FB2A4621460E9845
:102C70003044FFF7C1FE0F9A0E99274803F0B0FCCD
:102C800003E00234EAE70334E8E70E9810AB984219
:102C900003D01099013102F0F5FD1F4B5A686FF017
:102CA00040439A4230D01C4C01221D49204603F07B
:102CB00097FCA28821681B4801F070FC4FF47A70E1
:102CC00001F01CFF1A4A13680133136002F054FC30
:102CD0000546C60F0028FFF6C5AE2B460124092B7A
:102CE0007FF6C3AE632B7FF6BFAEB3F57A7FFFF4FA
:102CF000FEAE42F20F7293427FF6FBAE0B4AA2FB8E
:102D000003235B0B0434EAE7074803F0CFFA0EA86D
:102D100003F008FB02F0B8FD100B0020180B002098
:102D20007C6F0008380C0020646F00085917B7D179
:102D3000280B002008B54FF6FF710120FFF700FEB9
:102D400008BD000000B583B0002200920D4B596C05
:102D500041F480415964596C01F48041009100991B
:102D60000192196C41F0805119641B6C03F080537F
:102D70000193019B0F216FF0010000F0C7F903B030
:102D80005DF804FB0038024030B589B005460024E8
:102D900001941E4B5A6C42F001025A645B6C03F0C2
:102DA00001030193019B02A903A801F087F801F038
:102DB00075F803461648A0FB03239B0C013B1548FE
:102DC000154A026040F2E732C260436004618460E9
:102DD000846101F0DFF9044610B1204609B030BD2E
:102DE0000C4801F08BF804460028F6D1192000F0B9
:102DF000C5F90F2D01D90124EFE70022294619203A
:102E000000F084F9054B1D60E7E700BF0038024081
:102E100083DE1B432C0B00200000014050080020E3
:102E2000FEE7FEE7FEE7FEE7FEE7704708B502486B
:102E300000F02AFB08BD00BF780B002008B502484F
:102E400000F022FB08BD00BFD80B002008B50248E7
:102E500001F094F808BD00BF2C0B002008B5024813
:102E600001F0CCFC08BD00BF380C002001207047E9
:102E700008B5FEF7E9FA162303604FF0FF3008BDEE
:102E800008B54FF0FF31FFF7F3FFFEE710B503463B
:102E90000C4A0D490D48006840B10C4800680344D5
:102EA000521A934206D8094A136010BD0748084CCD
:102EB0000460F2E7FEF7C8FA0C2303604FF0FF301E
:102EC000F3E700BF0000022000040000740B0020A4
:102ED000084A0020034AD2F8883043F47003C2F84D
:102EE0008830704700ED00E008B50A480A4B0360DF
:102EF0004FF4E133436000238360C36003610C221D
:102F000042618361C36101F0ADFA00B908BDFFF70A
:102F1000B3FCFBE7380C00200044004030B589B01A
:102F20000023039304930593069307930268334B9E
:102F30009A4201D009B030BD04460025019503F541
:102F4000FA331A6C42F400321A641A6C02F400323A
:102F50000192019A02951A6B42F001021A631B6BEF
:102F600003F001030293029B0C23039302230493B7
:102F7000032306930723079303A9214800F072FB5C
:102F80002048214B03604FF0006343608560C560BB
:102F90004FF48063036145618561C56105624562E7
:102FA00000F07AF918BB174BA3639C631748184BC2
:102FB00003604FF000634360402383600023C360DD
:102FC0004FF48062026143618361C36103624362C3
:102FD00000F062F970B90D4B63639C630022052118
:102FE000262000F093F8262000F0C8F8A2E7FFF7AB
:102FF00043FCD8E7FFF740FCEDE700BF004400408A
:1030000000000240780B002088600240D80B0020AE
:10301000A0600240DFF834D00D480E490E4A00236C
:1030200002E0D458C4500433C4188C42F9D30B4A7C
:103030000B4C002301E013600432A242FBD3FFF7E4
:1030400049FFFEF71DFAFFF769FC704700000220F8
:10305000000000206008002068760008600800205A
:10306000044A0020FEE7000008B50B4B1A6842F442
:1030700000721A601A6842F480621A601A6842F498
:1030800080721A60032000F02FF80F20FFF77CFEFB
:10309000FFF758FE002008BD003C0240034A1168BB
:1030A000034B1B780B441360704700BF7C0C00205F
:1030B0004C080020014B1868704700BF7C0C0020B2
:1030C00038B50446FFF7F6FF0546B4F1FF3F02D0DE
:1030D000044B1B781C44FFF7EDFF401BA042FAD3C2
:1030E00038BD00BF4C080020074AD36823F4E063D2
:1030F0001B041B0C000200F4E060034343F0BF63B9
:1031000043F40033D360704700ED00E000B5194B85
:10311000DB68C3F30223C3F1070CBCF1040F28BF23
:103120004FF0040C03F1040EBEF1060F18D9033B57
:103130004FF0FF3E0EFA0CFC21EA0C0199400EFA0A
:1031400003F322EA0303194300280BDB0901C9B288
:1031500000F1604000F5614080F800135DF804FB69
:103160000023E5E700F00F000901C9B2024B195432
:10317000F4E700BF00ED00E014ED00E0002807DBFD
:1031800000F01F02400901239340024A42F8203018
:10319000704700BF00E100E030B405682C6824F4FB
:1031A00080242C60046863608368402B05D003682A
:1031B00099600368DA6030BC704703689A600368FE
:1031C000D960F8E710B40368D9B210390C4AA2FBF1
:1031D000014212090B4CA25CC2655F2909D923F494
:1031E0007F7323F0030304338365806D5DF8044B24
:1031F000704723F47F7323F003038365F5E700BF73
:10320000ABAAAAAA64700008836A826992B9012BEA
:103210000AD0022B02D00BB100207047C36A13F012
:10322000807F28D100207047C36AB3F1C07F24D0CB
:1032300000207047B2F5005F09D0022B25D9032B7F
:1032400025D1C36A13F0807F23D100207047032B60
:1032500003D8DFE803F01404140A00207047C36A9F
:1032600013F0807F0DD100207047C36AB3F1C07F97
:1032700009D00020704701207047012070470120CD
:1032800070470120704701207047012070470020DF
:10329000704701207047000070B50446FFF70AFF31
:1032A000002C5BD00546022384F83530002384F8D7
:1032B00034302268136823F00103136023681A680E
:1032C00012F0010F0AD0FFF7F5FE431B052BF5D9CD
:1032D00020236365032084F8350070BD1A682048F8
:1032E00010406168A2680A43E1680A4321690A4301
:1032F00061690A43A1690A43E1690A43216A0A43F1
:103300000243616A04291ED01A602668756925F097
:103310000705636A1D43042B07D1A36A1D43E36AB3
:103320001BB12046FFF770FF90B975612046FFF78B
:1033300049FFE26D3F2393408360002060650123D5
:1033400084F83530C9E7E16A206B01430A43DBE7C3
:1033500040236365012084F83500BEE70120BCE707
:103360003F8010F038B50446856D90F83400012890
:103370002BD0012084F8340094F83500C0B2012825
:1033800004D0002384F83430022038BD022084F8B1
:103390003500002060652046FFF7FEFEE26D3F230A
:1033A0009340AB602268136843F016031360236CEC
:1033B00023B12268136843F008031360226813687E
:1033C00043F0010313600020DFE70220DDE770B562
:1033D0000446866DFFF76EFE94F83530DBB2022BA3
:1033E00006D080236365002384F83430012070BD4B
:1033F00005462268136823F0160313602268536998
:1034000023F080035361236CE3B12268136823F037
:10341000080313602268136823F001031360236814
:103420001B6813F0010F11D0FFF744FE431B052B5F
:10343000F5D920236365032084F83500002384F840
:103440003430D4E7A36C002BDFD1E3E7E26D3F23F8
:103450009340B360012384F83530002084F83400B1
:10346000C5E790F83530DBB2022B03D080234365EB
:1034700001207047052380F835300268136823F077
:103480000103136000207047F0B583B004460023A9
:103490000193724B1D68724BA3FB0535AD0A876D16
:1034A0003E68C26D08239340334210D003681A6807
:1034B00012F0040F0BD01A6822F004021A60C26DD9
:1034C00008239340BB60436D43F001034365E26D05
:1034D00001239340334209D02268526912F0800FD1
:1034E00004D0BB60636D43F002036365E26D0423A7
:1034F0009340334209D02268126812F0020F04D0C0
:10350000BB60636D43F004036365E26D1023934079
:10351000334224D02268126812F0080F1FD0BB601B
:1035200023681A6812F4802F0DD01B6813F4002F43
:1035300004D1236C9BB12046984710E0A36C73B173
:10354000204698470BE01A6812F4807F03D11A686E
:1035500022F008021A60236C0BB120469847E26DF6
:1035600020239340334255D02268126812F0100F86
:1035700050D0BB6094F83530DBB2052B0ED02368F9
:103580001A6812F4802F33D01B6813F4002F2AD14D
:10359000636C002B3ED0204698473BE022681368BE
:1035A00023F0160313602268536923F080035361EC
:1035B000236CA3B12268136823F008031360E26D43
:1035C0003F239340BB60012384F83530002384F807
:1035D0003430236D002B3FD0204698473CE0A36C4D
:1035E000002BE7D1EBE7E36BA3B12046984711E04E
:1035F0001A6812F4807F09D11A6822F010021A604A
:10360000012384F83530002384F83430E36B0BB1A8
:1036100020469847636DFBB1636D13F0010F17D01F
:10362000052384F835302268136823F00103136002
:10363000019B01330193AB4204D823681B6813F04C
:10364000010FF5D1012384F83530002384F834309C
:10365000E36C0BB12046984703B0F0BD480800204A
:10366000B5814E1B00230F2B00F2D28070B582B0C3
:1036700060E085685E000324B44025EA0405CC6858
:10368000B4402C438460456825EA02054C68C4F3C5
:1036900000129A402A4342605AE0DC08083450F88D
:1036A000246003F0070295000F22AA4026EA020ECA
:1036B0000A69AA4042EA0E0240F824205CE0042293
:1036C00000E0002202FA0EF22A430234514D45F87E
:1036D0002420514A94686FEA0C0224EA0C054E68D3
:1036E00016F4801F01D04CEA04054B4CA560E46839
:1036F00002EA04054E6816F4001F01D04CEA0405E6
:10370000454CE560646802EA04054E6816F4003F23
:1037100001D04CEA0405404C6560246822404D68A5
:1037200015F4803F01D04CEA04023B4C2260013387
:103730000F2B6BD801229A400C6804EA020C32EA83
:103740000404F4D14C6804F00304013C012C90D92A
:103750004A6802F00302032A09D0C4685D0003220C
:10376000AA4024EA02048A68AA402243C2604A6846
:1037700002F00302022A90D004684FEA430E0322AB
:1037800002FA0EF224EA02044A6802F0030202FA84
:103790000EF2224302604A6812F4403FC7D0002272
:1037A00001921E4A546C44F480445464526C02F4F6
:1037B00080420192019A9C08A51C164A52F8255095
:1037C00003F003024FEA820E0F2202FA0EF225EAFC
:1037D0000205134A90423FF474AF02F580629042B2
:1037E0000ED002F5806290420CD002F580629042C9
:1037F0000AD002F5806290423FF461AF072261E790
:1038000001225FE702225DE703225BE702B070BDA1
:10381000704700BF00380140003C014000380240C2
:10382000000002400AB1816170470904816170475C
:10383000436901EA030221EA030141EA024181618D
:1038400070470000002800F0E08170B582B00446A7
:10385000036813F0010F3BD09F4B9B6803F00C03F0
:10386000042B2CD09C4B9B6803F00C03082B21D01D
:103870006368B3F5803F4FD0B3F5A02F52D0964B7D
:103880001A6822F480321A601A6822F480221A60C0
:103890006368002B50D0FFF70DFC05468E4B1B686C
:1038A00013F4003F14D1FFF705FC401B6428F5D941
:1038B0000320B1E1884B5B6813F4800FD8D0864BAE
:1038C0001B6813F4003F03D06368002B00F09F8156
:1038D000236813F0020F54D07F4B9B6813F00C0F3A
:1038E0003ED07D4B9B6803F00C03082B33D0E3687C
:1038F000002B68D0794B01221A60FFF7DBFB0546ED
:10390000754B1B6813F0020F54D1FFF7D3FB401B1C
:103910000228F5D903207FE16F4A136843F480330E
:103920001360B5E76C4B1A6842F480221A601A687B
:1039300042F480321A60ABE7FFF7BCFB0546664BEA
:103940001B6813F4003FC3D0FFF7B4FB401B64288F
:10395000F5D9032060E1604B5B6813F4800FC6D19A
:103960005D4B1B6813F0020F03D0E368012B40F09E
:103970005081594A136823F0F803216943EAC103CF
:103980001360236813F0080F42D063696BB3534B85
:103990000122C3F8802EFFF78DFB05464E4B5B6F6F
:1039A00013F0020F34D1FFF785FB401B0228F5D935
:1039B000032031E1484A136823F0F803216943EA00
:1039C000C1031360DDE7454B00221A60FFF772FB6D
:1039D0000546414B1B6813F0020FD2D0FFF76AFB7C
:1039E000401B0228F5D9032016E13C4B0022C3F806
:1039F000802EFFF75FFB0546374B5B6F13F0020F1E
:103A000006D0FFF757FB401B0228F5D9032003E13E
:103A1000236813F0040F77D02F4B1B6C13F0805FDB
:103A200033D1002301932C4B1A6C42F080521A645C
:103A30001B6C03F080530193019B0125284B1B68ED
:103A400013F4807F23D0A368012B34D0052B38D00A
:103A5000214B1A6F22F001021A671A6F22F004023A
:103A60001A67A368002B3DD0FFF724FB06461A4BCC
:103A70001B6F13F0020F46D1FFF71CFB801B41F2B6
:103A800088339842F3D90320C6E00025D6E7144ACC
:103A9000136843F480731360FFF70CFB0646104B6A
:103AA0001B6813F4807FCED1FFF704FB801B022834
:103AB000F5D90320B0E0084A136F43F00103136700
:103AC000CFE7054B1A6F42F004021A671A6F42F0F3
:103AD00001021A67C5E700BF0038024000004742F4
:103AE00000700040FFF7E6FA0646524B1B6F13F0DA
:103AF000020F08D0FFF7DEFA801B41F288339842AC
:103B0000F3D9032088E0EDB9A369002B00F083808E
:103B1000484A926802F00C02082A51D0022B17D0B2
:103B2000454B00221A66FFF7C5FA0446414B1B6855
:103B300013F0007F42D0FFF7BDFA001B0228F5D931
:103B4000032069E03B4A136C23F080531364DBE7E6
:103B5000394B00221A66FFF7ADFA0546354B1B6854
:103B600013F0007F06D0FFF7A5FA401B0228F5D915
:103B7000032051E0E369226A1343626A43EA821335
:103B8000A26A5208013A43EA0243E26A43EA026344
:103B9000284A5360284B01221A66FFF78BFA044625
:103BA000244B1B6813F0007F06D1FFF783FA001B3C
:103BB0000228F5D903202FE000202DE000202BE083
:103BC000012B2BD01B4B5B6803F48001E26991420F
:103BD00026D103F03F02216A8A4223D1616A47F667
:103BE000C0721A40B2EB811F1ED103F44031A26AA9
:103BF0005208013AB1EB024F18D103F07063E26A48
:103C0000B3EB026F14D1002006E0012070470120C1
:103C100002E0012000E0002002B070BD0120FBE7BF
:103C20000120F9E70120F7E70120F5E70120F3E79C
:103C30000120F1E7003802400000474208B5314B4F
:103C40009B6803F00C03042B57D0082B57D12D4B46
:103C50005A6802F03F025B6813F4800F2AD0294BA8
:103C60005968C1F3881C4FEA4C11B1EB0C006EEBA4
:103C70000E0E4FEA8E1343EA90638101091A63EB3B
:103C80000E03DB0043EA5173C90011EB0C0C43F146
:103C90000003590200234FEA4C2041EADC51FCF7B3
:103CA000D3FA184B5B68C3F3014301335B00B0FBED
:103CB000F3F025E0134B5968C1F3881C4FEA4C110F
:103CC000B1EB0C006EEB0E0E4FEA8E1343EA9063DD
:103CD0008101091A63EB0E03DB0043EA5173C9004B
:103CE00011EB0C0C43F10003990200234FEA8C20E6
:103CF00041EA9C51FCF7A8FAD3E7034800E00348E7
:103D000008BD00BF0038024000127A000024F40011
:103D1000002800F09B8070B50D4604464F4B1B6891
:103D200003F007038B4208D2CBB24C4A13701368DE
:103D300003F007038B4240F08B80236813F0020FDF
:103D400017D013F0040F04D0454A936843F4E053AE
:103D50009360236813F0080F04D0414A936843F43A
:103D6000604393603E4A936823F0F003A1680B43DD
:103D70009360236813F0010F32D06368012B21D0C8
:103D80009A1E012A25D9364A126812F0020F61D014
:103D900033498A6822F0030213438B60FFF78AF9E4
:103DA00006462F4B9B6803F00C036268B3EB820F4F
:103DB00016D0FFF77FF9801B41F288339842F0D983
:103DC000032042E0264A126812F4003FE0D10120AD
:103DD0003BE0234A126812F0007FD9D1012034E081
:103DE0001E4B1B6803F00703AB4207D9EAB21B4B1B
:103DF0001A701B6803F00703AB422DD1236813F040
:103E0000040F06D0164A936823F4E053E1680B438D
:103E10009360236813F0080F07D0114A936823F4C6
:103E20006043216943EAC1039360FFF707FF0C4B2E
:103E30009B68C3F303130B4AD35CD8400A4B18604A
:103E40000A4B1868FEF7A0FF002070BD01207047E4
:103E50000120FAE70120F8E70120F6E7003C0240E4
:103E6000003802404C70000848080020500800202C
:103E7000014B1868704700BF4808002008B5FFF7DD
:103E8000F7FF044B9B68C3F38223034AD35CD840FB
:103E900008BD00BF003802405C70000808B5FFF79D
:103EA000E7FF044B9B68C3F34233034AD35CD8401B
:103EB00008BD00BF003802405C7000080F2303609B
:103EC0000B4B9A6802F0030242609A6802F0F0021B
:103ED00082609A6802F4E052C2609B68DB0803F4D7
:103EE000E0530361034B1B6803F007030B6070474B
:103EF00000380240003C02407047000090F83D301E
:103F0000DBB2012B2FD1022380F83D300268D36849
:103F100043F00103D3600368154A934218D0B3F10C
:103F2000804F15D0A2F57C42934211D002F58062F9
:103F300093420DD002F58062934209D002F59A3285
:103F4000934205D01A6842F001021A6000207047BF
:103F50009A6802F00702062A07D01A6842F00102A6
:103F60001A6000207047012070470020704700BF92
:103F700000000140704770477047704710B5044615
:103F800003681A6912F0020F11D0DA6812F0020FFA
:103F90000DD06FF002021A610123037703689B6959
:103FA00013F0030F70D0FFF7E6FF00232377236899
:103FB0001A6912F0040F12D0DA6812F0040F0ED052
:103FC0006FF004021A610223237723689B6913F4BC
:103FD000407F5FD02046FFF7CEFF00232377236882
:103FE0001A6912F0080F12D0DA6812F0080F0ED01A
:103FF0006FF008021A61042323772368DB6913F04A
:10400000030F4ED02046FFF7B6FF00232377236827
:104010001A6912F0100F12D0DA6812F0100F0ED0D9
:104020006FF010021A61082323772368DB6913F409
:10403000407F3DD02046FFF79EFF00232377236873
:104040001A6912F0010F03D0DA6812F0010F36D1AD
:1040500023681A6912F0800F03D0DA6812F0800F1B
:1040600034D123681A6912F0400F03D0DA6812F0D5
:10407000400F32D123681A6912F0200F03D0DA689A
:1040800012F0200F30D110BDFFF774FF2046FFF76C
:1040900073FF8AE72046FFF76DFF2046FFF76CFFAE
:1040A0009BE72046FFF766FF2046FFF765FFACE77A
:1040B0002046FFF75FFF2046FFF75EFFBDE76FF08A
:1040C00001021A612046FEF7CBFBC1E76FF08002C8
:1040D0001A61204600F08BF8C3E76FF040021A61C6
:1040E0002046FFF74AFFC5E76FF020021A6120461D
:1040F00000F07CF8C7E700000368254A90420ED024
:10410000B0F1804F0BD0A2F57C42904207D002F56F
:104110008062904203D002F58062904203D123F086
:1041200070034A6813431A4A90421AD0B0F1804F84
:1041300017D0A2F57C42904213D002F580629042E3
:104140000FD002F5806290420BD002F59A32904275
:1041500007D002F58062904203D002F5806290425F
:1041600003D123F44073CA68134323F080034A69E0
:10417000134303608B68C3620B688362044B9842ED
:1041800002D00123436170470B690363F9E700BF65
:104190000000014040B310B5044690F83D30F3B143
:1041A000022384F83D30214651F8040BFFF7A4FFA9
:1041B000012384F8463084F83E3084F83F3084F898
:1041C000403084F8413084F8423084F8433084F839
:1041D000443084F8453084F83D30002010BD80F82C
:1041E0003C30FFF789FEDBE70120704770477047DE
:1041F000026802F10C0353E8003F23F0C0030C32C5
:1042000042E800310029F3D1202380F83D30704787
:10421000026802F10C0353E8003F23F490730C3260
:1042200042E800310029F3D1026802F1140353E897
:10423000003F23F00103143242E800310029F3D19A
:10424000036B012B05D0202380F83E30002303634D
:104250007047026802F10C0353E8003F23F010039B
:104260000C3242E800310029F3D1ECE790F83D3000
:10427000DBB2212B01D0022070478368B3F5805F49
:1042800017D0036A5A1C02621A7803685A60C38CFA
:104290009BB2013B9BB2C3844BB90268D36823F045
:1042A0008003D3600268D36843F04003D3600020EA
:1042B00070470369002BE4D1036A1B880268C3F3CB
:1042C00008035360036A02330362E0E738B504462B
:1042D0000268136923F44053C1680B431361836878
:1042E0000269134342691343C2691A430168CB68E8
:1042F00023F4164323F00C031343CB600268536985
:1043000023F4407381690B4353610368314A93423C
:1043100006D002F58062934202D0FFF7AFFD01E0C4
:10432000FFF7BCFDE369B3F5004F29D00021031866
:1043300049411B1841F10001C90041EA5371DB00FA
:10434000181863684FEA83024FEA937341F1000142
:10435000FBF77AFF204DA5FB00325109642303FBD4
:1043600011031B013233A5FB03235B0903F0F002A9
:1043700002EB011203F00F03216813448B6038BD78
:104380000023021843EB0301121841F10001C90098
:1043900041EA5271D200101841F10001626892188E
:1043A0005B41FBF751FF0C4DA5FB00325109642323
:1043B00003FB1103DB003233A5FB03235B095A0027
:1043C00002F4F87202EB011203F0070321681344B0
:1043D0008B60D4E7001001401F85EB512DE9F843B5
:1043E00005460F4616469946DDF820802C6824685D
:1043F00037EA04030CBF4FF0010C4FF0000CB4453A
:104400002DD1B8F1FF3FF1D0B8F1000F05D0FEF784
:1044100051FEA0EB09004045E8D92A6802F10C03DF
:1044200053E8003F23F4D0730C3242E800310029F6
:10443000F3D12A6802F1140353E8003F23F001038B
:10444000143242E800310029F3D1202385F83D30B1
:1044500085F83E30002385F83C30032000E0002042
:10446000BDE8F88358B310B5044690F83D300BB35F
:10447000242384F83D302268D36823F40053D360AA
:104480002046FFF723FF2268136923F4904313614A
:104490002268536923F02A0353612268D36843F4E6
:1044A0000053D36000202064202384F83D3084F83A
:1044B0003E3010BD80F83C30FEF730FDD8E70120DB
:1044C00070472DE9F04182B01E4690F83D30DBB2D6
:1044D000202B54D104460D469046002953D0002A83
:1044E00053D090F83C30012B51D0012380F83C3060
:1044F00000230364212380F83D30FEF7DBFD0746EF
:10450000A4F82480A4F82680A368B3F5805F05D0C2
:104510004FF00008002384F83C3012E0236913B107
:104520004FF00008F6E7A8460025F3E738F8023B0D
:104530002268C3F308035360E28C92B2013A92B24C
:10454000E284E38C9BB273B100963B46002280214B
:104550002046FFF743FFE0B9002DE7D015F8012B07
:1045600023685A60E8E700963B4600224021204637
:10457000FFF734FF78B9202384F83D3000E00220B3
:1045800002B0BDE8F0810120FAE70120F8E702203F
:10459000F6E70320F4E70320F2E7000038B590F8CF
:1045A0003D30DBB2202B38D10446002937D0002A19
:1045B00037D090F83C30012B35D0012380F83C30C7
:1045C00001628284C28400250564212380F83D3085
:1045D000436B1648D863636B15481864636B1548C2
:1045E000D864636B1D6520681346021D606BFEF77F
:1045F000B9FE23686FF040021A6084F83C502268CC
:1046000002F1140353E8003F43F08003143242E800
:1046100000310029F3D1002000E0022038BD012044
:10462000FCE70120FAE70220F8E700BF3B4600085C
:10463000A3460008B1460008704708B50346806BE2
:104640001B681B6813F4807F1AD10023C38402689F
:1046500002F1140353E8003F23F08003143242E8D0
:1046600000310029F3D1026802F10C0353E8003F46
:1046700043F040030C3242E800310029F3D108BD79
:10468000FFF7DAFFFBE708B50168CA6822F04002CD
:10469000CA60202280F83D20FFF7CEFF002008BD31
:1046A000704708B5806BFFF7FBFF08BD7047704788
:1046B00010B5846B23685A6994F83D30DBB2212B26
:1046C00010D023685A6902F0400294F83E30DBB201
:1046D000222B11D0236C43F0100323642046FFF7F4
:1046E000E6FF10BD02F08002002AEAD00023E38436
:1046F0002046FFF77DFDE4E7002AEBD00023E385A9
:104700002046FFF785FDE5E708B5806B0023C385EC
:10471000C384FFF7CCFF08BD704790F83E30DBB292
:10472000222B67D18368B3F5805F4DD0826AB3F5E1
:10473000805F04D0002B54D10369002B51D1036852
:104740005B681370836A01338362C38D9BB2013B44
:104750009BB2C385002B4FD100B583B00268D368EC
:1047600023F02003D3600268D36823F48073D360FE
:104770000268536923F001035361202380F83E301F
:10478000036B012B33D100230363026802F10C0396
:1047900053E8003F23F010030C3242E800310029B7
:1047A000F3D103681A6812F0100F06D000220192AC
:1047B0001A6801925B680193019B818DFFF7ACFF42
:1047C000002003B05DF804FB0269002AAED1826AC2
:1047D00003685B68C3F308031380836A0233836250
:1047E000B3E703685B6803F07F031370AAE7FFF782
:1047F0005DFFE5E7022070470020704730B583B0C9
:10480000044602681368D068516913F00F0505D19A
:1048100013F0200F02D010F0200F19D12DB111F09C
:10482000010119D110F4907F16D1216B01297DD09F
:1048300013F0800F03D010F0800F40F0158113F0BB
:10484000400F03D010F0400F40F0128103B030BD94
:104850002046FFF762FFF9E713F0010F06D010F4CE
:10486000807F03D0226C42F00102226413F0040F17
:1048700004D019B1226C42F00202226413F0020F3C
:1048800004D019B1226C42F00402226413F0080F24
:1048900007D010F0200F00D119B1226C42F00802AD
:1048A0002264226C002AD1D013F0200F02D010F025
:1048B000200F29D123685B6903F04003226C12F0BA
:1048C000080F00D163B32046FFF7A2FC23685B69A1
:1048D00013F0400F20D0226802F1140353E8003F88
:1048E00023F04003143242E800310029F3D1A36BD6
:1048F00073B1614A1A65A06BFEF7B3FD0028A5D01D
:10490000A06B036D9847A1E72046FFF706FFD1E7AC
:104910002046FFF7CCFE99E72046FFF7C8FE95E753
:104920002046FFF7C4FE002323648FE713F0100F27
:104930003FF47EAF10F0100F3FF47AAF00230193E5
:104940001368019353680193019B536913F0400F5F
:1049500050D0A26B13685B689BB2002B3FF476AF1C
:10496000A18D99427FF672AFE385D369B3F5807F5D
:1049700037D0226802F10C0353E8003F23F4807320
:104980000C3242E800310029F3D1226802F114030D
:1049900053E8003F23F00103143242E800310029BC
:1049A000F3D1226802F1140353E8003F23F04003DF
:1049B000143242E800310029F3D1202384F83E303C
:1049C00000232363226802F10C0353E8003F23F025
:1049D00010030C3242E800310029F3D1A06BFEF73E
:1049E000F6FCA18DE38D9BB2C91A89B22046FFF770
:1049F00093FE2BE7A18DE38D9BB2C91A89B2E38D9B
:104A00009BB2002B3FF422AF00293FF41FAF226876
:104A100002F10C0353E8003F23F490730C3242E898
:104A200000300028F3D1226802F1140353E8003F5C
:104A300023F00103143242E800300028F3D1202390
:104A400084F83E3000232363226802F10C0353E80C
:104A5000003F23F010030C3242E800300028F3D16D
:104A60002046FFF759FEF1E62046FFF7FFFBEDE693
:104A70002046FFF708FEE9E609470008842801D030
:104A8000033070470020704708B500F033FD002068
:104A900008BD2DE9F04387B004460F464569BDB116
:104AA0008669AEB1D0F80480D0F80090B0F9080063
:104AB000FFF7E4FF0296019500903B4622694946C4
:104AC000404600F0A7FC0590059807B0BDE8F083CC
:104AD00065682668D4F81080B4F90800FFF7CEFFA7
:104AE00005AB019300903B461FFA88F231462846F9
:104AF00000F0CBFC0128E7D00020E6E708B500B9BC
:104B0000012000F047FE002008BD00F108034360CB
:104B10004FF0FF328260C36003610023036070477F
:104B200000230361704743684B609A688A60516054
:104B300099600861036801330360704730B40D6801
:104B4000B5F1FF3F11D000F108031C465B681A68FD
:104B5000AA42FAD963684B6099608C606160086111
:104B600003680133036030BC70470469F2E70369EE
:104B7000416882688A60416851605A68824206D002
:104B8000002202611A68013A1A6018687047826848
:104B90005A60F5E782B0002301930D4B1B68B3F117
:104BA000FF3F08D04FF0500383F31188BFF36F8F9E
:104BB000BFF34F8FFEE74FF0500383F31188BFF32D
:104BC0006F8FBFF34F8F019B002BFCD002B070475B
:104BD0005408002008480068006880F308884FF0F7
:104BE000000080F3148862B661B6BFF34F8FBFF345
:104BF0006F8F00DF00BF000008ED00E0DFF80C0061
:104C0000016841F4700101607047000088ED00E028
:104C10004FF0807340F8043C21F0010140F8081C7B
:104C2000054B40F80C3C40F8202C6FF0020340F894
:104C3000243C4438704700BF954B0008000000003A
:104C4000074B19680868B0E8F04F80F30988BFF394
:104C50006F8F4FF0000080F311887047AFF3008032
:104C6000A84800204FF0500383F31188BFF36F8FE3
:104C7000BFF34F8F0B4A136801331360012B00D031
:104C800070474FF0E023D3F8043D13F0FF0FF7D047
:104C90004FF0500383F31188BFF36F8FBFF34F8F33
:104CA000FEE700BF54080020094B1B6843B94FF0D2
:104CB000500383F31188BFF36F8FBFF34F8FFEE76D
:104CC000013B034A13600BB983F31188704700BF9F
:104CD0005408002000000000000000000000000058
:104CE000EFF30980BFF36F8F154B1A681EF0100F9A
:104CF00008BF20ED108A20E9F04F10602DE909006F
:104D00004FF0500080F31188BFF34F8FBFF36F8FC8
:104D100000F066FD4FF0000080F3118809BC1968AF
:104D20000868B0E8F04F1EF0100F08BFB0EC108A12
:104D300080F30988BFF36F8F704700BFAFF3008027
:104D4000A848002008B54FF0500383F31188BFF343
:104D50006F8FBFF34F8F00F015FC28B14FF0E023A9
:104D60004FF08052C3F8042D002383F3118808BD4F
:104D70004FF0E022002313619361054B1B68054946
:104D8000A1FB03139B09013B536107231361704788
:104D900048080020D34D62104FF0E023D3F8002DD7
:104DA0003D4B9A421CD04FF0E023D3F8002D3B4BF3
:104DB0009A421ED030B583B0394B1A78D2B20192E4
:104DC000FF221A701B78DBB28DF803309DF8033098
:104DD00003F05003334A1370334B07221A601BE071
:104DE0004FF0500383F31188BFF36F8FBFF34F8FE2
:104DF000FEE74FF0500383F31188BFF36F8FBFF3CB
:104E00004F8FFEE7284A1368013B13609DF803307B
:104E10005B00DBB28DF803309DF8033013F0800F98
:104E2000F0D1214B1B68032B08D04FF0500383F3C4
:104E30001188BFF36F8FBFF34F8FFEE71B021A4A33
:104E4000136003F4E0631360019BDBB2144A137038
:104E50004FF0E024D4F8203D43F47003C4F8203D23
:104E6000D4F8203D43F07043C4F8203DFFF780FFA5
:104E700000250E4B1D60FFF7C1FED4F8343F43F010
:104E80004043C4F8343FFFF7A5FE00F0A9FCFFF74C
:104E900081FE284603B030BD71C20F4170C20F4180
:104EA00000E400E0800C0020840C00205408002066
:104EB000124A12F0070F1ED0D11D21F00701C1F5D3
:104EC000705313440A460E480260002141601344A7
:104ED000083B23F007030B48036059601960991AD7
:104EE00051601360084B1960084B1960084B4FF074
:104EF00000421A6070474FF47053E4E78C0C0020B6
:104F0000A0480020880C00209448002090480020F1
:104F10008C480020164B1A461B688342FBD351680D
:104F200002EB010C844509D0416800EB010C63459C
:104F300009D00360904219D0106070474068014466
:104F400051601046F0E710B40A4C2468A3420BD01D
:104F50005B681944416013681B680360904200D08D
:104F600010605DF8044B70470460F7E7704700BFBE
:104F7000A0480020880C002070B5054600F0F4FA27
:104F8000364B1B68A3B1364B1B681D424ED135B161
:104F9000083515F0070F02D025F007050835002D5C
:104FA00046D0304B1B68AB4251D32F4A146804E003
:104FB000FFF77EFFE7E722461C466368AB4202D25A
:104FC0002368002BF7D1254B1B68A34241D01668FC
:104FD00008362368136063685B1B102B10D96019B7
:104FE00010F0070F08D04FF0500383F31188BFF380
:104FF0006F8FBFF34F8FFEE743606560FFF78AFF57
:10500000626818490B689B1A0B60184909688B4243
:1050100001D216490B60124B1B68134363600023D7
:105020002360134A13680133136002E0002600E096
:10503000002600F033FB16F0070F0CD04FF05003A2
:1050400083F31188BFF36F8FBFF34F8FFEE7002606
:10505000EFE70026EDE7304670BD00BF880C00206A
:105060008C48002090480020A04800209448002050
:1050700098480020002834D038B50446A0F108052F
:1050800050F8043C174A1268134208D14FF05003FD
:1050900083F31188BFF36F8FBFF34F8FFEE750F894
:1050A000081C41B14FF0500383F31188BFF36F8F99
:1050B000BFF34F8FFEE723EA020340F8043C00F001
:1050C00053FA54F8041C084A13680B44136028462A
:1050D000FFF720FF054A13680133136000F0DEFA82
:1050E00038BD70478C480020904800209C48002024
:1050F000084B1B681B6823B9074B4FF0FF321A603F
:105100007047044B1B68DB68DB685A68024B1A6007
:10511000704700BFAC480020804900202DE9F047CF
:1051200007469846089DDDF824900A9C266B02F1FC
:105130008042013A06EB820626F0070600293AD0A3
:105140008E464FF0000CBCF10F0F0BD81EF80C2050
:1051500004EB0C0383F834201EF80C3013B10CF16F
:10516000010CF0E7002384F84330062D00D9062512
:10517000E56265644FF0000AC4F848A0201DFFF7FF
:10518000CFFC04F11800FFF7CBFC2461C5F1070543
:10519000A5616462C4F84CA084F850A04246394628
:1051A0003046FFF735FD2060B9F1000F01D0C9F896
:1051B0000040BDE8F087002384F83430D5E70000D4
:1051C00038B5002407E004EB840293000E4818442D
:1051D000FFF79BFC0134062CF5D90C4D2846FFF750
:1051E00094FC0B4C2046FFF790FC0A48FFF78DFC1F
:1051F0000948FFF78AFC0948FFF787FC084B1D6048
:10520000084B1C6038BD00BFB44800205449002042
:10521000684900208C490020B8490020A44900209A
:10522000AC480020B048002010B50446FFF71AFD36
:10523000214A136801331360204B1B685BB1204B7C
:105240001B686BB91D4B1B68DA6AE36A9A4207D880
:105250001A4B1C6004E0194B1C601368012B28D00A
:10526000184A136801331360E06A01238340164A29
:1052700011680B43136000EB8000211D134B03EBFF
:105280008000FFF750FCFFF70FFD0D4B1B687BB153
:105290000A4B1B68DA6AE36A9A4209D24FF0E023AC
:1052A0004FF08052C3F8042DBFF34F8FBFF36F8FC1
:1052B00010BDFFF785FFD3E740490020A848002034
:1052C000A04900204C49002050490020B44800204B
:1052D00010B5044690F8513063B1012B11D0022B68
:1052E0000ED04FF0500383F31188BFF36F8FBFF3DD
:1052F0004F8FFEE7006BFFF7BDFE2046FFF7BAFEBB
:1053000010BDFFF7B7FEFBE70F4B1B68D3B110B51D
:10531000FFF7A8FC0D4BDB68DC68201DFFF727FCBE
:105320000B4A1368013B1360074A1368013B136083
:10533000FFF7BAFC2046FFF7CBFF034B1B68002B9F
:10534000E6D110BD704700BF44490020B849002095
:105350004049002008B5FFF7D7FF074B1B68012B1A
:10536000F9D94FF0E0234FF08052C3F8042DBFF37A
:105370004F8FBFF36F8FEEE7B448002070B504463F
:105380000D461D4B1E681D4B18680430FFF7EFFBE0
:1053900050B91A4B1B68DA6A012303FA02F2184962
:1053A0000B6823EA02030B60B4F1FF3F0DD03444D5
:1053B000124B1B685C60A64210D9124B18680F4B49
:1053C00019680431FFF7BAFB70BD002DEFD00B4B0D
:1053D000196804310C48FFF7A6FBF5E70B4B18687A
:1053E000064B19680431FFF7A9FB094B1B68A34260
:1053F000EAD9074B1C60E7E7CC490020A848002009
:1054000050490020B0480020A4490020AC480020AA
:105410008049002030B587B00B9C7CB10C9DB5B1A4
:1054200054250495049D542D1AD04FF0500383F356
:105430001188BFF36F8FBFF34F8FFEE74FF050031C
:1054400083F31188BFF36F8FBFF34F8FFEE74FF0E9
:10545000500383F31188BFF36F8FBFF34F8FFEE7C5
:10546000049D0C9D2C63022485F851400024039474
:10547000029505AC01940A9C0094FFF74FFE0C982E
:10548000FFF7D2FE059807B030BD2DE9F04385B097
:105490000746884614461E469000FFF76DFD00B390
:1054A00081465420FFF768FD0546B0B1C0F8309042
:1054B000E5B1002385F85130039302950D9B0193CC
:1054C0000C9B00933346224641463846FFF726FEA2
:1054D0002846FFF7A9FE012005E04846FFF7CAFD70
:1054E000E6E74FF0FF3005B0BDE8F0834FF0FF3046
:1054F000F9E7000010B588B000240594069407AAC7
:1055000006A905A8FDF71EF9059B0293069B0193CA
:1055100000942346079A0E490E48FFF77BFF0E4B77
:10552000186090B14FF0500383F31188BFF36F8F71
:10553000BFF34F8F094B4FF0FF321A60084B012227
:105540001A60084B1C60FFF727FC08B010BD00BFB5
:105550006C700008555300087C49002080490020E9
:10556000A0490020CC490020024A1368013313608F
:10557000704700BF48490020014B1868704700BFC2
:10558000CC490020F8B53A4B1B68002B69D1394B48
:105590001D6801351D60C5B9374B1B681B6843B1D9
:1055A0004FF0500383F31188BFF36F8FBFF34F8F1A
:1055B000FEE7314A1168314B186810601960304AB3
:1055C000136801331360FFF793FD2E4B1B68AB424A
:1055D0003DD900272C4B1B68DB6A03EB83039A0041
:1055E0002A4B9B58012B00D90127294B1B68002B04
:1055F0003CD001273AE001271F4B1B681B6843B3CF
:105600001D4B1B68DB68DC6863689D4226D3261D42
:105610003046FFF7ACFAA36A1BB104F11800FFF79C
:10562000A6FAE36A01229A401A49086802430A600E
:1056300003EB83039A00314614481044FFF773FAD2
:10564000E26A114B1B68DB6A9A42D4D2D4E7002786
:10565000D2E70C4B4FF0FF321A60BBE7094A1360E8
:10566000B8E70D4A13680133136000273846F8BDC8
:1056700048490020CC490020AC480020B048002018
:105680008449002080490020A8480020B448002018
:10569000D0490020504900208849002038B5354BBA
:1056A0001B6843B94FF0500383F31188BFF36F8F2A
:1056B000BFF34F8FFEE7FFF7D5FA2E4B1A68013A7A
:1056C0001A601B68002B4FD12B4B1B680BB90024B1
:1056D0004BE00024294B1B681BB3284BDB68DC68BC
:1056E00004F11800FFF743FA251D2846FFF73FFA9B
:1056F000E06A01238340224A11680B43136000EBE8
:10570000800029461F4B03EB8000FFF70CFAE26A8A
:105710001D4B1B68DB6A9A42DCD31C4B01221A60CA
:10572000D8E70CB1FFF7E4FC194B1C6884B9174BA0
:105730001C68D4B14FF0E0234FF08052C3F8042D21
:10574000BFF34F8FBFF36F8F01240EE0013C07D0F2
:10575000FFF718FF0028F9D00C4B01221A60F5E77B
:105760000B4B00221A60E2E70024FFF79DFA204667
:1057700038BD00BF48490020404900208C49002026
:1057800050490020B4480020A8480020D0490020FB
:105790008849002010B5A8B10446104B1B6843B1DE
:1057A0004FF0500383F31188BFF36F8FBFF34F8F18
:1057B000FEE7FFF7D9FE00212046FFF7DFFDFFF7E8
:1057C0006DFF48B94FF0E0234FF08052C3F8042D2D
:1057D000BFF34F8FBFF36F8F10BD00BF484900204C
:1057E000204B1B681BB1204B01221A6070471E4BD7
:1057F00000221A601D4B1B68B3FA83F3DBB2C3F1BE
:105800001F0303EB83018A0019498A5842B94FF0FC
:10581000500383F31188BFF36F8FBFF34F8FFEE701
:10582000134903EB830082000A44506840685060CB
:1058300003EB830C4FEA8C0208321144884209D0F2
:1058400003EB83039A000A4B13445B68DA68094B45
:105850001A607047406862469100054A0A445060E9
:10586000EEE700BF48490020D04900205049002001
:10587000B4480020A8480020034608461946FBF714
:10588000DDBD00BF00F070BF1EB400F08FF81EBC7D
:10589000FBF7D4FBF0B50278472A83B00C461D46CF
:1058A00019D00023264E0193336830469B689847F1
:1058B00078B1019B1B68019302272368314620467B
:1058C0001E6901AA0123B04718BB0746384603B03A
:1058D000F0BD0127F1E743784E2BE2D18378552BB9
:1058E000DFD1C378432BDCD10379462B1BD003795E
:1058F000432BD6D143792B2BD3D183792B2BD0D1EA
:10590000C379012BCDD809D050F8206C58300190C4
:10591000CAE7019B2B60384603B0F0BD50F8200C5D
:1059200050F8786CF3E743794F2BE0D18379522B11
:10593000DDD1C379002BDAD1024E0193B4E700BF69
:10594000907000088870000810B5044600F07AF8DE
:10595000224612F82039472B04D0836823BB82608B
:10596000012010BD63784E2BF7D1A378552BF4D1CD
:10597000E378432BF1D12379432BEED163792B2BA1
:10598000EBD1A3792B2BE8D1E379012BE5D854F89F
:10599000043C0133012B44F8043CE1D1836844F812
:1059A000083C8260012010BD00F08AFB08B500F0C1
:1059B00049F8836883B393F82020472A04D0002253
:1059C000826003F1200008BD93F821204E2AF6D111
:1059D00093F82220552AF2D193F82320432AEED1BE
:1059E00093F82420432AEAD193F825202B2AE6D1E4
:1059F00093F826202B2AE2D193F82720012ADED81B
:105A0000DA69013ADA61002ADBD199698160002202
:105A10009A6103F1200008BD00F052FB704700BFFF
:105A2000704700BF004870477470000810B504212B
:105A30000446FFF727FF204610BD00BF004870470F
:105A4000D449002000487047D4490020502870B540
:105A50001DD0844600F00F000C2855D8DFE800F078
:105A6000074426071E545454542A22071E00104689
:105A700050F8046B4EB10CF07004102C08BF1146A6
:105A80000E441CF0800F18BF36681E6070BD0332D4
:105A900022F0030050F8046B1E6070BD104650F8F1
:105AA000086BE7E7104630F9026BE3E7104630F881
:105AB000026BDFE700261046344610F8015B05F064
:105AC0007F0E0EFA04FE15F0800F46EA0E0604F172
:105AD0000704F2D11F2CCDD86D06CBD54FF0FF3582
:105AE00005FA04F42643C6E700261046344610F8AB
:105AF000015B05F07F0E0EFA04FE2D0646EA0E0647
