:020000040800F2
:1000000010090124E1020008C73000086D2F000824
:10001000C530000867080008F5430008000000002C
:10002000000000000000000000000000253C000867
:100030006908000800000000E1390008273C0008BA
:10004000FB020008FB020008FB020008FB0200089C
:10005000FB020008FB020008FB020008FB0200088C
:10006000FB020008FB020008FB020008FB0200087C
:10007000FB020008FB020008FB020008FB0200086C
:10008000FB020008FB020008FB020008FB0200085C
:10009000FB020008FB020008FB020008FB0200084C
:1000A000FB020008FB020008FB020008FB0200083C
:1000B000FB020008FB020008FB020008FB0200082C
:1000C000FB020008FB020008FB020008FB0200081C
:1000D000FB020008FB020008FB020008FB0200080C
:1000E000FB020008FB02000800000000FB02000801
:1000F000FB020008FB020008FB020008FB020008EC
:10010000FB020008FB020008FB020008FB020008DB
:10011000FB020008FB020008FB020008FB020008CB
:10012000FB020008FB020008FB020008FB020008BB
:10013000FB020008FB020008FB020008FB020008AB
:1001400000000000000000000000000000000000AF
:10015000FB020008FB020008FB020008FB0200088B
:10016000FB020008FB020008FB020008FB0200087B
:10017000FB020008FB020008FB0200080000000070
:10018000FB020008FB020008FB020008FB0200085B
:10019000FB020008FB020008FB020008FB0200084B
:1001A000FB020008FB020008FB0200080000000040
:1001B000FB020008FB020008FB020008FB0200082B
:1001C000FB020008FB020008000000000000000025
:1001D0000000000000000000FB020008000000001A
:1001E000000000000000000000000000000000000F
:1001F0000000000000000000FB020008FB020008F5
:10020000FB020008FB02000800000000FB020008DF
:10021000FB020008FB020008FB020008FB020008CA
:10022000FB02000800000000FB02000800000000C4
:10023000FB020008FB02000800000000FB020008AF
:10024000FB020008FB020008FB020008FB0200089A
:10025000FB020008FB020008FB020008FB0200088A
:10026000FB020008FB020008FB020008FB0200087A
:10027000FB020008FB020008FB020008000000006F
:10028000FB020008FB020008FB020008FB0200085A
:1002900000000000FB020008FB0200080000000054
:1002A00000000000FB020008FB020008FB0200083F
:1002B000FB020008FB020008FB020008FB0200082A
:1002C000FB020008FB020008FB020008DFF80CD06C
:1002D00000F048FA00480047254D000810090124A5
:1002E0000648804706480047FEE7FEE7FEE7FEE7D0
:1002F000FEE7FEE7FEE7FEE7FEE7FEE7C13C00089B
:10030000CD0200082DE9F05F0546002092469B468D
:1003100088460646814640241BE02846414647461B
:10032000224600F057F853465A46C01A914110D35E
:1003300011461846224600F03EF82D1A67EB0108D8
:100340004F4622460120002100F035F817EB000946
:100350004E41201EA4F10104DFDC484631462A4606
:100360004346BDE8F09FD2B201E000F8012B491EE0
:10037000FBD270470022F6E710B513460A46044642
:100380001946FFF7F0FF204610BD30B50B46014679
:1003900000202022012409E021FA02F59D4205D324
:1003A00003FA02F5491B04FA02F52844151EA2F1CE
:1003B0000102F1DC30BD202A04DB203A00FA02F110
:1003C000002070479140C2F1200320FA03F3194343
:1003D00090407047202A04DB203A21FA02F00021E5
:1003E000704721FA02F3D040C2F120029140084345
:1003F000194670472DE9FE4F804681EA0300C00F81
:100400000C46009021F0004123F00045B8EB0200BB
:10041000A94105D24046214690461C460B4602465D
:1004200023F00040104347D0270DC7F30A00C3F361
:100430000A510290401A019040286BDAC3F313006E
:1004400040F4801B0098924620B10023D2EB030AAF
:1004500063EB0B0B01985946C0F140025046FFF781
:10046000AAFF06460D4650465946019A00F08CF9FF
:1004700010EB08006141002487EA115284EAE77317
:100480001A4340D0009A62B3019A012A4FEA0752F8
:1004900015DC001B61EB02014FF0004202EA07523B
:1004A000CDE90042001C41F5801132462B4600F098
:1004B0008CF903B0BDE8F08F40462146F9E7001BF8
:1004C00061EB0201001C41F5801300185B4120180C
:1004D000A2F5001747EB030140EAD570B6196D414C
:1004E00011E06D084FEA360645EAC0754FEA07523B
:1004F000001B61EB0201001C41F5801149084FEA25
:1005000030000019514132462B4603B0BDE8F04F90
:1005100000F04CB90098012240000023D0EB020209
:1005200063EBE073009821464FEAE074B8EB0000FB
:1005300061EB0401E9E783F000435BE781F00041F0
:1005400058E72DE9FE4F81EA030404F0004421F04E
:10055000004100944FF0000B23F0004350EA0104E7
:100560005ED052EA03045BD0C3F30A54C1F30A55C8
:100570002C44A4F2F3340194A0FB0254C1F3130100
:1005800041F48011C3F3130343F4801301FB0244CD
:1005900000FB034E840A970A44EA815447EA8357D2
:1005A000A4FB076802958D0A05FB07854FEA932C8B
:1005B00004FB0C542705029D4FEA065847EA1637FC
:1005C000B5EB08056EEB070C870E920E47EA811714
:1005D00042EA8312A7FB0201B6EB0B0164EB0004B5
:1005E0002B0D43EA0C335E1844EB1C50DA4651469F
:1005F000E7FB0201C5F313044FEA0B3343EA14533C
:100600004FEA0432019C43EA0603A4F10C0402946D
:10061000009CCDE900B400F0D8F803B0BDE8F08F3D
:1006200000200146F9E72DE9F04D81EA030404F0CA
:10063000004B21F0004514464FF0000A23F0004122
:1006400050EA050220D054EA01021DD0C5F30A5732
:100650000246C5F31303C1F31300C1F30A5640F475
:10066000801543F48013A7EB0608101BD64608F24A
:10067000FD3873EB050002D308F1010801E0921880
:100680005B41B8F1000F03DA00200146BDE8F08DB0
:1006900000204FF48011064684460EE0171B73EBD2
:1006A000050705D3121B63EB050306434CEA010C57
:1006B00049084FEA300092185B4150EA0107EDD13A
:1006C00052EA030012D082EA040083EA05010843DB
:1006D00005D0101BAB4106D20122002306E0002208
:1006E0004FF0004302E06FF0010253101AEB0600D6
:1006F0004CEB085110EB0A0041EB0B01BDE8F04D4B
:1007000000F054B8C1F30A52C1F3130140F2FF33B1
:1007100041F480119A4202DA00200146704740F20B
:1007200033439A42A2F2334202DC5242FFF752BEF6
:10073000FFF741BE30B5041E71F1000404DB4FF039
:100740000044404264EB0101141E73F1000405DB18
:100750001C464FF00043524263EB0403994208BF2A
:10076000904230BD064C074D06E0E06840F00103C2
:1007700094E8070098471034AC42F6D3FFF7AAFD7F
:10078000A84F0008C84F0008202A06DBCB17203AE4
:1007900041FA02F043EAE07306E041FA02F3D04086
:1007A000C2F12002914008431946704710B5141E4B
:1007B00073F1000408DA401C41F1000192185B411A
:1007C0001A4301D120F0010010BD2DE9F04D9246F1
:1007D0009B4611B1B1FA81F202E0B0FA80F2203208
:1007E0009046FFF7E8FD04460F4640EA0A0041EA5A
:1007F0000B0153465A46084313D0114653EA0100F1
:1008000019D0C8F140025046FFF7E4FD05460E46F8
:10081000504659464246FFF7CEFD084305D0012019
:1008200004E020463946BDE8F08D0020054346EA45
:10083000E0762C4337430A986305E40AA0EB0800EE
:100840000022FD0A44EA47540A3002D5002001463E
:10085000E9E7010510196941DDE908450019694119
:10086000BDE8F04DA2E7FEE7704772B6FEE7000074
:100870002DE9F04F4C4D00224FF0010A4FF00F0BC5
:100880008BE000BF0AFA02F919EA01037DD022F0D9
:10089000030606F1B0469407D6F808C4270FDFF820
:1008A0000C810BFA07FE40450EEA0C0402D14FF012
:1008B000000C39E0DFF8F8C0604502D14FF0010CC0
:1008C00032E0DFF8F0C0604502D14FF0020C2BE0BF
:1008D000DFF8E4C0604502D14FF0030C24E0DFF8FC
:1008E000DCC0604502D14FF0040C1DE0DFF8D0C041
:1008F000604502D14FF0050C16E0DFF8C8C0604536
:1009000002D14FF0060C0FE0DFF8BCC0604502D109
:100910004FF0070C08E0DFF8B4C0604502D14FF09B
:10092000090C01E04FF00A0C0CFA07FCA44513D1A6
:100930002C689C432C606F684FF0B0449F436F60FD
:1009400067689F43676027689F432760D6F808441D
:1009500024EA0E04C6F8084406680323D7084FEAC1
:1009600042084FEA427C03FA08F34FEADC6C1E436C
:1009700006600BFA0CF400EB87073E6AA6433E6262
:10098000C4689C43C460446800E005E024EA0904AC
:10099000446084689C438460521C31FA02F37FF403
:1009A00071AFBDE8F08F00008000005800000258D1
:1009B0000004025800080258000C025800100258A7
:1009C0000014025800180258001C02580024025853
:1009D0002DE9F84F03247A4D00234FF001094FF021
:1009E000B04B4FF00F0AE4E009FA03F6324078D03A
:1009F0000F7907F00307012F01D0022F1AD1876862
:100A00004FEA430ED1F80CC004FA0EF827EA0807A3
:100A10000CFA0EFC4CEA070CC0F808C0476891F8C5
:100A200004C0B743CCF3001C0CFA03FC4CEA070CDF
:100A3000C0F804C00E79F643B6070BD0C6684FEA7B
:100A400043088F6804FA08FC26EA0C0607FA08F740
:100A50003743C7600E7906F00306022E12D1DE0876
:100A60000F694FEA437C00EB8606B646366A4FEACA
:100A7000DC6C0AFA0CF807FA0CF726EA080637438A
:100A8000CEF820700F7906684FEA430807F0030795
:100A900004FA08FC07FA08F726EA0C063743076051
:100AA0004E6816F4403F1CD0464E376847F00207A8
:100AB000376036689F0706F00206009623F00306AB
:100AC00006F1B046B6463F0FD6F80864DFF8F88066
:100AD0000AFA07FC404526EA0C0603D14FF0000C49
:100AE0003AE065E0DFF8E4C0604502D14FF0010C68
:100AF00032E0DFF8DCC0604502D14FF0020C2BE0A1
:100B0000DFF8D0C0604502D14FF0030C24E0DFF8DD
:100B1000C8C0604502D14FF0040C1DE0DFF8BCC036
:100B2000604502D14FF0050C16E0DFF8B4C0604517
:100B300002D14FF0060C0FE0DFF8A8C0604502D1EB
:100B40004FF0070C08E0DFF8A0C0604502D14FF07D
:100B5000090C01E04FF00A0C0CFA07FC4CEA060CF9
:100B6000CEF808C44F68DBF80060FF0226EA0206F0
:100B700000D516435F46CBF80060D1F804C0DBF81F
:100B800004605FEA8C2C26EA020600D516437E60DC
:100B90006E684F6826EA0206BF0300D516436E60F2
:100BA0002E684F6826EA0206FF0300D516432E6022
:100BB0005B1C0A6832FA03F67FF416AFBDE8F88FC3
:100BC00080000058F4440258000002580004025803
:100BD00000080258000C0258001002580014025875
:100BE00000180258001C025800240258014880686E
:100BF0007047000004000024024881680278114414
:100C00008160704704000024032010B500F0C6F88E
:100C100001F02AFD0F4A104914681368C4F3032237
:100C200003F00F038A5CC95C02F01F0201F01F0190
:100C3000D0400A4A20FA01F11160094908600F20EA
:100C400000F010F808B1012010BD00F079F8002084
:100C500010BD000018440258B64D000814000024CE
:100C60001000002470B50D4D04462878A0B14FF453
:100C70007A71B1FBF0F00A490968B1FBF0F002F0BB
:100C800022F848B9102C07D200222146501E00F04D
:100C900065F800206C6070BD012070BD0400002468
:100CA00010000024F0B5154C4378211D0A1D236067
:100CB0000378F3B143680B60057BC67A817A437B86
:100CC0002D07847B45EA0665C77B90F809C0067A44
:100CD00090F800E045EAC14040EA834040EA4440E1
:100CE00040EA074040EA0C2040EA460040EA0E0095
:100CF00001E0002008601060F0BD000098ED00E009
:100D0000BFF35F8F044800210368034A23F4803354
:100D1000036070321160704724ED00E0074A40F034
:100D20000100064970321060086840F480300860A5
:100D3000BFF34F8FBFF36F8F7047000024ED00E0CB
:100D4000054808B5016841F002010160006800F043
:100D50000200009008BD0000F44402580E4BF0B4AD
:100D60001B680D46C3F30223C3F10706042E00D906
:100D70000426191D072901D2002300E0DB1E0124EF
:100D800004FA06F19C40491E2940641E9940144013
:100D90002143F0BC03F040BB0CED00E0064900F03D
:100DA000070210B54FF6FF040868044B204040EAE4
:100DB00002201843086010BD0CED00E00000FA05A9
:100DC0002DE9F04F02688346FE484FF0000A8DB0CF
:100DD0000C468242564602D10025012001E0012541
:100DE0000020E8460027814607EB47017F1C08EBFF
:100DF000C101F8B202F068F920B108204FF0010AF1
:100E0000CBF85400FFB2022FEED3BAF1000F7CD121
:100E1000DFF8B0E3DEF80000C00707D0DEF800100E
:100E200046F0010621F00101CEF80010E648006806
:100E3000C00706D0E44846F00206016821F001012F
:100E4000016005EB45030C93E048424608EBC30301
:100E5000DFF87CB30121DC469F6800EB8707D7F8F9
:100E6000008428F48078C7F80084DBF80070FF075E
:100E700032D0DCF80070B9F1010F27F00107CCF88F
:100E800000705CD1069B00EB8303D3F8007447F03D
:100E90000207C3F80074079B3BB100EB8303D3F850
:100EA000007447F02007C3F80074099B4BB121EA96
:100EB000030300EB8303D3F8047447F48027C3F8DB
:100EC00004740A9BDBB321EA030700EB8703D3F822
:100ED000047447F0806730E00C9F52F8377077B3A6
:100EE00000EB8707D7F800C42CF0010CC7F800C44A
:100EF0005F683FB100EB8707D7F800C42CF0100CF7
:100F0000C7F800C4D3F80CC000E057E1BCF1000FF3
:100F100009D021EA0C0700EB8707D7F804C42CF4AA
:100F2000803CC7F804C41B694BB121EA030700EBFE
:100F30008703D3F8047427F08077C3F8047409EBAF
:100F40004903D4F800C0CDF830C0914652F8337050
:100F5000BC4518D009EBC302D4F804C0D2F8048011
:100F6000C44510D0D4F808C0D2F80880C4450AD0CF
:100F7000D4F80CC0D2F80C80C44504D0D4F810C00A
:100F80001269944551D10C9ABA4219D109EBC302A6
:100F9000D4F804C0D2F80480C44511D1D4F80CC0F0
:100FA000D2F80C80C4450BD1D4F810C01269944516
:100FB00006D1DBF8003043F00103CBF8003034E019
:100FC00000EB870709EBC302D7F8003423F00103D5
:100FD000C7F8003453683BB100EB8303D3F80074C7
:100FE00027F01007C3F80074936800EB8303D3F86D
:100FF000007427F48077C3F80074D3684BB121EAFA
:10100000030700EB8703D3F8047427F48037C3F891
:10101000047412694AB121EA020300EB8302D2F898
:10102000043423F08073C2F80434A3685A4600EBFA
:101030008303D3F8007427F4407747EA452747F441
:101040008077C3F80074DBF800C063695F1ECCF3DF
:10105000074C674508D95F4FD2F800C007EB03473C
:101060002CF47F033B4313601268D207226800EB25
:101070008202D2F800343FD023F003035B1CC2F895
:10108000003462684AB100EB8202D2F8003423F0E7
:10109000300343F01003C2F80034E268D3030AD5EA
:1010A00021EA020300EB8302D2F8043423F4E023A4
:1010B00043F480330AE05AB121EA020300EB8302D1
:1010C000D2F8043423F0E06343F08073C2F80434B0
:1010D0002269D30307D5914300EB8100D0F80414B3
:1010E00021F4E0214AE0EAB3914300EB8100D0F81B
:1010F000041421F0E0614EE001EB450723F0030307
:101100003B43C2F8003462685AB100EB8202D2F865
:10111000003423F0300343EA451343F01003C2F8D0
:101120000034E268D3030CD521EA020300EB83020A
:10113000D2F8043423F4E02343EA854343F48033B4
:101140000CE06AB121EA020300EB8302D2F8043416
:1011500023F0E06343EA856343F08073C2F804340C
:10116000226900E01BE0D3030BD5914300EB810023
:10117000D0F8041421F4E02141EA854141F44031E2
:101180000BE062B1914300EB8100D0F8041421F030
:10119000E06141EA856141F04071C0F80414F00754
:1011A00005D0DEF8001041F00101CEF80010B007C4
:1011B00004D50548016841F0010101600DB05046B9
:1011C000BDE8F08F0050005200A0005200B0005265
:1011D00000B400520000FFFF2DE9F84317460D460A
:1011E0000446FFF703FD81462068866CD0F8108125
:1011F000206D042803D1E868B0F5800F04D01021D9
:1012000061650120BDE8F88300224B46202120467D
:10121000009702F0C1FB0028F4D121682868C1F8CA
:10122000880021686868C1F8800021682869C1F8D1
:1012300090002168D5E902020B68104323F0435364
:1012400043F0005210430860E068B0F1806F2068FE
:1012500004D0D0F8001111F4E06F01D0866401E0F1
:10126000C0F81081012208214B462046009702F069
:1012700093FB0028C6D12368082202215A62216507
:10128000C0E7F8B516460D460446FFF7AFFC074623
:10129000206D022804D0142807D0242809D00DE09E
:1012A000E068B0F1806F0DD108E02868022809D00D
:1012B00002E02868012805D0032803D010216165C9
:1012C0000120F8BD00223B4620212046009602F076
:1012D00063FB0028F5D160652946204601F062FFD6
:1012E0000028EED1A96B61B129680422A1B10129BE
:1012F00014D00229E5D1216D14290DD024212165B6
:10130000F8BD01223B4602212046009602F044FB34
:10131000226802215162F8BD2265F8BD216D2429A1
:10132000FAD01421EBE770B504004FF0000510D09F
:101330002068016821F0010101602068816821F0C6
:1013400002018160204600F08BF8002020652846CD
:1013500070BD0125FBE70000F8B500250446FFF746
:1013600045FC064624B100206065206D10B170E098
:1013700001256EE0204600F0A3F841F28830A06518
:10138000258A6FF0FF012268D4F814C00F02636B46
:1013900007EB0545E06801EB0C27D4F81CC01843A7
:1013A00093683D432D4F28433B4040EA0C001843CF
:1013B00090602068236AC26822F4E0221A43C26067
:1013C0002368228EA06B40EA024018612268E06B1D
:1013D0005061D4E90003026801EB032322F4F851C1
:1013E00019430160A06D0022202133460090204661
:1013F00002F0D2FA05002CD12068626AC168521E40
:1014000021F0FF011143C1602068A268016821F04A
:101410004001114301602068D4E90A12D0F8083174
:10142000114323F0A0421143C0F80811206801685D
:1014300041F001010160A069022804D1206881689F
:1014400041F002018160E068B0F1806F03D00220BA
:1014500020652846F8BD0120FAE70000F4F8E0F81E
:1014600010B50068104988421CD11048016821F469
:1014700000110160016821F4002101600C480A217B
:10148000FFF7F6F90B480521FFF7F2F94FF4006476
:1014900009482146FFF7ECF921460848BDE810400D
:1014A000FFF7E6B910BD000000A00052D444025876
:1014B000000002580004025800100258000C0258A4
:1014C0002DE9F043B5B0044614216846FEF752FFFB
:1014D000B82106A8FEF74EFF4749206888427DD113
:1014E000002019904FF000710446CDE9061006A8BF
:1014F00000F0A8FA08B1FFF7B8F94048016841F4D4
:1015000000110160016801F400110591016841F4C6
:1015100000210160006800F40020059037480C307D
:10152000016841F001010160016801F001010591CC
:10153000016841F002010160016801F002010591BA
:10154000016841F010010160016801F0100105918E
:10155000016841F008010160006802250927009533
:1015600000F00800DFF89880032603966946CDE96D
:101570000470CDE901544046FFF72AFA062102948F
:101580000820CDE90361CDE9000569464046FFF733
:101590001FFA0121DFF86C9002AA4FF00408CDE990
:1015A00000156946484682E85001FFF711FA02AA81
:1015B0006946484682E8D000CDE90085FFF708FA81
:1015C0000B2111484FF40068CDF80080CDE903618C
:1015D000CDE901546946FFF7FBF900E008E002AAF3
:1015E0000A48694682E8D000CDE90085FFF7F0F9A6
:1015F00035B0BDE8F083000000A00052D44402588A
:10160000000002580004025800100258000C025852
:101610002DE9F84315460E460446FFF7E7FA8046E3
:10162000206800F15007816CD0F810213EB1236D85
:10163000042B06D0102161650120BDE8F883082144
:10164000F9E7036C5B1CA364A36C63642664036802
:1016500023F0405343F080530360E068B0F1806FA3
:10166000206804D0D0F8003113F4E06F01D0816419
:1016700001E0C0F8102101220621434620460095D2
:1016800002F08AF90028D8D13878216C0870206CD3
:10169000401C2064A06C401EA064A06C0028EAD10D
:1016A0000122434602212046009502F075F90028E8
:1016B000C3D12268022151622165BEE72DE9F843BA
:1016C00016460F460446FFF791FA8046206800F15F
:1016D00050053FB1216D042906D01021616501201C
:1016E000BDE8F8830821F9E7016C491CA164A16CED
:1016F00061642764016821F0405101600122434682
:1017000004212046009602F047F90028E8D1206C19
:1017100000782870206C401C2064A06C401EA064DF
:10172000A06C0028EAD101224346022120460096FF
:1017300002F032F90028D3D12268022151622165DA
:10174000CEE70000134970B50A68D243520705D5A9
:10175000096801F00701814213D118E00A6822F0FC
:10176000070202430A60FFF741FA0A4D4FF47A7606
:101770000446083D07E000BFFFF738FA001BB042FF
:1017800001D9012070BD2868C0438004F4D4002032
:1017900070BD00000C48025810B500F01FFF05494D
:1017A0000968054AC1F30211515C01F01F01C840EC
:1017B00010BD000020440258B64D0008494930B51C
:1017C000484C0B1D0A68143409681D68246802F02F
:1017D0000303C5F30012C1F30531C4F3CC0400299F
:1017E00014FB02F200EE102AF8EE400A75D03F4AD0
:1017F0009FED3D1AB7EE000A6BB1DFED3D1A012BEC
:1018000001D0022B64D002EE101A1168F8EE422AC1
:1018100081EEA22A21E0334C283C23689B0612D596
:10182000344B246801EE901A1168C4F3C104F8EE39
:10183000612AE34001EE903AC1F30801F8EE611A23
:1018400081EEA22A0BE001EE901ADFED2B2A00BFF9
:10185000F8EE611A116882EEA12AC1F3080101EEC7
:10186000901A1168F8EE611A40EE811A71EE800A42
:1018700062EE200AC1F3462101EE101AB8EE411AB9
:1018800031EE001AC0EE811ABCEEE11A80ED001AAA
:101890001168C1F3064101EE101AB8EE411A31EE9B
:1018A000001AC0EE811ABCEEE11A80ED011A11682F
:1018B000C1F3066101EE101AB8EE411A31EE000ACA
:1018C00080EE801ABCEEC10A80ED020A30BD04E051
:1018D00001EE901ADFED092ABAE7002101604160AC
:1018E0008160F3E728440258000000393844025868
:1018F0000024744A0090D0030024744C001BB74BA2
:10190000494930B5484C0B1D0A681C3409681D68EC
:10191000246802F00303C5F30022C1F30551C4F3A8
:10192000CC04002914FB02F200EE102AF8EE400A63
:1019300075D03F4A9FED3D1AB7EE000A6BB1DFED5F
:101940003D1A012B01D0022B64D002EE101A11684F
:10195000F8EE422A81EEA22A21E0334C283C23688B
:101960009B0612D5344B246801EE901A1168C4F31B
:10197000C104F8EE612AE34001EE903AC1F3080198
:10198000F8EE611A81EEA22A0BE001EE901ADFED6B
:101990002B2A00BFF8EE611A116882EEA12AC1F36A
:1019A000080101EE901A1168F8EE611A40EE811AF2
:1019B00071EE800A62EE200AC1F3462101EE101A90
:1019C000B8EE411A31EE001AC0EE811ABCEEE11AEF
:1019D00080ED001A1168C1F3064101EE101AB8EE4D
:1019E000411A31EE001AC0EE811ABCEEE11A80ED08
:1019F000011A1168C1F3066101EE101AB8EE411A1E
:101A000031EE000A80EE801ABCEEC10A80ED020AB7
:101A100030BD04E001EE901ADFED092ABAE700219B
:101A2000016041608160F3E72844025800000039FA
:101A3000404402580024744A0090D0030024744C9F
:101A4000001BB74B2DE9FE4F0546DFF800A450F808
:101A5000081B0024FD4FC943019005F128002646CC
:101A60000AF1240A009008011DD4686E50B1B0F547
:101A7000801F0CD0B0F5001F0ED0B0F5401F1ED057
:101A800001240FE0386840F40030386017E0019816
:101A9000022101F0A7FF03E00098022102F032F8D2
:101AA00004000CD026462888C043C00523D4A86D66
:101AB00005281ED2DFE800F00C11161B1B006A6E11
:101AC000DAF8001021F440111143CAF80010EAE7D7
:101AD000386840F40030386009E00198002101F0D6
:101AE00081FF03E00098002102F00CF80446C4B125
:101AF00000E0012426462888DFF85083C04308F11F
:101B00002C0840052FD4D5F8A400B0F5C00F28D07C
:101B100010DCB8B1B0F5001F19D0B0F5800F0FD1AF
:101B20001AE0AA6DDAF8001021F007011143CAF893
:101B30000010E0E7B0F5000F13D0B0F5200F10D083
:101B400001240FE0386840F40030386009E0019863
:101B5000002101F047FF03E00098002101F0D2FFCF
:101B6000044694B126462888C043000530D4D5F8F1
:101B7000A800B0F1407F29D011DCC0B1B0F1807F66
:101B80001AD0B0F1007F10D11BE0D5F8A420D8F80E
:101B9000001021F460011143C8F80010E3E7B0F130
:101BA000806F13D0B0F1A06F10D001240FE038681F
:101BB00040F40030386009E00198002101F012FF84
:101BC00003E00098002101F09DFF044694B12646F1
:101BD0002868DFF878B2C0430BF1200B80011FD4D6
:101BE000E86CD8B110280FD0202812D0302815D09A
:101BF000012414E0D5F8A820D8F8001021F0E06105
:101C00001143C8F80010E3E7386840F4003038604A
:101C100004E00198022101F0E5FE044674B1264675
:101C20002888C043C0042BD4E86DB0F5005F20D0F5
:101C30000DDCA0B1B0F5805F0FD115E0EA6CDBF8E8
:101C4000001021F030011143CBF80010E8E7B0F5A7
:101C5000405F13D0B0F5804F10D001240FE03868FA
:101C600040F40030386009E00198002101F0BAFE2C
:101C700003E00098002101F045FF04468CB12646A0
:101C80002888C043800429D4286EB0F5403F23D073
:101C900010DC08B3B0F5803F14D0B0F5003F0FD191
:101CA00015E0EA6DDAF8001021F4E0411143CAF8BA
:101CB0000010E5E7B0F5802F0ED0B0F5A02F0BD0C7
:101CC00001240AE00198012101F08CFE03E0009854
:101CD000012101F017FF044694B126462888C0432D
:101CE00040042AD4D5F8AC00B0F1405F23D010DC1A
:101CF00008B3B0F1805F14D0B0F1005F0FD115E0F0
:101D00002A6EDAF8001021F4E0211143CAF800101D
:101D1000E4E7B0F1804F0ED0B0F1A04F0BD001241A
:101D20000AE00198012101F05DFE03E00098012125
:101D300001F0E8FE044674B126462888C04300043A
:101D40001FD4E86ED8B1B0F1805F0ED0B0F1005F63
:101D500010D0012414E0D5F8AC20D8F8001021F000
:101D6000E0411143C8F80010E7E7386840F400305C
:101D7000386004E00198012101F034FE044674B19A
:101D800026462868C043C0011ED4A86CD0B10128E3
:101D90000ED0022811D0032814D0012413E0EA6EDB
:101DA000DAF8001021F040511143CAF80010E8E7BA
:101DB000386840F40030386004E00198022101F0F6
:101DC00011FE04466CB126462868C043400255D433
:101DD0001F48016841F480710160FEF707FF8146EA
:101DE0000EE0AA6CDBF8001021F003011143CBF8E0
:101DF0000010E9E7FEF7FAFEA0EB090064283BD8E3
:101E000013480068C005F5D5BCBBDFF84090B5F8B5
:101E1000B01009F14409D9F8000001F4407100F450
:101E20004070884211D0D9F80010D9F8002021F470
:101E3000407142F48032C9F80020D9F8002022F421
:101E40008032C9F80020C9F8001003E02C44025881
:101E500000480258D5F8B000B0F5807F19D1FEF7E0
:101E6000C5FE029011E000BFFEF7C0FE0299411AC4
:101E700041F28830814208D9032426462878DFF8C9
:101E80001494C043C00721D03CE0D9F8000080077B
:101E9000EAD5D5F8B010C1F301200328FE480DD0D3
:101EA000016821F47C510160B5F8B020D9F8001028
:101EB000C2F30B021143C9F80010DFE7F74A0368C9
:101EC00002EA111223F47C511143ECE7A86F1828A1
:101ED00016D005DCA0B1082808D0102804D10AE0EB
:101EE00020280DD028280BD001240AE001980121D8
:101EF00001F078FD03E00098012101F003FE0446A3
:101F000064B126462878C04380071ED4686F06282F
:101F100019D2DFE800F0160C11161616AA6FD9F8C0
:101F2000001021F038011143C9F80010EAE70198C8
:101F3000012101F057FD03E00098012101F0E2FDCD
:101F400004467CB100E0012426462878C0434007BF
:101F50001FD4D5F89000062819D2DFE800F0160C3F
:101F6000111616166A6FD9F8001021F007011143F7
:101F7000C9F80010E9E70198012101F033FD03E001
:101F80000098012101F0BEFD0446A4B100E0012447
:101F900026462878C04380062BD4D5F88C00B0F1B3
:101FA000405F24D011DC10B3B0F1805F15D0B0F1E8
:101FB000005F10D116E0D5F89020D8F8001021F07D
:101FC00007011143C8F80010E3E7B0F1804F0ED0CD
:101FD000B0F1A04F0BD001240AE00198002101F0DC
:101FE00001FD03E00098022101F08CFD044694B14C
:101FF00026462878C04340062BD4D5F89800B0F583
:10200000406F24D011DC10B3B0F5806F15D0B0F55F
:10201000006F10D116E0D5F88C20D9F8001021F00F
:10202000E0411143C9F80010E3E7B0F5805F0ED03E
:10203000B0F5A05F0BD001240AE00198002101F067
:10204000D1FC03E00098022101F05CFD044694B14C
:1020500026462878C04300062BD4D5F89C00B0F55E
:10206000C04F24D011DC10B3B0F5005F15D0B0F52F
:10207000804F10D116E0D5F89820D8F8001021F440
:10208000E0511143C8F80010E3E7B0F5004F0ED05F
:10209000B0F5204F0BD001240AE00198002101F097
:1020A000A1FC03E00098022101F02CFD044654B18C
:1020B00026462878C04300071ED4D5F88000B0F526
:1020C000805F0AD00FE0D5F89C20D8F8001021F4EA
:1020D00060411143C8F80010EBE70098022101F0BD
:1020E00011FD00B10126D5F88020D9F8001021F4A7
:1020F00040511143C9F800102878C043C00613D4DA
:10210000D5F89400B0F5807F05D10098022101F048
:10211000F9FC00B10126D5F89420D8F8001021F47C
:1021200040711143C8F800102868C043000316D45A
:10213000D5F8A00038B1B0F5803F09D0B0F5003F28
:102140000BD001240AE00198002101F04BFC03E0D0
:102150000098022101F0D6FC04468CB1264628687E
:10216000C043400322D4D5F88400B0F5801F11D0BD
:10217000B0F5001F13D0B0F5401F15D0012414E0B6
:10218000D5F8A020D8F8001021F440311143C8F848
:102190000010E4E7386840F40030386004E000984C
:1021A000012101F0AFFC04465CB126462868C0431B
:1021B000C0031CD4286D70B1B0F5803F10D001244D
:1021C00014E0D5F88420D9F8001021F4401111430F
:1021D000C9F80010EAE7386840F40030386004E0DD
:1021E0000198022101F0FEFB0446DCB12646286876
:1021F000C043800005D40098022101F083FC00B1A7
:1022000001262868C04380031BD4E86FB8B1B0F53D
:10221000807F10D0B0F5007F11D0B0F5407F0ED098
:1022200001240DE02A6DDBF8001021F48031114308
:10223000CBF80010DBE7386840F4003038607CB33E
:1022400026462868C043C00207D42A6FDAF8001077
:1022500021F000411143CAF800102868C0438002F1
:1022600007D4AA6EDAF8001021F080711143CAF881
:1022700000102868C043400009D40748016821F4D1
:10228000004101600168D5F8B4201143016028685D
:10229000C04306E05444025810440258CFFFFF00E8
:1022A0001DE007D46A6DDBF8001021F040511143A6
:1022B000CBF800102868C043000208D4D5F8882065
:1022C000D9F8001021F440011143C9F80010287911
:1022D0000024C04300F00100204309D00EE0EA6F63
:1022E000D9F8001021F440711143C9F80010A8E793
:1022F0000198002101F076FB00B106462879C04321
:1023000000F00200204305D10198012101F06AFB91
:1023100000B106462879C04300F00400204305D1EF
:102320000198022101F05EFB00B106462879C04306
:1023300000F00800204305D10098002101F0E2FBE5
:1023400000B106462879C04300F01000204305D1B3
:102350000098012101F0D6FB00B106462879C04360
:1023600000F02000044304D10098022101F0CAFBD0
:1023700000B916B10120BDE8FE8F0020FBE7000088
:102380002DE9F05F04000F467ED0DFF83882D8F8E0
:10239000000000F00F00B8420CD2D8F8001021F075
:1023A0000F013943C8F80010D8F8000000F00F0002
:1023B000B84269D12078844D40070AD52069296840
:1023C00001F07001884204D9296821F070010143AD
:1023D000296020787C4E361D00070AD56069316877
:1023E00001F07001884204D9316821F07001014385
:1023F00031602078C0060AD5A069316801F4E06137
:10240000884204D9316821F4E061014331602078C9
:10241000DFF8B4B180060BF1080B0CD5E169584622
:10242000DBF8002002F07002914204D9026822F029
:1024300070020A430260207880070AD5E0682968A4
:1024400001F00F01884204D9296821F00F010143EE
:1024500029602078C0073ED05B49A26828681839F7
:1024600020F47060104328606068022818D00328A8
:1024700019D00968012819D0490700294ADADFF87C
:1024800048A1AAF1080A00E044E0DAF8002022F0AE
:1024900007020243CAF80020FEF7A8FB814612E0BB
:1024A00009688903E9E709688901E6E7C905E4E7FE
:1024B000FEF79CFBA0EB090141F28830814202D972
:1024C0000320BDE8F09F6168DAF8000000F03800F2
:1024D000B0EBC10FECD1207880070AD5E0682968FD
:1024E00001F00F01884204D2296821F00F01014355
:1024F0002960D8F80010404601F00F01B9420BD90D
:10250000016821F00F0139430160006800F00F00FD
:10251000B84201D00120D4E7207840070AD52069CD
:10252000296801F07001884204D2296821F0700105
:1025300001432960207800070AD56069316801F0FD
:102540007001884204D2316821F07001014331608A
:102550002078C0060AD5A069316801F4E06188429C
:1025600004D2316821F4E0610143316020788006B3
:102570000CD5E1695846DBF8002002F07002914268
:1025800004D2026822F070020A43026000F06CF884
:102590000E492A682B68C2F3032203F00F038A5CFA
:1025A000C95C02F01F0201F01F01D040084A20FA66
:1025B00001F111600749086007480068BDE8F05F55
:1025C000FEF750BB0020005218440258B64D0008D8
:1025D00014000024100000240800002430B500F08E
:1025E00043F80B4A0B490C4B15681468C5F30322DA
:1025F00004F00F048A5C095D02F01F0201F01F0164
:10260000D040064A20FA01F119601060084630BD3A
:1026100018440258B64D000814000024100000248D
:1026200000B5FFF7DBFF05490968054AC1F3021150
:10263000515C01F01F01C84000BD00001C4402585D
:10264000B64D000800B5FFF7C9FF05490968054AFE
:10265000C1F30221515C01F01F01C84000BD000020
:102660001C440258B64D0008454970B545480968F4
:10267000434B103B11F0380208D00111082A03D057
:10268000102A0BD0182A0BD0084670BD196889068D
:10269000FBD51968C1F3C101C84070BD3A4870BD8F
:1026A0003749374D18310C1D24350A6809682668EA
:1026B0002D6802F0030406F00102C1F30511C5F311
:1026C000CC0515FB02F200EE102AB8EE400AE9B381
:1026D0002F4ADFED2E0AB7EE001A6CB1DFED2D1A8E
:1026E000012C01D0022C43D002EE101A1068F8EE33
:1026F000422A81EEA22A1EE01C68A40611D51B689E
:1027000001EE901A1168C3F3C103F8EE612AD840B4
:1027100001EE900AC1F30800F8EE611A81EEA22AD8
:102720000BE001EE901ADFED1C2A00BFF8EE611AF3
:10273000106882EEA12AC0F3080001EE900AF8EEBC
:10274000611A40EE201A31EE810A00E015E022EE17
:10275000000A1068C0F34620401C00EE900AF8EE14
:10276000600A80EE201ABCEEC10A10EE100A70BD9D
:1027700001EE901ADFED092AD8E7002070BD0000B5
:10278000104402580090D00300366E01000000395A
:10279000304402580024744A0024744C001BB74B88
:1027A0002DE9F05F04007DD0FF4F2078FE4D1837F3
:1027B000DFF8F483103DC00748D0D8F8000039682E
:1027C00000F03800102815D0182803D101F00300BC
:1027D00002280FD06068B0F5803F12D010B1B0F57C
:1027E000A02F18D0286820F480302860286820F4B2
:1027F000802009E02868800328D560680028D2D0AE
:1028000024E0286840F480302860606888B1FEF7D2
:10281000EDF9064609E0286840F480202860F0E7DA
:10282000FEF7E4F9801B64287ED828688003F7D57A
:102830000CE0FEF7DBF9064605E000BFFEF7D6F92F
:10284000801B6428F0D828688003F7D4207880079C
:1028500056D5D8F80000DFF85093396810F03800EA
:10286000A9F10C090ED0182801D188070AD0E06818
:10287000A8B3296821F0190101432960FEF7B6F9D0
:10288000064628E02868400702D5E06800288AD07C
:10289000E168286820F0190008432860FEF7A6F9CF
:1028A000064606E0D2E000BFFEF7A0F9801B022832
:1028B000BAD828684007F7D5217CD9F8002022F043
:1028C000FE4242EA0161C9F8001019E0FEF78EF9F4
:1028D000801B0228A8D828684007F7D5ECE7FFE757
:1028E000286820F001002860FEF780F9064604E021
:1028F000FEF77CF9801B022896D828684007F7D499
:102900002078C00646D5D8F80000DFF89C923968D8
:1029100000F03800A9F10409082812D0182805D1C0
:1029200001F00300012800E0CEE00AD0E0690028B1
:10293000286820D040F080002860FEF757F906464E
:1029400015E02868C00502D5E06980287ED194F89A
:102950002010D9F8002022F07C5242EA0161C9F827
:10296000001017E0FEF742F9801B0228A0D8286863
:10297000C005F7D5EBE720F080002860FEF736F9B8
:10298000064604E0FEF732F9801B022890D828683A
:10299000C005F7D42078000729D5834861696430E1
:1029A00000298146016811D041F001010160FEF764
:1029B0001DF9064605E000BFFEF718F9801B022846
:1029C00088D8D9F800008007F6D510E021F0010181
:1029D0000160FEF70BF9064605E000BFFEF706F9B9
:1029E000801B022870D8D9F800008007F6D4207820
:1029F000800623D5A0690028286810D040F48050B4
:102A00002860FEF7F3F8064605E000BFFEF7EEF893
:102A1000801B022858D828688004F7D50EE020F4DF
:102A200080502860FEF7E2F8064604E0FEF7DEF884
:102A3000801B022848D828688004F7D420784007F3
:102A400051D5DFF86891D9F8001000E015E141F4A4
:102A50008071C9F80010FEF7C9F8064605E000BF0E
:102A6000FEF7C4F8801B64282ED8D9F80000C005F2
:102A7000F6D54D4EA068603601280AD008B1052869
:102A800013D0306820F001003060306820F004007E
:102A900002E0306840F001003060A06841F2883AFE
:102AA00098B1FEF7A3F881460AE0306840F00400D0
:102AB0003060EEE7FEF79AF8A0EB0901514503D824
:102AC00030688007F6D50EE072E0FEF78FF8814699
:102AD00006E000BFFEF78AF8A0EB0901514567D870
:102AE00030688007F6D4606A00287CD0DFF8B8A090
:102AF000D8F800100AF1200A4FF6F87B0AF1040812
:102B0000C1F3C2010329AAF104096DD00228286883
:102B100020F08070286003D0FEF768F8044681E05A
:102B2000FEF764F8064604E0FEF760F8801B022812
:102B300075D828688001F7D4E26A40F2F33138682A
:102B400054F8283F884340EA021018433860217B3C
:102B50004FF4FE0C22894FF0FE47208A4902267D61
:102B6000521E401EA1F5007189B2C2F30802114342
:102B7000761E0CEA00400143484607EA066211430C
:102B8000CAF80010D9F8001021F00101C9F80010AE
:102B9000D8F80030266A23EA0B0343EAC601C8F8D6
:102BA0000010D9F8001004E0104402580048025800
:102BB00035E0A26921F00C011143C9F80010016849
:102BC000E26921F0020111430160016841F48031A2
:102BD0000160016841F400310160016841F4802125
:102BE0000160016801E06CE020E041F0010101605A
:102BF000286840F080702860FDF7F8FF044604E084
:102C0000FDF7F4FF001B022809D828688001F7D5DA
:102C100057E000BFFDF7EAFF001B022802D903209E
:102C2000BDE8F09F28688001F4D44AE039680128A3
:102C3000DAF8000021D0A26A01F0030393421CD10C
:102C4000E26AC1F305118A4217D1216BC0F3080271
:102C5000491E8A4211D1616BC0F34622491E91423E
:102C60000BD1A16BC0F30642491E914205D1E16B25
:102C7000C0F30660491E814201D00120D0E7A16C5B
:102C80004646D8F80000C0F3CC00814219D0D9F8EC
:102C900000004D4620F00100C9F80000FDF7A6FF36
:102CA0004FEA0007FDF7A2FFB842FBD0A26C3068E4
:102CB00020EA0B0040EAC2003060286840F00100C2
:102CC00028600020ACE7401EB0F1807F10B501D332
:102CD000012010BD4FF0E02460610F21601701F06A
:102CE0009BFB0020A0610721216110BD30B590F849
:102CF0008410012918D0012280F884202421C0F8F2
:102D000088100022202401680B680D6823F000530E
:102D100025F001050D60426601680B60C0F888402F
:102D200080F88420104630BD022030BD70B50446C6
:102D300090F8840001281DD0012284F884202420EA
:102D4000C4F8880020680568026822F00102026069
:102D50002068826822F060620A438260204601F0A7
:102D60000FF82268202100201560C4F8881084F82C
:102D7000840070BD022070BD70B5044690F88400D8
:102D800001281DD0012284F884202420C4F8880062
:102D900020680568026822F00102026020688268EB
:102DA00022F060420A438260204600F0E9FF226878
:102DB000202100201560C4F8881084F8840070BDBC
:102DC000022070BD10B5040003D0D4F8880010B103
:102DD00007E0012010BD002084F88400204600F0A8
:102DE00027F82420C4F888002068016821F0010138
:102DF0000160204601F0CAF80128EBD0A06A10B1AA
:102E0000204600F0DFFF2068416821F490414160D6
:102E10002068816821F02A0181602068016841F002
:102E2000010101602046BDE8104001F02FB800000C
:102E300010B5B4B0044614212EA8FDF79BFAB821B2
:102E40006846FDF797FA1A49206888422DD100207C
:102E50001E9001210446CDE900106846FEF7F2FD00
:102E600008B1FDF702FD1348016841F0100101604F
:102E7000006800F0100033900E481038016841F0EF
:102E80000101016000680DF1B80C022100F00100A1
:102E900033904FF4C06007238CE8130003220648E8
:102EA000CDE931232EA9FDF793FD34B010BD00000C
:102EB00000100140F0440258000002582DE9F84388
:102EC0000446D0F88800984616460D46202802D0C1
:102ED0000220BDE8F883A5B19EB10021C4F890108E
:102EE0002120C4F888001834FDF780FE814654F88C
:102EF000100CA687E6872027183CB0F5805F02D02B
:102F000003E00120E5E7206910B12E46002510E01E
:102F100000260EE08021204601F026FAC0B9DEB17D
:102F200016F8010B21688862B4F85600401EA4F818
:102F30005600B4F856004B464FF00002CDF8008022
:102F40000028E7D14FF04001204601F00DFA48B1CA
:102F5000C4F888700320BCE735F8020B2168C0F381
:102F60000800E0E7C4F888700020B2E7FEE7000040
:102F7000154808B5016841F080010160016801F061
:102F800080010091016841F001010160016801F0D8
:102F900001010091016841F002010160016801F046
:102FA00002010091016841F010010160016801F027
:102FB00010010091016841F008010160006800F013
:102FC0000800009008BD0000E044025870B586B0CB
:102FD00018216846FDF7CEF91D4900204FEA00058B
:102FE000401C5C2801F8015BFAD3194C1948206099
:102FF0002046FEF798F90820174A1721A5600126F8
:10300000C4E900200322C4E90351C4E90565E6616F
:10301000C306C4E90852C4E90A35C4E90C50A563E3
:103020002046E563FEF798F908B1FDF71EFC4FF066
:10303000011041F2883269460096CDE902600448E9
:10304000FDF7BEFE002801D0FDF70FFC06B070BDF5
:103050001C0001240050005200A00052184800211A
:1030600010B5164C0C224FF461230460C0E9013105
:10307000C160C0E904128161C16101624162816283
:10308000FFF7A0FE08B1FDF7F0FB0D480021FFF7A8
:1030900073FE08B1FDF7E9FB09480021FFF746FE82
:1030A00008B1FDF7E2FB0648FFF720FE002803D039
:1030B000BDE81040FDF7D9BB10BD00000010014075
:1030C00078000124FEE7FEE7F0B503004FF00000B2
:1030D00004460BD0022B09D841B100220A604A6095
:1030E000022B8A60CA600A6102D007E00120F0BDAD
:1030F000294A1268D20734D04FF40074274D0022B9
:1031000005EB8203D3F80434DE0707D003F0020690
:1031100004F00207BE4201D1561C0E60DE0607D540
:1031200003F0200604F02007BE4201D1561C4E6079
:10313000DE0507D503F4007604F40077BE4201D122
:10314000561C8E60DE0311D503F4802604F480271C
:10315000BE420BD19E0302F1010604D446F4803630
:1031600003E00F4CCAE746F08076CE60DE010FD553
:1031700003F0806604F08067BE4209D19B0102F132
:10318000010302D443F4803301E043F080730B6108
:10319000521C022AB4D3F0BD00B4005200B0005259
:1031A000220204042DE9F04F02684FF0000A136870
:1031B00023F040531360826832B902684C68136888
:1031C00023F08003234313600A68022A29D0032ACC
:1031D00032D0026802F58473144602F5887902F54C
:1031E000807204F5907400BFD1E912563543156022
:1031F000CD6A5DB18D6A2560166801F12C0526F453
:103200007C16B0CD3C4335432C4314601C684D6C98
:1032100024F01F042C431C608B6BE3B10B68B3B12B
:1032200019E0026802F5C473144602F5C87902F584
:10323000C07204F5D074D7E7036803F5A0721C468A
:1032400003F5A87903F5A47304F5B074CCE704681A
:10325000CB6B5B1E2364CB68C3B3CC694FF0805E3D
:10326000ACB38D6BB5F1000BD1E9045643EA06030C
:1032700011D0D1E908C7D1F84080166825432B4307
:103280003B4C3B4343EA0C0343EA0B03264043EA2F
:103290000803334316E0D1E9087C166825432B4325
:1032A00043F63F7843EA0C033B4326EA08063343E0
:1032B0001360C36A734506D14B69082B03D11368A9
:1032C00043F0006313608B684A4644E026E0FFE762
:1032D0008C6B64B1D1E904570E6C106825433B43F5
:1032E000244F2B43384033430343136012E01668E6
:1032F000D1E9044526F03F0634432B4323431360B2
:10330000C06A704506D14869082803D1106840F0AA
:10331000006010608968C9F8001025E0CB69FBB136
:103320008C6B84B1D1E9087C0E6C1568274343EAA5
:103330000C03DFF83CC03B430CF13F0C334305EA80
:103340000C052B4307E01668D1E9084526F47C56A6
:1033500034432B432343136000688969816403E08D
:1033600008224FF0010A42655046BDE8F08F000088
:10337000C0C0FFF0C0FFFFF0F0B599B041F2883651
:10338000002401250094052101946A03CDE903542A
:103390000594D0020694CDE90742099432460E9076
:1033A0000B94CDE90F5411940D481294139402918B
:1033B0006946FDF766FF6FF0020768B910201494A4
:1033C00032468104CDE91710054814A9CDE91554FA
:1033D000FDF702FF002800D0384619B0F0BD00000C
:1033E0001C00012410B594B000210124009101912A
:1033F0002202CDE90341CDE9051053010792CDE941
:1034000008310B9152200E9111911091129113914C
:10341000029000F035FA10B1E01E14B010BD07485C
:1034200041F288326946FDF72CFF6FF0020418B9AB
:10343000FFF7A2FF0028F0D02046EEE71C00012491
:1034400010B500F045F80449884201D1002010BDB4
:103450004FF0FF3010BD00001740EF00F0B595B001
:103460000546EB27002301200093CDE901374603F1
:10347000CDE90303CDE905314FF44074CDE90746AA
:10348000200409930B93062141F28834CDE90D30D5
:10349000CDE910310D4869460F92224612931393DD
:1034A000FDF7EFFE6FF0040628B9084822462946CA
:1034B000FEF7AEF810B1304615B0F0BDFFF75CFF77
:1034C0000028F9D06FF00200F6E700001C0001248C
:1034D00030B595B0002001240090032361030190D2
:1034E000CDE903400590CA02CDE907010E9241F2F1
:1034F00088340B909F25CDE90F3011902246129011
:10350000694613900A480295FDF7BBFE084814A9C6
:103510002246FEF77DF89DF850209DF851009DF859
:10352000521015B0120442EA0020084330BD0000DA
:103530001C0001242DE9F0412DED028B002682B004
:103540004FF40045FDF752FB07463046FFF74AFFB0
:10355000554C2060FDF74AFB2168C01B19B153A0F0
:1035600000F04AFFFEE701465AA000F045FF634F16
:1035700000203854401CA842FBD3FDF737FB80469F
:103580005E482A46314600F057F92060FDF72EFBD1
:10359000A0EB0802DFED5A0A00EE102A2168B8EE0F
:1035A000401A80EE810A19B156A000F025FFFEE70F
:1035B000B7EEC00A5D4820218DED000B00F01CFF26
:1035C000FDF714FB80465A482A463146FFF746FF6E
:1035D0002060FDF70BFBA0EB0802DFED560A9FED24
:1035E000568A00EE102A2168B8EE400A80EE801A52
:1035F00021EE080A19B151A000F0FEFEFEE7B7EE79
:10360000C00A202156A08DED000B00F0F5FE4848C1
:1036100000217A5C435C9A4203D061A000F0ECFE8A
:10362000FEE7491CA8464145F3D366A000F0E4FE3E
:10363000694800F0E1FE694800F0DEFE684800F0ED
:10364000DBFE68A000F0D8FEFDF7D0FA00250746A3
:10365000374842463146FFF701FF6D1C2060FF2DC1
:1036600006F50046F4D9FDF7C1FAC21B216800EE49
:10367000102AF2EE000AB8EE400A80EE801A21EE1F
:10368000080A19B12DA000F0B7FEFEE7B7EEC00A98
:10369000082159A08DED000B00F0AEFE02B0002015
:1036A000BDEC028BBDE8F081000000240D0A20650E
:1036B00072617365206572726F7221212121212050
:1036C000204552524F5220434F44453A25640D0A3B
:1036D000000000000D0A5732355136342065726102
:1036E000736520737563636565642C2074696D650B
:1036F0003A202564206D730D0A0000001C00002490
:10370000000000470D0A7772697465206572726F58
:1037100072212121212120206572726F7220636F36
:1037200064653A2025640D0A00000000644F00081B
:103730001C8000240000003D00007A440D0A7265E0
:103740006164206572726F72212121212120206520
:1037500072726F7220636F64653A25640D0A00000F
:103760000D0A7265616420737563636565642C205E
:1037700073697A653A202564204B422C2074696D68
:10378000653A202564206D732C2073706565643A5A
:1037900020252E3266204D422F73200D0A00000096
:1037A0000D0A6461746120636865636B20657272E1
:1037B0006F722121212121706F733A2025640D0A37
:1037C000000000000D0A636865636B20706173730D
:1037D00021212121210D0A00C84D0008A84E000812
:1037E000344E00080D0A726561642073746172744E
:1037F0003E3E3E3E0D0A00000D0A72656164207374
:103800007563636565642C2073697A653A20256465
:10381000204D422C2074696D653A202564206D731B
:103820002C2073706565643A20252E3266204D4247
:103830002F73200D0A0000002DE9F041CBB2C3F533
:103840008074944200D914460D468F1806464FF4F2
:1038500080782946A2B2304600F060F818B16FF0C7
:103860000400BDE8F081254405F58070B842264487
:1038700001D97C1B00E04446BD42EAD30020F0E7BA
:10388000F0B599B041F28836002432460125009403
:10389000062001946903CDE9035405940694CDE90B
:1038A00007410994694611940D940B940E9402906B
:1038B0001948109412941394FDF7E3FC6FF001077C
:1038C000A0B90094280601940521CDE9035405947C
:1038D000324607941394CDE90E0511940E480B94CB
:1038E000129402916946FDF7CCFC10B1384619B02C
:1038F000F0BD0220149010214205CDE91721CDE939
:103900001504054814A93246FDF766FC0028EED0E0
:103910006FF00200EBE700001C000124F0B595B049
:1039200004463227002301200093CDE90137050228
:10393000CDE9030346030795CDE905314FF040700B
:103940000B93CDE90863CDE90D30CDE90F23119339
:1039500012931393FFF794FF18B16FF0010015B0A5
:10396000F0BD41F288360B4832466946FDF789FCC6
:103970006FF0040528B9074832462146FDF79EFE40
:1039800008B12846EBE7FFF7F7FC0028E7D06FF017
:103990000200E4E71C0001242DE9F0419846164698
:1039A0000F460446069D08E0681C06D0FDF71EF988
:1039B000A0EB0800A8420AD84DB12068006A384040
:1039C00000D00120B042EFD10020BDE8F0814FF4DB
:1039D00000702065606D40F0010060650120F4E733
:1039E000704700002DE9F047454D044689464FF0E9
:1039F000000A2868C04380070AD0414E283E30683C
:103A000020F080603060FDF7F1F80746B04608E02E
:103A10000120BDE8F08700BFFDF7E8F8C01B0228D1
:103A200067D8D8F800000001F6D4206829684FF460
:103A3000FE0721F47C313E0241EA00302860207A02
:103A4000A389B4F804C040022D4D2D495B1E227C91
:103A5000ACF1010C1035091DA0F5007080B2521EAA
:103A6000CCF3080C07EA034340EA0C00184306EACB
:103A70000262104328600868626920F0C0001043A9
:103A800008600A68A06922F0200202430A60281D2B
:103A90000A6822F010020A6002684FF6F873E469BF
:103AA0009A4342EAC40202600868B9F1000F40F08C
:103AB00010020A6011D00868B9F1010F11D040F46A
:103AC00000100860D8F80000444640F08060C8F854
:103AD0000000FDF78BF805460DE0086840F4002073
:103AE000EFE740F48010ECE7FDF780F8401B022878
:103AF00001D903208DE720680001F5D5504688E7FD
:103B0000284402582DE9F047454D044689464FF0B8
:103B1000000A2868C04380070AD0414E283E30681A
:103B200020F080503060FDF761F80746B04608E0AD
:103B30000120BDE8F08700BFFDF758F8C01B022840
:103B400067D8D8F800008000F6D4208829684FF4A0
:103B5000FE0721F07C713E0241EA00502860207A85
:103B6000A389B4F804C040022D4D2D495B1E227C70
:103B7000ACF1010C1835091DA0F5007080B2521E81
:103B8000CCF3080C07EA034340EA0C00184306EAAA
:103B90000262104328600868626920F440601043A4
:103BA00008600A68A06922F4007202430A60281DB6
:103BB0000A6822F480720A6002684FF6F873E469BA
:103BC0009A4342EAC40202600868B9F1000F40F467
:103BD00080720A6011D00868B9F1010F11D040F06D
:103BE00080700860D8F80000444640F08050C8F863
:103BF0000000FCF7FBFF05460DE0086840F480007C
:103C0000EFE740F40000ECE7FCF7F0FF401B022870
:103C100001D903208DE720688000F5D5504688E75C
:103C2000284402587047FCF7E7BF000030B59DB04C
:103C30004C216846FCF79EFB202113A8FCF79AFB59
:103C40000220FDF77FFD1D48016821F4404101601D
:103C50000168002401F440411B9101688904FCD5EE
:103C600002200A9028230990C20301210C25CDE9E6
:103C70000012CDE90B03CDE90D10CDE910540F90E2
:103C800068461294FEF78CFD08B172B6FEE740203C
:103C90001A9008230501CDE9163013ABCDE91805BC
:103CA0003F21032283E8160013A81146FEF768FBA4
:103CB000002801D072B6FEE71DB030BD184802588A
:103CC0002748F0B5274A016841F470010160106887
:103CD00000F00F00072804D2106820F00F00C01D6C
:103CE000106021490020204C10340B681F4D43F018
:103CF00001030B6020600B682B400B60136803F01E
:103D00000F03072B04D9136823F00F03DB1D136087
:103D1000154C174A1834174B261D371D2060124CBE
:103D2000154D28343060261D3860371D23603B1D3B
:103D300035601C1D3A60251D2E1D1860331D226044
:103D40002860326018600A6843F2D204064B0B4DBB
:103D500022F4802260330A6018602C60F0BD0000FD
:103D600088ED00E000200052004402587FEDF6EAA2
:103D700080020101000202020000FF010040005227
:103D800030B5416EB9B101680D4B03F108048A6882
:103D90008968C2F34262490F5D5C615C2D01B5FB2D
:103DA000F1F1A0F86A10995CA25C0901B1FBF2F193
:103DB000A0F8681030BD0121A0F86A10F8E70000F3
:103DC000A64D000890F82810C90706D00168C36AFC
:103DD0004A6822F400321A434A6090F82810890792
:103DE00006D50168036B4A6822F480321A434A60A0
:103DF00090F82810490706D50168436B4A6822F4F9
:103E000080221A434A6090F82810090706D50168F5
:103E1000836B4A6822F400421A434A6090F82810E3
:103E2000C90606D50168C36B8A6822F480521A431A
:103E30008A6090F82810890606D50168036C8A68A4
:103E400022F400521A438A6090F82810490611D5CE
:103E50000168436C4A6822F480121A434A60416C3C
:103E6000B1F5801F06D10168836C4A6822F4C00254
:103E70001A434A6090F82810090606D50168C26CFA
:103E8000486820F400201043486070472DE9F8434B
:103E900000250446C0F89050FCF7A8FE8046206834
:103EA00020266FF07E470068000713D500224346A6
:103EB00031042046009700F057FA58B1216851E8C4
:103EC000000F20F0800041E80002002AF6D1C4F87B
:103ED000886021E020680068400722D50022434620
:103EE0004FF480012046009700F03EFAC8B12068E8
:103EF00050E8001F21F4907140E80012002AF6D12A
:103F00002068083050E8001F21F0010140E800124D
:103F1000002AF5D1C4F88C60032084F88450BDE8F1
:103F2000F883C4F88860C4F88C60E56625670020D3
:103F300084F88450F3E7000010B5026852E8001FCF
:103F400021F4907142E80013002BF6D10E4B026869
:103F5000083252E8001F194042E80014002CF6D144
:103F6000C16E012908D1026852E8001F21F010013A
:103F700042E80013002BF6D100212022C0F88C204B
:103F8000C166416710BD0000FEFFFFEF2DE9F04361
:103F900004468068E24E87B0E24B2168D4E90427EA
:103FA000D4F81CC010430A68002547EA0C073843C0
:103FB000324002430A602068E268416821F44051BF
:103FC000114341602268A1699A4201D0206A0143ED
:103FD0009668DFF854C3D54FD54806EA0C060E4361
:103FE00096602168666ACA6A22F00F023243CA628A
:103FF0002268BA420ED1006800F0380018286FD04D
:104000007ADCB8B308286CD010286BD18BE0282854
:1040100068D18EE0C7498A4209D1006800F00700E4
:1040200006285FD2DFE800F0507D7F818385C2499A
:104030008A4209D1006800F0070006287BD2DFE839
:1040400000F0437072747678BC498A4209D10068E6
:1040500000F0070006286ED2DFE800F036636567DF
:10406000696BB7498A420BD1006800F00700062847
:1040700061D200E043E0DFE800F0275456585A5C74
:10408000B0498A4206D1006800F0380018284CD0A8
:10409000B7DD31E0AC498A4209D1006800F0070081
:1040A000062848D2DFE800F0103D3F414345A749CC
:1040B0008A420BD1006800F0070006283BD2DFE8F7
:1040C00000F0033032343638002035E0A0498A420F
:1040D00009D1006800F03800182826D091DD0BE0E7
:1040E00023E01EE027E09B498A420AD1006800F0E5
:1040F0003800182819D084DD202888D11CE0012040
:104100001AE09A4217D18A48001D006800F00700A3
:10411000062810D2DFE800F0030507090B0D022086
:104120000AE0042008E0082006E0102004E0202037
:1041300002E0402000E080208749DFF820829A4298
:10414000874A4FF400434FEA21174FF000064ED143
:1041500010281AD006DC022809D004280BD0082821
:104160007ED10DE020283ED0402879D13DE0FDF7FA
:1041700013FB014610E06846FDF720FB01990BE0B8
:1041800003A8FDF7BDFB049906E01068800605D57D
:104190001068C0F3C100C140002970D0606A676830
:1041A00038F8102007EB4703B1FBF2F0834257D8F1
:1041B000B0EB073F54D8002308461946FCF7A2F895
:1041C00002467808130E120243EA012110183A46FB
:1041D00071410023FCF796F8624AA0F540719142C4
:1041E0003ED821688FE03946D8E71946D6E7D4F89B
:1041F0001CC04FF6EF799C4546D1082819D005DC44
:1042000058B101280CD0042875D10DE0102815D024
:10421000202835D040286ED134E0FEF701FA01E0C5
:10422000FEF710FA014610E06846FDF7C7FA01995B
:104230000BE003A8FDF764FB049906E01068800614
:1042400004D51068C0F3C100C140C1B1636A6068A1
:1042500038F81330B1FBF3F1490001EB500100E0F5
:1042600049E0B1FBF0F0A0F11001494543D84FF609
:10427000F0732168C0F342021840104343E043E06A
:104280003946E3E71946E1E7082819D005DC58B1BB
:1042900001280CD004282ED10DE0102815D020289C
:1042A0002BD0402827D12AE0FEF7BAF901E0FEF72B
:1042B000C9F9014610E06846FDF780FA01990BE064
:1042C00003A8FDF71DFB049906E01068800604D5DD
:1042D0001068C0F3C100C140B1B1636A606838F8CA
:1042E0001330B1FBF3F101EB5001B1FBF0F0A0F1A1
:1042F0001001494505D9012506E03946EDE7194683
:10430000EBE7216880B2C8600120A4F86A00A4F835
:10431000680028466667A66707B0BDE8F08300001E
:10432000F369FFCF000C0058FFF4FF1100100140AB
:10433000544402580044004000480040004C0040F3
:10434000005000400014014000780040007C004014
:1043500000180140001C01400090D0038E4D000861
:1043600000440258FFFC0F002DE9F047994617461C
:104370000E460446089D4FF000082FE0681C2DD023
:10438000FCF734FCA0EB0900A84214D89DB12068CA
:104390000168490722D5C169C94309070DD4082519
:1043A00005622046FFF7C8FDC4F89050012084F84C
:1043B0008480BDE8F0870320FBE7C069C0430005A7
:1043C0000CD421684FF4006008622046FFF7B4FD6A
:1043D0002021C4F8901084F88480ECE72068C0693C
:1043E00036EA000004D00020B842C7D00020E0E741
:1043F0000120F9E7FEE700000FB4054B10B503A953
:10440000044A029800F0EAF810BC5DF814FB0000C2
:104410000D4D000818000024090700284FEA11611B
:1044200004DB00F1E02080F80014704700F00F007A
:1044300000F1E02080F8141D704702E008C8121F48
:1044400008C1002AFAD170477047002001E001C17D
:10445000121F002AFBD170472DE9FF5F82B00021B7
:10446000DDE90430020DDDF840B0034318D044F616
:104470001050A2F2FF3242431514119801281FD0A8
:10448000A5EB0B00401C5FEA000A4FF000064E4F00
:10449000DFF83891B046504615D5CAF1000413E054
:1044A000119801244AA3012801D16FEA0B01029857
:1044B000119AC0E90031C0E9024206B0BDE8F09FA0
:1044C000CBF10000DFE704460021404A491842EBE7
:1044D0000450CDE9001012E0E00707D032463B4619
:1044E00040464946FCF72DF88046894632463B4611
:1044F00010461946FCF725F806460F466410002CB6
:10450000EAD1DDE90401DDE90023BAF1000F06DAA2
:10451000FCF717F842464B46FCF713F805E0FCF7AA
:1045200082F842464B46FCF77EF804460E460022CF
:10453000284BFCF7FFF803D84FF0FF30014607E0A7
:104540000022254B20463146FBF754FFFCF7DAF8F2
:10455000102409E0002C0ADB0A220023FBF7D2FE1C
:10456000039B30321A55641E50EA0102F2D1641CDA
:10457000039AC4F111031444119A012A03D00122B1
:1045800008430DD10AE0084304D000204FF0110B7E
:10459000119072E7A3EB0B056D1E0DE05B4504DD8A
:1045A0004FF0000205F1010504E003DA4FF00002CC
:1045B000A5F10105002AECD002981199C0E9023159
:1045C000C0E9004579E70000000014400000F03F1A
:1045D000300000000000F0430000E03F2DE9FF4FF5
:1045E00095B09B468946064600250FE2252877D1DF
:1045F00000242746F84A0121059400E0044316F8F8
:10460000013F203B01FA03F01042F7D130782A280D
:1046100011D06FF02F033078A0F13002092A16D89C
:10462000059A44F0020402EB820203EB42021044BA
:10463000761C0590EFE759F8042B0592002A03DA5F
:10464000504244F40054059044F00204761C307843
:104650002E2816D116F8010F44F004042A280DD094
:104660006FF02F023078A0F13003092B09D807EB47
:10467000870302EB4303C718761CF3E759F8047B62
:10468000761C30786C280FD006DC4C2817D06828B0
:104690000DD06A2814D104E0742810D07A280FD1E4
:1046A0000DE044F400140AE044F4801401E044F402
:1046B00040147278824202D104F58014761C761C74
:1046C000307866280BD013DC582877D009DC002816
:1046D00075D04528F6D04628F4D047281AD19DE158
:1046E00018E0632835D0642879D0652812D195E187
:1046F000702873D008DC6728F1D069286FD06E2845
:104700000DD06F2806D1B5E073282CD0752875D050
:10471000782874D05A46179990476D1C75E1C4F3F8
:104720000250022809D003280DD0D9F8001004281F
:104730000DD00D6009F1040967E1D9F80010EA17FE
:10474000C1E90052F6E7D9F800100D80F2E70D70CC
:10475000F0E719F8041B8DF8001000208DF8010017
:10476000EA46012003E059F804AB4FF0FF3061073F
:104770004FF0000102D40DE008F101018846B94272
:104780000FDA8045F8DB1AF808100029F4D108E0A8
:1047900008F1010188468142FADB1AF80810002965
:1047A000F6D105985B46A0EB080721463846179AD4
:1047B00000F094FA284400EB080507E04DE029E1F9
:1047C0000DE01AF8010B5A4617999047B8F1010805
:1047D000F7D25B4621463846179A13E142E00A2297
:1047E0000092C4F302524FF0000A022A08D059F88E
:1047F00004CB032A4FEAEC710AD00DE029E02AE04D
:1048000009F1070121F00702F2E802C1914609E02F
:104810000FFA8CFC4FEAEC71042A03D14FFA8CFC9E
:104820004FEAEC71002907DA0A460021DCF1000C9E
:1048300061EB02012D2202E0220504D52B228DF826
:104840000420012203E0E20701D02022F7E790468E
:1048500059E00A2102E010220DE010214FF0000A79
:1048600000910BE010224FF0000A44F004040827E6
:10487000009203E008224FF0000A0092C4F30252B3
:10488000022A05D059F804CB0021032A08D009E0F8
:1048900009F1070121F00702F2E802C1914605E0A3
:1048A0001FFA8CFC042A01D10CF0FF0C4FF0000819
:1048B000220728D5702806D0009B83F0100353EA06
:1048C0000A0305D00EE040228DF80420012208E002
:1048D0005CEA010206D030228DF804208DF8050034
:1048E00002229046009B83F0080353EA0A030AD190
:1048F0005CEA010201D1620705D530228DF804205F
:104900004FF001087F1E582804D034A003900EA851
:1049100002900DE036A0F9E753466046009AFBF797
:10492000F1FC84460398825C0298401E029002705B
:104930005CEA0100F0D1029806A9081A00F1200AE9
:10494000600702D524F4803400E00127574502DDDA
:10495000A7EB0A0000E0002000EB0A010090059898
:104960004144401A0590E00306D45B462146179A5D
:10497000059800F0B3F90544002706E001A85A465F
:10498000C05D179990476D1C7F1C4745F6DBE0031F
:104990000CD55B462146179A059800F09FF905440F
:1049A00004E030205A46179990476D1C0099481E24
:1049B00000900029F5DC08E0029802995A46007838
:1049C000491C0291179990476D1CBAF10001AAF198
:1049D000010AF1DC65E100000928010030313233C1
:1049E000343536373839616263646566000000002B
:1049F0003031323334353637383941424344454615
:104A00000000000000F058F90544761C30780028BA
:104A10007FF4ECAD19B02846BDE8F08F620700D4F2
:104A2000062709F1070222F0070CFCE80223E14601
:104A300003F000485FEA080C02D00FF2702C0DE082
:104A40005FEA045C02D50FF2682C07E05FEAC47CE1
:104A500002D00FF2602C01E0AFF2700C4FF0FF3883
:104A600023F00043CDF850C065280CD006DC452863
:104A700009D046281DD047283DD13DE0662818D0F2
:104A800067287ED138E00021112F01DB112000E0E2
:104A9000781CCDE9000106A90EA8FFF7DDFCDDE9D1
:104AA0000F010E9A03910021009207F1010A04916F
:104AB0004DE04FF000400097CDE9011006A90EA887
:104AC000FFF7CAFCDDE90F0203920E9B1199002249
:104AD000DDF80CA00093049211B9791C00EB010AD7
:104AE000B7EB0A0004D4C0F1FF3007F1010A0490CB
:104AF000AAEB0700019044E0012F00DA0127002112
:104B0000112F01DD112000E03846CDE9000106A992
:104B10000EA8FFF7A1FCDDE90F010E9A0391002119
:104B200004910092BA4621070CD40399514500DA4A
:104B30008A46BAF1010F05DD009AAAF10101515C24
:104B4000302908D0B84202DA10F1040F06DA012148
:104B5000CDE9011015E0AAF10101E9E7002805DC23
:104B6000049901440491AAEB000102E0411C514563
:104B700000DD8A460499401A401C01904FF0004025
:104B80000290200704D40198504501DBCDF8048041
:104B900000208DF84F0002980DF14F07B0F1004F43
:104BA00025D02B200E9002984FF0020800280CDA36
:104BB000404202902D200E9007E00A210298FBF758
:104BC000E4FB3031029007F8011DB8F10001A8F1B3
:104BD0000108F2DC02980028EFD1791E0E980870C7
:104BE000307800F0200040F0450007F8020D12A8D0
:104BF000C01B00F107081498007800B1012000EBF9
:104C00000A01019801EBE07105984144401A401EE9
:104C10000590E00306D45B462146179A059800F0FC
:104C20005DF805441498007818B15A4617999047D2
:104C30006D1CE00324D55B462146179A059800F0C9
:104C40004DF805441CE00498002807DBDDE903016A
:104C5000884203DD0098405C179901E017993020E5
:104C60005A469047049805F10105401C04900198AC
:104C7000401E019004D12E205A46179990476D1C72
:104C8000BAF10001AAF1010ADDDC05E017F8010B19
:104C90005A46179990476D1CB8F10001A8F1010818
:104CA000F4DC5B462146179A0598ABE62D00000020
:104CB0002B000000200000002DE9F04104460025F3
:104CC0001E461746880404D405E039462020B04724
:104CD0006D1C641EF9D52846BDE8F0812DE9F04130
:104CE000044600251E469046C80301D5302700E043
:104CF0002027880404D505E041463846B0476D1C9E
:104D0000641EF9D52846BDE8F081000013B50448BB
:104D1000642301226946FEF7D1F800981CBD00000B
:104D2000780001241FB5FBF76FFF00240094019465
:104D300002940394FBF7E4FF01208DF80C001F217F
:104D40008DF8081087228DF809208DF80D008DF858
:104D5000000068468DF80A408DF80E408DF801403D
:104D600001948DF80B408DF80F40FBF79BFF04205A
:104D7000FBF7D4FFFEF75AFFFEF7FAF8FEF726F925
:104D8000FEF76CF9FEF75CFBFEF7D4FBFEE70100D3
:104D900002000400060008000A000C0010002000B9
:104DA0004000800000010101010307010000080428
:104DB00002040801010100000000010203040102D5
:104DC00003040607080900000D0A2A2A2A2A2A2AAB
:104DD0002A2A2A2A2A2A2A2A2A2A2A2A2A2A2A2A33
:104DE0002A2A2A2A2A2A2A2A2A2A2A2A2A2A2A2A23
:104DF0002A2A2A2A2A2A2A2A2A2A2A2A2A2A2A2A13
:104E00002A2A2A2A2A2A2A2A2A2A2A2A2A2A2A2A02
:104E10002A2A2A2A2A2A2A2A2A2A2A2A2A2A2A2AF2
:104E20002A2A2A2A2A2A2A2A2A2A2A2A2A2A2A0DFF
:104E30000A0000000D0A4E6578742C2072656164CA
:104E40002074686520656E7469726520666C617394
:104E500068206461746120746F20746573742074B9
:104E600068652073706565642E20546865207370D2
:104E7000656564206572726F72206F627461696E1D
:104E8000656420696E207468697320776179206990
:104E9000732072656C61746976656C7920736D61DD
:104EA0006C6C2E0D0A0000000D0A496E20746865B6
:104EB0002061626F766520746573742C2074686558
:104EC0002064617461207265616420697320726579
:104ED0006C61746976656C7920736D616C6C2061AE
:104EE0006E642074616B657320612073686F7274E7
:104EF0002074696D652E20496E206164646974694F
:104F00006F6E2C20746865206D696E696D756D20FB
:104F1000756E6974206F66206D6561737572656D5D
:104F2000656E74206973206D732C20616E6420742B
:104F300068652063616C63756C617465642072657B
:104F40006164696E672073706565642068617320B1
:104F500061206C61726765206572726F722E0D0A36
:104F6000000000000D0A7772697465207375636331
:104F70006565642C20646174612073697A653A20E8
:104F80002564204B422C2074696D653A20256420ED
:104F90006D732C2073706565643A20252E3266206F
:104FA0004B422F730D0A0000C84F00080000002478
:104FB0001C0000003A440008E44F00081C000024D4
:104FC000F40801004A44000800000000010000004D
:104FD00010000000000000000090D0030090D003FB
:044FE00000000000CD
:04000005080002CD20
:00000001FF
